:1000000012C02CC02BC02AC029C028C027C026C0BF
:1000100025C024C023C022C021C020C01FC01EC0D4
:100020001DC01CC01BC011241FBECFE5D4E0DEBF25
:10003000CDBF10E0A0E6B0E0E8EBFEE102C0059025
:100040000D92A43FB107D9F720E0A4EFB0E001C0C2
:100050001D92A53FB207E1F736D12CCFD1CFE0E614
:10006000F0E021E080E0919192BB9AE19A95F1F75E
:1000700000C090B3907F903E71F090B3907F903D20
:1000800019F481E0820F08C090B3907F903B21F477
:1000900082E0820F01C0822F2D5F2D3021F708955D
:1000A000CF92DF92EF92FF92CF93DF93EC016A0140
:1000B0007B01CB01BA01A9DC9B01772324F4222721
:1000C0003327261B370B39832883072E000C880B18
:1000D000990BCEDC9B01AC01C701B6012DDC20E001
:1000E00030E040E251E474DD90DC9B01772324F49E
:1000F00022273327261B370B3B832A83DF91CF919F
:10010000FF90EF90DF90CF900895CF92DF92EF9223
:10011000FF920F931F93CF93DF93C22ED32EE42E23
:10012000F52E062F172FD82FC92F75DA84E419DA88
:100130002FE78FE492E1215080409040E1F700C02A
:1001400000002C2D3D2D4E2D5F2D602F712F8D2FFA
:100150009C2F61DA8EEB05DA4DDAC82F4BDA682F67
:1001600070E0762F66276C0F711D072E000C880B30
:10017000990B7EDC20E030E040E85DE329DDDF9193
:10018000CF911F910F91FF90EF90DF90CF90089546
:1001900094B3936094BB94B39C6394BB662311F0B7
:1001A000A89A01C0A898A99A95B3937C95BB83FDA2
:1001B000AD9A82FDAC9A81FDAB9A80FDAA9A8DE042
:1001C0008A95F1F70000A9980895CF93DF93C82F7F
:1001D000D62F82958F70DCDF6D2F8C2FD9DFDF91CA
:1001E000CF9108958FEC97E00197F1F700C00000E0
:1001F00060E082E0CDDF8FEC97E00197F1F700C07F
:10020000000060E088E2E1DF8FEC97E00197F1F712
:1002100000C0000060E081E0D8DF8FEC97E001973C
:10022000F1F700C0000060E086E0CFDF8FEC97E0E0
:100230000197F1F700C0000060E08CE0C6DF089590
:10024000EFECF7E03197F1F700C0000060E08C6060
:10025000BCDF0895EFECF7E03197F1F700C0000044
:1002600060E08860B2DF08958FEC97E00197F1F7C6
:1002700000C0000060E081E0A8DF0895EFECF7E047
:100280003197F1F700C00000F0E48F9F600D11245A
:10029000862F60E0806899DF0895CF93DF93FC019B
:1002A0002081222369F0EC018FEC97E00197F1F7B0
:1002B00000C0000061E0899188DF88818111F4CF5E
:1002C000DF91CF910895CF93DF93CDB7DEB7CF57AE
:1002D000D1090FB6F894DEBF0FBECDBF81B38F60DA
:1002E00081BB8F9880EF82BB2AE12A95F1F700C08D
:1002F000BB9ABC9ABD9ABE9ABF9AE199FECF80E0A4
:1003000090E0AEDDAA966CAF7DAF8EAF9FAFAA979F
:10031000673E73408105910550F087EE93E0A0E0C1
:10032000B0E0AA968CAF9DAFAEAFBFAFAA97E199F0
:10033000FECF84E090E094DDE4966CAF7DAF8EAFAD
:100340009FAFE497633671058105910550F023E670
:1003500030E040E050E0E4962CAF3DAF4EAF5FAFF1
:10036000E497E199FECF88E090E07ADD9B01AC0153
:100370002F5F3F4F4F4F5F4FEC962CAF3DAF4EAFCF
:100380005FAFEC97273E33404105510550F027EE13
:1003900033E040E050E0EC962CAF3DAF4EAF5FAFA6
:1003A000EC97E199FECFEC964CAD5DAD6EAD7FADB7
:1003B000EC9788E090E066DD1A821982FE013396A0
:1003C00084E0DF011D928A95E9F71A8A198A8EE086
:1003D0007096DF01282F1D922A95E9F71AA219A21B
:1003E0007096DF01282F1D922A95E9F71AAA19AAFB
:1003F0007096DF011D928A95E9F723961FAE1EAE17
:10040000239725961FAE1EAE259727961FAE1EAECC
:10041000279729961FAE1EAE29972B961FAE1EAEAC
:100420002B972C961FAE2C97A0961FAE1EAEA097B2
:10043000C12CD12CEE961FAE1EAEEE97E0961FAEED
:100440001EAEE097EE24EA94FE2C3E01B7E06B0E60
:10045000711CE5961FAEE597E6961FAEE697B69738
:100460006E96FFAFEEAF6E976D962FAC6D976E9652
:100470003FAC6E97822D272C832C362C482EC798A4
:10048000E0962EAD3FADE097232B09F066C7C698E6
:10049000C49A8FE59AEE0197F1F700C00000EE963E
:1004A000AEADBFADEE97AB2B09F01FC2EDB7FEB7F7
:1004B000E896FFAFEEAFE89795DE8FE19EE40197F7
:1004C000F1F700C0000080E0BBDEAFE1BEE41197B1
:1004D000F1F700C0000084E0BDDEEFE1FEE43197FB
:1004E000F1F700C0000088E066968FAF66972DB7E1
:1004F0003EB7205431090FB6F8943EBF0FBE2DBF52
:100500000DB71EB70F5F1F4F82E070D7BE016B5A49
:100510007F4FC8019DD98FE59AEE0197F1F700C092
:1005200000004AE0BE016B5B7F4FA8968EAD9FAD89
:10053000A89765DC4AE0BE01675B7F4FE2968EAD0F
:100540009FADE2975CDC4AE0BE016F5B7F4FEA96AD
:100550008EAD9FADEA9753DC5801A4961FAE1EAE38
:10056000A497DE01D1966896BFAFAEAF68970DE253
:1005700010E0FE01B1966A96FFAFEEAF6A979E015A
:100580002F5E3F4F6C963FAF2EAF6C97EE96FFAE4F
:10059000EEAEEE97F82C842CA3969FACA397911007
:1005A00007C065E081E06ADE84E690E076DE13C095
:1005B00031E0931207C065E081E060DE8CE690E0F8
:1005C0006CDE09C042E0941206C065E081E056DEB0
:1005D00084E690E062DE2B968FAD2B97811107C0E9
:1005E0006FE04CDECE01875B9F4F57DE07C06EE0A9
:1005F00080E044DECE01875B9F4F4FDE65E080E008
:100600003DDE84E790E049DE60E081E037DECE0148
:100610008B5B9F4F42DE60E080E030DECE018F5B7F
:100620009F4F3BDED5012C9111963C91119712966C
:100630004C91129713965C91139714966C911497A2
:1006400015967C91159716968C91169717969C91F6
:10065000B8E0AB0EB11C59DDAE966CAF7DAF8EAF7E
:100660009FAFAE974AE0BE01645B7F4FA4968EAD0C
:100670009FADA49784DBAE964CAD5DAD6EAD7FAD06
:10068000AE97CE018F5A9F4F0BDD63964EAC5FAC99
:1006900063974114510439F465968EAD9FAD65970B
:1006A000892B09F401C191104EC020E030E0A9016E
:1006B000AE966CAD7DAD8EAD9FADAE97A2D98823C1
:1006C00054F46C96EEADFFAD6C9701900020E9F705
:1006D0003197118300834AE0BE01645B7F4FC20102
:1006E0004EDBBE01645B7F4FCE0141963DDB6C96D5
:1006F000EEADFFAD6C9701900020E9F731972EE247
:1007000030E0318320834AE0BE01645B7F4F659611
:100710008EAD9FAD659733DBBE01645B7F4FCE012D
:10072000419622DB6C96EEADFFAD6C9701900020F8
:10073000E9F7319747E253E45183408380E290E048
:1007400093838283A4C091E099124EC020E030E0F0
:10075000A901AE966CAD7DAD8EAD9FADAE9751D972
:10076000882354F46A96EEADFFAD6A97019000209D
:10077000E9F73197118300834AE0BE01645B7F4F44
:10078000C201FDDABE01645B7F4FCE018196ECDAD7
:100790006A96EEADFFAD6A9701900020E9F73197B8
:1007A000AEE2B0E0B183A0834AE0BE01645B7F4F5C
:1007B00065968EAD9FAD6597E2DABE01645B7F4FB3
:1007C000CE018196D1DA6A96EEADFFAD6A970190BF
:1007D0000020E9F7319727E233E43183208340E2B8
:1007E00050E05383428353C052E0951250C020E042
:1007F00030E0A901AE966CAD7DAD8EAD9FADAE97EC
:1008000000D9882354F46896EEADFFAD6897019047
:100810000020E9F73197118300834AE0BE01645B51
:100820007F4F63968EAD9FAD6397A9DABE01645B7F
:100830007F4FCE01C19698DA6896EEADFFAD68970E
:1008400001900020E9F731978EE290E09183808358
:100850004AE0BE01645B7F4F65968EAD9FAD6597A4
:100860008EDABE01645B7F4FCE01C1967DDA689659
:10087000EEADFFAD689701900020E9F73197A7E250
:10088000B3E4B183A08320E230E0338322838FE39B
:100890009CE90197F1F700C00000E6DCAFE1BEE49F
:1008A0001197F1F700C00000A496EEADFFADA4973C
:1008B0003196A496FFAFEEAFA497339709F06CCEB4
:1008C000482C8F2CEE96EEACFFACEE97E8962EAD52
:1008D0003FADE8970FB6F8943EBF0FBE2DBF41E085
:1008E00050E0EE965FAF4EAFEE97BEDC8FE59AEE2E
:1008F0000197F1F700C00000A12CB12C91E0AB965C
:100900009FAFAB97E7961FAEE797532C342C422C42
:10091000282CA0968EAC9FACA09769E080E0AEDC5E
:10092000CE014196BADC69E081E0A8DCCE01819677
:10093000B4DC89A9811106C060E0A0DC8BE790E0FF
:10094000ACDC06C060E080E099DCCE01C196A5DC9D
:1009500060E081E093DC81E890E09FDCCE010196CD
:10096000DDD9A6966CAF7DAF8EAF9FAFA69761E045
:1009700081E084DCCE01019690DCAFEFEA16FA0646
:1009800039F461E081E07ADC83E890E086DC30C015
:10099000E114F10439F462E081E070DC84E890E075
:1009A0007CDC26C0B1E0EB16F10439F463E081E0B1
:1009B00065DC85E890E071DC1BC0E2E0EE16F10436
:1009C00039F464E081E05ADC86E890E066DC10C02F
:1009D000F3E0EF16F10461F42FEF30E742E021502D
:1009E00030404040E1F700C00000CC24C394D12C3B
:1009F0008981882391F08A81882349F08B8188231B
:100A000049F08C818111A4C003E010E00CC001E02A
:100A100010E009C002E010E006C0E5960FADE597D2
:100A2000E6961FADE6971BDB8B3061F418DB8B304D
:100A3000E9F3FE01E00FF11F80E381835FEFE51A28
:100A4000F50A86C00CDB813061F409DB8130E9F303
:100A5000FE01E00FF11F81E381838FEFE81AF80AAE
:100A600077C0FDDA823061F4FADA8230E9F3FE0110
:100A7000E00FF11F82E381839FEFE91AF90A68C052
:100A8000EEDA833061F4EBDA8330E9F3FE01E00F54
:100A9000F11F83E38183AFEFEA1AFA0A59C0DFDA64
:100AA000843061F4DCDA8430E9F3FE01E00FF11FF9
:100AB00084E38183BFEFEB1AFB0A4AC0D0DA8530AA
:100AC00061F4CDDA8530E9F3FE01E00FF11F85E333
:100AD0008183EFEFEE1AFE0A3BC0C1DA863061F483
:100AE000BEDA8630E9F3FE01E00FF11F86E3818371
:100AF000FFEFEF1AFF0A2CC0B2DA873061F4AFDAE9
:100B00008730E9F3FE01E00FF11F87E381832FEFC8
:100B1000E21AF20A1DC0A3DA883061F4A0DA883044
:100B2000E9F3FE01E00FF11F88E381833FEFE31A51
:100B3000F30A0EC094DA893059F491DA8930E9F376
:100B4000FE01E00FF11F89E381834FEFE41AF40AFD
:100B500051E0C516D10409F0C2C38C81882309F481
:100B6000BEC3E199FECF8CE090E07AD9A4962EAD79
:100B70003FADA497032E000C440B550BA6962CAF4B
:100B80003DAF4EAF5FAFA697621773078407950717
:100B900009F00FC3E4968CAD9DADAEADBFADE4974B
:100BA0000196A11DB11DE4968CAF9DAFAEAFBFAF56
:100BB000E497E199FECFE4964CAD5DAD6EAD7FADAF
:100BC000E49784E090E05ED94FDBAFE5BAEE119791
:100BD000F1F700C00000812C912CC258DF4FB98280
:100BE000A882CE57D04086E0F30111928A95E9F7AA
:100BF00060E080E043DB88E890E04FDB60E081E08C
:100C00003DDB8FE890E049DB2ADA8C3009F003C243
:100C100026DA8C30E9F328DB8FE59AEE0197F1F7BD
:100C200000C000000F2EFCEBEF2EF2E0FF2EF02DA7
:100C3000CC24CA94DD24DA940F2EF0E3BF2EF02DDD
:100C40000F2EF1E3AF2EF02D66E080E017DB80EA97
:100C500090E023DB60E081E011DB89EA90E01DDBBE
:100C600060E080E00BDB81E890E017DB852D942DC0
:100C700055D8A2966CAF7DAF8EAF9FAFA29761E0C3
:100C800080E0FCDA852D942D08DB8F818823B1F07C
:100C90008885882349F08985882369F08A858111B0
:100CA000A2C003E010E00CC0AB960FADAB97E79687
:100CB0001FADE79705C002E010E002C000E010E0C1
:100CC000CED98B3059F4CBD98B30E9F3F301E00F57
:100CD000F11FB0829FEFC91AD90A85C0C0D98130EF
:100CE00059F4BDD98130E9F3F301E00FF11FA0827F
:100CF000AFEFCA1ADA0A77C0B2D9823061F4AFD93D
:100D00008230E9F3F301E00FF11FB2E3B083EFEFBC
:100D1000CE1ADE0A68C0A3D9833061F4A0D983302B
:100D2000E9F3F301E00FF11F23E320833FEFC31A40
:100D3000D30A59C094D9843061F491D98430E9F34D
:100D4000F301E00FF11F44E340835FEFC51AD50ABA
:100D50004AC085D9853061F482D98530E9F3F30141
:100D6000E00FF11F85E380839FEFC91AD90A3BC0CA
:100D700076D9863061F473D98630E9F3F301E00F58
:100D8000F11FA6E3A083BFEFCB1ADB0A2CC067D903
:100D9000873061F464D98730E9F3F301E00FF11F84
:100DA00027E320833FEFC31AD30A1DC058D98830E8
:100DB00061F455D98830E9F3F301E00FF11F88E3BE
:100DC00080834FEFC41AD40A0EC049D9893059F430
:100DD00046D98930E9F3F301E00FF11F89E38083FD
:100DE0005FEFC51AD50A3BD98A3071F538D98A30F8
:100DF000E9F38A85882341F1E199FECFA2964CADB3
:100E00005DAD6EAD7FADA2978CE090E03BD82CDA63
:100E10008FE59AEE0197F1F700C0000005E610E0BB
:100E200065E081E02BDA88EB90E037DAC59AAFE530
:100E3000BAEE1197F1F700C000000150110981F7D7
:100E4000C598812C912CE0C00AD9813009F063C08B
:100E500006D98C30E9F38A85882309F45CC0C12C5B
:100E6000D12C76016894C4F8E199FECFC601F8D779
:100E7000A2962CAD3DAD4EAD5FADA29726173707BC
:100E800048075907C9F51C2DE199FECF6FEF812F57
:100E900090E0EBD781E0810FE199FECF6FEF90E01A
:100EA000E4D782E0810FE199FECF6FEF90E0DDD7CC
:100EB00083E0810FE199FECF6FEF90E0D6D7D4D9D0
:100EC0008FE59AEE0197F1F700C0000005E610E00B
:100ED00064E081E0D3D980EC90E0DFD9C59AAFE53A
:100EE000BAEE1197F1F700C000000150110981F727
:100EF000C598812C912C88C0B4E0CB0ED11CE11C8C
:100F0000F11CE4E8CE16D104E104F10409F0ACCF01
:100F1000812C912C79C0A3D88B3009F047C09FD881
:100F20008A30E9F38A85882309F440C0C12CD12C8A
:100F300076016894C4F8E199FECFC60189D78F3F46
:100F400039F5E199FECFA2964CAD5DAD6EAD7FADAA
:100F5000A297C60197D788D98FE59AEE0197F1F746
:100F600000C0000005E610E065E081E087D988EC6C
:100F700090E093D9C59AAFE5BAEE1197F1F700C0AA
:100F800000000150110981F7C598812C912C3CC0BB
:100F9000B4E0CB0ED11CE11CF11CE4E8CE16D10468
:100FA000E104F10441F6812C912C2EC058D88C30EC
:100FB00001F555D88C30E9F3F301EC0DFD1D1082DD
:100FC000F1E0CF1AD108C69A8FE59AEE0197F1F7B2
:100FD00000C00000C69AAFE5BAEE1197F1F700C065
:100FE0000000C69841D9EFE5FAEE3197F1F700C05D
:100FF00000008FE19EE40197F1F700C0000091E04E
:10100000E91AF10809F020CE2FD9AFE5BAEE119711
:10101000F1F700C0000023D88A3009F0B3C01FD810
:101020008A30E9F36894EE24E4F8F12CC12CD12C39
:101030000F2EF6E09F2EF02D6894882482F8F3019D
:10104000292D11922A95E9F76E96AEADBFAD6E9738
:10105000E82D1D92EA95E9F7E199FECF0E2D1F2D9F
:10106000C701F6D68F3F09F44FC0FFEFCF1ADF0A52
:10107000E199FECF802F912FF3D62AE0452D542DF4
:101080009DD6C601A0E0B0E02AE0432D522DBC0160
:10109000CD0194D6E9D88FE59AEE0197F1F700C01B
:1010A00000000CEB12E060E080E0E8D88EEC90E00D
:1010B000F4D863E080E0E2D8832D922DEED8692D3C
:1010C00080E0DCD882ED90E0E8D860E081E0D6D81E
:1010D00089ED90E0E2D8692D81E0D0D8852D942D5E
:1010E000DCD8BDD78A3021F4BAD78A30E9F30CC0F6
:1010F000B6D78C3049F0AFE5BAEE1197F1F700C0E2
:1011000000000150110979F6B4E0EB0EF11CE4E89F
:10111000EE16F10409F093CFA7D88FE59AEE019768
:10112000F1F700C0000009EC10E04AE0632D722DD9
:10113000C60125D660E080E0A1D88FED90E0ADD863
:1011400067E080E09BD8832D922DA7D86BE080E0EC
:1011500095D885EE90E0A1D8C59AAFE5BAEE119783
:10116000F1F700C0000001501109F9F6C5987CD8CC
:10117000EFE5FAEE3197F1F700C000008824839480
:10118000912C31CD8FE59AEE0197F1F700C0000068
:101190009FEF891A990AA8EC8A16910408F423CDC6
:1011A000C258DF4FA880B980CE57D040882483949E
:1011B000912C00E110E0E199FECFC80151D6A6962E
:1011C0002CAD3DAD4EAD5FADA6972617370748074E
:1011D000590709F052C0822C242C432C352CAA9696
:1011E0008CAD9DADAEADBFADAA970196A11DB11D51
:1011F000AA968CAF9DAFAEAFBFAFAA97E199FECFD5
:10120000AA964CAD5DAD6EAD7FADAA9780E090E043
:1012100039D62AD8AFE5BAEE1197F1F700C0000031
:1012200009EC10E0C39A64E081E028D88BEE90E0EE
:1012300034D8C59AEFE5FAEE3197F1F700C0000017
:101240000150110979F786E0FE013196DF01282F60
:101250001D922A95E9F7C398C598DF011D928A95DA
:10126000E9F7E2E0F0E0A096FFAFEEAFA097C12C67
:10127000D12CEE24EA94FE2CAFC00C5F1F4F043833
:10128000110509F098CFFE01319686E0DF011D922D
:101290008A95E9F78114910449F0B1E08B16910425
:1012A00041F0E2E08E16910451F489C0A12CB12CDA
:1012B00006C0E5968FACE597E6969FACE697D4D747
:1012C0008FE59AEE0197F1F700C00000E596CFACEC
:1012D000E597E696DFACE697EE24EA94FE2CBFD6BF
:1012E0008C3019F5BCD68C30E9F389818823E9F07C
:1012F000FE01EE0DFF1D118291E0E91AF108C69A78
:10130000AFE5BAEE1197F1F700C00000C69AEFE51D
:10131000FAEE3197F1F700C00000C698A5D78FE527
:101320009AEE0197F1F700C00000AFE1BEE411971B
:10133000F1F700C00000BFEFAB1ABB0AECEBAE1632
:10134000E2E0BE0608F4E9CAA0969FAE8EAEA09772
:10135000822C242C432C352C3FC0E0962EAD3FAD83
:10136000E09712161306C4F521303105D1F4C49864
:101370008FE59AEE0197F1F700C000008CE291E052
:10138000C79AAFE1BEE41197F1F700C000000197E2
:10139000B9F7C69AEFE1FEE43197F1F700C000001B
:1013A0001BC0E0962EAD3FADE09724363105A1F489
:1013B00042E050E0E0965FAF4EAFE0970DC0A096E0
:1013C0009FAE8EAEA097822C242C432C352CC12CA2
:1013D000D12CEE24EA94FE2CE0968EAD9FADE097E2
:1013E0000196E0969FAF8EAFE09749C88093F400D6
:1013F00048B321E030E0B90102C0660F771F8A953B
:10140000E2F7CB01842B88BB87B30090F40002C0C5
:10141000220F331F0A94E2F7282B27BB089598B3B5
:1014200021E030E0A9010090F40002C0440F551FF4
:101430000A94E2F7842F8095892388BB47B3C901BA
:101440000090F40002C0880F991F0A94E2F7842BE1
:1014500087BB8FEB93E00197F1F700C0000097B3D3
:10146000A9010090F40002C0440F551F0A94E2F74E
:10147000842F8095892387BB90EA9A95F1F786B3EC
:101480000090F40002C0220F331F0A94E2F7822377
:10149000E3E3F3E03197F1F700C00000089580FF27
:1014A00030C0F89438B381E090E0AC010090F400D3
:1014B00002C0440F551F0A94E2F7242F20952323DE
:1014C00028BB47B39C010090F40002C0220F331FD9
:1014D0000A94E2F7242B27BB2AE12A95F1F700C0F2
:1014E000789427B30090F40002C0880F991F0A94E3
:1014F000E2F78095822387BB82E98A95F1F700C0E5
:101500000895F89438B381E090E0AC010090F400C5
:1015100002C0440F551F0A94E2F7242F209523237D
:1015200028BB47B39C010090F40002C0220F331F78
:101530000A94E2F7242B27BB2DEA2A95F1F7000045
:1015400027B30090F40002C0880F991F0A94E2F7B5
:101550008095822387BB78948DE08A95F1F700000F
:101560000895CF93DF93D82FC8E08D2F817097DF38
:10157000D695C150D1F7DF91CF910895F89438B343
:1015800081E090E0AC010090F40002C0440F551FD0
:101590000A94E2F7242F2095232328BB47B39C010C
:1015A0000090F40002C0220F331F0A94E2F7242BAC
:1015B00027BB28E02A95F1F727B30090F40002C07A
:1015C000880F991F0A94E2F78095822387BB8AE1EE
:1015D0008A95F1F700C086B390E00090F40002C055
:1015E000959587950A94E2F78170789498E79A9593
:1015F000F1F70895CF93DF93D8E0C0E0BFDF20E894
:10160000829FC0011124C695C82BD150B9F78C2FE9
:10161000DF91CF910895BF92CF92DF92EF92FF9228
:101620000F931F93CF93DF93C22FE32EF42E052F3A
:10163000162FD72FB82EC92EF2DE85E592DF6894DB
:10164000DD24D6F88C2F81702ADF2C2F3E2D4F2DD4
:10165000502F612F7D2F8B2D9C2D01E037D3C22F72
:10166000E32EF42E052F162FD72FB82EC92EDA947D
:10167000D110E8CFDF91CF911F910F91FF90EF90A4
:10168000DF90CF90BF9008959F92AF92BF92CF927C
:10169000DF92EF92FF920F931F93CF93DF93922EDF
:1016A000A32EB42EC52ED62EE72EF82E192FD02F0E
:1016B000A0E0B0E0F0E0E0E0CCE8292D3A2D4B2DA1
:1016C0005C2D6D2D7E2D8F2D912F0A2FFFD288E05E
:1016D00090E0322F3E27E695269530FDEC270197C6
:1016E000C1F7FF5F1896FD1740F38E2FDF91CF9162
:1016F0001F910F91FF90EF90DF90CF90BF90AF9030
:101700009F9008952F923F924F925F926F927F9297
:101710008F929F92AF92BF92CF92DF92EF92FF9201
:101720000F931F93CF93DF93CDB7DEB729970FB6F3
:10173000F894DEBF0FBECDBF29833A834B835C8311
:101740006D837E83382E9F83580169DE80EF09DF29
:10175000E12CF12C412C81E0512C612C712C812C3D
:10176000912CC12CD12C10E022242394898706DFF0
:10177000888704DF9885913019F4813001F547C0DE
:10178000E885E1111CC081111AC0F5018081F9853D
:101790008F1781F08F1780F029813A814B815C810E
:1017A0006D817E81832D9F810E2D90D220FD06C0FC
:1017B0004F2E05C0288603C0498401C0288628858D
:1017C00030E040E050E060E070E080E090E00E2D1E
:1017D00062D2522A632A742A852A962AC72AD82ACC
:1017E000192B88855CDE89858F5F89879FEFE91AD1
:1017F000F90A813409F0BBCFF5014082252D362D41
:10180000472D582D692D7C2D8D2D912F08C021E05D
:1018100030E040E050E060E070E080E090E0299649
:101820000FB6F894DEBF0FBECDBFDF91CF911F91F1
:101830000F91FF90EF90DF90CF90BF90AF909F906F
:101840008F907F906F905F904F903F902F90089572
:101850002F923F924F925F926F927F928F929F92C0
:10186000AF92BF92CF92DF92EF92FF920F931F93AE
:10187000CF93DF931F92CDB7DEB74C015B01198286
:10188000312C212C412C512C612C712CC12CD12CB0
:10189000E12CF12C01C0212C8E010F5F1F4F242D54
:1018A000352D462D572D6C2D7D2D8E2D9F2D2ADF0C
:1018B000422E532E642E752EC62ED72EE82EF92ECC
:1018C000A1E020D2B1F008E0DFDE811110C0F40108
:1018D00088E0389EE00DF11D112440825182628221
:1018E0007382C482D582E682F782339408C023943F
:1018F00001C02394E3E0E21558F02110CDCF898197
:10190000882321F0F5018081381628F2F501308214
:101910000F90DF91CF911F910F91FF90EF90DF908B
:10192000CF90BF90AF909F908F907F906F905F907F
:101930004F903F902F9008955058BB27AA270ED064
:101940000DC1FED030F003D120F031F49F3F11F4EF
:101950001EF4F3C00EF4E095E7FBE9C0E92F0FD1C8
:1019600080F3BA17620773078407950718F071F4BC
:101970009EF527C10EF4E0950B2EBA2FA02D0B017A
:10198000B90190010C01CA01A0011124FF27591BC4
:1019900099F0593F50F4503E68F11A16F040A22FCA
:1019A000232F342F4427585FF3CF4695379527953B
:1019B000A795F0405395C9F77EF41F16BA0B620B3A
:1019C000730B840BBAF09150A1F0FF0FBB1F661F81
:1019D000771F881FC2F70EC0BA0F621F731F841FC4
:1019E00048F4879577956795B795F7959E3F08F0EA
:1019F000B3CF9395880F08F09927EE0F97958795A9
:101A0000089571D008F481E0089504D06894B1116C
:101A1000D9C00895BCD088F09F5790F0B92F99276E
:101A2000B751A0F0D1F0660F771F881F991F1AF0E9
:101A3000BA95C9F712C0B13081F0C3D0B1E00895B2
:101A4000C0C0672F782F8827B85F39F0B93FCCF333
:101A5000869577956795B395D9F73EF490958095DF
:101A6000709561957F4F8F4F9F4F0895E89409C0FF
:101A700097FB3EF490958095709561957F4F8F4FC1
:101A80009F4F9923A9F0F92F96E9BB279395F695D7
:101A9000879577956795B795F111F8CFFAF4BB0F55
:101AA00011F460FF1BC06F5F7F4F8F4F9F4F16C0B9
:101AB000882311F096E911C0772321F09EE8872F43
:101AC000762F05C0662371F096E8862F70E060E0FF
:101AD0002AF09A95660F771F881FDAF7880F969578
:101AE000879597F90895990F0008550FAA0BE0E81C
:101AF000FEEF16161706E807F907C0F012161306D0
:101B0000E407F50798F0621B730B840B950B39F40F
:101B10000A2661F0232B242B252B21F408950A2675
:101B200009F4A140A6958FEF811D811D089597F9B5
:101B30009F6780E870E060E008959FEF80EC089573
:101B400000240A941616170618060906089500249C
:101B50000A9412161306140605060895092E039416
:101B6000000C11F4882352F0BB0F40F4BF2B11F48A
:101B700060FF04C06F5F7F4F8F4F9F4F089557FDE9
:101B80009058440F551F59F05F3F71F04795880FEB
:101B900097FB991F61F09F3F79F087950895121682
:101BA00013061406551FF2CF4695F1DF08C016162E
:101BB00017061806991FF1CF8695710561050894DF
:101BC0000895E894BB2766277727CB0197F90895F6
:101BD0000BD0C4CFB5DF28F0BADF18F0952309F099
:101BE000A6CFABCF1124EECFCADFA0F3959FD1F3E0
:101BF000950F50E0551F629FF001729FBB27F00DBB
:101C0000B11D639FAA27F00DB11DAA1F649F66270F
:101C1000B00DA11D661F829F2227B00DA11D621F5E
:101C2000739FB00DA11D621F839FA00D611D221F18
:101C3000749F3327A00D611D231F849F600D211DFC
:101C4000822F762F6A2F11249F5750408AF0E1F09F
:101C500088234AF0EE0FFF1FBB1F661F771F881FE8
:101C600091505040A9F79E3F510570F060CFAACF28
:101C70005F3FECF3983EDCF3869577956795B795D3
:101C8000F795E7959F5FC1F7FE2B880F911D9695FD
:101C9000879597F908950F93083090F0982F872F24
:101CA000762F652F542F432F322F22270850F4CF41
:101CB000220F331F441F551F661F771F881F991F50
:101CC0000A95B2F70F91089597FB10F81694000843
:101CD0000F93083098F00850232F342F452F562F9C
:101CE000672F782F892F902DF4CF0594979587959E
:101CF0007795679557954795379527950A95AAF74C
:101D00000F9108950024A7FD00942A17300540057F
:101D10005005600570058005900508951F93FC012E
:101D200099278827BC01E89411911032E9F3193002
:101D300010F01E30C8F31B3249F01D3241F4689494
:101D400005C027D0610F711D811D911D1191105388
:101D50001A30B8F33EF490958095709561957F4F59
:101D60008F4F9F4F1F910895FB01DC010D900020C4
:101D7000E9F7119701900D920020E1F70895BB2734
:101D80004A3031F4992322F4BDE2909581959F4F1A
:101D900037C0592F482F372F262F660F771F881FE0
:101DA000991F660F771F881F991F620F731F841F6B
:101DB000951F660F771F881F991F0895BB27FA018B
:101DC000A62F6217710581059105330B30FB66F074
:101DD000AA27660F771F881F991FAA1FA21710F046
:101DE000A21B63953850A9F7A05DAA3308F0A95D3E
:101DF000A19336F7B111B1931082CA0119C0BB2764
:101E0000FB015527AA27880F991FAA1FA41710F0B6
:101E1000A41B83955051B9F7A05DAA3308F0A95DC2
:101E2000A193009779F7B111B1931192CB0100C042
:101E3000DC01FC01672F71917723E1F7329704C031
:101E40007C916D9370836291AE17BF07C8F30895BC
:101E5000E199FECF9FBB8EBBE09A99278DB3089581
:101E6000A6E1B0E044E050E017C0262FE199FECF94
:101E70009FBB8EBB2DBB0FB6F894E29AE19A0FBEC2
:101E800001960895242FF2DF252FF0DF00C0EDDF4B
:101E9000272FECCFDC01CB01FC01E199FECF06C07E
:101EA000FFBBEEBBE09A31960DB20D92415050400F
:081EB000B8F70895F894FFCF84
:101EB800FEFDFBF72F285E2D5E292F002D285E2DB5
:101EC8005E292D0048656C6C6F2100436F64653A8C
:101ED800003E002E2E2E2E002A3A4C6973740023E1
:101EE8003A4164642F44656C2F4368616E676500EE
:101EF8002A3A4368616E676500303A41646420316C
:101F08003A44656C657465004368616E6765640092
:101F180044656C65746564004164646564004E6F73
:101F28002E002A3A4E65787400436F64652D00468A
:101F38006F756E6400636F64657300556E6C6F63D4
:041F48006B65640061
:00000001FF
