:1000000012C024C023C022C021C020C01FC01EC0F7
:100010001DC01CC01BC01AC019C018C017C016C014
:1000200015C014C013C011241FBECFE5D4E0DEBF3D
:10003000CDBF10E0A0E6B0E0E4E5F1E102C005903C
:100040000D92AE3FB107D9F7CBD082C8D9CFE0E649
:10005000F0E040E050E0842F9A01919192BB9AE148
:100060009A95F1F700C090B3907F903D51F0903E8B
:1000700019F0903B89F40AC0242F220F820F8F5F62
:100080000895242F220F820F8E5F08952F5F3F4F18
:10009000822F880F820F08954F5F5F4F44305105C4
:1000A000D1F6809B089580E0089594B3936094BB4B
:1000B00094B39C6394BB662311F0A89A01C0A898DE
:1000C000A99A95B3937C95BB83FDAD9A82FDAC9ABA
:1000D00081FDAB9A80FDAA9A8DE08A95F1F7000028
:1000E000A9980895CF93DF93C82FD62F82958F704C
:1000F000DCDF6D2F8C2FD9DFDF91CF9108958FEC4E
:1001000097E00197F1F700C0000060E082E0CDDFEA
:100110008FEC97E00197F1F700C0000060E088E203
:10012000E1DF8FEC97E00197F1F700C0000060E09D
:1001300081E0D8DF8FEC97E00197F1F700C0000075
:1001400060E086E0CFDF8FEC97E00197F1F700C029
:10015000000060E08CE0C6DF0895EFECF7E0319737
:10016000F1F700C0000060E08C60BCDF0895EFECA8
:10017000F7E03197F1F700C0000060E08860B2DF7F
:1001800008958FEC97E00197F1F700C0000060E060
:1001900081E0A8DF0895EFECF7E03197F1F700C0B8
:1001A0000000F0E48F9F600D1124862F60E08068CE
:1001B00099DF0895CF93DF93FC012081222369F01A
:1001C000EC018FEC97E00197F1F700C0000061E0CF
:1001D000899188DF88818111F4CFDF91CF910895D3
:1001E000CF93DF93CDB7DEB7A4970FB6F894DEBFF9
:1001F0000FBECDBF81B38F6081BB8F98BC9ABD9A73
:10020000BE9A80EF82BB8FE19EE40197F1F700C0B8
:10021000000075DFAFE1BEE41197F1F700C0000008
:1002200080E09BDFEFE1FEE43197F1F700C00000D2
:1002300084E09DDF8FE19EE40197F1F700C00000AC
:10024000E199FECF47E554E060E070E080E090E0A7
:1002500067D7E199FECF4EEA58E060E070E084E0B5
:1002600090E05ED718861F82FE01399684E0DF0198
:100270001D928A95E9F71E861D86188A1F86389773
:100280004F011F8E18A2292CF0E0FF8B20E0288F51
:1002900031E0398F1A8E42E04D8F1E8E89A24424A0
:1002A0004A940F2EF3E05F2EF02D612CA9A0722C42
:1002B00086E0D4011D928A95E9F763DFBFE7E8E3A2
:1002C000F1E0B150E040F040E1F700C0000008E587
:1002D00012E0CC24CA94D42C0F2EF2E3BF2EF02DC2
:1002E00060E080E058DF84E690E064DF8A2D972D9F
:1002F000A5D61C0160E081E04EDF8A2D972D5ADFE4
:100300008981882391F08A81882349F08B81882311
:1003100049F08C81811181C0E52CF62C08C0E98C54
:10032000FA8C05C0ED8CFE8C02C0EF88F88C8FDE55
:100330008B3049F4F401EE0DFF1D80E380832FEF35
:10034000C21AD20A6AC083DE813049F4F401EE0D8C
:10035000FF1D81E380833FEFC31AD30A5EC077DEBF
:10036000823041F4F401EE0DFF1DB0824FEFC41A4C
:10037000D40A53C06CDE833049F4F401EE0DFF1D46
:1003800053E350838FEFC81AD80A47C060DE843029
:1003900049F4F401EE0DFF1D94E39083AFEFCA1A08
:1003A000DA0A3BC054DE853049F4F401EE0DFF1D3E
:1003B000B5E3B083EFEFCE1ADE0A2FC048DE8630F9
:1003C00049F4F401EE0DFF1D26E320833FEFC31A2D
:1003D000D30A23C03CDE873049F4F401EE0DFF1D43
:1003E00047E340835FEFC51AD50A17C030DE883077
:1003F00049F4F401EE0DFF1D88E380839FEFC91AD5
:10040000D90A0BC024DE893041F4F401EE0DFF1D42
:10041000A9E3A083BFEFCB1ADB0A19DE8A3009F00B
:10042000DAC58C81882309F4A8C56101330CEE0874
:10043000FF0804E010E0E199FECFC8015FD6C616C0
:10044000D706E806F90611F59CDEEFE7F8E321E0B0
:10045000E150F0402040E1F700C0000003E110E06F
:1004600064E081E098DE80E790E0A4DEC49AC59A5B
:100470003FEF40E752E0315040405040E1F700C0CC
:1004800000000150110961F718BA05C00C5F1F4F39
:100490000438110581F6E199FECF80E090E02ED678
:1004A000C616D706E806F90609F002CF272C69DE42
:1004B0008FE798E3A1E081509040A040E1F700C0B1
:1004C00000001C8E1B8E3E01B7E06B0E711C462C8B
:1004D000572CFE013D96FA8BE98B19893A889BA22D
:1004E0008AA2912E2CA286E0D3011D928A95E9F76B
:1004F00060E080E050DE89E790E05CDE60E081E073
:100500004ADE88E890E056DEA2DD8A3009F05DC15F
:1005100038DEBFE7E8E3F1E0B150E040F040E1F75A
:1005200000C000000F2EFDE2CF2EDD24D394F02D6D
:10053000EE24EA94FF24FA940F2EF9E32F2EF02DE7
:100540000F2EF4E38F2EF02D0F2EF3E3AF2EF02DB0
:100550000F2EF2E3BF2EF02D60E080E01CDE88E974
:1005600090E028DE842D952D69D59C8B8B8B67E0E0
:1005700080E011DE842D952D1DDE8F81882391F082
:100580008885882349F08985882349F08A858111E7
:100590007EC003E010E008C001E010E005C002E00A
:1005A00010E002C00F8D18A152DD8B3049F4F30129
:1005B000E00FF11F80E380832FEFE21AF20A67C099
:1005C00046DD813049F4F301E00FF11F81E38083C0
:1005D0003FEFE31AF30A5BC03ADD823041F4F301E6
:1005E000E00FF11FB0824FEFE41AF40A50C02FDD84
:1005F000833041F4F301E00FF11FA0825FEFE51AB1
:10060000F50A45C024DD843041F4F301E00FF11F09
:1006100080828FEFE81AF80A3AC019DD853049F474
:10062000F301E00FF11F95E39083AFEFEA1AFA0AA6
:100630002EC00DDD863049F4F301E00FF11FB6E363
:10064000B083EFEFEE1AFE0A22C001DD873049F4D5
:10065000F301E00FF11F27E320833FEFE31AF30AD2
:1006600016C0F5DC883049F4F301E00FF11F48E3D0
:1006700040835FEFE51AF50A0AC0E9DC893039F4F6
:10068000F301E00FF11F20828FEFE81AF80ADFDC98
:100690008A3009F06AC08A85882309F43FC0A12CFA
:1006A000B12C65016894A2F8E199FECFC5011ED571
:1006B0008F3F41F5E199FECFAB89BC89AD01BB0FFE
:1006C000660B770BC5012CD55CDDEFE3FCE93197B8
:1006D000F1F700C0000006E010E065E081E05BDDBE
:1006E0008FE990E067DDC59AFFEF20E732E0F15037
:1006F00020403040E1F700C000000150110969F7C7
:1007000018BA58C044E0A40EB11CC11CD11C54E856
:10071000A516B104C104D10439F64CC032DD8FE511
:100720009AEE0197F1F700C0000006E010E061E0EA
:1007300081E031DD85EA90E03DDDC69A9FEFA0E7DC
:10074000B2E09150A040B040E1F700C0000001507D
:10075000110969F718BA15DDEFE7F8E321E0E15078
:10076000F0402040E1F700C0000071DC8C30B9F4AB
:10077000F301EE0DFF1D108231E0E31AF108C69A75
:100780008FE59AEE0197F1F700C00000C69AAFE539
:10079000BAEE1197F1F700C0000018BAF2DCEFE1F1
:1007A000FEE43197F1F700C00000F1E0CF1AD10864
:1007B00009F0D2CEE6DC2FE738E341E021503040AB
:1007C0004040E1F700C0000004C0EE24EA94FF249A
:1007D000FA943DDC8C3009F02CC4D3DC5FE788E36D
:1007E00091E0515080409040E1F700C000000F2E92
:1007F000FDE2CF2EDD24D394F02D0F2EF9E32F2E22
:10080000F02D0F2EF4E38F2EF02D0F2EF3E3AF2EED
:10081000F02D0F2EF2E3BF2EF02D60E080E0BBDC68
:1008200083EB90E0C7DC842D952D08D49C8B8B8BBB
:100830006AE080E0B0DC842D952DBCDC8F818823BC
:1008400091F08885882349F08985882349F08A8535
:1008500081117EC003E010E008C001E010E005C097
:1008600002E010E002C00F8D18A1F1DB8B3049F4DB
:10087000F301E00FF11F80E38083AFEFEA1AFA0A79
:1008800067C0E5DB813049F4F301E00FF11F81E33C
:100890008083BFEFEB1AFB0A5BC0D9DB823041F4E7
:1008A000F301E00FF11FB082EFEFEE1AFE0A50C025
:1008B000CEDB833041F4F301E00FF11FA082FFEFA4
:1008C000EF1AFF0A45C0C3DB843041F4F301E00FA7
:1008D000F11F80822FEFE21AF20A3AC0B8DB8530AE
:1008E00049F4F301E00FF11F35E330834FEFE41AD1
:1008F000F40A2EC0ACDB863049F4F301E00FF11F9F
:1009000056E350838FEFE81AF80A22C0A0DB873045
:1009100049F4F301E00FF11F97E39083AFEFEA1A78
:10092000FA0A16C094DB883049F4F301E00FF11F96
:10093000B8E3B083EFEFEE1AFE0A0AC088DB893015
:1009400039F4F301E00FF11F2082FFEFEF1AFF0AE5
:100950007EDB8A3009F095C08A85882309F467C058
:10096000A12CB12C65016894A2F82B893C89032E37
:10097000000C440B550B2B8B3C8B4D8B5E8BE19904
:10098000FECFC501BBD32B893C894D895E892617D3
:1009900037074807590709F03DC01A2DE199FECFE6
:1009A0006FEF812F90E0AFD381E0810FE199FECF0F
:1009B0006FEF90E0A8D382E0810FE199FECF6FEF57
:1009C00090E0A1D383E0810FE199FECF6FEF90E03B
:1009D0009AD3D7DB3FE748E351E0315040405040E5
:1009E000E1F700C0000006E010E064E081E0D3DB46
:1009F0008DEB90E0DFDBC59A8FEF90E7A2E08150AE
:100A00009040A040E1F700C000000150110969F7D3
:100A100018BA5CC0B4E0AB0EB11CC11CD11CE4E838
:100A2000AE16B104C104D10409F0A9CF4FC0A9DBAF
:100A3000FFE728E331E0F15020403040E1F700C00B
:100A4000000006E010E061E081E0A5DB85EA90E0CF
:100A5000B1DBC69A4FEF50E782E0415050408040F2
:100A6000E1F700C000000150110969F718BA89DBED
:100A70009FE7A8E3B1E09150A040B040E1F700C08B
:100A80000000E5DA8C30B9F4F301EE0DFF1D1082A1
:100A9000E1E0EE1AF108C69A8FE59AEE0197F1F7B8
:100AA00000C00000C69AAFE5BAEE1197F1F700C09A
:100AB000000018BA66DBEFE1FEE43197F1F700C001
:100AC0000000F1E0CF1AD10809F0A7CE5ADB2FE7DA
:100AD00038E341E0215030404040E1F700C00000E1
:100AE000A8C26894CC24C2F8D12C00E010E0A12C5C
:100AF000B12C0F2EF6E02F2EF02DFC8AEB8AF32C72
:100B0000392C4801D301E22D1D92EA95E9F7A98914
:100B1000BA89E4E01D92EA95E9F7E199FECF0C2D40
:100B20001D2DC601E3D28F3F09F483C0FFEFAF1A3A
:100B3000BF0A8114910409F07CC0E199FECF802F97
:100B4000912FDCD2DC01CB014AE0642D752DA5D2BA
:100B50004AE0632D7F2DC501A0D213DB2FE738E3D8
:100B600041E0215030404040E1F700C000000DE27C
:100B700011E060E080E00FDB85EC90E01BDB63E0E0
:100B800080E009DB832D9F2D15DB622D80E003DBE8
:100B900089EC90E00FDB60E081E0FDDA80ED90E031
:100BA00009DB622D81E0F7DA842D952D03DB4FDA26
:100BB0008A3009F43EC04BDA8C3089F5E2DA5FE71F
:100BC00088E391E0515080409040E1F700C0000080
:100BD00006E010E0AFE7B8E3E1E0A150B040E0404C
:100BE000E1F700C0000064E081E0D5DA86ED90E036
:100BF000E1DAC69AFFEF20E732E0F15020403040C2
:100C0000E1F700C000000150110921F718BA88244B
:100C10008394912C46E050E05C8F4B8F0AC08FE1AB
:100C20009EE40197F1F700C000000150110909F09E
:100C3000A0CF94E0C90ED11CA4E8CA16D10409F0D3
:100C400061CF932C3F2CEB88FC889BDABFE7E8E36D
:100C5000F1E0B150E040F040E1F700C0000006E0F4
:100C600010E04AE0692D732DC50105D260E080E0F7
:100C700092DA8FED90E09EDA67E080E08CDA892DE1
:100C8000932D98DA6BE080E086DA85EE90E092DAD8
:100C9000C59A2FEF30E742E0215030404040E1F765
:100CA00000C0000018BA8FE19EE40197F1F700C080
:100CB000000001501109A9F664DA9FE7A8E3B1E04A
:100CC0009150A040B040E1F700C00000C0D9813091
:100CD00009F041C156DAEFE7F8E321E0E150F040D6
:100CE0002040E1F700C000000DE211E00F2EF9E313
:100CF0002F2EF02D0F2EF0E38F2EF02D60E080E0F0
:100D00004ADA8BEE90E056DA842D952D97D15C016E
:100D10006AE080E040DA842D952D4CDA8F818823BB
:100D200049F0FE013896CC24C394D12C81918111D5
:100D300079C002C0C12CD12C8AD98B3041F4F30187
:100D4000EC0DFD1D80823FEFE31AF30A73C07FD9DB
:100D5000813049F4F301EC0DFD1D41E340835FEF69
:100D6000E51AF50A67C073D9823049F4F301EC0D36
:100D7000FD1D82E380839FEFE91AF90A5BC067D902
:100D8000833049F4F301EC0DFD1DA3E3A083BFEF15
:100D9000EB1AFB0A4FC05BD9843049F4F301EC0D28
:100DA000FD1D24E320833FEFE31AF30A43C04FD92C
:100DB000853049F4F301EC0DFD1D45E340835FEF01
:100DC000E51AF50A37C043D9863049F4F301EC0D32
:100DD000FD1D86E380839FEFE91AF90A2BC037D9FE
:100DE000873049F4F301EC0DFD1DA7E3A083BFEFAD
:100DF000EB1AFB0A1FC02BD9883049F4F301EC0D24
:100E0000FD1D28E320833FEFE31AF30A13C01FD927
:100E1000893081F4F301EC0DFD1D20824FEFE41ABF
:100E2000F40A08C05FEFC51AD50A85E0C816D104D8
:100E300009F07CCF0CD98A3009F05FC08A858823FD
:100E400071F18F81882309F458C0E199FECFA50183
:100E5000BB0C660B770B80E090E062D192D99FE7E4
:100E6000A8E3B1E09150A040B040E1F700C000001D
:100E700006E010E065E081E08ED985EF90E09AD938
:100E8000C59AEFEFF0E722E0E150F0402040E1F7B3
:100E900000C000000150110969F718BA52C071D999
:100EA0003FE748E351E0315040405040E1F700C097
:100EB00000000F2EF6E0CF2ED12CF02D61E081E066
:100EC0006AD985EA90E076D9C69A8FEF90E7A2E0DA
:100ED00081509040A040E1F700C00000B1E0CB1A83
:100EE000D10861F718BA4DD9EFE7F8E321E0E150F6
:100EF000F0402040E1F700C00000A9D88C30B9F4E0
:100F0000F301EE0DFF1D108231E0E31AF108C69ADD
:100F10008FE59AEE0197F1F700C00000C69AAFE5A1
:100F2000BAEE1197F1F700C0000018BA2AD9EFE124
:100F3000FEE43197F1F700C000000150110909F0FB
:100F4000DDCE1FD9FFE728E331E0F15020403040EB
:100F5000E1F700C000008FE19EE40197F1F700C0C7
:100F60000000AB8DBC8D1196BC8FAB8FDF9708F462
:100F7000BACA8AA09BA02CA092C903D9BFE7E8E314
:100F8000F1E0B150E040F040E1F700C000000F2E6A
:100F9000F6E0EF2EF12CF02D61E081E0FCD885EA3F
:100FA00090E008D9C69A2FEF30E742E02150304058
:100FB0004040E1F700C0000051E0E51AF10861F798
:100FC00018BADFD88FE798E3A1E081509040A040A5
:100FD000E1F700C000003BD88C3001F5F401EC0DC6
:100FE000FD1D1082B1E0CB1AD108C69AEFE5FAEEEA
:100FF0003197F1F700C00000C69A8FE59AEE01978D
:10100000F1F700C0000018BABCD89FE7A8E3B1E030
:101010009150A040B040E1F700C00000EFE1FEE4D5
:101020003197F1F700C000000150110909F058C9CB
:101030003FC90DD88B3009F049CE53CDFC0188272C
:101040009927E89421912032E9F3293010F02E30CD
:10105000C8F32B3239F02D3231F4689403C015D027
:10106000820F911D219120532A30C8F31EF49095D0
:1010700081959F4F0895BB274A3031F4992322F47C
:10108000BDE2909581959F4F09C07AE0979F902D82
:10109000879F802D910D11240895BB27FB015527B3
:1010A000AA27880F991FAA1FA41710F0A41B8395C5
:1010B0005051B9F7A05DAA3308F0A95DA19300973C
:1010C00079F7B111B1931192CB0100C0DC01FC01A1
:1010D000672F71917723E1F7329704C07C916D936C
:1010E00070836291AE17BF07C8F30895E199FECFF0
:1010F0009FBB8EBBE09A99278DB30895A6E1B0E01F
:1011000044E050E017C0262FE199FECF9FBB8EBB75
:101110002DBB0FB6F894E29AE19A0FBE019608959E
:10112000242FF2DF252FF0DF00C0EDDF272FECCFDB
:10113000DC01CB01FC01E199FECF06C0FFBBEEBB99
:10114000E09A31960DB20D9241505040B8F7089593
:04115000F894FFCF41
:10115400FEFDFBF7456E74657220636F64653A00AB
:10116400556E6C6F636B6564002A3A4164642F2387
:101174003A44656C65746500303A4C6973742F3178
:101184003A4368616E6765002A3A4164642D004100
:1011940064646564004D696E2E2034206E756D6242
:1011A4006572002A3A44656C6574652D0044656C6B
:1011B40065746564004E6F2E002A3A4E657874009B
:1011C400436F64652D0052657475726E65640046E4
:1011D4006F756E6400636F646573002A3A436861D7
:0E11E4006E67652D004368616E6765640000EC
:00000001FF
