:1000000012C024C023C022C021C020C01FC01EC0F7
:100010001DC01CC01BC01AC019C018C017C016C014
:1000200015C014C013C011241FBECFE5D4E0DEBF3D
:10003000CDBF11E0A0E6B0E0E0E4F9E102C0059038
:100040000D92AA30B107D9F725D178CCD9CFE0E607
:10005000F0E040E050E0842F9A01919192BB9AE148
:100060009A95F1F700C090B3907F903D51F0903E8B
:1000700019F0903B89F40AC0242F220F820F8F5F62
:100080000895242F220F820F8E5F08952F5F3F4F18
:10009000822F880F820F08954F5F5F4F44305105C4
:1000A000D1F6809B089580E00895CF92DF92EF9281
:1000B000FF92CF93DF93EC016A017B01CB01BA0180
:1000C0002BDA9B01772324F422273327261B370BB7
:1000D00039832883072E000C880B990B50DA9B017B
:1000E000AC01C701B601AFD920E030E040E251E4F5
:1000F000F6DA12DA9B01772324F422273327261B12
:10010000370B3B832A83DF91CF91FF90EF90DF90F5
:10011000CF900895CF9393D984E437D92FE78FE414
:1001200092E1215080409040E1F700C0000087D963
:100130008EEB2BD973D9C82F71D9682F70E0762F29
:1001400066276C0F711D072E000C880B990B17DAB0
:1001500020E030E040E85DE3C2DACF91089594B347
:10016000936094BB94B39C6394BB662311F0A89AEC
:1001700001C0A898A99A95B3937C95BB83FDAD9ACD
:1001800082FDAC9A81FDAB9A80FDAA9A8DE08A959A
:10019000F1F70000A9980895CF93DF93C82FD62FC9
:1001A00082958F70DCDF6D2F8C2FD9DFDF91CF919F
:1001B00008958FEC97E00197F1F700C0000060E030
:1001C00082E0CDDF8FEC97E00197F1F700C00000EF
:1001D00060E088E2E1DF8FEC97E00197F1F700C083
:1001E000000060E081E0D8DF8FEC97E00197F1F745
:1001F00000C0000060E086E0CFDF8FEC97E0019761
:10020000F1F700C0000060E08CE0C6DF0895EFEC7D
:10021000F7E03197F1F700C0000060E08C60BCDFD0
:100220000895EFECF7E03197F1F700C0000060E0CF
:100230008860B2DF08958FEC97E00197F1F700C076
:10024000000060E081E0A8DF0895EFECF7E031976F
:10025000F1F700C00000F0E48F9F600D1124862F9D
:1002600060E0806899DF0895CF93DF93FC012081DF
:10027000222369F0EC018FEC97E00197F1F700C0C1
:10028000000061E0899188DF88818111F4CFDF91DE
:10029000CF910895CF93DF93CDB7DEB7ED970FB62B
:1002A000F894DEBF0FBECDBF82E0B4D781B38F60BC
:1002B00081BB8F98B99ABA9ABB9ABC9ABD9ABE9ADA
:1002C00080EF82BB8FE19EE40197F1F700C0000050
:1002D00070DFAFE1BEE41197F1F700C0000080E0ED
:1002E00096DFEFE1FEE43197F1F700C0000084E013
:1002F00098DF8FE19EE40197F1F700C000001A82B9
:10030000198284E0FE013396DF01282F1D922A9581
:10031000E9F718861F823696DF011D928A95E9F764
:100320001E861D86188A1F8638974F011E01F7E02A
:100330002F0E311C9E01235F3F4F3CA72BA73FAAE6
:100340003BA538AF4CA549AF5FEF5DAB8FEF8EABF0
:10035000482C792C622CDEDE6B017C0185E0E5E621
:10036000F0E0DE01519601900D928A95E1F7FE01D1
:1003700076968CE0DF011D928A95E9F7B701A60118
:10038000CE01879692DE20E030E0A901C701B601D8
:10039000BFD8882354F4FE01719601900020E9F73C
:1003A00031978DE290E0918380834AE0BE016E5DDB
:1003B0007F4F8FA198A527DA8E010F5E1F4FBE01D8
:1003C0006E5D7F4FC80114DAF80101900020E9F753
:1003D00031978EE290E0918380834AE0BE016E5DAA
:1003E0007F4F89A59AA50FDABE016E5D7F4FC801C8
:1003F000FFD9F80101900020E9F7319787E293E4F3
:1004000091838083128286E0F40111928A95E9F744
:1004100012DFFFE728E331E0F15020403040E1F700
:1004200000C0000002EC11E0EE24EA94FF24FA94EC
:100430003EA62DA6362C60E080E007DFCE01419677
:1004400013DF60E081E001DF86E790E00DDF842DBF
:10045000972DA8D9B62EA72E582E692E66E081E0DA
:10046000F4DE842D972D00DF8981882349F0FE0179
:100470003296CC24C394D12C819181117BC002C0CF
:10048000C12CD12CE4DD8B3049F4F401EC0DFD1DC1
:1004900040E340835FEFE51AF50A74C0D8DD813090
:1004A00049F4F401EC0DFD1D81E380839FEFE91A0F
:1004B000F90A68C0CCDD823049F4F401EC0DFD1D71
:1004C000A2E3A083BFEFEB1AFB0A5CC0C0DD833060
:1004D00049F4F401EC0DFD1D23E320833FEFE31A03
:1004E000F30A50C0B4DD843049F4F401EC0DFD1D75
:1004F00044E340835FEFE51AF50A44C0A8DD853088
:1005000049F4F401EC0DFD1D85E380839FEFE91AAA
:10051000F90A38C09CDD863049F4F401EC0DFD1D6C
:10052000A6E3A083BFEFEB1AFB0A2CC090DD873057
:1005300049F4F401EC0DFD1D27E320833FEFE31A9E
:10054000F30A20C084DD883049F4F401EC0DFD1D70
:1005500048E340835FEFE51AF50A14C078DD89307F
:1005600089F4F401EC0DFD1D89E380839FEFE91A06
:10057000F90A08C0AFEFCA1ADA0AB5E0CB16D104FF
:1005800009F07ACFB49B29C0632C2DA43EA4B49B60
:1005900003C086B3B499FDCF4EDEEFE7F8E321E068
:1005A000E150F0402040E1F700C0000005E110E01C
:1005B00064E081E04ADE8CE790E056DEC59A3FEFCA
:1005C00040E752E0315040405040E1F700C00000A9
:1005D0000150110969F718BABECE39DD8A3009F029
:1005E000D9C58D81882309F4A7C559AA562C632C37
:1005F0002DA43EA4CB2CDA2CE9A8F52C04E010E0C5
:10060000E199FECFC80170D9C616D706E806F906EB
:1006100009F511DE8FE798E3A1E081509040A040FA
:10062000E1F700C0000005E110E064E081E00DDECC
:100630008CE790E019DEC59ABFEFE0E7F2E0B15039
:10064000E040F040E1F700C000000150110969F7F7
:1006500018BA05C00C5F1F4F0438110589F6E199DF
:10066000FECF80E090E040D9C616D706E806F9062E
:1006700009F071CEE0DD2FE738E341E02150304052
:100680004040E1F700C00000A12CB12C9BAE8AAE27
:100690004CAE7DAE7FA898AC59AC86E0D1011D92DE
:1006A0008A95E9F760E080E0D0DD85E890E0DCDD68
:1006B00060E081E0CADD84E990E0D6DDC8DC8A3004
:1006C00009F062C1B8DDBFE7E8E3F1E0B150E04016
:1006D000F040E1F700C000000F2EFDE2EF2EFF24F6
:1006E000F394F02DCDA8DEA80F2EF6E34F2EF02DBB
:1006F0000F2EF0E38F2EF02D60E080E0A6DD84EA7F
:1007000090E0B2DD862D972D4DD86DA77EA78FA7DF
:1007100098AB67E080E099DD862D972DA5DD8F8170
:10072000882341F0FE01389601E010E081918111AB
:1007300079C002C000E010E08ADC8B3041F4F101A6
:10074000E00FF11F80822FEFC21AD20A71C07FDC46
:10075000813049F4F101E00FF11F31E330834FEFB5
:10076000C41AD40A65C073DC823049F4F101E00F89
:10077000F11F52E350838FEFC81AD80A59C067DCC3
:10078000833049F4F101E00FF11F93E39083AFEF61
:10079000CA1ADA0A4DC05BDC843049F4F101E00F7B
:1007A000F11FB4E3B083EFEFCE1ADE0A41C04FDC95
:1007B000853049F4F101E00FF11F25E320833FEF7D
:1007C000C31AD30A35C043DC863041F4F101E00F8F
:1007D000F11F40824FEFC41AD40A2AC038DC873098
:1007E00049F4F101E00FF11F57E350838FEFC81A6E
:1007F000D80A1EC02CDC883049F4F101E00FF11F4B
:1008000098E39083AFEFCA1ADA0A12C020DC89306D
:1008100079F4F101E00FF11FB9E3B083EFEFCE1AE5
:10082000DE0A06C00F5F1F4F0530110509F07ECFAD
:100830000EDC8A3009F078C08B85882309F44DC01E
:1008400024E030E040E050E029AB3AAB4BAB5CAB8E
:10085000E199FECF89A99AA93FD88F3F49F5E1993F
:10086000FECF4DA55EA56FA578A989A99AA94ED8F6
:10087000E2DC8FE39CE90197F1F700C0000006E09D
:1008800010E065E081E0E1DC8BEA90E0EDDCC59A08
:100890009FEFA0E7B2E09150A040B040E1F700C068
:1008A00000000150110969F718BAA12CB12C61C0E0
:1008B00029A93AA94BA95CA92C5F3F4F4F4F5F4F25
:1008C00029AB3AAB4BAB5CAB243831054105510544
:1008D00009F0BECFA12CB12C4CC0ADDC8FE59AEE57
:1008E0000197F1F700C0000006E010E061E081E050
:1008F000ACDC81EB90E0B8DCC69A9FEFA0E7B2E0F9
:100900009150A040B040E1F700C000000150110933
:1009100069F718BA90DCEFE7F8E321E0E150F04026
:100920002040E1F700C0000092DB8C30B9F4F10107
:10093000EC0DFD1D108231E0C31AD108C69A8FE577
:100940009AEE0197F1F700C00000C69AAFE5BAEE43
:100950001197F1F700C0000018BA6DDCEFE1FEE47A
:100960003197F1F700C00000F1E0EF1AF10809F04B
:10097000C3CE61DC2FE738E341E0215030404040F6
:10098000E1F700C0000002C0CDA8DEA860DB8C301B
:1009900009F031C450DC5FE788E391E051508040BA
:1009A0009040E1F700C000000F2EFDE2EF2EFF2483
:1009B000F394F02D0F2EF6E34F2EF02D0F2EF0E3D3
:1009C0008F2EF02D60E080E040DC8FEB90E04CDC7F
:1009D000862D972DE7D66DA77EA78FA798AB6AE0E7
:1009E00080E033DC862D972D3FDC8F81882341F01A
:1009F000FE01389601E010E08191811179C002C0BA
:100A000000E010E024DB8B3041F4F101E00FF11F36
:100A10008082AFEFCA1ADA0A71C019DB813049F45B
:100A2000F101E00FF11FB1E3B083EFEFCE1ADE0A60
:100A300065C00DDB823049F4F101E00FF11F22E3C4
:100A400020833FEFC31AD30A59C001DB833049F436
:100A5000F101E00FF11F43E340835FEFC51AD50AB0
:100A60004DC0F5DA843049F4F101E00FF11F84E361
:100A700080839FEFC91AD90A41C0E9DA853049F469
:100A8000F101E00FF11FA5E3A083BFEFCB1ADB0A52
:100A900035C0DDDA863041F4F101E00FF11F40820C
:100AA000EFEFCE1ADE0A2AC0D2DA873049F4F1011C
:100AB000E00FF11F27E320833FEFC31AD30A1EC0C4
:100AC000C6DA883049F4F101E00FF11F48E34083B2
:100AD0005FEFC51AD50A12C0BADA893079F4F1018C
:100AE000E00FF11F89E380839FEFC91AD90A06C07E
:100AF0000F5F1F4F0530110509F07ECFA8DA8A304D
:100B000009F099C08B85882309F46BC024E030E09C
:100B100040E050E029AB3AAB4BAB5CABE199FECF88
:100B200089A99AA9E1D62DA53EA54FA558A92617B2
:100B300037074807590709F03FC019A9E199FECFC7
:100B40006FEF812F90E0D5D681E0810FE199FECF44
:100B50006FEF90E0CED682E0810FE199FECF6FEF8C
:100B600090E0C7D683E0810FE199FECF6FEF90E070
:100B7000C0D661DB3FE748E351E031504040504090
:100B8000E1F700C0000006E010E064E081E05DDB1A
:100B900089EC90E069DBC59A8FEF90E7A2E0815085
:100BA0009040A040E1F700C000000150110969F732
:100BB00018BAA12CB12C64C029A93AA94BA95CA9E7
:100BC0002C5F3F4F4F4F5F4F29AB3AAB4BAB5CAB0A
:100BD000243831054105510509F0A0CFA12CB12CD5
:100BE0004FC029DB3FE748E351E0315040405040DF
:100BF000E1F700C0000006E010E061E081E025DBE5
:100C000081EB90E031DBC69A8FEF90E7A2E0815054
:100C10009040A040E1F700C000000150110969F7C1
:100C200018BA09DBBFE7E8E3F1E0B150E040F0407B
:100C3000E1F700C000000BDA8C30B9F4F101EC0DE3
:100C4000FD1D108221E0C21AD108C69A8FE59AEEE6
:100C50000197F1F700C00000C69AAFE5BAEE119710
:100C6000F1F700C0000018BAE6DAEFE1FEE43197D0
:100C7000F1F700C00000F1E0EF1AF10809F0A2CE90
:100C8000DADA2FE738E341E0215030404040E1F725
:100C900000C00000B0C26894EE24E2F8F12C00E03D
:100CA00010E0A12CB12C0F2EF6E04F2EF02DDEA679
:100CB000CDA6D52C592C4801D101E42D1D92EA95E1
:100CC000E9F7ABA5BCA5E4E01D92EA95E9F7E19947
:100CD000FECF0E2D1F2DC701FFD58F3F09F480C019
:100CE000FFEFAF1ABF0A8114910409F079C0E199AE
:100CF000FECF802F912FF8D52AE0462D572DA2D573
:100D0000C501A0E0B0E02AE0452D5D2DBC01CD017C
:100D100099D591DA2FE738E341E021503040404047
:100D2000E1F700C000000DE211E060E080E08DDA44
:100D300081ED90E099DA63E080E087DA852D9D2DE2
:100D400093DA642D80E081DA85ED90E08DDA60E061
:100D500081E07BDA8CED90E087DA642D81E075DA52
:100D6000862D972D81DA73D98A30D1F170D98C30E4
:100D700069F561DA5FE788E391E051508040904087
:100D8000E1F700C0000006E010E0AFE7B8E3E1E003
:100D9000A150B040E040E1F700C0000064E081E015
:100DA00054DA82EE90E060DAC69AFFEF20E732E094
:100DB000F15020403040E1F700C00000015011091F
:100DC00021F718BA88248394912C0AC08FE19EE4FD
:100DD0000197F1F700C000000150110909F0A5CFFB
:100DE00094E0E90EF11CA4E8EA16F10409F064CFDE
:100DF000952C5D2CCDA4DEA41EDABFE7E8E3F1E07C
:100E0000B150E040F040E1F700C0000006E010E023
:100E10004AE0692D752DC501F6D460E080E015DA51
:100E20008BEE90E021DA67E080E00FDA892D952DD6
:100E30001BDA6BE080E009DA81EF90E015DAC59A01
:100E40002FEF30E742E0215030404040E1F700C052
:100E5000000018BA8FE19EE40197F1F700C000008E
:100E600001501109A9F6E7D99FE7A8E3B1E0915035
:100E7000A040B040E1F700C00000E9D8813009F09F
:100E8000BFC105C0E4D8813009F043C102C0A12C24
:100E9000B12CD1D9EFE7F8E321E0E150F040204058
:100EA000E1F700C000000F2EFDE2EF2EFF24F394C7
:100EB000F02D0F2EF6E34F2EF02D0F2EF0E38F2E98
:100EC000F02D60E080E0C1D987EF90E0CDD9862D8C
:100ED000972D68D46DA77EA78FA798AB6AE080E0B6
:100EE000B4D9862D972DC0D98F81882341F0FE017A
:100EF000389601E010E08191811179C002C000E0D4
:100F000010E0A5D88B3041F4F101E00FF11F808291
:100F10003FEFC31AD30A71C09AD8813049F4F10166
:100F2000E00FF11F41E340835FEFC51AD50A65C0AA
:100F30008ED8823049F4F101E00FF11F82E3808303
:100F40009FEFC91AD90A59C082D8833049F4F101F8
:100F5000E00FF11FA3E3A083BFEFCB1ADB0A4DC064
:100F600076D8843049F4F101E00FF11F24E32083A7
:100F70003FEFC31AD30A41C06AD8853049F4F10162
:100F8000E00FF11F45E340835FEFC51AD50A35C076
:100F90005ED8863041F4F101E00FF11F40828FEFFF
:100FA000C81AD80A2AC053D8873049F4F101E00F93
:100FB000F11F97E39083AFEFCA1ADA0A1EC047D831
:100FC000883049F4F101E00FF11FB8E3B083EFEF8F
:100FD000CE1ADE0A12C03BD8893079F4F101E00F55
:100FE000F11F29E320833FEFC31AD30A06C00F5F26
:100FF0001F4F0530110509F07ECF29D88A3009F03E
:1010000059C08B85882361F1E199FECF4DA55EA57E
:101010006FA578A980E090E079D40DD94FE758E327
:1010200081E0415050408040E1F700C0000006E000
:1010300010E065E081E009D981E091E015D9C59A19
:101040009FEFA0E7B2E09150A040B040E1F700C0B0
:1010500000000150110969F718BAA12CB12C4FC03A
:10106000EAD8EFE7F8E321E0E150F0402040E1F773
:1010700000C0000006E010E061E081E0E6D881EB0E
:1010800090E0F2D8C69A3FEF40E752E0315040403E
:101090005040E1F700C000000150110969F718BA8B
:1010A000CAD88FE798E3A1E081509040A040E1F7D3
:1010B00000C00000CCD78C30B9F4F101EC0DFD1D5F
:1010C0001082B1E0CB1AD108C69AEFE5FAEE31975B
:1010D000F1F700C00000C69A8FE59AEE0197F1F78C
:1010E00000C0000018BAA7D8AFE1BEE41197F1F72D
:1010F00000C00000B1E0EB1AF10809F0E2CE9BD885
:10110000EFE7F8E321E0E150F0402040E1F700C0D4
:1011100000008FE19EE40197F1F700C000009FEF0F
:10112000A91AB90AADE3AA16B10408F4B6CA8AAC82
:101130009BAC4CAC7DAC0FC97ED8BFE7E8E3F1E0D7
:10114000B150E040F040E1F700C000000F2EF6E0A3
:10115000CF2ED12CF02D61E081E077D881EB90E0AB
:1011600083D8C69A2FEF30E742E02150304040400C
:10117000E1F700C0000051E0C51AD10861F718BAC4
:101180005AD88FE798E3A1E081509040A040E1F762
:1011900000C000005CD78C3001F5F401EE0DFF1D9E
:1011A0001082B1E0EB1AF108C69AEFE5FAEE31973A
:1011B000F1F700C00000C69A8FE59AEE0197F1F7AB
:1011C00000C0000018BA37D89FE7A8E3B1E09150FB
:1011D000A040B040E1F700C00000EFE1FEE431972D
:1011E000F1F700C000000150110909F024C9632C77
:1011F0002DA43EA4B0C82BD78B3009F043CE4BCDE5
:101200008FE19EE40197F1F700C00000AA24A394A7
:10121000B12C43CA8093640048B321E030E0B901A7
:1012200002C0660F771F8A95E2F7CB01842B88BB3B
:1012300087B30090640002C0220F331F0A94E2F7C4
:10124000282B27BB089598B321E030E0A901009036
:10125000640002C0440F551F0A94E2F7842F809562
:10126000892388BB47B3C9010090640002C0880F7E
:10127000991F0A94E2F7842B87BB8FEB93E00197C9
:10128000F1F700C0000097B3A9010090640002C00C
:10129000440F551F0A94E2F7842F8095892387BB5A
:1012A00090EA9A95F1F786B30090640002C0220F8D
:1012B000331F0A94E2F78223E3E3F3E03197F1F777
:1012C00000C00000089580FF30C0F89438B381E07A
:1012D00090E0AC010090640002C0440F551F0A94D6
:1012E000E2F7242F2095232328BB47B39C010090CD
:1012F000640002C0220F331F0A94E2F7242B27BB9D
:101300002AE12A95F1F700C0789427B30090640091
:1013100002C0880F991F0A94E2F78095822387BB49
:1013200082E98A95F1F700C00895F89438B381E016
:1013300090E0AC010090640002C0440F551F0A9475
:10134000E2F7242F2095232328BB47B39C0100906C
:10135000640002C0220F331F0A94E2F7242B27BB3C
:101360002DEA2A95F1F7000027B30090640002C02F
:10137000880F991F0A94E2F78095822387BB78949F
:101380008DE08A95F1F700000895CF93DF93D82F71
:10139000C8E08D2F817097DFD695C150D1F7DF91CE
:1013A000CF910895F89438B381E090E0AC010090BB
:1013B000640002C0440F551F0A94E2F7242F2095C1
:1013C000232328BB47B39C010090640002C0220F76
:1013D000331F0A94E2F7242B27BB28E02A95F1F764
:1013E00027B30090640002C0880F991F0A94E2F7A7
:1013F0008095822387BB8AE18A95F1F700C086B386
:1014000090E00090640002C0959587950A94E2F7F9
:101410008170789498E79A95F1F70895CF93DF93C8
:10142000D8E0C0E0BFDF20E8829FC0011124C6954C
:10143000C82BD150B9F78C2FDF91CF91089503DFDE
:101440008CECA3DF08955058BB27AA270ED00DC1FE
:10145000FED030F003D120F031F49F3F11F41EF4A0
:10146000F3C00EF4E095E7FBE9C0E92F0FD180F35C
:10147000BA17620773078407950718F071F49EF591
:1014800027C10EF4E0950B2EBA2FA02D0B01B90148
:1014900090010C01CA01A0011124FF27591B99F0EA
:1014A000593F50F4503E68F11A16F040A22F232FF6
:1014B000342F4427585FF3CF469537952795A79546
:1014C000F0405395C9F77EF41F16BA0B620B730BED
:1014D000840BBAF09150A1F0FF0FBB1F661F771F5E
:1014E000881FC2F70EC0BA0F621F731F841F48F413
:1014F000879577956795B795F7959E3F08F0B3CF99
:101500009395880F08F09927EE0F97958795089582
:1015100071D008F481E0089504D06894B111D9C065
:101520000895BCD088F09F5790F0B92F9927B751F4
:10153000A0F0D1F0660F771F881F991F1AF0BA9597
:10154000C9F712C0B13081F0C3D0B1E00895C0C076
:10155000672F782F8827B85F39F0B93FCCF386958D
:1015600077956795B395D9F73EF4909580957095EA
:1015700061957F4F8F4F9F4F0895E89409C097FB67
:101580003EF490958095709561957F4F8F4F9F4F5A
:101590009923A9F0F92F96E9BB279395F69587959E
:1015A00077956795B795F111F8CFFAF4BB0F11F461
:1015B00060FF1BC06F5F7F4F8F4F9F4F16C0882308
:1015C00011F096E911C0772321F09EE8872F762F3E
:1015D00005C0662371F096E8862F70E060E02AF07F
:1015E0009A95660F771F881FDAF7880F969587956B
:1015F00097F90895990F0008550FAA0BE0E8FEEF40
:1016000016161706E807F907C0F012161306E407C6
:10161000F50798F0621B730B840B950B39F40A26BF
:1016200061F0232B242B252B21F408950A2609F49D
:10163000A140A6958FEF811D811D089597F99F67A1
:1016400080E870E060E008959FEF80EC089500244A
:101650000A941616170618060906089500240A9417
:1016600012161306140605060895092E0394000C9D
:1016700011F4882352F0BB0F40F4BF2B11F460FF2C
:1016800004C06F5F7F4F8F4F9F4F089557FD905855
:10169000440F551F59F05F3F71F04795880F97FB36
:1016A000991F61F09F3F79F08795089512161306F0
:1016B0001406551FF2CF4695F1DF08C0161617061F
:1016C0001806991FF1CF8695710561050894089554
:1016D000E894BB2766277727CB0197F908950BD0AD
:1016E000C4CFB5DF28F0BADF18F0952309F0A6CFF4
:1016F000ABCF1124EECFCADFA0F3959FD1F3950FA6
:1017000050E0551F629FF001729FBB27F00DB11D85
:10171000639FAA27F00DB11DAA1F649F6627B00D15
:10172000A11D661F829F2227B00DA11D621F739FFE
:10173000B00DA11D621F839FA00D611D221F749F0C
:101740003327A00D611D231F849F600D211D822F53
:10175000762F6A2F11249F5750408AF0E1F088239A
:101760004AF0EE0FFF1FBB1F661F771F881F9150A7
:101770005040A9F79E3F510570F060CFAACF5F3F60
:10178000ECF3983EDCF3869577956795B795F795DA
:10179000E7959F5FC1F7FE2B880F911D9695879562
:1017A00097F908951F93FC0199278827BC01E894B5
:1017B00011911032E9F3193010F01E30C8F31B32CA
:1017C00049F01D3241F4689405C027D0610F711DA6
:1017D000811D911D119110531A30B8F33EF490956C
:1017E0008095709561957F4F8F4F9F4F1F91089502
:1017F000FB01DC010D900020E9F7119701900D929B
:101800000020E1F70895BB274A3031F4992322F4F0
:10181000BDE2909581959F4F37C0592F482F372FA4
:10182000262F660F771F881F991F660F771F881F47
:10183000991F620F731F841F951F660F771F881FE4
:10184000991F0895BB27FA01A62F6217710581051C
:101850009105330B30FB66F0AA27660F771F881FB0
:10186000991FAA1FA21710F0A21B63953850A9F761
:10187000A05DAA3308F0A95DA19336F7B111B19329
:101880001082CA0119C0BB27FB015527AA27880F60
:10189000991FAA1FA41710F0A41B83955051B9F7E4
:1018A000A05DAA3308F0A95DA193009779F7B11163
:1018B000B1931192CB0100C0DC01FC01672F719143
:1018C0007723E1F7329704C07C916D937083629126
:1018D000AE17BF07C8F30895E199FECF9FBB8EBB3B
:1018E000E09A99278DB30895A6E1B0E044E050E076
:1018F00017C0262FE199FECF9FBB8EBB2DBB0FB625
:10190000F894E29AE19A0FBE01960895242FF2DF2F
:10191000252FF0DF00C0EDDF272FECCFDC01CB015E
:10192000FC01E199FECF06C0FFBBEEBBE09A319609
:101930000DB20D9241505040B8F70895F894FFCF82
:10194000FEFDFBF70254203D2000000000000000D7
:10195000000000000000436F64653A00556E6C6F34
:10196000636B6564002A3A4164642F233A44656CD2
:1019700065746500303A4C6973742F313A4368617D
:101980006E6765002A3A4164642D004164646564B1
:10199000004D696E2E2035206E756D626572002ACD
:1019A0003A44656C6574652D0044656C65746564C6
:1019B000004E6F2E002A3A4E65787400436F6465BE
:1019C0002D0052657475726E656400466F756E64A5
:1019D00000636F646573002A3A4368616E67652D22
:0A19E000004368616E676564000053
:00000001FF
