:1000000012C02CC02BC02AC029C028C027C026C0BF
:1000100025C024C023C022C021C020C01FC01EC0D4
:100020001DC01CC01BC011241FBECFE5D4E0DEBF25
:10003000CDBF10E0A0E6B0E0E6E8FDE102C005902B
:100040000D92A43FB107D9F720E0A4EFB0E001C0C2
:100050001D92A53FB207E1F736D193CED1CFE0E6AE
:10006000F0E021E080E0919192BB9AE19A95F1F75E
:1000700000C090B3907F903E71F090B3907F903D20
:1000800019F481E0820F08C090B3907F903B21F477
:1000900082E0820F01C0822F2D5F2D3021F708955D
:1000A000CF92DF92EF92FF92CF93DF93EC016A0140
:1000B0007B01CB01BA0110DC9B01772324F42227BA
:1000C0003327261B370B39832883072E000C880B18
:1000D000990B35DC9B01AC01C701B60194DB20E034
:1000E00030E040E251E4DBDCF7DB9B01772324F4D2
:1000F00022273327261B370B3B832A83DF91CF919F
:10010000FF90EF90DF90CF900895CF92DF92EF9223
:10011000FF920F931F93CF93DF93C22ED32EE42E23
:10012000F52E062F172FD82FC92FDCD984E480D9BC
:100130002FE78FE492E1215080409040E1F700C02A
:1001400000002C2D3D2D4E2D5F2D602F712F8D2FFA
:100150009C2FC8D98EEB6CD9B4D9C82FB2D9682FCF
:1001600070E0762F66276C0F711D072E000C880B30
:10017000990BE5DB20E030E040E85DE390DCDF91C7
:10018000CF911F910F91FF90EF90DF90CF90089546
:1001900094B3936094BB94B39C6394BB662311F0B7
:1001A000A89A01C0A898A99A95B3937C95BB83FDA2
:1001B000AD9A82FDAC9A81FDAB9A80FDAA9A8DE042
:1001C0008A95F1F70000A9980895CF93DF93C82F7F
:1001D000D62F82958F70DCDF6D2F8C2FD9DFDF91CA
:1001E000CF9108958FEC97E00197F1F700C00000E0
:1001F00060E082E0CDDF8FEC97E00197F1F700C07F
:10020000000060E088E2E1DF8FEC97E00197F1F712
:1002100000C0000060E081E0D8DF8FEC97E001973C
:10022000F1F700C0000060E086E0CFDF8FEC97E0E0
:100230000197F1F700C0000060E08CE0C6DF089590
:10024000EFECF7E03197F1F700C0000060E08C6060
:10025000BCDF0895EFECF7E03197F1F700C0000044
:1002600060E08860B2DF08958FEC97E00197F1F7C6
:1002700000C0000060E081E0A8DF0895EFECF7E047
:100280003197F1F700C00000F0E48F9F600D11245A
:10029000862F60E0806899DF0895CF93DF93FC019B
:1002A0002081222369F0EC018FEC97E00197F1F7B0
:1002B00000C0000061E0899188DF88818111F4CF5E
:1002C000DF91CF910895CF93DF93CDB7DEB7CB56B3
:1002D000D1090FB6F894DEBF0FBECDBF81B38F60DA
:1002E00081BB8F9880EF82BB2AE12A95F1F700C08D
:1002F000BB9ABC9ABD9ABE9ABF9AE199FECF80E0A4
:1003000090E015DD6A966CAF7DAF8EAF9FAF6A97B8
:10031000673E73408105910531F46A961CAE1DAEAF
:100320001EAE1FAE6A97E199FECF84E090E0FFDC3D
:10033000A0966CAF7DAF8EAF9FAFA097633671056F
:100340008105910531F4A0961CAE1DAE1EAE1FAE08
:10035000A097E199FECF88E090E0E9DC9B01AC0139
:100360002F5F3F4F4F4F5F4FA9962CAF3DAF4EAF22
:100370005FAFA997273E33404105510531F4A99657
:100380001CAE1DAE1EAE1FAEA997E199FECFA99679
:100390004CAD5DAD6EAD7FADA99788E090E0D9DC46
:1003A0001A821982FE01339684E0DF011D928A953C
:1003B000E9F71A8A198A8EE07096DF01282F1D92BC
:1003C0002A95E9F71AA219A27096DF011D928A9563
:1003D000E9F71AAA19AA1CAA1BAA1EAA1DAA18AED6
:1003E0001FAA1AAE19AE1BAEC12CD12CE12CF12CD8
:1003F000AC961FAE1EAEAC976C961FAE1EAE6C9741
:1004000088248A94982CA12C3E01B7E06B0E711CB5
:10041000A1961FAEA197A296AFAEA29776972C9603
:10042000FFAFEEAF2C97472C2B962FAC2B972C962B
:100430003FAC2C97A396AFAEA397562C832D322CAE
:10044000282EC7986C962EAD3FAD6C97232B09F0E4
:10045000EEC6C698C49A8FE59AEE0197F1F700C0F0
:100460000000AC96AEADBFADAC97AB2B09F0C2C1EE
:10047000EDB7FEB76696FFAFEEAF6697B3DE8FE1DE
:100480009EE40197F1F700C0000080E0D9DEAFE103
:10049000BEE41197F1F700C0000084E0DBDEEFE17D
:1004A000FEE43197F1F700C0000088E026968FAF98
:1004B00026972DB73EB7205431090FB6F8943EBFAA
:1004C0000FBE2DBF0DB71EB70F5F1F4F82E0F5D6D1
:1004D000BE016B5B7F4FC80122D98FE59AEE019771
:1004E000F1F700C000004AE0BE016B5C7F4F6896E8
:1004F0008EAD9FAD6897EADB4AE0BE01675C7F4F37
:100500006E968EAD9FAD6E97E1DB4AE0BE016F5CEB
:100510007F4FA7968EAD9FADA797D8DB2E961FAEC7
:100520001EAE2E97DE0191962896BFAFAEAF2897EC
:10053000FE0171962A96FFAFEEAF2A97A596FFAE01
:10054000EEAEA597A52CF22C232C342C2D96BFAC07
:100550002D97B11007C065E081E090DE84E690E061
:100560009CDE13C0F1E0BF1207C065E081E086DECB
:100570008CE690E092DE09C022E0B21206C065E08F
:1005800081E07CDE84E690E088DE8AAD811106C0E1
:100590006FE074DECE01C99680DE06C06EE080E0BA
:1005A0006DDECE01C99679DE65E080E067DE84E726
:1005B00090E073DE60E081E061DECE01C5966DDE25
:1005C00060E080E05BDECE01C19667DED8012C9151
:1005D00011963C91119712964C91129713965C913B
:1005E000139714966C91149715967C9115971696FF
:1005F0008C91169717969C91085F1F4F86DD649625
:100600006CAF7DAF8EAF9FAF64974AE0BE01645C74
:100610007F4F2E968EAD9FAD2E9718DB64964CAD16
:100620005DAD6EAD7FAD6497CE018F5B9F4F38DDC2
:1006300023964EAC5FAC23974114510439F42596B0
:100640008EAD9FAD2597892B09F4B1C0B11050C074
:1006500020E030E0A90164966CAD7DAD8EAD9FAD1C
:10066000649736D9882364F42A96EEADFFAD2A97B5
:1006700001900020E9F731972DE230E031832083AB
:100680004AE0BE01645C7F4FC201E0DABE01645CF7
:100690007F4FCE014196CFDA2A96EEADFFAD2A9775
:1006A00001900020E9F731974EE250E051834083FA
:1006B0004AE0BE01645C7F4F25968EAD9FAD2597C5
:1006C000C5DABE01645C7F4FCE014196B4DA2A964A
:1006D000EEADFFAD2A9701900020E9F7319787E250
:1006E00093E491838083A0E2B0E0B383A28352C0FD
:1006F000B1E0BB124FC020E030E0A90164966CADC0
:100700007DAD8EAD9FAD6497E3D8882364F42896C1
:10071000EEADFFAD289701900020E9F731972DE26B
:1007200030E0318320834AE0BE01645C7F4FC20128
:100730008DDABE01645C7F4FCE0181967CDA28960B
:10074000EEADFFAD289701900020E9F731974EE21A
:1007500050E0518340834AE0BE01645C7F4F2596A0
:100760008EAD9FAD259772DABE01645C7F4FCE01DE
:10077000819661DA2896EEADFFAD289701900020B2
:10078000E9F7319787E293E491838083A0E2B0E0B8
:10079000B383A283EFE3FCE93197F1F700C00000D7
:1007A00063DD8FE19EE40197F1F700C000002E9613
:1007B000AEADBFAD2E9711962E96BFAFAEAF2E97B2
:1007C000139709F0C3CE5A2C432C322C2F2CA5960C
:1007D000EEACFFACA5976696EEADFFAD66970FB693
:1007E000F894FEBF0FBEEDBF21E030E0AC963FAF06
:1007F0002EAFAC9739DD8FE59AEE0197F1F700C087
:10080000000066961FAE1EAE669791E0A4969FAF5D
:10081000A497AA961FAEAA97842D452C582E69E05E
:1008200080E02CDDCE01419638DD69E081E026DDF7
:10083000CE01819632DD60E080E020DD8BE790E044
:100840002CDD60E081E01ADD81E890E026DDCE015C
:100850000196CBD964966CAF7DAF8EAF9FAF649796
:1008600061E081E00BDDCE01019617DDAFEF8A1666
:100870009A0639F461E081E001DD83E890E00DDD66
:1008800030C08114910439F462E081E0F7DC84E83F
:1008900090E003DD26C0B1E08B16910439F463E0EB
:1008A00081E0ECDC85E890E0F8DC1BC0E2E08E162D
:1008B000910439F464E081E0E1DC86E890E0EDDC6D
:1008C00010C0F3E08F16910461F42FEF30E742E09F
:1008D000215030404040E1F700C00000EE24E39496
:1008E000F12C8981882391F08A81882349F08B81BA
:1008F000882349F08C818111A4C003E010E00CC072
:1009000001E010E009C002E010E006C0A1960FADC2
:10091000A197A2961FADA297A2DB8B3061F49FDB5B
:100920008B30E9F3FE01E00FF11F80E381835FEF7D
:10093000851A950A86C093DB813061F490DB8130A3
:10094000E9F3FE01E00FF11F81E381838FEF881A45
:10095000980A77C084DB823061F481DB8230E9F36E
:10096000FE01E00FF11F82E381839FEF891A990A4C
:1009700068C075DB833061F472DB8330E9F3FE011C
:10098000E00FF11F83E38183AFEF8A1A9A0A59C0FF
:1009900066DB843061F463DB8430E9F3FE01E00F51
:1009A000F11F84E38183BFEF8B1A9B0A4AC057DB98
:1009B000853061F454DB8530E9F3FE01E00FF11F6F
:1009C00085E38183EFEF8E1A9E0A3BC048DB8630B9
:1009D00061F445DB8630E9F3FE01E00FF11F86E3A9
:1009E0008183FFEF8F1A9F0A2CC039DB873061F4B7
:1009F00036DB8730E9F3FE01E00FF11F87E38183E7
:100A00002FEF821A920A1DC02ADB883061F427DB9F
:100A10008830E9F3FE01E00FF11F88E381833FEFA7
:100A2000831A930A0EC01BDB893059F418DB893016
:100A3000E9F3FE01E00FF11F89E381834FEF841A90
:100A4000940A51E0E516F10409F0B4C38C818823BF
:100A500009F4B0C3E199FECF8CE090E068D96296CA
:100A60002EAD3FAD6297032E000C440B550B6496E0
:100A70002CAF3DAF4EAF5FAF64976217730784072B
:100A8000950709F003C3A0968CAD9DADAEADBFAD8B
:100A9000A0970196A11DB11DA0968CAF9DAFAEAFE2
:100AA000BFAFA097E199FECFA0964CAD5DAD6EAD06
:100AB0007FADA09784E090E04CD9D6DBAFE5BAEEED
:100AC0001197F1F700C00000C12CD12C86E0F30192
:100AD00011928A95E9F760E080E0D0DB88E890E049
:100AE000DCDB60E081E0CADB89E990E0D6DBB7DAE5
:100AF0008A3009F003C2B3DA8A30E9F3B5DB8FE557
:100B00009AEE0197F1F700C000000CEB12E0AA2466
:100B1000AA94BB24BA940F2EF0E39F2EF02D0F2E33
:100B2000F1E38F2EF02D66E080E0A8DB80EA90E014
:100B3000B4DB60E081E0A2DB89EA90E0AEDB60E05C
:100B400080E09CDB81E890E0A8DB842D952D4DD8DA
:100B500060966CAF7DAF8EAF9FAF609761E080E035
:100B60008DDB842D952D99DB8F818823D9F08885A5
:100B7000882361F08985882381F08A858111A7C047
:100B80000F2EF3E0EF2EF02DF12C0EC0A496EFAC5B
:100B9000A497AA96FFACAA9707C06894EE24E1F840
:100BA000F12C02C0E12CF12C5ADA8B3059F457DACF
:100BB0008B30E9F3F301EE0DFF1D90829FEFA91A30
:100BC000B90A85C04CDA813059F449DA8130E9F349
:100BD000F301EE0DFF1D8082AFEFAA1ABA0A77C0AB
:100BE0003EDA823061F43BDA8230E9F3F301EE0D54
:100BF000FF1DB2E3B083EFEFAE1ABE0A68C02FDA72
:100C0000833061F42CDA8330E9F3F301EE0DFF1D3C
:100C100023E320833FEFA31AB30A59C020DA8430BC
:100C200061F41DDA8430E9F3F301EE0DFF1D44E3B6
:100C300040835FEFA51AB50A4AC011DA853061F426
:100C40000EDA8530E9F3F301EE0DFF1D85E38083B5
:100C50009FEFA91AB90A3BC002DA863061F4FFD9C6
:100C60008630E9F3F301EE0DFF1DA6E3A083BFEF8D
:100C7000AB1ABB0A2CC0F3D9873061F4F0D98730A6
:100C8000E9F3F301EE0DFF1D27E320833FEFA31AE5
:100C9000B30A1DC0E4D9883061F4E1D98830E9F3A2
:100CA000F301EE0DFF1D88E380834FEFA41AB40A11
:100CB0000EC0D5D9893059F4D2D98930E9F3F3017E
:100CC000EE0DFF1D89E380835FEFA51AB50AC7D932
:100CD0008A3071F5C4D98A30E9F38A85882341F1D5
:100CE000E199FECF60964CAD5DAD6EAD7FAD609786
:100CF0008CE090E02ED8B8DA8FE59AEE0197F1F704
:100D000000C0000005E610E065E081E0B7DA88EB9E
:100D100090E0C3DAC59AAFE5BAEE1197F1F700C0DB
:100D200000000150110981F7C598C12CD12CDFC0FA
:100D300096D9813009F063C092D98C30E9F38A8565
:100D4000882309F45CC0C12CD12C76016894C4F8C6
:100D5000E199FECFC601EBD760962CAD3DAD4EAD0F
:100D60005FAD60972617370748075907C9F51C2D4F
:100D7000E199FECF6FEF812F90E0DED781E0810F08
:100D8000E199FECF6FEF90E0D7D782E0810FE19934
:100D9000FECF6FEF90E0D0D783E0810FE199FECFD7
:100DA0006FEF90E0C9D760DA8FE59AEE0197F1F71F
:100DB00000C0000005E610E064E081E05FDA80EC4E
:100DC00090E06BDAC59AAFE5BAEE1197F1F700C083
:100DD00000000150110981F7C598C12CD12C87C0A2
:100DE000B4E0CB0ED11CE11CF11CE4E8CE16D1041A
:100DF000E104F10409F0ACCFC12CD12C78C02FD97B
:100E00008B3009F047C02BD98A30E9F38A858823D3
:100E100009F440C0C12CD12C76016894C4F8E19942
:100E2000FECFC6017CD78F3F39F5E199FECF6096A2
:100E30004CAD5DAD6EAD7FAD6097C6018AD714DA5B
:100E40008FE59AEE0197F1F700C0000005E610E08B
:100E500065E081E013DA88EC90E01FDAC59AAFE52F
:100E6000BAEE1197F1F700C000000150110981F7A7
:100E7000C598C12CD12C3BC0B4E0CB0ED11CE11CD9
:100E8000F11CE4E8CE16D104E104F10441F6C12CD2
:100E9000D12C2DC0E4D88C3001F5E1D88C30E9F3A9
:100EA000F301EA0DFB1D1082F1E0AF1AB108C69AFA
:100EB0008FE59AEE0197F1F700C00000C69AAFE502
:100EC000BAEE1197F1F700C00000C698CDD9EFE552
:100ED000FAEE3197F1F700C000008FE19EE4019730
:100EE000F1F700C000000150110909F01CCEBCD977
:100EF000AFE5BAEE1197F1F700C00000B0D88C3022
:100F000009F0B3C0ACD88B30E9F36894EE24E4F870
:100F1000F12CC12CD12C0F2EF6E0BF2EF02D6894B1
:100F2000AA24A2F8F3012B2D11922A95E9F72C9609
:100F3000AEADBFAD2C97EA2D1D92EA95E9F7E19988
:100F4000FECF0E2D1F2DC701EAD68F3F09F44FC0EB
:100F5000FFEFCF1ADF0AE199FECF802F912FE7D65E
:100F60002AE0442D552D91D6C601A0E0B0E02AE03C
:100F7000432D522DBC01CD0188D676D98FE59AEE4E
:100F80000197F1F700C000000CEB12E060E080E098
:100F900075D98EEC90E081D963E080E06FD9832D24
:100FA000922D7BD96B2D80E069D982ED90E075D9C7
:100FB00060E081E063D989ED90E06FD96B2D81E02D
:100FC0005DD9842D952D69D94AD88A3021F447D826
:100FD0008A30E9F30CC043D88C3049F0AFE5BAEE63
:100FE0001197F1F700C000000150110979F6B4E043
:100FF000EB0EF11CE4E8EE16F10409F093CF34D9BE
:101000008FE59AEE0197F1F700C0000009EC10E0BF
:101010004AE0632D722DC60119D660E080E02ED91A
:101020008FED90E03AD967E080E028D9832D922DAA
:1010300034D96BE080E022D985EE90E02ED9C59AB4
:10104000AFE5BAEE1197F1F700C0000001501109A9
:10105000F9F6C59809D9EFE5FAEE3197F1F700C036
:101060000000CC24C394D12C31CD8FE59AEE0197AA
:10107000F1F700C000009FEFC91AD90AA8ECCA1600
:10108000D10408F423CDCC24C394D12C00E110E08A
:10109000E199FECFC8014BD664962CAD3DAD4EAD67
:1010A0005FAD6497261737074807590709F04EC008
:1010B000852D542C482E6A968CAD9DADAEADBFAD3E
:1010C0006A970196A11DB11D6A968CAF9DAFAEAF18
:1010D000BFAF6A97E199FECF6A964CAD5DAD6EAD3C
:1010E0007FAD6A9780E0A3969FADA39732D6BCD818
:1010F000AFE5BAEE1197F1F700C0000009EC10E07F
:10110000C39A64E081E0BAD88BEE90E0C6D8C59A65
:10111000EFE5FAEE3197F1F700C000000150110938
:1011200079F7C398C598FE01319686E0DF011D92DC
:101130008A95E9F76894CC24C1F8D12CE12CA396C8
:10114000FFACA39788248A94982CADC00C5F1F4FE6
:101150000438110509F09CCFFE01319686E0DF01CD
:101160001D928A95E9F7C114D10449F0B1E0CB167C
:10117000D10451F0E2E0CE16D10461F48AC0669643
:101180001FAE1EAE669706C0A196CFACA197A296E1
:10119000DFACA29769D88FE59AEE0197F1F700C00E
:1011A0000000A196EFACA197A296FFACA29788246D
:1011B0008A94982C54D78C3019F551D78C30E9F398
:1011C00089818823E9F0FE01E80DF91D118291E083
:1011D000891A9108C69AAFE5BAEE1197F1F700C0E7
:1011E0000000C69AEFE5FAEE3197F1F700C0000073
:1011F000C6983AD88FE59AEE0197F1F700C0000043
:10120000AFE1BEE41197F1F700C000006696EEADC5
:10121000FFAD669731966696FFAFEEAF6697EC3BF3
:10122000F24008F4FCCA852D542C482E3CC06C9624
:101230004EAD5FAD6C9714161506ACF541305105F7
:10124000D1F4C4988FE59AEE0197F1F700C0000041
:101250008CE291E0C79AAFE1BEE41197F1F700C0CC
:1012600000000197B9F7C69AEFE1FEE43197F1F774
:1012700000C0000018C06C962EAD3FAD6C972436B0
:10128000310589F442E050E06C965FAF4EAF6C9749
:101290000AC0852D542C482EE12CA396FFACA397B1
:1012A00088248A94982C6C968EAD9FAD6C9701968D
:1012B0006C969FAF8EAF6C97C4C88093F40048B310
:1012C00021E030E0B90102C0660F771F8A95E2F78E
:1012D000CB01842B88BB87B30090F40002C0220F9F
:1012E000331F0A94E2F7282B27BB089598B321E017
:1012F00030E0A9010090F40002C0440F551F0A9489
:10130000E2F7842F8095892388BB47B3C9010090F9
:10131000F40002C0880F991F0A94E2F7842B87BB60
:101320008FEB93E00197F1F700C0000097B3A9019C
:101330000090F40002C0440F551F0A94E2F7842F76
:101340008095892387BB90EA9A95F1F786B3009040
:10135000F40002C0220F331F0A94E2F78223E3E372
:10136000F3E03197F1F700C00000089580FF30C02E
:10137000F89438B381E090E0AC010090F40002C032
:10138000440F551F0A94E2F7242F2095232328BBEE
:1013900047B39C010090F40002C0220F331F0A944F
:1013A000E2F7242B27BB2AE12A95F1F700C07894B5
:1013B00027B30090F40002C0880F991F0A94E2F747
:1013C0008095822387BB82E98A95F1F700C0089552
:1013D000F89438B381E090E0AC010090F40002C0D2
:1013E000440F551F0A94E2F7242F2095232328BB8E
:1013F00047B39C010090F40002C0220F331F0A94EF
:10140000E2F7242B27BB2DEA2A95F1F7000027B33A
:101410000090F40002C0880F991F0A94E2F78095AB
:10142000822387BB78948DE08A95F1F700000895B8
:10143000CF93DF93D82FC8E08D2F817097DFD6959B
:10144000C150D1F7DF91CF910895F89438B381E07E
:1014500090E0AC010090F40002C0440F551F0A94C4
:10146000E2F7242F2095232328BB47B39C0100904B
:10147000F40002C0220F331F0A94E2F7242B27BB8B
:1014800028E02A95F1F727B30090F40002C0880FF6
:10149000991F0A94E2F78095822387BB8AE18A9597
:1014A000F1F700C086B390E00090F40002C095957B
:1014B00087950A94E2F78170789498E79A95F1F706
:1014C0000895CF93DF93D8E0C0E0BFDF20E8829F8C
:1014D000C0011124C695C82BD150B9F78C2FDF91CC
:1014E000CF910895BF92CF92DF92EF92FF920F9328
:1014F0001F93CF93DF93C22FE32EF42E052F162FC9
:10150000D72FB82EC92EF2DE85E592DF6894DD2450
:10151000D6F88C2F81702ADF2C2F3E2D4F2D502F87
:10152000612F7D2F8B2D9C2D01E037D3C22FE32E11
:10153000F42E052F162FD72FB82EC92EDA94D110DE
:10154000E8CFDF91CF911F910F91FF90EF90DF9047
:10155000CF90BF9008959F92AF92BF92CF92DF92AB
:10156000EF92FF920F931F93CF93DF93922EA32EB0
:10157000B42EC52ED62EE72EF82E192FD02FA0E090
:10158000B0E0F0E0E0E0CCE8292D3A2D4B2D5C2DC9
:101590006D2D7E2D8F2D912F0A2FFFD288E090E0A8
:1015A000322F3E27E695269530FDEC270197C1F7AF
:1015B000FF5F1896FD1740F38E2FDF91CF911F919B
:1015C0000F91FF90EF90DF90CF90BF90AF909F90E2
:1015D00008952F923F924F925F926F927F928F92D7
:1015E0009F92AF92BF92CF92DF92EF92FF920F93B2
:1015F0001F93CF93DF93CDB7DEB729970FB6F8943B
:10160000DEBF0FBECDBF29833A834B835C836D83DE
:101610007E83382E9F83580169DE80EF09DFE12C3D
:10162000F12C412C81E0512C612C712C812C912CBE
:10163000C12CD12C10E022242394898706DF8887CF
:1016400004DF9885913019F4813001F547C0E885B1
:10165000E1111CC081111AC0F5018081F9858F1735
:1016600081F08F1780F029813A814B815C816D81F7
:101670007E81832D9F810E2D90D220FD06C04F2E9E
:1016800005C0288603C0498401C02886288530E02B
:1016900040E050E060E070E080E090E00E2D62D22B
:1016A000522A632A742A852A962AC72AD82A192BED
:1016B00088855CDE89858F5F89879FEFE91AF90A43
:1016C000813409F0BBCFF5014082252D362D472D01
:1016D000582D692D7C2D8D2D912F08C021E030E0F3
:1016E00040E050E060E070E080E090E029960FB6C6
:1016F000F894DEBF0FBECDBFDF91CF911F910F9148
:10170000FF90EF90DF90CF90BF90AF909F908F9021
:101710007F906F905F904F903F902F9008952F9201
:101720003F924F925F926F927F928F929F92AF9271
:10173000BF92CF92DF92EF92FF920F931F93CF93BE
:10174000DF931F92CDB7DEB74C015B011982312CBC
:10175000212C412C512C612C712CC12CD12CE12C31
:10176000F12C01C0212C8E010F5F1F4F242D352D30
:10177000462D572D6C2D7D2D8E2D9F2D2ADF422E2F
:10178000532E642E752EC62ED72EE82EF92EA1E0EC
:1017900020D2B1F008E0DFDE811110C0F40188E052
:1017A000389EE00DF11D11244082518262827382C5
:1017B000C482D582E682F782339408C0239401C0A4
:1017C0002394E3E0E21558F02110CDCF89818823DE
:1017D00021F0F5018081381628F2F50130820F9052
:1017E000DF91CF911F910F91FF90EF90DF90CF90FD
:1017F000BF90AF909F908F907F906F905F904F9031
:101800003F902F9008955058BB27AA270ED00DC1A6
:10181000FED030F003D120F031F49F3F11F41EF4DC
:10182000F3C00EF4E095E7FBE9C0E92F0FD180F398
:10183000BA17620773078407950718F071F49EF5CD
:1018400027C10EF4E0950B2EBA2FA02D0B01B90184
:1018500090010C01CA01A0011124FF27591B99F026
:10186000593F50F4503E68F11A16F040A22F232F32
:10187000342F4427585FF3CF469537952795A79582
:10188000F0405395C9F77EF41F16BA0B620B730B29
:10189000840BBAF09150A1F0FF0FBB1F661F771F9A
:1018A000881FC2F70EC0BA0F621F731F841F48F44F
:1018B000879577956795B795F7959E3F08F0B3CFD5
:1018C0009395880F08F09927EE0F979587950895BF
:1018D00071D008F481E0089504D06894B111D9C0A2
:1018E0000895BCD088F09F5790F0B92F9927B75131
:1018F000A0F0D1F0660F771F881F991F1AF0BA95D4
:10190000C9F712C0B13081F0C3D0B1E00895C0C0B2
:10191000672F782F8827B85F39F0B93FCCF38695C9
:1019200077956795B395D9F73EF490958095709526
:1019300061957F4F8F4F9F4F0895E89409C097FBA3
:101940003EF490958095709561957F4F8F4F9F4F96
:101950009923A9F0F92F96E9BB279395F6958795DA
:1019600077956795B795F111F8CFFAF4BB0F11F49D
:1019700060FF1BC06F5F7F4F8F4F9F4F16C0882344
:1019800011F096E911C0772321F09EE8872F762F7A
:1019900005C0662371F096E8862F70E060E02AF0BB
:1019A0009A95660F771F881FDAF7880F96958795A7
:1019B00097F90895990F0008550FAA0BE0E8FEEF7C
:1019C00016161706E807F907C0F012161306E40703
:1019D000F50798F0621B730B840B950B39F40A26FC
:1019E00061F0232B242B252B21F408950A2609F4DA
:1019F000A140A6958FEF811D811D089597F99F67DE
:101A000080E870E060E008959FEF80EC0895002486
:101A10000A941616170618060906089500240A9453
:101A200012161306140605060895092E0394000CD9
:101A300011F4882352F0BB0F40F4BF2B11F460FF68
:101A400004C06F5F7F4F8F4F9F4F089557FD905891
:101A5000440F551F59F05F3F71F04795880F97FB72
:101A6000991F61F09F3F79F087950895121613062C
:101A70001406551FF2CF4695F1DF08C0161617065B
:101A80001806991FF1CF8695710561050894089590
:101A9000E894BB2766277727CB0197F908950BD0E9
:101AA000C4CFB5DF28F0BADF18F0952309F0A6CF30
:101AB000ABCF1124EECFCADFA0F3959FD1F3950FE2
:101AC00050E0551F629FF001729FBB27F00DB11DC2
:101AD000639FAA27F00DB11DAA1F649F6627B00D52
:101AE000A11D661F829F2227B00DA11D621F739F3B
:101AF000B00DA11D621F839FA00D611D221F749F49
:101B00003327A00D611D231F849F600D211D822F8F
:101B1000762F6A2F11249F5750408AF0E1F08823D6
:101B20004AF0EE0FFF1FBB1F661F771F881F9150E3
:101B30005040A9F79E3F510570F060CFAACF5F3F9C
:101B4000ECF3983EDCF3869577956795B795F79516
:101B5000E7959F5FC1F7FE2B880F911D969587959E
:101B600097F908950F93083090F0982F872F762FCC
:101B7000652F542F432F322F22270850F4CF220FE6
:101B8000331F441F551F661F771F881F991F0A9513
:101B9000B2F70F91089597FB10F8169400080F9371
:101BA000083098F00850232F342F452F562F672FD9
:101BB000782F892F902DF4CF059497958795779559
:101BC000679557954795379527950A95AAF70F91E9
:101BD00008950024A7FD00942A17300540055005FC
:101BE000600570058005900508951F93FC019927F5
:101BF0008827BC01E89411911032E9F3193010F0F4
:101C00001E30C8F31B3249F01D3241F4689405C000
:101C100027D0610F711D811D911D119110531A3034
:101C2000B8F33EF490958095709561957F4F8F4FF6
:101C30009F4F1F910895FB01DC010D900020E9F7F3
:101C4000119701900D920020E1F70895BB274A30CB
:101C500031F4992322F4BDE2909581959F4F37C0CE
:101C6000592F482F372F262F660F771F881F991F50
:101C7000660F771F881F991F620F731F841F951FA0
:101C8000660F771F881F991F0895BB27FA01A62F9B
:101C90006217710581059105330B30FB66F0AA27A9
:101CA000660F771F881F991FAA1FA21710F0A21B8B
:101CB00063953850A9F7A05DAA3308F0A95DA193F8
:101CC00036F7B111B1931082CA0119C0BB27FB01CD
:101CD0005527AA27880F991FAA1FA41710F0A41B25
:101CE00083955051B9F7A05DAA3308F0A95DA1937F
:101CF000009779F7B111B1931192CB0100C0DC01CB
:101D0000FC01672F71917723E1F7329704C07C9132
:101D10006D9370836291AE17BF07C8F30895E19980
:101D2000FECF9FBB8EBBE09A99278DB30895A6E1A5
:101D3000B0E044E050E017C0262FE199FECF9FBBF2
:101D40008EBB2DBB0FB6F894E29AE19A0FBE0196B6
:101D50000895242FF2DF252FF0DF00C0EDDF272FBD
:101D6000ECCFDC01CB01FC01E199FECF06C0FFBB4B
:101D7000EEBBE09A31960DB20D9241505040B8F74B
:061D80000895F894FFCF66
:101D8600FEFDFBF72F285E2D5E292F002D285E2DE8
:101D96005E292D0048656C6C6F2100436F64653ABF
:101DA600003E002E2E2E2E002A3A4164642F4465F2
:101DB6006C2F4368616E676500233A4C6973740043
:101DC6002A3A4368616E676500303A41646420319F
:101DD6003A44656C657465004368616E67656400C6
:101DE60044656C65746564004164646564004E6FA7
:101DF6002E002A3A4E65787400436F64652D0046BE
:101E06006F756E6400636F64657300556E6C6F6307
:041E16006B65640094
:00000001FF
