:1000000012C02CC02BC02AC029C028C027C026C0BF
:1000100025C024C023C022C021C020C01FC01EC0D4
:100020001DC01CC01BC011241FBECFE5D4E0DEBF25
:10003000CDBF10E0A0E6B0E0E6E7FEE102C005902B
:100040000D92AA3FB107D9F720E0AAEFB0E001C0B6
:100050001D92AB3FB207E1F736D10BCFD1CFE0E62F
:10006000F0E021E080E0919192BB9AE19A95F1F75E
:1000700000C090B3907F903E71F090B3907F903D20
:1000800019F481E0820F08C090B3907F903B21F477
:1000900082E0820F01C0822F2D5F2D3021F708955D
:1000A000CF92DF92EF92FF92CF93DF93EC016A0140
:1000B0007B01CB01BA0188DC9B01772324F4222742
:1000C0003327261B370B39832883072E000C880B18
:1000D000990BADDC9B01AC01C701B6010CDC20E043
:1000E00030E040E251E453DD6FDC9B01772324F4E0
:1000F00022273327261B370B3B832A83DF91CF919F
:10010000FF90EF90DF90CF900895CF92DF92EF9223
:10011000FF920F931F93CF93DF93C22ED32EE42E23
:10012000F52E062F172FD82FC92F54DA84E4F8D9CB
:100130002FE78FE492E1215080409040E1F700C02A
:1001400000002C2D3D2D4E2D5F2D602F712F8D2FFA
:100150009C2F40DA8EEBE4D92CDAC82F2ADA682FEC
:1001600070E0762F66276C0F711D072E000C880B30
:10017000990B5DDC20E030E040E85DE308DDDF91D5
:10018000CF911F910F91FF90EF90DF90CF90089546
:1001900094B3936094BB94B39C6394BB662311F0B7
:1001A000A89A01C0A898A99A95B3937C95BB83FDA2
:1001B000AD9A82FDAC9A81FDAB9A80FDAA9A8DE042
:1001C0008A95F1F70000A9980895CF93DF93C82F7F
:1001D000D62F82958F70DCDF6D2F8C2FD9DFDF91CA
:1001E000CF9108958FEC97E00197F1F700C00000E0
:1001F00060E082E0CDDF8FEC97E00197F1F700C07F
:10020000000060E088E2E1DF8FEC97E00197F1F712
:1002100000C0000060E081E0D8DF8FEC97E001973C
:10022000F1F700C0000060E086E0CFDF8FEC97E0E0
:100230000197F1F700C0000060E08CE0C6DF089590
:10024000EFECF7E03197F1F700C0000060E08C6060
:10025000BCDF0895EFECF7E03197F1F700C0000044
:1002600060E08860B2DF08958FEC97E00197F1F7C6
:1002700000C0000060E081E0A8DF0895EFECF7E047
:100280003197F1F700C00000F0E48F9F600D11245A
:10029000862F60E0806899DF0895CF93DF93FC019B
:1002A0002081222369F0EC018FEC97E00197F1F7B0
:1002B00000C0000061E0899188DF88818111F4CF5E
:1002C000DF91CF910895CF93DF93CDB7DEB7CD55B2
:1002D000D1090FB6F894DEBF0FBECDBF81B38F60DA
:1002E00081BB8F9880EF82BB2AE12A95F1F700C08D
:1002F000BB9ABC9ABD9ABE9AE199FECF80E090E08D
:100300008EDD66966CAF7DAF8EAF9FAF6697673E12
:1003100073408105910531F466961CAE1DAE1EAE8C
:100320001FAE6697E199FECF84E090E078DD6C9691
:100330006CAF7DAF8EAF9FAF6C9763367105810553
:10034000910531F46C961CAE1DAE1EAE1FAE6C97BF
:100350001A82198284E0FE013396DF01282F1D9254
:100360002A95E9F718861F823696DF011D928A9535
:10037000E9F71E861D86188A1F861A8A198A8EE05A
:100380003A96DF01282F1D922A95E9F71AA219A2A1
:100390007096DF011D928A95E9F71AAA19AA1BAA7D
:1003A0001DAA1CAA62961FAE1EAE6297E12CF12C0C
:1003B0006E961FAE1EAE6E9780E090E0CC24CA947D
:1003C000DC2C72972296FFAFEEAF22979E01295F39
:1003D0003F4F24963FAF2EAF2497AE01435F5F4F50
:1003E00026965FAF4EAF26972396BFAC23972496F1
:1003F0008FAC249725962FAC259726963FAC269751
:10040000722C282C632C3B2CC69AB39B11C0B39939
:10041000FECF88EC90E0C39AC59AAFE5BAEE11978B
:10042000F1F700C000000197B1F7C398C59803C069
:10043000009709F060C7C698C49ABFEFE0E7F2E002
:10044000B150E040F040E1F700C000006E962EADE4
:100450003FAD6E97232B09F06EC14DB75EB72C965A
:100460005FAF4EAF2C97BEDE8FE19EE40197F1F7B0
:1004700000C0000080E0E4DEAFE1BEE41197F1F7D8
:1004800000C0000084E0E6DEEFE1FEE43197F1F722
:1004900000C0000088E08FAF2DB73EB7205431096F
:1004A0000FB6F8943EBF0FBE2DBF0DB71EB70F5F3E
:1004B0001F4F82E07AD7BE01615C7F4FC801A7D988
:1004C0008FE59AEE0197F1F700C000004AE0BE0107
:1004D0006F5C7F4F64968EAD9FAD64976FDC4AE092
:1004E000BE016C5C7F4F6A968EAD9FAD6A9766DCED
:1004F0005801812C912C2E0191E2490E511C182D8E
:1005000081104BC066E081E0B9DE84E690E0C5DE94
:1005100060E080E0B3DECE01C496BFDE66E080E03E
:10052000ADDE8CE690E0B9DE60E081E0A7DECE01D2
:10053000C196B3DED5012C9111963C91119712967C
:100540004C91129713965C91139714966C91149793
:1005500015967C91159716968C91169717969C91E7
:10056000D4DD2A966CAF7DAF8EAF9FAF2A974AE05D
:10057000BE016A5C7F4FC401E1DB2A964CAD5DADE4
:100580006EAD7FAD2A97CE01CB968ADD0BAD1CAD4B
:100590000115110509F403C713C0113039F466E0E1
:1005A00081E06CDE83E790E078DEB0C6123009F0BF
:1005B000ADC666E081E062DE84E690E06EDEA6C64F
:1005C00020E030E0A9012A966CAD7DAD8EAD9FADE7
:1005D0002A97F6D9882364F42296EEADFFAD2297D0
:1005E00001900020E9F731972DE230E0318320833C
:1005F0004AE0BE016A5C7F4FC801A0DBBE016A5CB5
:100600007F4FCE0141968FDB2296EEADFFAD229754
:1006100001900020E9F731974EE250E0518340838A
:100620004AE0BE016A5C7F4F8DAD9EAD87DBBE01A7
:100630006A5C7F4FCE01419676DB2296EEADFFAD30
:10064000229701900020E9F7319787E293E49183A4
:100650008083A0E2B0E0B383A28346C0113009F0EA
:1006600043C020E030E0A9012A966CAD7DAD8EAD8F
:100670009FAD2A97A5D988234CF4F2010190002060
:10068000E9F731972DE230E0318320834AE0BE0163
:100690006A5C7F4F8BAD9CAD51DBBE016A5C7F4FC6
:1006A000C20141DBF20101900020E9F731974EE2EF
:1006B00050E0518340834AE0BE016A5C7F4F8DADBC
:1006C0009EAD3CDBBE016A5C7F4FC2012CDBF201B8
:1006D00001900020E9F7319787E293E491838083CA
:1006E000A0E2B0E0B383A283EFE5FAEE3197F1F731
:1006F00000C00000B9DD8FE19EE40197F1F700C072
:1007000000009FEF891A990AA8E0AA0EB11CB3E075
:100710008B16910409F0F3CE2C96EEADFFAD2C971D
:100720000FB6F894FEBF0FBEEDBF21E030E06E962D
:100730003FAF2EAF6E9798DD8FE59AEE0197F1F7F8
:1007400000C00000412C512C91E067969FAF679745
:1007500068961FAE68972C965FAE4EAE2C9769E0F8
:1007600080E08CDDCE01419698DD69E081E086DD98
:10077000CE01819692DD60E080E080DD8BE790E045
:100780008CDD60E081E07ADD81E890E086DDCE01FD
:100790000196A3DA4B015C0161E081E06FDDCE01DF
:1007A00001967BDDAFEFCA16DA0639F461E081E02D
:1007B00065DD83E890E071DD30C0C114D10439F407
:1007C00062E081E05BDD84E890E067DD26C0B1E0B7
:1007D000CB16D10439F463E081E050DD85E890E088
:1007E0005CDD1BC0E2E0CE16D10439F464E081E0A8
:1007F00045DD86E890E051DD10C0F3E0CF16D1046E
:1008000061F42FEF30E742E0215030404040E1F703
:1008100000C00000EE24E394F12C8981882391F03C
:100820008A81882349F08B81882349F08C8181114A
:10083000A0C003E010E008C001E010E005C002E045
:1008400010E002C000E010E00ADC8B3061F407DC4D
:100850008B30E9F3FE01E00FF11F80E381835FEF4E
:10086000C51AD50A86C0FBDB813061F4F8DB813024
:10087000E9F3FE01E00FF11F81E381838FEFC81AD6
:10088000D80A77C0ECDB823061F4E9DB8230E9F32F
:10089000FE01E00FF11F82E381839FEFC91AD90A9D
:1008A00068C0DDDB833061F4DADB8330E9F3FE011D
:1008B000E00FF11F83E38183AFEFCA1ADA0A59C050
:1008C000CEDB843061F4CBDB8430E9F3FE01E00F52
:1008D000F11F84E38183BFEFCB1ADB0A4AC0BFDB81
:1008E000853061F4BCDB8530E9F3FE01E00FF11FD8
:1008F00085E38183EFEFCE1ADE0A3BC0B0DB8630A2
:1009000061F4ADDB8630E9F3FE01E00FF11F86E311
:100910008183FFEFCF1ADF0A2CC0A1DB873061F49F
:100920009EDB8730E9F3FE01E00FF11F87E381834F
:100930002FEFC21AD20A1DC092DB883061F48FDB20
:100940008830E9F3FE01E00FF11F88E381833FEF78
:10095000C31AD30A0EC083DB893059F480DB893097
:10096000E9F3FE01E00FF11F89E381834FEFC41A21
:10097000D40A51E0E516F10409F081C48C81882382
:1009800009F47DC4E199FECF88E090E048DA940153
:10099000990C440B550B60962CAF3DAF4EAF5FAF3B
:1009A0006097621773078407950709F0EBC3629697
:1009B0004EAD5FAD62974F5F5F4F62965FAF4EAFD8
:1009C00062976C968CAD9DADAEADBFAD6C97019648
:1009D000A11DB11D6C968CAF9DAFAEAFBFAF6C9734
:1009E000E199FECF6C964CAD5DAD6EAD7FAD6C9771
:1009F00084E090E026DA38DCAFE5BAEE1197F1F743
:100A000000C00000812C912C0F2EF6E05F2EF02DFF
:100A10002496EEADFFAD2497252D11922A95E9F786
:100A200060E080E02BDC88E890E037DC60E081E08B
:100A300025DC85E990E031DC12DB8A3009F07AC1EF
:100A40000EDB8A30E9F310DC8FE59AEE0197F1F7BF
:100A500000C000000F2EF8E5EF2EF2E0FF2EF02D83
:100A60000F2EF0E34F2EF02D0F2EF1E3DF2EF02DA1
:100A70000F2EF4E3AF2EF02D0F2EF5E3BF2EF02D49
:100A80000F2EF6E3CF2EF02D60E081E0F7DB85EA54
:100A900090E003DC60E080E0F1DB81E890E0FDDBEA
:100AA000832D922D1AD92A966CAF7DAF8EAF9FAF52
:100AB0002A9761E080E0E2DB832D922DEEDB8F81CF
:100AC0008823B1F08885882349F08985882369F0D7
:100AD0008A8581119FC003E010E00CC067960FADBE
:100AE000679768961FAD689705C002E010E002C0E6
:100AF00000E010E0B4DA8B3059F4B1DA8B30E9F36E
:100B0000E7E0F0E0EC0FFD1FE00FF11F408282C034
:100B1000A6DA813059F4A3DA8130E9F3E7E0F0E0B6
:100B2000EC0FFD1FE00FF11FD08274C098DA823005
:100B300061F495DA8230E9F3E7E0F0E0EC0FFD1FB5
:100B4000E00FF11F92E3908365C089DA833061F48E
:100B500086DA8330E9F3E7E0F0E0EC0FFD1FE00F09
:100B6000F11FA3E3A08356C07ADA843059F477DA10
:100B70008430E9F3E7E0F0E0EC0FFD1FE00FF11F38
:100B8000A08248C06CDA853059F469DA8530E9F31F
:100B9000E7E0F0E0EC0FFD1FE00FF11FB0823AC07C
:100BA0005EDA863059F45BDA8630E9F3E7E0F0E0AC
:100BB000EC0FFD1FE00FF11FC0822CC050DA873010
:100BC00061F44DDA8730E9F3E7E0F0E0EC0FFD1F68
:100BD000E00FF11FB7E3B0831DC041DA883061F444
:100BE0003EDA8830E9F3E7E0F0E0EC0FFD1FE00FBC
:100BF000F11F88E380830EC032DA893059F42FDA8E
:100C00008930E9F3E7E0F0E0EC0FFD1FE00FF11FA2
:100C100089E3808324DA8C3071F521DA8A30E9F3B4
:100C20008A85882341F1E199FECF2A964CAD5DADCE
:100C30006EAD7FAD2A9788E090E003D915DBEFE534
:100C4000FAEE3197F1F700C0000005E610E065E02C
:100C500081E014DB84EB90E020DBC59A8FE59AEE0F
:100C60000197F1F700C000000150110981F7C59804
:100C7000812C912C58C0F3D98A3009F049C0EFD9A2
:100C80008A30E9F38A85882309F442C00F2EFCE0FC
:100C9000CF2ED12CE12CF12CF02DE199FECFC60105
:100CA000B6D88F3F39F5E199FECF2A964CAD5DADB0
:100CB0006EAD7FAD2A97C601C4D8D6DAAFE5BAEEDD
:100CC0001197F1F700C0000005E610E065E081E053
:100CD000D5DA8CEB90E0E1DAC59AEFE5FAEE3197E0
:100CE000F1F700C000000150110981F7C598812C6F
:100CF000912C19C0F4E0CF0ED11CE11CF11C24E8AA
:100D0000C216D104E104F10441F6812C912C0BC0F0
:100D10008FE19EE40197F1F700C0000091E0E91A2D
:100D2000F10809F0B1CEA0DAAFE5BAEE1197F1F70C
:100D300000C0000094D98C3009F05FC190D98C308C
:100D4000E9F392DAEFE5FAEE3197F1F700C000002F
:100D500008E512E00F2EF0E34F2EF02D0F2EF1E3F9
:100D6000DF2EF02D0F2EF4E3AF2EF02D0F2EF5E336
:100D7000BF2EF02D0F2EF6E3CF2EF02D60E080E099
:100D80007DDA82EC90E089DA832D922DA6D72A961F
:100D90006CAF7DAF8EAF9FAF2A976AE080E06EDACE
:100DA000832D922D7ADA8F818823D9F08885882344
:100DB00061F08985882381F08A858111A4C00F2E76
:100DC000F3E0EF2EF02DF12C0EC06796EFAC679795
:100DD0006896FFAC689707C06894EE24E1F8F12CA0
:100DE00002C0E12CF12C3BD98B3059F438D98B302F
:100DF000E9F3E7E0F0E0EC0FFD1FEE0DFF1D408290
:100E000082C02DD9813059F42AD98130E9F3E7E045
:100E1000F0E0EC0FFD1FEE0DFF1DD08274C01FD956
:100E2000823061F41CD98230E9F3E7E0F0E0EC0FA6
:100E3000FD1FEE0DFF1D22E3208365C010D9833016
:100E400061F40DD98330E9F3E7E0F0E0EC0FFD1F2A
:100E5000EE0DFF1D33E3308356C001D9843059F4C1
:100E6000FED88430E9F3E7E0F0E0EC0FFD1FEE0D73
:100E7000FF1DA08248C0F3D8853059F4F0D88530E2
:100E8000E9F3E7E0F0E0EC0FFD1FEE0DFF1DB0828F
:100E90003AC0E5D8863059F4E2D88630E9F3E7E085
:100EA000F0E0EC0FFD1FEE0DFF1DC0822CC0D7D867
:100EB000873061F4D4D88730E9F3E7E0F0E0EC0F55
:100EC000FD1FEE0DFF1D47E340831DC0C8D88830CD
:100ED00061F4C5D88830E9F3E7E0F0E0EC0FFD1FDE
:100EE000EE0DFF1D88E380830EC0B9D8893059F418
:100EF000B6D88930E9F3E7E0F0E0EC0FFD1FEE0D26
:100F0000FF1D89E38083ABD88A3009F065C0A7D87C
:100F10008A30E9F38A85882309F45EC00F2EFCE04D
:100F2000CF2ED12CE12CF12CF02DE199FECFC60172
:100F300076D72A962CAD3DAD4EAD5FAD2A972617DC
:100F4000370748075907C9F51C2DE199FECF6FEF08
:100F5000812F90E069D781E0810FE199FECF6FEF9B
:100F600090E062D782E0810FE199FECF6FEF90E0D1
:100F70005BD783E0810FE199FECF6FEF90E054D70C
:100F800073D98FE59AEE0197F1F700C0000005E6EE
:100F900010E064E081E072D98CEC90E07ED9C59AD3
:100FA000AFE5BAEE1197F1F700C00000015011094A
:100FB00081F7C598812C912C19C0B4E0CB0ED11CBF
:100FC000E11CF11CE4E8CE16D104E104F10409F0BF
:100FD000ACCF812C912C0AC08FE19EE40197F1F7F0
:100FE00000C000000150110909F0C8CE3DD9AFE59D
:100FF000BAEE1197F1F700C0000031D88B3009F03C
:10100000B3C02DD88B30E9F30F2EFCE0EF2EF12C7E
:10101000F02DC12CD12C6894BB24B2F82496EEADEF
:10102000FFAD2497252D11922A95E9F72696AEADAE
:10103000BFAD2697EB2D1D92EA95E9F7E199FECF1A
:101040000E2D1F2DC701E3D68F3F09F44FC0FFEFD0
:10105000CF1ADF0AE199FECF802F912FE0D62AE048
:10106000432D522D8AD6C601A0E0B0E02AE0472DDC
:10107000562DBC01CD0181D6F7D88FE59AEE0197A8
:10108000F1F700C0000008E512E060E080E0F6D86B
:1010900084ED90E002D963E080E0F0D8872D962DB2
:1010A000FCD8652D80E0EAD888ED90E0F6D860E0C5
:1010B00081E0E4D88FED90E0F0D8652D81E0DED8B6
:1010C000832D922DEAD8CBD78A3021F4C8D78A3025
:1010D000E9F30CC0C4D78C3049F0AFE5BAEE1197F4
:1010E000F1F700C000000150110979F6B4E0EB0EF1
:1010F000F11CE4E8EE16F10409F090CFB5D88FE5C5
:101100009AEE0197F1F700C0000009EC10E04AE008
:10111000672D762DC60112D660E080E0AFD885EE4F
:1011200090E0BBD867E080E0A9D8872D962DB5D890
:101130006BE080E0A3D88BEE90E0AFD8C59AAFE526
:10114000BAEE1197F1F700C0000001501109F9F64D
:10115000C5988AD8EFE5FAEE3197F1F700C00000A4
:1011600088248394912C54CC8FE59AEE0197F1F763
:1011700000C000009FEF891A990AA8EC8A16910412
:1011800008F446CC0CE010E0E199FECFC80147D648
:1011900060962CAD3DAD4EAD5FAD6097261737071D
:1011A0004807590709F041C062964EAD5FAD62979E
:1011B0004F5F5F4F62965FAF4EAF629766968CADA2
:1011C0009DADAEADBFAD66970196A11DB11D6696F2
:1011D0008CAF9DAFAEAFBFAF6697E199FECF66967D
:1011E0004CAD5DAD6EAD7FAD669780E090E029D6E9
:1011F0003BD8AFE5BAEE1197F1F700C0000009EC5B
:1012000010E064E081E03AD881EF90E046D8C39ADC
:10121000C59AEFE5FAEE3197F1F700C000000150F2
:10122000110979F7C398C59806C00C5F1F4F0438A1
:10123000110509F0A9CFFE01319686E0DF011D926C
:101240008A95E9F76296EEADFFAD6297309739F077
:10125000319749F462961FAE1EAE629704C02C9679
:101260001FAE1EAE2C9700D88FE59AEE0197F1F7CE
:1012700000C00000E12CF12CCC24CA94DC2CEFD669
:101280008C3019F5ECD68C30E9F389818823E9F0AC
:10129000FE01EC0DFD1D118291E0C91AD108C69A1C
:1012A000AFE5BAEE1197F1F700C00000C69AEFE57E
:1012B000FAEE3197F1F700C00000C698D5D78FE558
:1012C0009AEE0197F1F700C00000AFE1BEE411977C
:1012D000F1F700C000002C96EEADFFAD2C973196D3
:1012E0002C96FFAFEEAF2C97E835F24008F437CAE2
:1012F00080E090E009C01816190634F4C4988436CA
:10130000910511F481E090E001967EC860E080E0F4
:10131000B5D7CE01C496C1D766E080E0AFD78CE6E2
:1013200090E0BBD760E081E0A9D7CE01C196B5D7E8
:10133000D5012C9111963C91119712964C911297D0
:1013400013965C91139714966C91149715967C9153
:10135000159716968C91169717969C91D6D62A9625
:101360006CAF7DAF8EAF9FAF2A974AE0BE016A5C3B
:101370007F4FC401E3D42A964CAD5DAD6EAD7FAD19
:101380002A97CE01CB968CD68BAD9CAD892B09F0DC
:1013900065C98DAD9EAD892B09F4B3C95FC98DAD0B
:1013A0009EAD892B09F4ADC90BC98093FA0048B3EF
:1013B00021E030E0B90102C0660F771F8A95E2F79D
:1013C000CB01842B88BB87B30090FA0002C0220FA8
:1013D000331F0A94E2F7282B27BB089598B321E026
:1013E00030E0A9010090FA0002C0440F551F0A9492
:1013F000E2F7842F8095892388BB47B3C901009009
:10140000FA0002C0880F991F0A94E2F7842B87BB69
:101410008FEB93E00197F1F700C0000097B3A901AB
:101420000090FA0002C0440F551F0A94E2F7842F7F
:101430008095892387BB90EA9A95F1F786B300904F
:10144000FA0002C0220F331F0A94E2F78223E3E37B
:10145000F3E03197F1F700C00000089580FF30C03D
:10146000F89438B381E090E0AC010090FA0002C03B
:10147000440F551F0A94E2F7242F2095232328BBFD
:1014800047B39C010090FA0002C0220F331F0A9458
:10149000E2F7242B27BB2AE12A95F1F700C07894C4
:1014A00027B30090FA0002C0880F991F0A94E2F750
:1014B0008095822387BB82E98A95F1F700C0089561
:1014C000F89438B381E090E0AC010090FA0002C0DB
:1014D000440F551F0A94E2F7242F2095232328BB9D
:1014E00047B39C010090FA0002C0220F331F0A94F8
:1014F000E2F7242B27BB2DEA2A95F1F7000027B34A
:101500000090FA0002C0880F991F0A94E2F78095B4
:10151000822387BB78948DE08A95F1F700000895C7
:10152000CF93DF93D82FC8E08D2F817097DFD695AA
:10153000C150D1F7DF91CF910895F89438B381E08D
:1015400090E0AC010090FA0002C0440F551F0A94CD
:10155000E2F7242F2095232328BB47B39C0100905A
:10156000FA0002C0220F331F0A94E2F7242B27BB94
:1015700028E02A95F1F727B30090FA0002C0880FFF
:10158000991F0A94E2F78095822387BB8AE18A95A6
:10159000F1F700C086B390E00090FA0002C0959584
:1015A00087950A94E2F78170789498E79A95F1F715
:1015B0000895CF93DF93D8E0C0E0BFDF20E8829F9B
:1015C000C0011124C695C82BD150B9F78C2FDF91DB
:1015D000CF910895BF92CF92DF92EF92FF920F9337
:1015E0001F93CF93DF93C22FE32EF42E052F162FD8
:1015F000D72FB82EC92EF2DE85E592DF6894DD2460
:10160000D6F88C2F81702ADF2C2F3E2D4F2D502F96
:10161000612F7D2F8B2D9C2D01E037D3C22FE32E20
:10162000F42E052F162FD72FB82EC92EDA94D110ED
:10163000E8CFDF91CF911F910F91FF90EF90DF9056
:10164000CF90BF9008959F92AF92BF92CF92DF92BA
:10165000EF92FF920F931F93CF93DF93922EA32EBF
:10166000B42EC52ED62EE72EF82E192FD02FA0E09F
:10167000B0E0F0E0E0E0CCE8292D3A2D4B2D5C2DD8
:101680006D2D7E2D8F2D912F0A2FFFD288E090E0B7
:10169000322F3E27E695269530FDEC270197C1F7BE
:1016A000FF5F1896FD1740F38E2FDF91CF911F91AA
:1016B0000F91FF90EF90DF90CF90BF90AF909F90F1
:1016C00008952F923F924F925F926F927F928F92E6
:1016D0009F92AF92BF92CF92DF92EF92FF920F93C1
:1016E0001F93CF93DF93CDB7DEB729970FB6F8944A
:1016F000DEBF0FBECDBF29833A834B835C836D83EE
:101700007E83382E9F83580169DE80EF09DFE12C4C
:10171000F12C412C81E0512C612C712C812C912CCD
:10172000C12CD12C10E022242394898706DF8887DE
:1017300004DF9885913019F4813001F547C0E885C0
:10174000E1111CC081111AC0F5018081F9858F1744
:1017500081F08F1780F029813A814B815C816D8106
:101760007E81832D9F810E2D90D220FD06C04F2EAD
:1017700005C0288603C0498401C02886288530E03A
:1017800040E050E060E070E080E090E00E2D62D23A
:10179000522A632A742A852A962AC72AD82A192BFC
:1017A00088855CDE89858F5F89879FEFE91AF90A52
:1017B000813409F0BBCFF5014082252D362D472D10
:1017C000582D692D7C2D8D2D912F08C021E030E002
:1017D00040E050E060E070E080E090E029960FB6D5
:1017E000F894DEBF0FBECDBFDF91CF911F910F9157
:1017F000FF90EF90DF90CF90BF90AF909F908F9031
:101800007F906F905F904F903F902F9008952F9210
:101810003F924F925F926F927F928F929F92AF9280
:10182000BF92CF92DF92EF92FF920F931F93CF93CD
:10183000DF931F92CDB7DEB74C015B011982312CCB
:10184000212C412C512C612C712CC12CD12CE12C40
:10185000F12C01C0212C8E010F5F1F4F242D352D3F
:10186000462D572D6C2D7D2D8E2D9F2D2ADF422E3E
:10187000532E642E752EC62ED72EE82EF92EA1E0FB
:1018800020D2B1F008E0DFDE811110C0F40188E061
:10189000389EE00DF11D11244082518262827382D4
:1018A000C482D582E682F782339408C0239401C0B3
:1018B0002394E3E0E21558F02110CDCF89818823ED
:1018C00021F0F5018081381628F2F50130820F9061
:1018D000DF91CF911F910F91FF90EF90DF90CF900C
:1018E000BF90AF909F908F907F906F905F904F9040
:1018F0003F902F9008955058BB27AA270ED00DC1B6
:10190000FED030F003D120F031F49F3F11F41EF4EB
:10191000F3C00EF4E095E7FBE9C0E92F0FD180F3A7
:10192000BA17620773078407950718F071F49EF5DC
:1019300027C10EF4E0950B2EBA2FA02D0B01B90193
:1019400090010C01CA01A0011124FF27591B99F035
:10195000593F50F4503E68F11A16F040A22F232F41
:10196000342F4427585FF3CF469537952795A79591
:10197000F0405395C9F77EF41F16BA0B620B730B38
:10198000840BBAF09150A1F0FF0FBB1F661F771FA9
:10199000881FC2F70EC0BA0F621F731F841F48F45E
:1019A000879577956795B795F7959E3F08F0B3CFE4
:1019B0009395880F08F09927EE0F979587950895CE
:1019C00071D008F481E0089504D06894B111D9C0B1
:1019D0000895BCD088F09F5790F0B92F9927B75140
:1019E000A0F0D1F0660F771F881F991F1AF0BA95E3
:1019F000C9F712C0B13081F0C3D0B1E00895C0C0C2
:101A0000672F782F8827B85F39F0B93FCCF38695D8
:101A100077956795B395D9F73EF490958095709535
:101A200061957F4F8F4F9F4F0895E89409C097FBB2
:101A30003EF490958095709561957F4F8F4F9F4FA5
:101A40009923A9F0F92F96E9BB279395F6958795E9
:101A500077956795B795F111F8CFFAF4BB0F11F4AC
:101A600060FF1BC06F5F7F4F8F4F9F4F16C0882353
:101A700011F096E911C0772321F09EE8872F762F89
:101A800005C0662371F096E8862F70E060E02AF0CA
:101A90009A95660F771F881FDAF7880F96958795B6
:101AA00097F90895990F0008550FAA0BE0E8FEEF8B
:101AB00016161706E807F907C0F012161306E40712
:101AC000F50798F0621B730B840B950B39F40A260B
:101AD00061F0232B242B252B21F408950A2609F4E9
:101AE000A140A6958FEF811D811D089597F99F67ED
:101AF00080E870E060E008959FEF80EC0895002496
:101B00000A941616170618060906089500240A9462
:101B100012161306140605060895092E0394000CE8
:101B200011F4882352F0BB0F40F4BF2B11F460FF77
:101B300004C06F5F7F4F8F4F9F4F089557FD9058A0
:101B4000440F551F59F05F3F71F04795880F97FB81
:101B5000991F61F09F3F79F087950895121613063B
:101B60001406551FF2CF4695F1DF08C0161617066A
:101B70001806991FF1CF869571056105089408959F
:101B8000E894BB2766277727CB0197F908950BD0F8
:101B9000C4CFB5DF28F0BADF18F0952309F0A6CF3F
:101BA000ABCF1124EECFCADFA0F3959FD1F3950FF1
:101BB00050E0551F629FF001729FBB27F00DB11DD1
:101BC000639FAA27F00DB11DAA1F649F6627B00D61
:101BD000A11D661F829F2227B00DA11D621F739F4A
:101BE000B00DA11D621F839FA00D611D221F749F58
:101BF0003327A00D611D231F849F600D211D822F9F
:101C0000762F6A2F11249F5750408AF0E1F08823E5
:101C10004AF0EE0FFF1FBB1F661F771F881F9150F2
:101C20005040A9F79E3F510570F060CFAACF5F3FAB
:101C3000ECF3983EDCF3869577956795B795F79525
:101C4000E7959F5FC1F7FE2B880F911D96958795AD
:101C500097F908950F93083090F0982F872F762FDB
:101C6000652F542F432F322F22270850F4CF220FF5
:101C7000331F441F551F661F771F881F991F0A9522
:101C8000B2F70F91089597FB10F8169400080F9380
:101C9000083098F00850232F342F452F562F672FE8
:101CA000782F892F902DF4CF059497958795779568
:101CB000679557954795379527950A95AAF70F91F8
:101CC00008950024A7FD00942A173005400550050B
:101CD000600570058005900508951F93FC01992704
:101CE0008827BC01E89411911032E9F3193010F003
:101CF0001E30C8F31B3249F01D3241F4689405C010
:101D000027D0610F711D811D911D119110531A3043
:101D1000B8F33EF490958095709561957F4F8F4F05
:101D20009F4F1F910895FB01DC010D900020E9F702
:101D3000119701900D920020E1F70895BB274A30DA
:101D400031F4992322F4BDE2909581959F4F37C0DD
:101D5000592F482F372F262F660F771F881F991F5F
:101D6000660F771F881F991F620F731F841F951FAF
:101D7000660F771F881F991F0895BB27FA01A62FAA
:101D80006217710581059105330B30FB66F0AA27B8
:101D9000660F771F881F991FAA1FA21710F0A21B9A
:101DA00063953850A9F7A05DAA3308F0A95DA19307
:101DB00036F7B111B1931082CA0119C0BB27FB01DC
:101DC0005527AA27880F991FAA1FA41710F0A41B34
:101DD00083955051B9F7A05DAA3308F0A95DA1938E
:101DE000009779F7B111B1931192CB0100C0DC01DA
:101DF000FC01672F71917723E1F7329704C07C9142
:101E00006D9370836291AE17BF07C8F30895E1998F
:101E1000FECF9FBB8EBBE09A99278DB30895A6E1B4
:101E2000B0E044E050E017C0262FE199FECF9FBB01
:101E30008EBB2DBB0FB6F894E29AE19A0FBE0196C5
:101E40000895242FF2DF252FF0DF00C0EDDF272FCC
:101E5000ECCFDC01CB01FC01E199FECF06C0FFBB5A
:101E6000EEBBE09A31960DB20D9241505040B8F75A
:061E70000895F894FFCF75
:101E7600FEFDFBF72F285E2D5E292F0048656C6C52
:101E86006F21002D285E2D5E292D00436F64653A73
:101E9600003E002E2E2E2E002A3A4164642F4368FF
:101EA600616E676500233A44656C6574652F303A48
:101EB6004C697374002A3A41646420233A4368618A
:101EC6006E6765004368616E6765640041646465BA
:101ED60064002A3A44656C6574652D0044656C653A
:101EE600746564004E6F2E002A3A4E65787400437E
:101EF6006F64652D00466F756E6400636F6465736D
:0A1F060000556E6C6F636B6564009C
:00000001FF
