:1000000012C02CC02BC02AC029C028C027C026C0BF
:1000100025C024C023C022C021C020C01FC01EC0D4
:100020001DC01CC01BC011241FBECFE5D4E0DEBF25
:10003000CDBF10E0A0E6B0E0E8EAFDE102C0059027
:100040000D92A43FB107D9F720E0A4EFB0E001C0C2
:100050001D92A53FB207E1F736D1A4CED1CFE0E69D
:10006000F0E021E080E0919192BB9AE19A95F1F75E
:1000700000C090B3907F903E71F090B3907F903D20
:1000800019F481E0820F08C090B3907F903B21F477
:1000900082E0820F01C0822F2D5F2D3021F708955D
:1000A000CF92DF92EF92FF92CF93DF93EC016A0140
:1000B0007B01CB01BA0121DC9B01772324F42227A9
:1000C0003327261B370B39832883072E000C880B18
:1000D000990B46DC9B01AC01C701B601A5DB20E012
:1000E00030E040E251E4ECDC08DC9B01772324F4AF
:1000F00022273327261B370B3B832A83DF91CF919F
:10010000FF90EF90DF90CF900895CF92DF92EF9223
:10011000FF920F931F93CF93DF93C22ED32EE42E23
:10012000F52E062F172FD82FC92FEDD984E491D99A
:100130002FE78FE492E1215080409040E1F700C02A
:1001400000002C2D3D2D4E2D5F2D602F712F8D2FFA
:100150009C2FD9D98EEB7DD9C5D9C82FC3D9682F8B
:1001600070E0762F66276C0F711D072E000C880B30
:10017000990BF6DB20E030E040E85DE3A1DCDF91A5
:10018000CF911F910F91FF90EF90DF90CF90089546
:1001900094B3936094BB94B39C6394BB662311F0B7
:1001A000A89A01C0A898A99A95B3937C95BB83FDA2
:1001B000AD9A82FDAC9A81FDAB9A80FDAA9A8DE042
:1001C0008A95F1F70000A9980895CF93DF93C82F7F
:1001D000D62F82958F70DCDF6D2F8C2FD9DFDF91CA
:1001E000CF9108958FEC97E00197F1F700C00000E0
:1001F00060E082E0CDDF8FEC97E00197F1F700C07F
:10020000000060E088E2E1DF8FEC97E00197F1F712
:1002100000C0000060E081E0D8DF8FEC97E001973C
:10022000F1F700C0000060E086E0CFDF8FEC97E0E0
:100230000197F1F700C0000060E08CE0C6DF089590
:10024000EFECF7E03197F1F700C0000060E08C6060
:10025000BCDF0895EFECF7E03197F1F700C0000044
:1002600060E08860B2DF08958FEC97E00197F1F7C6
:1002700000C0000060E081E0A8DF0895EFECF7E047
:100280003197F1F700C00000F0E48F9F600D11245A
:10029000862F60E0806899DF0895CF93DF93FC019B
:1002A0002081222369F0EC018FEC97E00197F1F7B0
:1002B00000C0000061E0899188DF88818111F4CF5E
:1002C000DF91CF910895CF93DF93CDB7DEB7CB56B3
:1002D000D1090FB6F894DEBF0FBECDBF81B38F60DA
:1002E00081BB8F9880EF82BB2AE12A95F1F700C08D
:1002F000BB9ABC9ABD9ABE9ABF9AE199FECF80E0A4
:1003000090E026DD6A966CAF7DAF8EAF9FAF6A97A7
:10031000673E73408105910550F087EE93E0A0E0C1
:10032000B0E06A968CAF9DAFAEAFBFAF6A97E19970
:10033000FECF84E090E00CDDA0966CAF7DAF8EAF79
:100340009FAFA097633671058105910550F023E6B4
:1003500030E040E050E0A0962CAF3DAF4EAF5FAF35
:10036000A097E199FECF88E090E0F2DC9B01AC0120
:100370002F5F3F4F4F4F5F4FA9962CAF3DAF4EAF12
:100380005FAFA997273E33404105510550F027EE56
:1003900033E040E050E0A9962CAF3DAF4EAF5FAFE9
:1003A000A997E199FECFA9964CAD5DAD6EAD7FAD3D
:1003B000A99788E090E0DEDC1A821982FE0133966C
:1003C00084E0DF011D928A95E9F71A8A198A8EE086
:1003D0007096DF01282F1D922A95E9F71AA219A21B
:1003E0007096DF011D928A95E9F71AAA19AA1CAA2C
:1003F0001BAA1EAA1DAA18AE1FAA1AAE19AE1BAEC2
:10040000C12CD12CE12CF12CAC961FAE1EAEAC97BA
:100410006C961FAE1EAE6C9788248A94982CA12CE3
:100420003E01B7E06B0E711CA1961FAEA197A2967C
:10043000AFAEA29776972C96FFAFEEAF2C97472CD6
:100440002B962FAC2B972C963FAC2C97A396AFAE48
:10045000A397562C832D322C282EC7986C962EAD40
:100460003FAD6C97232B09F0F3C6C698C49A8FE56D
:100470009AEE0197F1F700C00000AC96AEADBFADAB
:10048000AC97AB2B09F0C2C1EDB7FEB76696FFAFD4
:10049000EEAF6697A7DE8FE19EE40197F1F700C00B
:1004A000000080E0CDDEAFE1BEE41197F1F700C0BF
:1004B000000084E0CFDEEFE1FEE43197F1F700C009
:1004C000000088E026968FAF26972DB73EB72054C0
:1004D00031090FB6F8943EBF0FBE2DBF0DB71EB742
:1004E0000F5F1F4F82E0FAD6BE016B5B7F4FC801E2
:1004F00027D98FE59AEE0197F1F700C000004AE096
:10050000BE016B5C7F4F68968EAD9FAD6897EFDB49
:100510004AE0BE01675C7F4F6E968EAD9FAD6E97D1
:10052000E6DB4AE0BE016F5C7F4FA7968EAD9FADC4
:10053000A797DDDB2E961FAE1EAE2E97DE0191969D
:100540002896BFAFAEAF2897FE0171962A96FFAFEF
:10055000EEAF2A97A596FFAEEEAEA597A52CF22C8E
:10056000232C342C2D96BFAC2D97B11007C065E01D
:1005700081E084DE84E690E090DE13C0F1E0BF12FB
:1005800007C065E081E07ADE8CE690E086DE09C097
:1005900022E0B21206C065E081E070DE84E690E001
:1005A0007CDE8AAD811106C06FE068DECE01C9969F
:1005B00074DE06C06EE080E061DECE01C9966DDEBD
:1005C00065E080E05BDE84E790E067DE60E081E08C
:1005D00055DECE01C59661DE60E080E04FDECE01E3
:1005E000C1965BDED8012C9111963C911197129621
:1005F0004C91129713965C91139714966C911497E3
:1006000015967C91159716968C91169717969C9136
:10061000085F1F4F7ADD64966CAF7DAF8EAF9FAFE2
:1006200064974AE0BE01645C7F4F2E968EAD9FAD0D
:100630002E971DDB64964CAD5DAD6EAD7FAD6497BE
:10064000CE018F5B9F4F2CDD23964EAC5FAC239782
:100650004114510439F425968EAD9FAD2597892B11
:1006600009F4B1C0B11050C020E030E0A901649697
:100670006CAD7DAD8EAD9FAD64973BD9882364F49E
:100680002A96EEADFFAD2A9701900020E9F7319749
:100690002DE230E0318320834AE0BE01645C7F4F6D
:1006A000C201E5DABE01645C7F4FCE014196D4DA27
:1006B0002A96EEADFFAD2A9701900020E9F7319719
:1006C0004EE250E0518340834AE0BE01645C7F4FBC
:1006D00025968EAD9FAD2597CADABE01645C7F4F2B
:1006E000CE014196B9DA2A96EEADFFAD2A97019078
:1006F0000020E9F7319787E293E491838083A0E2B9
:10070000B0E0B383A28352C0B1E0BB124FC020E07F
:1007100030E0A90164966CAD7DAD8EAD9FAD649760
:10072000E8D8882364F42896EEADFFAD28970190B1
:100730000020E9F731972DE230E0318320834AE051
:10074000BE01645C7F4FC20192DABE01645C7F4FE0
:10075000CE01819681DA2896EEADFFAD2897019003
:100760000020E9F731974EE250E0518340834AE0A0
:10077000BE01645C7F4F25968EAD9FAD259777DADD
:10078000BE01645C7F4FCE01819666DA2896EEAD9D
:10079000FFAD289701900020E9F7319787E293E4B5
:1007A00091838083A0E2B0E0B383A283EFE3FCE90E
:1007B0003197F1F700C0000057DD8FE19EE401970B
:1007C000F1F700C000002E96AEADBFAD2E9711968A
:1007D0002E96BFAFAEAF2E97139709F0C3CE5A2C0B
:1007E000432C322C2F2CA596EEACFFACA597669629
:1007F000EEADFFAD66970FB6F894FEBF0FBEEDBF2E
:1008000021E030E0AC963FAF2EAFAC972DDD8FE509
:100810009AEE0197F1F700C0000066961FAE1EAE7B
:10082000669791E0A4969FAFA497AA961FAEAA9749
:10083000842D452C582E69E080E020DDCE014196C4
:100840002CDD69E081E01ADDCE01819626DD60E0D5
:1008500080E014DD8BE790E020DD60E081E00EDDDC
:1008600081E890E01ADDCE010196D0D964966CAF94
:100870007DAF8EAF9FAF649761E081E0FFDCCE017A
:1008800001960BDDAFEF8A169A0639F461E081E03C
:10089000F5DC83E890E001DD30C08114910439F487
:1008A00062E081E0EBDC84E890E0F7DC26C0B1E0B8
:1008B0008B16910439F463E081E0E0DC85E890E098
:1008C000ECDC1BC0E2E08E16910439F464E081E0B8
:1008D000D5DC86E890E0E1DC10C0F3E08F169104EF
:1008E00061F42FEF30E742E0215030404040E1F723
:1008F00000C00000EE24E394F12C8981882391F05C
:100900008A81882349F08B81882349F08C81811169
:10091000A4C003E010E00CC001E010E009C002E058
:1009200010E006C0A1960FADA197A2961FADA297A9
:1009300096DB8B3061F493DB8B30E9F3FE01E00F43
:10094000F11F80E381835FEF851A950A86C087DBFC
:10095000813061F484DB8130E9F3FE01E00FF11FA7
:1009600081E381838FEF881A980A77C078DB823021
:1009700061F475DB8230E9F3FE01E00FF11F82E3E1
:1009800081839FEF891A990A68C069DB833061F41B
:1009900066DB8330E9F3FE01E00FF11F83E381831F
:1009A000AFEF8A1A9A0A59C05ADB843061F457DBD8
:1009B0008430E9F3FE01E00FF11F84E38183BFEF90
:1009C0008B1A9B0A4AC04BDB853061F448DB8530CB
:1009D000E9F3FE01E00FF11F85E38183EFEF8E1A4B
:1009E0009E0A3BC03CDB863061F439DB8630E9F39C
:1009F000FE01E00FF11F86E38183FFEF8F1A9F0A4C
:100A00002CC02DDB873061F42ADB8730E9F3FE014F
:100A1000E00FF11F87E381832FEF821A920A1DC036
:100A20001EDB883061F41BDB8830E9F3FE01E00F48
:100A3000F11F88E381833FEF831A930A0EC00FDB17
:100A4000893059F40CDB8930E9F3FE01E00FF11F26
:100A500089E381834FEF841A940A51E0E516F1048B
:100A600009F0B9C38C81882309F4B5C3E199FECF9D
:100A70008CE090E06DD962962EAD3FAD6297032E6B
:100A8000000C440B550B64962CAF3DAF4EAF5FAFDF
:100A90006497621773078407950709F003C3A0964C
:100AA0008CAD9DADAEADBFADA0970196A11DB11DA2
:100AB000A0968CAF9DAFAEAFBFAFA097E199FECF30
:100AC000A0964CAD5DAD6EAD7FADA09784E090E09B
:100AD00051D9CADBAFE5BAEE1197F1F700C00000BB
:100AE000C12CD12C86E0F30111928A95E9F760E0E0
:100AF00080E0C4DB88E890E0D0DB60E081E0BEDB32
:100B000089E990E0CADBABDA8A3009F003C2A7DAE0
:100B10008A30E9F3A9DB8FE59AEE0197F1F700C07F
:100B200000000CEB12E0AA24AA94BB24BA940F2E66
:100B3000F0E39F2EF02D0F2EF1E38F2EF02D66E0C7
:100B400080E09CDB80EA90E0A8DB60E081E096DB5F
:100B500089EA90E0A2DB60E080E090DB81E890E051
:100B60009CDB842D952D52D860966CAF7DAF8EAFF7
:100B70009FAF609761E080E081DB842D952D8DDB58
:100B80008F818823D9F08885882361F0898588231F
:100B900081F08A858111A7C00F2EF3E0EF2EF02D92
:100BA000F12C0EC0A496EFACA497AA96FFACAA971E
:100BB00007C06894EE24E1F8F12C02C0E12CF12C7E
:100BC0004EDA8B3059F44BDA8B30E9F3F301EE0D4A
:100BD000FF1D90829FEFA91AB90A85C040DA8130C3
:100BE00059F43DDA8130E9F3F301EE0DFF1D808207
:100BF000AFEFAA1ABA0A77C032DA823061F42FDA7C
:100C00008230E9F3F301EE0DFF1DB2E3B083EFEFA5
:100C1000AE1ABE0A68C023DA833061F420DA83306A
:100C2000E9F3F301EE0DFF1D23E320833FEFA31A49
:100C3000B30A59C014DA843061F411DA8430E9F36C
:100C4000F301EE0DFF1D44E340835FEFA51AB50AE3
:100C50004AC005DA853061F402DA8530E9F3F30140
:100C6000EE0DFF1D85E380839FEFA91AB90A3BC0F3
:100C7000F6D9863061F4F3D98630E9F3F301EE0D4D
:100C8000FF1DA6E3A083BFEFAB1ABB0A2CC0E7D9B8
:100C9000873061F4E4D98730E9F3F301EE0DFF1DED
:100CA00027E320833FEFA31AB30A1DC0D8D98830A9
:100CB00061F4D5D98830E9F3F301EE0DFF1D88E327
:100CC00080834FEFA41AB40A0EC0C9D9893059F4F1
:100CD000C6D98930E9F3F301EE0DFF1D89E3808366
:100CE0005FEFA51AB50ABBD98A3071F5B8D98A3039
:100CF000E9F38A85882341F1E199FECF60964CADF6
:100D00005DAD6EAD7FAD60978CE090E033D8ACDA2E
:100D10008FE59AEE0197F1F700C0000005E610E0BC
:100D200065E081E0ABDA88EB90E0B7DAC59AAFE531
:100D3000BAEE1197F1F700C000000150110981F7D8
:100D4000C598C12CD12CDFC08AD9813009F063C08D
:100D500086D98C30E9F38A85882309F45CC0C12CDC
:100D6000D12C76016894C4F8E199FECFC601F0D782
:100D700060962CAD3DAD4EAD5FAD60972617370741
:100D800048075907C9F51C2DE199FECF6FEF812F58
:100D900090E0E3D781E0810FE199FECF6FEF90E023
:100DA000DCD782E0810FE199FECF6FEF90E0D5D7DD
:100DB00083E0810FE199FECF6FEF90E0CED754DA58
:100DC0008FE59AEE0197F1F700C0000005E610E00C
:100DD00064E081E053DA80EC90E05FDAC59AAFE539
:100DE000BAEE1197F1F700C000000150110981F728
:100DF000C598C12CD12C87C0B4E0CB0ED11CE11C0E
:100E0000F11CE4E8CE16D104E104F10409F0ACCF02
:100E1000C12CD12C78C023D98B3009F047C01FD901
:100E20008A30E9F38A85882309F440C0C12CD12C8B
:100E300076016894C4F8E199FECFC60181D78F3F4F
:100E400039F5E199FECF60964CAD5DAD6EAD7FADED
:100E50006097C6018FD708DA8FE59AEE0197F1F710
:100E600000C0000005E610E065E081E007DA88ECEC
:100E700090E013DAC59AAFE5BAEE1197F1F700C02A
:100E800000000150110981F7C598C12CD12C3BC03D
:100E9000B4E0CB0ED11CE11CF11CE4E8CE16D10469
:100EA000E104F10441F6C12CD12C2DC0D8D88C30EE
:100EB00001F5D5D88C30E9F3F301EA0DFB1D108262
:100EC000F1E0AF1AB108C69A8FE59AEE0197F1F7F3
:100ED00000C00000C69AAFE5BAEE1197F1F700C066
:100EE0000000C698C1D9EFE5FAEE3197F1F700C0DE
:100EF00000008FE19EE40197F1F700C0000001506F
:100F0000110909F01CCEB0D9AFE5BAEE1197F1F78F
:100F100000C00000A4D88C3009F0B3C0A0D88B303A
:100F2000E9F36894EE24E4F8F12CC12CD12C0F2EB7
:100F3000F6E0BF2EF02D6894AA24A2F8F3012B2D21
:100F400011922A95E9F72C96AEADBFAD2C97EA2DFC
:100F50001D92EA95E9F7E199FECF0E2D1F2DC701ED
:100F6000EFD68F3F09F44FC0FFEFCF1ADF0AE199A8
:100F7000FECF802F912FECD62AE0442D552D96D60A
:100F8000C601A0E0B0E02AE0432D522DBC01CD0106
:100F90008DD66AD98FE59AEE0197F1F700C000006F
:100FA0000CEB12E060E080E069D98EEC90E075D93E
:100FB00063E080E063D9832D922D6FD96B2D80E0A3
:100FC0005DD982ED90E069D960E081E057D989ED83
:100FD00090E063D96B2D81E051D9842D952D5DD999
:100FE0003ED88A3021F43BD88A30E9F30CC037D898
:100FF0008C3049F0AFE5BAEE1197F1F700C0000070
:101000000150110979F6B4E0EB0EF11CE4E8EE169C
:10101000F10409F093CF28D98FE59AEE0197F1F703
:1010200000C0000009EC10E04AE0632D722DC601FB
:101030001ED660E080E022D98FED90E02ED967E0E7
:1010400080E01CD9832D922D28D96BE080E016D941
:1010500085EE90E022D9C59AAFE5BAEE1197F1F787
:1010600000C0000001501109F9F6C598FDD8EFE560
:10107000FAEE3197F1F700C00000CC24C394D12CD4
:1010800031CD8FE59AEE0197F1F700C000009FEF98
:10109000C91AD90AA8ECCA16D10408F423CDCC2465
:1010A000C394D12C00E110E0E199FECFC80150D6E5
:1010B00064962CAD3DAD4EAD5FAD649726173707F6
:1010C0004807590709F053C0852D542C482E6A96BD
:1010D0008CAD9DADAEADBFAD6A970196A11DB11DA2
:1010E0006A968CAF9DAFAEAFBFAF6A97E199FECF66
:1010F0006A964CAD5DAD6EAD7FAD6A9780E0A3960C
:101100009FADA39737D6B0D8AFE5BAEE1197F1F7F8
:1011100000C0000009EC10E0C39A64E081E0AED8A2
:101120008BEE90E0BAD8C59AEFE5FAEE3197F1F779
:1011300000C000000150110979F786E0FE013196E8
:10114000DF01282F1D922A95E9F7C398C598DF0182
:101150001D928A95E9F76894CC24C1F8D12CE12C32
:10116000A396FFACA39788248A94982CADC00C5FFB
:101170001F4F0438110509F097CFFE01319686E024
:10118000DF011D928A95E9F7C114D10449F0B1E05D
:10119000CB16D10451F0E2E0CE16D10461F48AC03E
:1011A00066961FAE1EAE669706C0A196CFACA197FD
:1011B000A296DFACA29758D88FE59AEE0197F1F787
:1011C00000C00000A196EFACA197A296FFACA29739
:1011D00088248A94982C43D78C3019F540D78C30CA
:1011E000E9F389818823E9F0FE01E80DF91D1182F8
:1011F00091E0891A9108C69AAFE5BAEE1197F1F716
:1012000000C00000C69AEFE5FAEE3197F1F700C092
:101210000000C69829D88FE59AEE0197F1F700C033
:101220000000AFE1BEE41197F1F700C00000669640
:10123000EEADFFAD669731966696FFAFEEAF66975F
:10124000EC3BF24008F4F7CA852D542C482E3CC0E4
:101250006C964EAD5FAD6C9714161506ACF541302B
:101260005105D1F4C4988FE59AEE0197F1F700C0CB
:1012700000008CE291E0C79AAFE1BEE41197F1F76C
:1012800000C000000197B9F7C69AEFE1FEE431977C
:10129000F1F700C0000018C06C962EAD3FAD6C9702
:1012A0002436310589F442E050E06C965FAF4EAFD2
:1012B0006C970AC0852D542C482EE12CA396FFACC8
:1012C000A39788248A94982C6C968EAD9FAD6C97CA
:1012D00001966C969FAF8EAF6C97BFC88093F40059
:1012E00048B321E030E0B90102C0660F771F8A954C
:1012F000E2F7CB01842B88BB87B30090F40002C0D7
:10130000220F331F0A94E2F7282B27BB089598B3C6
:1013100021E030E0A9010090F40002C0440F551F05
:101320000A94E2F7842F8095892388BB47B3C901CB
:101330000090F40002C0880F991F0A94E2F7842BF2
:1013400087BB8FEB93E00197F1F700C0000097B3E4
:10135000A9010090F40002C0440F551F0A94E2F75F
:10136000842F8095892387BB90EA9A95F1F786B3FD
:101370000090F40002C0220F331F0A94E2F7822388
:10138000E3E3F3E03197F1F700C00000089580FF38
:1013900030C0F89438B381E090E0AC010090F400E4
:1013A00002C0440F551F0A94E2F7242F20952323EF
:1013B00028BB47B39C010090F40002C0220F331FEA
:1013C0000A94E2F7242B27BB2AE12A95F1F700C003
:1013D000789427B30090F40002C0880F991F0A94F4
:1013E000E2F78095822387BB82E98A95F1F700C0F6
:1013F0000895F89438B381E090E0AC010090F400D7
:1014000002C0440F551F0A94E2F7242F209523238E
:1014100028BB47B39C010090F40002C0220F331F89
:101420000A94E2F7242B27BB2DEA2A95F1F7000056
:1014300027B30090F40002C0880F991F0A94E2F7C6
:101440008095822387BB78948DE08A95F1F7000020
:101450000895CF93DF93D82FC8E08D2F817097DF49
:10146000D695C150D1F7DF91CF910895F89438B354
:1014700081E090E0AC010090F40002C0440F551FE1
:101480000A94E2F7242F2095232328BB47B39C011D
:101490000090F40002C0220F331F0A94E2F7242BBD
:1014A00027BB28E02A95F1F727B30090F40002C08B
:1014B000880F991F0A94E2F78095822387BB8AE1FF
:1014C0008A95F1F700C086B390E00090F40002C066
:1014D000959587950A94E2F78170789498E79A95A4
:1014E000F1F70895CF93DF93D8E0C0E0BFDF20E8A5
:1014F000829FC0011124C695C82BD150B9F78C2FFB
:10150000DF91CF910895BF92CF92DF92EF92FF9239
:101510000F931F93CF93DF93C22FE32EF42E052F4B
:10152000162FD72FB82EC92EF2DE85E592DF6894EC
:10153000DD24D6F88C2F81702ADF2C2F3E2D4F2DE5
:10154000502F612F7D2F8B2D9C2D01E037D3C22F83
:10155000E32EF42E052F162FD72FB82EC92EDA948E
:10156000D110E8CFDF91CF911F910F91FF90EF90B5
:10157000DF90CF90BF9008959F92AF92BF92CF928D
:10158000DF92EF92FF920F931F93CF93DF93922EF0
:10159000A32EB42EC52ED62EE72EF82E192FD02F1F
:1015A000A0E0B0E0F0E0E0E0CCE8292D3A2D4B2DB2
:1015B0005C2D6D2D7E2D8F2D912F0A2FFFD288E06F
:1015C00090E0322F3E27E695269530FDEC270197D7
:1015D000C1F7FF5F1896FD1740F38E2FDF91CF9173
:1015E0001F910F91FF90EF90DF90CF90BF90AF9041
:1015F0009F9008952F923F924F925F926F927F92A9
:101600008F929F92AF92BF92CF92DF92EF92FF9212
:101610000F931F93CF93DF93CDB7DEB729970FB604
:10162000F894DEBF0FBECDBF29833A834B835C8322
:101630006D837E83382E9F83580169DE80EF09DF3A
:10164000E12CF12C412C81E0512C612C712C812C4E
:10165000912CC12CD12C10E022242394898706DF01
:10166000888704DF9885913019F4813001F547C0EF
:10167000E885E1111CC081111AC0F5018081F9854E
:101680008F1781F08F1780F029813A814B815C811F
:101690006D817E81832D9F810E2D90D220FD06C00D
:1016A0004F2E05C0288603C0498401C0288628859E
:1016B00030E040E050E060E070E080E090E00E2D2F
:1016C00062D2522A632A742A852A962AC72AD82ADD
:1016D000192B88855CDE89858F5F89879FEFE91AE2
:1016E000F90A813409F0BBCFF5014082252D362D52
:1016F000472D582D692D7C2D8D2D912F08C021E06F
:1017000030E040E050E060E070E080E090E029965A
:101710000FB6F894DEBF0FBECDBFDF91CF911F9102
:101720000F91FF90EF90DF90CF90BF90AF909F9080
:101730008F907F906F905F904F903F902F90089583
:101740002F923F924F925F926F927F928F929F92D1
:10175000AF92BF92CF92DF92EF92FF920F931F93BF
:10176000CF93DF931F92CDB7DEB74C015B01198297
:10177000312C212C412C512C612C712CC12CD12CC1
:10178000E12CF12C01C0212C8E010F5F1F4F242D65
:10179000352D462D572D6C2D7D2D8E2D9F2D2ADF1D
:1017A000422E532E642E752EC62ED72EE82EF92EDD
:1017B000A1E020D2B1F008E0DFDE811110C0F40119
:1017C00088E0389EE00DF11D112440825182628232
:1017D0007382C482D582E682F782339408C0239450
:1017E00001C02394E3E0E21558F02110CDCF8981A8
:1017F000882321F0F5018081381628F2F501308226
:101800000F90DF91CF911F910F91FF90EF90DF909C
:10181000CF90BF90AF909F908F907F906F905F9090
:101820004F903F902F9008955058BB27AA270ED075
:101830000DC1FED030F003D120F031F49F3F11F400
:101840001EF4F3C00EF4E095E7FBE9C0E92F0FD1D9
:1018500080F3BA17620773078407950718F071F4CD
:101860009EF527C10EF4E0950B2EBA2FA02D0B018B
:10187000B90190010C01CA01A0011124FF27591BD5
:1018800099F0593F50F4503E68F11A16F040A22FDB
:10189000232F342F4427585FF3CF4695379527954C
:1018A000A795F0405395C9F77EF41F16BA0B620B4B
:1018B000730B840BBAF09150A1F0FF0FBB1F661F92
:1018C000771F881FC2F70EC0BA0F621F731F841FD5
:1018D00048F4879577956795B795F7959E3F08F0FB
:1018E000B3CF9395880F08F09927EE0F97958795BA
:1018F000089571D008F481E0089504D06894B1117E
:10190000D9C00895BCD088F09F5790F0B92F99277F
:10191000B751A0F0D1F0660F771F881F991F1AF0FA
:10192000BA95C9F712C0B13081F0C3D0B1E00895C3
:10193000C0C0672F782F8827B85F39F0B93FCCF344
:10194000869577956795B395D9F73EF490958095F0
:10195000709561957F4F8F4F9F4F0895E89409C010
:1019600097FB3EF490958095709561957F4F8F4FD2
:101970009F4F9923A9F0F92F96E9BB279395F695E8
:10198000879577956795B795F111F8CFFAF4BB0F66
:1019900011F460FF1BC06F5F7F4F8F4F9F4F16C0CA
:1019A000882311F096E911C0772321F09EE8872F54
:1019B000762F05C0662371F096E8862F70E060E010
:1019C0002AF09A95660F771F881FDAF7880F969589
:1019D000879597F90895990F0008550FAA0BE0E82D
:1019E000FEEF16161706E807F907C0F012161306E1
:1019F000E407F50798F0621B730B840B950B39F421
:101A00000A2661F0232B242B252B21F408950A2686
:101A100009F4A140A6958FEF811D811D089597F9C6
:101A20009F6780E870E060E008959FEF80EC089584
:101A300000240A94161617061806090608950024AD
:101A40000A9412161306140605060895092E039427
:101A5000000C11F4882352F0BB0F40F4BF2B11F49B
:101A600060FF04C06F5F7F4F8F4F9F4F089557FDFA
:101A70009058440F551F59F05F3F71F04795880FFC
:101A800097FB991F61F09F3F79F087950895121693
:101A900013061406551FF2CF4695F1DF08C016163F
:101AA00017061806991FF1CF8695710561050894F0
:101AB0000895E894BB2766277727CB0197F9089507
:101AC0000BD0C4CFB5DF28F0BADF18F0952309F0AA
:101AD000A6CFABCF1124EECFCADFA0F3959FD1F3F1
:101AE000950F50E0551F629FF001729FBB27F00DCC
:101AF000B11D639FAA27F00DB11DAA1F649F662721
:101B0000B00DA11D661F829F2227B00DA11D621F6F
:101B1000739FB00DA11D621F839FA00D611D221F29
:101B2000749F3327A00D611D231F849F600D211D0D
:101B3000822F762F6A2F11249F5750408AF0E1F0B0
:101B400088234AF0EE0FFF1FBB1F661F771F881FF9
:101B500091505040A9F79E3F510570F060CFAACF39
:101B60005F3FECF3983EDCF3869577956795B795E4
:101B7000F795E7959F5FC1F7FE2B880F911D96950E
:101B8000879597F908950F93083090F0982F872F35
:101B9000762F652F542F432F322F22270850F4CF52
:101BA000220F331F441F551F661F771F881F991F61
:101BB0000A95B2F70F91089597FB10F81694000854
:101BC0000F93083098F00850232F342F452F562FAD
:101BD000672F782F892F902DF4CF059497958795AF
:101BE0007795679557954795379527950A95AAF75D
:101BF0000F9108950024A7FD00942A173005400591
:101C00005005600570058005900508951F93FC013F
:101C100099278827BC01E89411911032E9F3193013
:101C200010F01E30C8F31B3249F01D3241F46894A5
:101C300005C027D0610F711D811D911D1191105399
:101C40001A30B8F33EF490958095709561957F4F6A
:101C50008F4F9F4F1F910895FB01DC010D900020D5
:101C6000E9F7119701900D920020E1F70895BB2745
:101C70004A3031F4992322F4BDE2909581959F4F2B
:101C800037C0592F482F372F262F660F771F881FF1
:101C9000991F660F771F881F991F620F731F841F7C
:101CA000951F660F771F881F991F0895BB27FA019C
:101CB000A62F6217710581059105330B30FB66F085
:101CC000AA27660F771F881F991FAA1FA21710F057
:101CD000A21B63953850A9F7A05DAA3308F0A95D4F
:101CE000A19336F7B111B1931082CA0119C0BB2775
:101CF000FB015527AA27880F991FAA1FA41710F0C8
:101D0000A41B83955051B9F7A05DAA3308F0A95DD3
:101D1000A193009779F7B111B1931192CB0100C053
:101D2000DC01FC01672F71917723E1F7329704C042
:101D30007C916D9370836291AE17BF07C8F30895CD
:101D4000E199FECF9FBB8EBBE09A99278DB3089592
:101D5000A6E1B0E044E050E017C0262FE199FECFA5
:101D60009FBB8EBB2DBB0FB6F894E29AE19A0FBED3
:101D700001960895242FF2DF252FF0DF00C0EDDF5C
:101D8000272FECCFDC01CB01FC01E199FECF06C08F
:101D9000FFBBEEBBE09A31960DB20D924150504020
:081DA000B8F70895F894FFCF95
:101DA800FEFDFBF72F285E2D5E292F002D285E2DC6
:101DB8005E292D0048656C6C6F2100436F64653A9D
:101DC800003E002E2E2E2E002A3A4164642F4465D0
:101DD8006C2F4368616E676500233A4C6973740021
:101DE8002A3A4368616E676500303A41646420317D
:101DF8003A44656C657465004368616E67656400A4
:101E080044656C65746564004164646564004E6F84
:101E18002E002A3A4E65787400436F64652D00469B
:101E28006F756E6400636F64657300556E6C6F63E5
:041E38006B65640072
:00000001FF
