:1000000012C02CC02BC02AC029C028C027C026C0BF
:1000100025C024C023C022C021C020C01FC01EC0D4
:100020001DC01CC01BC011241FBECFE5D4E0DEBF25
:10003000CDBF10E0A0E6B0E0ECE5FFE102C0059026
:100040000D92AE3FB107D9F720E0AEEFB0E001C0AE
:100050001D92AF3FB207E1F736D17ECFD1CFE0E6B8
:10006000F0E021E080E0919192BB9AE19A95F1F75E
:1000700000C090B3907F903E71F090B3907F903D20
:1000800019F481E0820F08C090B3907F903B21F477
:1000900082E0820F01C0822F2D5F2D3021F708955D
:1000A000CF92DF92EF92FF92CF93DF93EC016A0140
:1000B0007B01CB01BA01FBDC9B01772324F42227CF
:1000C0003327261B370B39832883072E000C880B18
:1000D000990B20DD9B01AC01C701B6017FDC20E05C
:1000E00030E040E251E4C6DDE2DC9B01772324F4FA
:1000F00022273327261B370B3B832A83DF91CF919F
:10010000FF90EF90DF90CF900895CF92DF92EF9223
:10011000FF920F931F93CF93DF93C22ED32EE42E23
:10012000F52E062F172FD82FC92FC7DA84E46BDAE4
:100130002FE78FE492E1215080409040E1F700C02A
:1001400000002C2D3D2D4E2D5F2D602F712F8D2FFA
:100150009C2FB3DA8EEB57DA9FDAC82F9DDA682F1F
:1001600070E0762F66276C0F711D072E000C880B30
:10017000990BD0DC20E030E040E85DE37BDDDF91EF
:10018000CF911F910F91FF90EF90DF90CF90089546
:1001900094B3936094BB94B39C6394BB662311F0B7
:1001A000A89A01C0A898A99A95B3937C95BB83FDA2
:1001B000AD9A82FDAC9A81FDAB9A80FDAA9A8DE042
:1001C0008A95F1F70000A9980895CF93DF93C82F7F
:1001D000D62F82958F70DCDF6D2F8C2FD9DFDF91CA
:1001E000CF9108958FEC97E00197F1F700C00000E0
:1001F00060E082E0CDDF8FEC97E00197F1F700C07F
:10020000000060E088E2E1DF8FEC97E00197F1F712
:1002100000C0000060E081E0D8DF8FEC97E001973C
:10022000F1F700C0000060E086E0CFDF8FEC97E0E0
:100230000197F1F700C0000060E08CE0C6DF089590
:10024000EFECF7E03197F1F700C0000060E08C6060
:10025000BCDF0895EFECF7E03197F1F700C0000044
:1002600060E08860B2DF08958FEC97E00197F1F7C6
:1002700000C0000060E081E0A8DF0895EFECF7E047
:100280003197F1F700C00000F0E48F9F600D11245A
:10029000862F60E0806899DF0895CF93DF93FC019B
:1002A0002081222369F0EC018FEC97E00197F1F7B0
:1002B00000C0000061E0899188DF88818111F4CF5E
:1002C000DF91CF910895CF93DF93CDB7DEB7C955B6
:1002D000D1090FB6F894DEBF0FBECDBF81B38F60DA
:1002E00081BB8F9880EF82BB2AE12A95F1F700C08D
:1002F000B99ABB9ABC9ABD9ABE9AE199FECF80E0AA
:1003000090E000DE9B01AC012F5F3F4F4F4F5F4FEE
:1003100061962CAF3DAF4EAF5FAF61972F30374244
:100320004105510531F461961CAE1DAE1EAE1FAEE7
:100330006197E199FECF61964CAD5DAD6EAD7FAD3D
:10034000619780E090E0F0DD1A82198284E0FE017E
:100350003396DF01282F1D922A95E9F718861F8210
:100360003696DF011D928A95E9F71E861D86188A4A
:100370001F861A8A198A8EE03A96DF01282F1D926D
:100380002A95E9F71AA219A27096DF011D928A95A3
:10039000E9F71AAA19AA1CAA1BAA2D961FAE1EAE0F
:1003A0002D97412C512CB2972596FFAFEEAF259794
:1003B0003E01F7E06F0E711C21E068962FAF689741
:1003C00069961FAE6997AE01435F5F4F27965FAF97
:1003D0004EAF279764961FAE649765961FAE6597DC
:1003E00066962FAF669750E067965FAF6797269641
:1003F0002FAC269727963FAC2797A22C272C932C1F
:10040000362CB39903C015C0B39B05C0B399FCCF7C
:1004100083E490E002C083E490E0C39AC59AAFE51C
:10042000BAEE1197F1F700C000000197B1F7C39839
:10043000C5984114510409F0CFC7C49ABFEFE0E753
:10044000F2E0B150E040F040E1F700C000002D962E
:100450002EAD3FAD2D97232B09F07BC14DB75EB775
:100460002D965FAF4EAF2D97BDDE8FE19EE40197D5
:10047000F1F700C0000080E0E3DEAFE1BEE41197D9
:10048000F1F700C0000084E0E5DEEFE1FEE4319723
:10049000F1F700C0000088E08EAF2DB73EB72054C2
:1004A00031090FB6F8943EBF0FBE2DBF0DB71EB772
:1004B0000F5F1F4F82E0ECD7BE01625C7F4FC80127
:1004C00019DA8FE59AEE0197F1F700C000002AE0F3
:1004D000AE014F5C5F4F61966CAD7DAD8EAD9FAD53
:1004E0006197BEDC7801C12CD12CDE01919621965A
:1004F000BFAFAEAF2197FE0171962396FFAFEEAF6F
:1005000023971C2DC1104BC066E081E0B7DE84E666
:1005100090E0C3DE60E080E0B1DE8CE690E0BDDE1E
:1005200066E080E0ABDE80E790E0B7DE60E081E08F
:10053000A5DECE01C196B1DED7012C9111963C917A
:10054000119712964C91129713965C9113971496EB
:100550006C91149715967C91159716968C91169719
:1005600017969C91D2DD2B966CAF7DAF8EAF9FAF6F
:100570002B974AE0BE016B5C7F4FC60152DC2B9685
:100580004CAD5DAD6EAD7FAD2B97CE01CA9688DDCB
:100590000AAD1BAD0115110509F474C713C0113064
:1005A00039F466E081E06ADE87E790E076DE23C713
:1005B000123009F020C766E081E060DE84E690E05A
:1005C0006CDE19C720E030E0A9012B966CAD7DAD43
:1005D0008EAD9FAD2B9767DA882364F42396EEAD3A
:1005E000FFAD239701900020E9F731972DE230E02D
:1005F000318320834AE0BE016B5C7F4FC80111DC70
:10060000BE016B5C7F4FCE01419600DC2396EEADC0
:10061000FFAD239701900020E9F731974EE250E0BB
:10062000518340834AE0BE016B5C7F4F8CAD9DAD32
:10063000F8DBBE016B5C7F4FCE014196E7DB239672
:10064000EEADFFAD239701900020E9F7319787E2E7
:1006500093E491838083A0E2B0E0B383A28351C08E
:10066000113009F04EC020E030E0A9012B966CADAE
:100670007DAD8EAD9FAD2B9716DA882364F421965D
:10068000EEADFFAD219701900020E9F731972DE203
:1006900030E0318320834AE0BE016B5C7F4F8AAD3E
:1006A0009BADBFDBBE016B5C7F4FCE018196AEDBA5
:1006B0002196EEADFFAD219701900020E9F731972B
:1006C0004EE250E0518340834AE0BE016B5C7F4FB5
:1006D0008CAD9DADA6DBBE016B5C7F4FCE018196DC
:1006E00095DB2196EEADFFAD219701900020E9F753
:1006F000319787E293E491838083A0E2B0E0B383F3
:10070000A283EFE5FAEE3197F1F700C00000ACDD0F
:100710008FE19EE40197F1F700C000009FEFC91A36
:10072000D90AA8E0EA0EF11CB3E0CB16D10409F017
:10073000E8CE2D96EEADFFAD2D970FB6F894FEBF27
:100740000FBEEDBFF1E02C96FFAF2C972D961FAE9C
:100750002D9786E02596AEADBFAD25971D928A9563
:10076000E9F782DDEFE5FAEE3197F1F700C000001E
:100770000F2EF0EAEF2EFFE0FF2EF02D0FEF1FEF10
:1007800029967FAE6EAE29976296AFAE6297892C9E
:10079000B39903C015C0B39B05C0B399FCCF8EE4D9
:1007A00091E002C08EE491E0C39AC59AAFE5BAEE3B
:1007B0001197F1F700C000000197B1F7C398C598F1
:1007C00069E080E05BDDCE01419667DD69E081E0B4
:1007D00055DDCE01819661DD60E080E04FDD8FE781
:1007E00090E05BDD60E081E049DD85E890E055DD8B
:1007F000CE010196E5DAB62EA72E782E992E61E06D
:1008000081E03CDDCE01019648DD0F3FBFEF1B07C5
:1008100039F461E081E032DD87E890E03EDD1DC023
:100820000115110539F462E081E028DD88E890E0E7
:1008300034DD13C00130110539F463E081E01EDDC1
:1008400089E890E02ADD09C00230110531F464E046
:1008500081E014DD8AE890E020DD89818823D9F0E9
:100860008A81882361F08B81882381F08C818111BA
:10087000BDC00F2EF3E0CF2EF02DD12C0EC0689608
:10088000CFAC68976996DFAC699707C06894CC24B1
:10089000C1F8D12C02C0C12CD12CE1DB8B3071F41A
:1008A000DEDB8B30E9F3E1E0F0E0EC0FFD1FEC0D57
:1008B000FD1D20E320830F5F1F4F98C0D0DB8130E8
:1008C00071F4CDDB8130E9F3E1E0F0E0EC0FFD1FE6
:1008D000EC0DFD1D31E330830F5F1F4F87C0BFDB81
:1008E000823071F4BCDB8230E9F3E1E0F0E0EC0F40
:1008F000FD1FEC0DFD1D42E340830F5F1F4F76C0CF
:10090000AEDB833071F4ABDB8330E9F3E1E0F0E0A0
:10091000EC0FFD1FEC0DFD1D53E350830F5F1F4FC8
:1009200065C09DDB843071F49ADB8430E9F3E1E04B
:10093000F0E0EC0FFD1FEC0DFD1D84E380830F5FE5
:100940001F4F54C08CDB853071F489DB8530E9F3AF
:10095000E1E0F0E0EC0FFD1FEC0DFD1D95E3908351
:100960000F5F1F4F43C07BDB863071F478DB86302E
:10097000E9F3E1E0F0E0EC0FFD1FEC0DFD1D86E377
:1009800080830F5F1F4F32C06ADB873071F467DBF3
:100990008730E9F3E1E0F0E0EC0FFD1FEC0DFD1D09
:1009A00087E380830F5F1F4F21C059DB883071F4CC
:1009B00056DB8830E9F3E1E0F0E0EC0FFD1FEC0DD1
:1009C000FD1D88E380830F5F1F4F10C048DB893017
:1009D00069F445DB8930E9F3E1E0F0E0EC0FFD1F5D
:1009E000EC0DFD1D89E380830F5F1F4F38DB8A30DC
:1009F00009F0B9C434DB8A30E9F3A1E04A1A51089E
:100A00008C81882309F4AFC41A2D6A967FAE6A9749
:100A100029966EAC7FAC29976296AFAC6297882D11
:100A2000892C982ECB2CD12E6A96EFAC6A97F82C95
:100A30000CE010E0E199FECFC80164DAC616D706D3
:100A4000E806F906E9F410DCEFE5FAEE3197F1F784
:100A500000C000000EE411E064E081E00FDC8CE8EF
:100A600090E01BDCC39AC59A8FE59AEE0197F1F7E7
:100A700000C000000150110979F7C398C59805C05E
:100A80000C5F1F4F04381105A9F6E199FECF88E0ED
:100A900090E038DAC616D706E806F90609F0A7C4CA
:100AA000E3DBAFE5BAEE1197F1F700C00000C12C0F
:100AB000D12C0F2EF6E08F2EF02D63965FAE4EAE4A
:100AC0006397F301282D11922A95E9F760E080E001
:100AD000D5DB85E990E0E1DB60E081E0CFDB84EA13
:100AE00090E0DBDBBCDA8A3009F023C1B8DA8A3067
:100AF000E9F3BADB8FE59AEE0197F1F700C0000049
:100B00000F2EF1E7EF2EF7E1FF2EF02D0F2EF0E381
:100B1000BF2EF02D0F2EF6E34F2EF02D0F2EF7E304
:100B20005F2EF02D60E080E0A9DB84EB90E0B5DB88
:100B3000832D922D45D92B966CAF7DAF8EAF9FAF95
:100B40002B9767E080E09ADB832D922DA6DB8F81C7
:100B50008823B1F08885882349F08985882369F046
:100B60008A85811187C003E010E010C066960FAD42
:100B7000669767961FAD679709C002E010E006C050
:100B800064960FAD649765961FAD659768DA8B30F4
:100B900041F465DA8B30E9F3F301E00FF11FB08225
:100BA00069C05DDA813049F45ADA8130E9F3F30142
:100BB000E00FF11F91E390835DC051DA823049F478
:100BC0004EDA8230E9F3F301E00FF11FA2E3A083D4
:100BD00051C045DA833049F442DA8330E9F3F30156
:100BE000E00FF11FB3E3B08345C039DA843049F434
:100BF00036DA8430E9F3F301E00FF11F24E32083B8
:100C000039C02DDA853049F42ADA8530E9F3F30169
:100C1000E00FF11F35E330832DC021DA863041F437
:100C20001EDA8630E9F3F301E00FF11F408222C0A3
:100C300016DA873041F413DA8730E9F3F301E00F75
:100C4000F11F508217C00BDA883049F408DA883077
:100C5000E9F3F301E00FF11F88E380830BC0FFD9B4
:100C6000893041F4FCD98930E9F3F301E00FF11F39
:100C700089E38083F4D98A3009F049C0F0D98A30F9
:100C8000E9F38A85882309F442C00F2EFCE0CF2EB9
:100C9000D12CE12CF12CF02DE199FECFC6012AD9FF
:100CA0008F3F39F5E199FECF2B964CAD5DAD6EAD22
:100CB0007FAD2B97C60138D9D7DA8FE59AEE019729
:100CC000F1F700C0000005E610E065E081E0D6DA4B
:100CD0008BEB90E0E2DAC59AAFE5BAEE1197F1F747
:100CE00000C000000150110981F7C598C12CD12C1A
:100CF00019C0B4E0CB0ED11CE11CF11CE4E8CE1607
:100D0000D104E104F10441F6C12CD12C0BC08FE1D8
:100D10009EE40197F1F700C0000091E0E91AF108A4
:100D200009F000CFA1DAAFE5BAEE1197F1F700C0F4
:100D3000000095D98C3009F03FC191D98C30E9F38E
:100D400093DAEFE5FAEE3197F1F700C000000F2ECD
:100D5000F1E7EF2EF7E1FF2EF02D0F2EF0E3BF2E7F
:100D6000F02D0F2EF6E34F2EF02D0F2EF7E35F2E12
:100D7000F02D60E080E082DA81EC90E08EDA832D65
:100D8000922D1ED82B966CAF7DAF8EAF9FAF2B9759
:100D90006AE080E073DA832D922D7FDA8F818823D9
:100DA000B1F08885882349F08985882369F08A8590
:100DB000811187C003E010E010C066960FAD669702
:100DC00067961FAD679709C002E010E006C0649601
:100DD0000FAD649765961FAD659741D98B3041F48F
:100DE0003ED98B30E9F3F301E00FF11FB08269C007
:100DF00036D9813049F433D98130E9F3F301E00F7A
:100E0000F11F21E320835DC02AD9823049F427D91C
:100E10008230E9F3F301E00FF11F32E3308351C078
:100E20001ED9833049F41BD98330E9F3F301E00F75
:100E3000F11F43E3408345C012D9843049F40FD9F0
:100E40008430E9F3F301E00FF11F54E3508339C01C
:100E500006D9853049F403D98530E9F3F301E00F71
:100E6000F11F85E380832DC0FAD8863041F4F7D88E
:100E70008630E9F3F301E00FF11F408222C0EFD882
:100E8000873041F4ECD88730E9F3F301E00FF11F2C
:100E9000508217C0E4D8883049F4E1D88830E9F3AB
:100EA000F301E00FF11F88E380830BC0D8D88930AD
:100EB00041F4D5D88930E9F3F301E00FF11F89E35C
:100EC0008083CDD88A3009F065C0C9D88A30E9F36B
:100ED0008A85882309F45EC00F2EFCE0CF2ED12C2A
:100EE000E12CF12CF02DE199FECFC6010BD82B9609
:100EF0002CAD3DAD4EAD5FAD2B972617370748079C
:100F00005907C9F51C2DE199FECF6FEF812F90E0B5
:100F1000FED781E0810FE199FECF6FEF90E0F7D728
:100F200082E0810FE199FECF6FEF90E0F0D783E090
:100F3000810FE199FECF6FEF90E0E9D795D98FE56A
:100F40009AEE0197F1F700C0000005E610E064E0BA
:100F500081E094D98BEC90E0A0D9C59AAFE5BAEEC8
:100F60001197F1F700C000000150110981F7C598F1
:100F7000C12CD12C1AC0B4E0CB0ED11CE11CF11C49
:100F8000E4E8CE16D104E104F10409F0ACCFC12CA1
:100F9000D12C0BC08FE19EE40197F1F700C0000057
:100FA00091E0E91AF10809F0E4CE5ED9AFE5BAEEB6
:100FB0001197F1F700C0000052D88B3009F0B1C092
:100FC0004ED88B30E9F30F2EFCE0EF2EF12CF02DF4
:100FD000C12CD12C6894BB24B2F8F301282D1192B6
:100FE0002A95E9F72796AEADBFAD2797EB2D1D9259
:100FF000EA95E9F7E199FECF0E2D1F2DC7017AD7AB
:101000008F3F09F44FC0FFEFCF1ADF0AE199FECFFF
:10101000802F912F77D72AE0432D522D21D7C6015B
:10102000A0E0B0E02AE04A2D592DBC01CD0118D72F
:101030001BD98FE59AEE0197F1F700C0000009EE89
:1010400013E060E080E01AD98CE690E026D963E0F6
:1010500080E014D98A2D992D20D9682D80E00ED9F1
:1010600083ED90E01AD960E081E008D98AED90E044
:1010700014D9682D81E002D9832D922D0ED9EFD796
:101080008A3021F4ECD78A30E9F30CC0E8D78C30F1
:1010900049F0AFE5BAEE1197F1F700C0000001503A
:1010A000110979F6B4E0EB0EF11CE4E8EE16F10458
:1010B00009F093CFD9D88FE59AEE0197F1F700C0E8
:1010C000000009EC10E04AE06A2D792DC601A9D68E
:1010D00060E080E0D3D880EE90E0DFD867E080E089
:1010E000CDD88A2D992DD9D86BE080E0C7D886EE6F
:1010F00090E0D3D8C59AAFE5BAEE1197F1F700C0EA
:10110000000001501109F9F6C598AED8EFE5FAEEE6
:101110003197F1F700C00000A2D7813009F0A2C1D9
:1011200005C09DD7813009F00AC102C0C12CD12C65
:1011300096D78130E9F398D88FE59AEE0197F1F7C9
:1011400000C000000F2EF1E7EF2EF7E1FF2EF02D8B
:101150000F2EF0E3BF2EF02D0F2EF6E34F2EF02DC5
:101160000F2EF7E35F2EF02D60E080E087D88CEE45
:1011700090E093D8832D922D23D62B966CAF7DAF24
:101180008EAF9FAF2B976AE080E078D8832D922DA9
:1011900084D88F818823B1F08885882349F0898598
:1011A000882369F08A85811187C003E010E010C0B0
:1011B00066960FAD669767961FAD679709C002E008
:1011C00010E006C064960FAD649765961FAD6597F5
:1011D00046D78B3041F443D78B30E9F3F301E00F6E
:1011E000F11FB08269C03BD7813049F438D78130D4
:1011F000E9F3F301E00FF11F91E390835DC02FD776
:10120000823049F42CD78230E9F3F301E00FF11F6B
:10121000A2E3A08351C023D7833049F420D7833081
:10122000E9F3F301E00FF11FB3E3B08345C017D733
:10123000843049F414D78430E9F3F301E00FF11F4F
:1012400024E3208339C00BD7853049F408D7853093
:10125000E9F3F301E00FF11F35E330832DC0FFD632
:10126000863041F4FCD68630E9F3F301E00FF11F3C
:10127000408222C0F4D6873041F4F1D68730E9F3BA
:10128000F301E00FF11F508217C0E9D6883049F40E
:10129000E6D68830E9F3F301E00FF11F88E380839D
:1012A0000BC0DDD6893041F4DAD68930E9F3F30199
:1012B000E00FF11F89E38083D2D68A3071F5CFD653
:1012C0008A30E9F38A85882341F1E199FECF2B9694
:1012D0004CAD5DAD6EAD7FAD2B9788E090E024D630
:1012E000C3D78FE59AEE0197F1F700C0000005E63D
:1012F00010E065E081E0C2D786EF90E0CED7C59AD6
:10130000AFE5BAEE1197F1F700C0000001501109E6
:1013100081F7C598C12CD12C0BC0EFE1FEE43197C9
:10132000F1F700C00000F1E0EF1AF10809F01CCF5E
:101330009BD78FE59AEE0197F1F700C00000AFE56B
:10134000BAEE1197F1F700C00000BFEFCB1ADB0A2D
:10135000E1EDCE16E7E0DE0608F4B3CB63964EACC3
:101360005FAC639744C07BD68C3011F578D68C3057
:10137000E9F3E1E0F0E0EC0FFD1FE00FF11F108258
:1013800001501109C69A8FE59AEE0197F1F700C056
:101390000000C69AAFE5BAEE1197F1F700C0000061
:1013A000C69862D7EFE5FAEE3197F1F700C000007A
:1013B0008FE19EE40197F1F700C0000091E0E91A87
:1013C000F10809F0E5C929966EAC7FAC29976296C1
:1013D000AFAC6297982C0BC01414150444F4C49855
:1013E000A4E64A16510419F444244394512CBFEF47
:1013F0004B1A5B0A06C860E080E040D78CE690E0BC
:101400004CD766E080E03AD780E790E046D760E0CE
:1014100081E034D7CE01C19640D7F70120813181D8
:101420004281538164817581868197816ED62B9626
:101430006CAF7DAF8EAF9FAF2B974AE0BE016B5C68
:101440007F4FC601EED42B964CAD5DAD6EAD7FAD3A
:101450002B97CE01CA9624D68AAD9BAD892B09F075
:10146000FFC80AC08FE59AEE0197F1F700C00000AF
:10147000CC24C394D12C25CB8CAD9DAD892B09F404
:101480004DC9EEC88CAD9DAD892B09F447C99AC8EA
:101490008093FE0048B321E030E0B90102C0660F3E
:1014A000771F8A95E2F7CB01842B88BB87B3009026
:1014B000FE0002C0220F331F0A94E2F7282B27BB3D
:1014C000089598B321E030E0A9010090FE0002C029
:1014D000440F551F0A94E2F7842F8095892388BB17
:1014E00047B3C9010090FE0002C0880F991F0A94FB
:1014F000E2F7842B87BB8FEB93E00197F1F700C0F5
:10150000000097B3A9010090FE0002C0440F551FD0
:101510000A94E2F7842F8095892387BB90EA9A95F5
:10152000F1F786B30090FE0002C0220F331F0A9429
:10153000E2F78223E3E3F3E03197F1F700C0000024
:10154000089580FF30C0F89438B381E090E0AC019A
:101550000090FE0002C0440F551F0A94E2F7242FAA
:101560002095232328BB47B39C010090FE0002C0B6
:10157000220F331F0A94E2F7242B27BB2AE12A9576
:10158000F1F700C0789427B30090FE0002C0880FE6
:10159000991F0A94E2F78095822387BB82E98A9596
:1015A000F1F700C00895F89438B381E090E0AC0101
:1015B0000090FE0002C0440F551F0A94E2F7242F4A
:1015C0002095232328BB47B39C010090FE0002C056
:1015D000220F331F0A94E2F7242B27BB2DEA2A950A
:1015E000F1F7000027B30090FE0002C0880F991F9A
:1015F0000A94E2F78095822387BB78948DE08A95E0
:10160000F1F700000895CF93DF93D82FC8E08D2F16
:10161000817097DFD695C150D1F7DF91CF910895B2
:10162000F89438B381E090E0AC010090FE0002C075
:10163000440F551F0A94E2F7242F2095232328BB3B
:1016400047B39C010090FE0002C0220F331F0A9492
:10165000E2F7242B27BB28E02A95F1F727B3009067
:10166000FE0002C0880F991F0A94E2F7809582233A
:1016700087BB8AE18A95F1F700C086B390E00090BD
:10168000FE0002C0959587950A94E2F781707894E0
:1016900098E79A95F1F70895CF93DF93D8E0C0E0EB
:1016A000BFDF20E8829FC0011124C695C82BD1500E
:1016B000B9F78C2FDF91CF910895BF92CF92DF922F
:1016C000EF92FF920F931F93CF93DF93C22FE32EDE
:1016D000F42E052F162FD72FB82EC92EF2DE85E552
:1016E00092DF6894DD24D6F88C2F81702ADF2C2FAE
:1016F0003E2D4F2D502F612F7D2F8B2D9C2D01E0E6
:1017000037D3C22FE32EF42E052F162FD72FB82E46
:10171000C92EDA94D110E8CFDF91CF911F910F91AC
:10172000FF90EF90DF90CF90BF9008959F92AF927F
:10173000BF92CF92DF92EF92FF920F931F93CF93BE
:10174000DF93922EA32EB42EC52ED62EE72EF82E82
:10175000192FD02FA0E0B0E0F0E0E0E0CCE8292D98
:101760003A2D4B2D5C2D6D2D7E2D8F2D912F0A2F17
:10177000FFD288E090E0322F3E27E695269530FD97
:10178000EC270197C1F7FF5F1896FD1740F38E2FE6
:10179000DF91CF911F910F91FF90EF90DF90CF904D
:1017A000BF90AF909F9008952F923F924F925F927B
:1017B0006F927F928F929F92AF92BF92CF92DF9261
:1017C000EF92FF920F931F93CF93DF93CDB7DEB7C6
:1017D00029970FB6F894DEBF0FBECDBF29833A8399
:1017E0004B835C836D837E83382E9F83580169DE33
:1017F00080EF09DFE12CF12C412C81E0512C612C90
:10180000712C812C912CC12CD12C10E022242394FA
:10181000898706DF888704DF9885913019F4813045
:1018200001F547C0E885E1111CC081111AC0F5011E
:101830008081F9858F1781F08F1780F029813A8197
:101840004B815C816D817E81832D9F810E2D90D295
:1018500020FD06C04F2E05C0288603C0498401C064
:101860002886288530E040E050E060E070E080E0CD
:1018700090E00E2D62D2522A632A742A852A962A73
:10188000C72AD82A192B88855CDE89858F5F8987CE
:101890009FEFE91AF90A813409F0BBCFF5014082C4
:1018A000252D362D472D582D692D7C2D8D2D912FD1
:1018B00008C021E030E040E050E060E070E080E00F
:1018C00090E029960FB6F894DEBF0FBECDBFDF9132
:1018D000CF911F910F91FF90EF90DF90CF90BF902D
:1018E000AF909F908F907F906F905F904F903F90C0
:1018F0002F9008952F923F924F925F926F927F9216
:101900008F929F92AF92BF92CF92DF92EF92FF920F
:101910000F931F93CF93DF931F92CDB7DEB74C0188
:101920005B011982312C212C412C512C612C712C02
:10193000C12CD12CE12CF12C01C0212C8E010F5F88
:101940001F4F242D352D462D572D6C2D7D2D8E2D81
:101950009F2D2ADF422E532E642E752EC62ED72E93
:10196000E82EF92EA1E020D2B1F008E0DFDE8111EF
:1019700010C0F40188E0389EE00DF11D1124408272
:10198000518262827382C482D582E682F782339466
:1019900008C0239401C02394E3E0E21558F021101D
:1019A000CDCF8981882321F0F5018081381628F276
:1019B000F50130820F90DF91CF911F910F91FF9031
:1019C000EF90DF90CF90BF90AF909F908F907F90DF
:1019D0006F905F904F903F902F9008955058BB2785
:1019E000AA270ED00DC1FED030F003D120F031F483
:1019F0009F3F11F41EF4F3C00EF4E095E7FBE9C03D
:101A0000E92F0FD180F3BA17620773078407950790
:101A100018F071F49EF527C10EF4E0950B2EBA2F45
:101A2000A02D0B01B90190010C01CA01A0011124E4
:101A3000FF27591B99F0593F50F4503E68F11A1690
:101A4000F040A22F232F342F4427585FF3CF469521
:101A500037952795A795F0405395C9F77EF41F1643
:101A6000BA0B620B730B840BBAF09150A1F0FF0F0D
:101A7000BB1F661F771F881FC2F70EC0BA0F621FF9
:101A8000731F841F48F4879577956795B795F795E9
:101A90009E3F08F0B3CF9395880F08F09927EE0F7B
:101AA00097958795089571D008F481E0089504D042
:101AB0006894B111D9C00895BCD088F09F5790F0B8
:101AC000B92F9927B751A0F0D1F0660F771F881F63
:101AD000991F1AF0BA95C9F712C0B13081F0C3D07E
:101AE000B1E00895C0C0672F782F8827B85F39F01C
:101AF000B93FCCF3869577956795B395D9F73EF4C2
:101B000090958095709561957F4F8F4F9F4F089569
:101B1000E89409C097FB3EF4909580957095619587
:101B20007F4F8F4F9F4F9923A9F0F92F96E9BB273D
:101B30009395F695879577956795B795F111F8CFB9
:101B4000FAF4BB0F11F460FF1BC06F5F7F4F8F4F24
:101B50009F4F16C0882311F096E911C0772321F01A
:101B60009EE8872F762F05C0662371F096E8862FB2
:101B700070E060E02AF09A95660F771F881FDAF709
:101B8000880F9695879597F90895990F0008550F36
:101B9000AA0BE0E8FEEF16161706E807F907C0F0F3
:101BA00012161306E407F50798F0621B730B840BFB
:101BB000950B39F40A2661F0232B242B252B21F4D5
:101BC00008950A2609F4A140A6958FEF811D811D75
:101BD000089597F99F6780E870E060E008959FEFAF
:101BE00080EC089500240A941616170618060906B4
:101BF000089500240A941216130614060506089583
:101C0000092E0394000C11F4882352F0BB0F40F40A
:101C1000BF2B11F460FF04C06F5F7F4F8F4F9F4F4A
:101C2000089557FD9058440F551F59F05F3F71F0CC
:101C30004795880F97FB991F61F09F3F79F0879533
:101C40000895121613061406551FF2CF4695F1DFBC
:101C500008C0161617061806991FF1CF869571054C
:101C6000610508940895E894BB2766277727CB0180
:101C700097F908950BD0C4CFB5DF28F0BADF18F07C
:101C8000952309F0A6CFABCF1124EECFCADFA0F386
:101C9000959FD1F3950F50E0551F629FF001729F01
:101CA000BB27F00DB11D639FAA27F00DB11DAA1F20
:101CB000649F6627B00DA11D661F829F2227B00D6D
:101CC000A11D621F739FB00DA11D621F839FA00DF8
:101CD000611D221F749F3327A00D611D231F849F48
:101CE000600D211D822F762F6A2F11249F5750409F
:101CF0008AF0E1F088234AF0EE0FFF1FBB1F661F3A
:101D0000771F881F91505040A9F79E3F510570F0F2
:101D100060CFAACF5F3FECF3983EDCF386957795D2
:101D20006795B795F795E7959F5FC1F7FE2B880FED
:101D3000911D9695879597F908950F93083090F027
:101D4000982F872F762F652F542F432F322F22273E
:101D50000850F4CF220F331F441F551F661F771FF3
:101D6000881F991F0A95B2F70F91089597FB10F8F5
:101D7000169400080F93083098F00850232F342F42
:101D8000452F562F672F782F892F902DF4CF05944C
:101D900097958795779567955795479537952795A3
:101DA0000A95AAF70F9108950024A7FD00942A1719
:101DB00030054005500560057005800590050895C3
:101DC0001F93FC0199278827BC01E89411911032D8
:101DD000E9F3193010F01E30C8F31B3249F01D3200
:101DE00041F4689405C027D0610F711D811D911DBC
:101DF000119110531A30B8F33EF490958095709578
:101E000061957F4F8F4F9F4F1F910895FB01DC011C
:101E10000D900020E9F7119701900D920020E1F755
:101E20000895BB274A3031F4992322F4BDE29095FE
:101E300081959F4F37C0592F482F372F262F660F78
:101E4000771F881F991F660F771F881F991F620FC2
:101E5000731F841F951F660F771F881F991F089592
:101E6000BB27FA01A62F6217710581059105330B77
:101E700030FB66F0AA27660F771F881F991FAA1FDD
:101E8000A21710F0A21B63953850A9F7A05DAA33E2
:101E900008F0A95DA19336F7B111B1931082CA0180
:101EA00019C0BB27FB015527AA27880F991FAA1F16
:101EB000A41710F0A41B83955051B9F7A05DAA3365
:101EC00008F0A95DA193009779F7B111B193119230
:101ED000CB0100C0DC01FC01672F71917723E1F792
:101EE000329704C07C916D9370836291AE17BF07E7
:101EF000C8F30895E199FECF9FBB8EBBE09A992766
:101F00008DB30895A6E1B0E044E050E017C0262F5D
:101F1000E199FECF9FBB8EBB2DBB0FB6F894E29A22
:101F2000E19A0FBE01960895242FF2DF252FF0DFEE
:101F300000C0EDDF272FECCFDC01CB01FC01E199E4
:101F4000FECF06C0FFBBEEBBE09A31960DB20D92FC
:0C1F500041505040B8F70895F894FFCFBE
:101F5C00FEFDFBF72F285E2D5E292F004E6F2E0005
:101F6C0048656C6C6F21002D285E2D5E292D004379
:101F7C006F64653A003E002E2E2E2E00556E6C6F4F
:101F8C00636B6564002A3A4164642F233A44656CA0
:101F9C0065746500303A4C6973742F313A4368614B
:101FAC006E6765002A3A4164642D0041646465647F
:101FBC00002A3A44656C6574652D0044656C657443
:101FCC006564002A3A4E65787400436F64652D0091
:101FDC00466F756E6400636F646573002A3A4368DC
:0E1FEC00616E67652D004368616E6765640075
:00000001FF
