:1000000012C024C023C022C021C020C01FC01EC0F7
:100010001DC01CC01BC01AC019C018C017C016C014
:1000200015C014C013C011241FBECFE5D4E0DEBF3D
:10003000CDBF10E0A0E6B0E0E2ECF2E102C0059036
:100040000D92A83FB107D9F7CBD039C9D9CFE0E697
:10005000F0E040E050E0842F9A01919192BB9AE148
:100060009A95F1F700C090B3907F903D51F0903E8B
:1000700019F0903B89F40AC0242F220F820F8F5F62
:100080000895242F220F820F8E5F08952F5F3F4F18
:10009000822F880F820F08954F5F5F4F44305105C4
:1000A000D1F6809B089580E0089594B3936094BB4B
:1000B00094B39C6394BB662311F0A89A01C0A898DE
:1000C000A99A95B3937C95BB83FDAD9A82FDAC9ABA
:1000D00081FDAB9A80FDAA9A8DE08A95F1F7000028
:1000E000A9980895CF93DF93C82FD62F82958F704C
:1000F000DCDF6D2F8C2FD9DFDF91CF9108958FEC4E
:1001000097E00197F1F700C0000060E082E0CDDFEA
:100110008FEC97E00197F1F700C0000060E088E203
:10012000E1DF8FEC97E00197F1F700C0000060E09D
:1001300081E0D8DF8FEC97E00197F1F700C0000075
:1001400060E086E0CFDF8FEC97E00197F1F700C029
:10015000000060E08CE0C6DF0895EFECF7E0319737
:10016000F1F700C0000060E08C60BCDF0895EFECA8
:10017000F7E03197F1F700C0000060E08860B2DF7F
:1001800008958FEC97E00197F1F700C0000060E060
:1001900081E0A8DF0895EFECF7E03197F1F700C0B8
:1001A0000000F0E48F9F600D1124862F60E08068CE
:1001B00099DF0895CF93DF93FC012081222369F01A
:1001C000EC018FEC97E00197F1F700C0000061E0CF
:1001D000899188DF88818111F4CFDF91CF910895D3
:1001E000CF93DF93CDB7DEB76E970FB6F894DEBF2F
:1001F0000FBECDBF81B38F6081BB8F98BC9ABD9A73
:10020000BE9A80EF82BB8FE19EE40197F1F700C0B8
:10021000000075DFAFE1BEE41197F1F700C0000008
:1002200080E09BDFEFE1FEE43197F1F700C00000D2
:1002300084E09DDF8FE19EE40197F1F700C00000AC
:1002400018861F82FE01399684E0DF011D928A958F
:10025000E9F71E861D86188A1F8638973F019E0182
:10026000295F3F4F3A8B298BAE01435F5F4F5C8B19
:100270004B8BA988BA885B89598F8C898A8F862C89
:10028000972C0F2EF6E04F2EF02DAD8AD301E42DE2
:100290001D92EA95E9F775DFFFE728E331E0F150B9
:1002A00020403040E1F700C000000F2EF2ECEF2EAE
:1002B000FF24F394F02DCC24CA94DD24DA9460E07A
:1002C00081E069DF84E690E075DF882D992D36D7CF
:1002D000362E272EA82E592E642D81E05CDF882D26
:1002E000992D68DF8981882341F0FE01329601E073
:1002F00010E0819181117BC002C000E010E0A7DE18
:100300008B3049F4F301E00FF11F40E340835FEFCE
:10031000C51AD50A72C09BDE813049F4F301E00FA3
:10032000F11F81E380839FEFC91AD90A66C08FDE6F
:10033000823049F4F301E00FF11FA2E3A083BFEF85
:10034000CB1ADB0A5AC083DE833049F4F301E00F95
:10035000F11F23E320833FEFC31AD30A4EC077DE99
:10036000843049F4F301E00FF11F44E340835FEF71
:10037000C51AD50A42C06BDE853049F4F301E00F9F
:10038000F11F85E380839FEFC91AD90A36C05FDE6B
:10039000863049F4F301E00FF11FA6E3A083BFEF1D
:1003A000CB1ADB0A2AC053DE873049F4F301E00F91
:1003B000F11F27E320833FEFC31AD30A1EC047DE95
:1003C000883049F4F301E00FF11F48E340835FEF09
:1003D000C51AD50A12C03BDE893079F4F301E00F6B
:1003E000F11F89E380839FEFC91AD90A06C00F5F06
:1003F0001F4F0530110509F07CCFB59B28C0AD8893
:10040000B59B03C086B3B599FDCFBBDEAFE7B8E3BC
:10041000E1E0A150B040E040E1F700C0000005E19C
:1004200010E064E081E0B7DE8AE690E0C3DEC49AC3
:10043000C59AFFEF20E732E0F15020403040E1F76D
:1004400000C000000150110961F718BA1ACFFFDD92
:100450008A3009F035C68D81882309F407C61A2D24
:10046000AD88C32CD22CE12EF52C04E010E0E199EC
:10047000FECFC801FAD6C616D706E806F90611F56A
:1004800080DE4FE758E381E0415050408040E1F783
:1004900000C0000005E110E064E081E07CDE8AE657
:1004A00090E088DEC49AC59A9FEFA0E7B2E0915031
:1004B000A040B040E1F700C000000150110961F711
:1004C00018BA05C00C5F1F4F0438110581F6E19979
:1004D000FECF80E090E0C9D6C616D706E806F9063A
:1004E00009F0CFCE4EDEEFE7F8E321E0E150F04037
:1004F0002040E1F700C00000412C512C7C8E6B8E17
:100500008D8E9E8E298C3A8C86E0A989BA891D929F
:100510008A95E9F760E080E03EDE83E790E04ADE1E
:1005200060E081E038DE82E890E044DE90DD8A30F1
:1005300009F07FC126DEBFE7E8E3F1E0B150E0401B
:10054000F040E1F700C000000F2EFDE2EF2EFF2487
:10055000F394F02DCC24CA94DD24DA940F2EF6E324
:100560009F2EF02D0F2EF5E38F2EF02D0F2EF1E3A1
:100570006F2EF02D0F2EF0E37F2EF02D60E080E047
:100580000ADE82E990E016DE8A2D9B2DD7D56D8B91
:100590007E8B8F8B988F67E080E0FDDD8A2D9B2D11
:1005A00009DE8F81882341F0FE01389601E010E0DA
:1005B0008191811195C002C000E010E048DD8B30D0
:1005C00059F4E7E0F0E0EC0FFD1FE00FF11F70823F
:1005D0002FEFC21AD20A8AC03ADD813059F4E7E01F
:1005E000F0E0EC0FFD1FE00FF11F60823FEFC31A38
:1005F000D30A7CC02CDD823061F4E7E0F0E0EC0F40
:10060000FD1FE00FF11F42E340835FEFC51AD50ADB
:100610006DC01DDD833061F4E7E0F0E0EC0FFD1FFD
:10062000E00FF11F83E380839FEFC91AD90A5EC0F0
:100630000EDD843061F4E7E0F0E0EC0FFD1FE00F29
:10064000F11FA4E3A083BFEFCB1ADB0A4FC0FFDC8E
:10065000853059F4E7E0F0E0EC0FFD1FE00FF11FEB
:100660008082EFEFCE1ADE0A41C0F1DC863059F409
:10067000E7E0F0E0EC0FFD1FE00FF11F9082FFEFCD
:10068000CF1ADF0A33C0E3DC873061F4E7E0F0E043
:10069000EC0FFD1FE00FF11F27E320833FEFC31A8C
:1006A000D30A24C0D4DC883061F4E7E0F0E0EC0F3A
:1006B000FD1FE00FF11F48E340835FEFC51AD50A25
:1006C00015C0C5DC893091F4E7E0F0E0EC0FFD1FC8
:1006D000E00FF11F89E380839FEFC91AD90A06C092
:1006E0000F5F1F4F0530110509F062CFB0DC8A3073
:1006F00009F06CC08B85882309F441C0412C512C32
:100700003201689442F8E199FECFC201A6D58F3F2D
:1007100041F5E199FECF4D895E896F89788DC201DF
:10072000B6D52FDDAFE3BCE91197F1F700C00000AB
:1007300006E010E065E081E02EDD89E990E03ADD39
:10074000C59ABFEFE0E7F2E0B150E040F040E1F7DA
:1007500000C000000150110969F718BA412C512C52
:100760005DC024E0420E511C611C711C34E843162C
:1007700051046104710439F6412C512C4FC001DD44
:100780008FE59AEE0197F1F700C0000006E010E057
:1007900061E081E000DD8FE990E00CDDC69A9FEF1B
:1007A000A0E7B2E09150A040B040E1F700C00000E7
:1007B0000150110969F718BAE4DCEFE7F8E321E02A
:1007C000E150F0402040E1F700C0000040DC8C30F8
:1007D000D1F4E7E0F0E0EC0FFD1FEC0DFD1D108201
:1007E00031E0C31AD108C69A8FE59AEE0197F1F766
:1007F00000C00000C69AAFE5BAEE1197F1F700C04D
:10080000000018BABEDCEFE1FEE43197F1F700C05A
:100810000000F1E0EF1AF10809F0B0CEB2DC2FE7EA
:1008200038E341E0215030404040E1F700C0000093
:1008300004C0CC24CA94DD24DA9409DC8C3009F09D
:100840006EC49FDC5FE788E391E0515080409040A8
:10085000E1F700C000000F2EFDE2EF2EFF24F3941D
:10086000F02D0F2EF6E39F2EF02D0F2EF5E38F2E99
:10087000F02D0F2EF1E36F2EF02D0F2EF0E37F2ED3
:10088000F02D60E080E087DC8DEA90E093DC8A2D3B
:100890009B2D54D46D8B7E8B8F8B988F6AE080E07C
:1008A0007ADC8A2D9B2D86DC8F81882341F0FE0126
:1008B000389601E010E08191811195C002C000E0FE
:1008C00010E0C5DB8B3059F4E7E0F0E0EC0FFD1FE2
:1008D000E00FF11F7082AFEFCA1ADA0A8AC0B7DBE5
:1008E000813059F4E7E0F0E0EC0FFD1FE00FF11F5D
:1008F0006082BFEFCB1ADB0A7CC0A9DB823061F4D7
:10090000E7E0F0E0EC0FFD1FE00FF11F22E3208392
:100910003FEFC31AD30A6DC09ADB833061F4E7E07E
:10092000F0E0EC0FFD1FE00FF11F43E340835FEFAA
:10093000C51AD50A5EC08BDB843061F4E7E0F0E0D5
:10094000EC0FFD1FE00FF11F84E380839FEFC91AB6
:10095000D90A4FC07CDB853059F4E7E0F0E0EC0FBA
:10096000FD1FE00FF11F8082AFEFCA1ADA0A41C003
:100970006EDB863059F4E7E0F0E0EC0FFD1FE00F8E
:10098000F11F9082BFEFCB1ADB0A33C060DB8730E8
:1009900061F4E7E0F0E0EC0FFD1FE00FF11F27E34B
:1009A00020833FEFC31AD30A24C051DB883061F49F
:1009B000E7E0F0E0EC0FFD1FE00FF11F48E340839C
:1009C0005FEFC51AD50A15C042DB893091F4E7E024
:1009D000F0E0EC0FFD1FE00FF11F89E380839FEF34
:1009E000C91AD90A06C00F5F1F4F0530110509F05B
:1009F00062CF2DDB8A3009F08FC08B85882309F404
:100A000061C0412C512C3201689442F8E199FECF2B
:100A1000C2012BD42D893E894F89588D261737075F
:100A20004807590709F03FC0142DE199FECF6FEF39
:100A3000812F90E01FD481E0810FE199FECF6FEF0D
:100A400090E018D482E0810FE199FECF6FEF90E043
:100A500011D483E0810FE199FECF6FEF90E00AD4CB
:100A600090DB3FE748E351E0315040405040E1F730
:100A700000C0000006E010E064E081E08CDB87EB62
:100A800090E098DBC59A8FEF90E7A2E0815090400C
:100A9000A040E1F700C000000150110969F718BA41
:100AA000412C512C61C0B4E04B0E511C611C711CD7
:100AB000E4E84E1651046104710409F0A7CF412CFB
:100AC000512C52C05EDBFFE728E331E0F1502040BB
:100AD0003040E1F700C0000006E010E061E081E096
:100AE0005ADB8FE990E066DBC69A4FEF50E782E071
:100AF000415050408040E1F700C000000150110912
:100B000069F718BA3EDB9FE7A8E3B1E09150A04037
:100B1000B040E1F700C000009ADA8C30D1F4E7E091
:100B2000F0E0EC0FFD1FEC0DFD1D1082E1E0CE1A90
:100B3000D108C69A8FE59AEE0197F1F700C0000040
:100B4000C69AAFE5BAEE1197F1F700C0000018BAE7
:100B500018DBEFE1FEE43197F1F700C00000F1E0AF
:100B6000EF1AF10809F08DCE0CDB2FE738E341E0F6
:100B7000215030404040E1F700C00000D0C26894EE
:100B8000EE24E2F8F12C612C712C812C912C0F2E8B
:100B9000F6E05F2EF02D6894442442F8A989BA89C2
:100BA000E52D1D92EA95E9F7AB89BC89E42D1D92EC
:100BB000EA95E9F7E199FECF0E2D1F2DC7014DD320
:100BC0008F3F09F480C0FFEF8F1A9F0A61147104F0
:100BD00009F079C0E199FECF802F912F46D32AE00A
:100BE0004A2D5B2DF0D2C401A0E0B0E02AE0422DF6
:100BF000532DBC01CD01E7D2C4DA2FE738E341E041
:100C0000215030404040E1F700C000000DE211E00B
:100C100060E080E0C0DA8FEB90E0CCDA63E080E067
:100C2000BADA822D932DC6DA652D80E0B4DA83EC32
:100C300090E0C0DA60E081E0AEDA8AEC90E0BADA07
:100C4000652D81E0A8DA8A2D9B2DB4DA00DA8A308E
:100C5000D1F1FDD98C3069F594DA5FE788E391E052
:100C6000515080409040E1F700C0000006E010E0E5
:100C7000AFE7B8E3E1E0A150B040E040E1F700C0E9
:100C80000000642D81E087DA80ED90E093DAC69A67
:100C9000FFEF20E732E0F15020403040E1F700C0A4
:100CA00000000150110921F718BA66246394712CD1
:100CB0000AC08FE19EE40197F1F700C000000150E7
:100CC000110909F0A5CF94E0E90EF11CA4E8EA1699
:100CD000F10409F063CF55DABFE7E8E3F1E0B15082
:100CE000E040F040E1F700C0000006E010E04AE01C
:100CF000622D732DC40148D260E080E04CDA89EDAA
:100D000090E058DA67E080E046DA822D932D52DADF
:100D10006BE080E040DA8FED90E04CDAC59A2FEF7F
:100D200030E742E0215030404040E1F700C0000091
:100D300018BA8FE19EE40197F1F700C0000001505E
:100D40001109A9F61EDA9FE7A8E3B1E09150A0408F
:100D5000B040E1F700C000007AD9813009F0E4C169
:100D600005C075D9813009F06EC102C0412C512CEB
:100D700008DAEFE7F8E321E0E150F0402040E1F746
:100D800000C000000F2EFDE2EF2EFF24F394F02DA3
:100D90000F2EF6E39F2EF02D0F2EF5E38F2EF02D64
:100DA0000F2EF1E36F2EF02D0F2EF0E37F2EF02D9E
:100DB00060E080E0F0D985EE90E0FCD98A2D9B2D93
:100DC000BDD16D8B7E8B8F8B988F6AE080E0E3D9ED
:100DD0008A2D9B2DEFD98F81882341F0FE01389613
:100DE00001E010E08191811195C002C000E010E0A7
:100DF0002ED98B3059F4E7E0F0E0EC0FFD1FE00F47
:100E0000F11F70823FEFC31AD30A8AC020D9813004
:100E100059F4E7E0F0E0EC0FFD1FE00FF11F6082F6
:100E20004FEFC41AD40A7CC012D9823061F4E7E0D3
:100E3000F0E0EC0FFD1FE00FF11F52E350838FEF46
:100E4000C81AD80A6DC003D9833061F4E7E0F0E036
:100E5000EC0FFD1FE00FF11F93E39083AFEFCA1A71
:100E6000DA0A5EC0F4D8843061F4E7E0F0E0EC0F19
:100E7000FD1FE00FF11FB4E3B083EFEFCE1ADE0ADF
:100E80004FC0E5D8853059F4E7E0F0E0EC0FFD1FE6
:100E9000E00FF11F8082FFEFCF1ADF0A41C0D7D8E1
:100EA000863059F4E7E0F0E0EC0FFD1FE00FF11F92
:100EB00090822FEFC21AD20A33C0C9D8873061F4AA
:100EC000E7E0F0E0EC0FFD1FE00FF11F37E33083A8
:100ED0004FEFC41AD40A24C0BAD8883061F4E7E0CE
:100EE000F0E0EC0FFD1FE00FF11F58E350838FEF90
:100EF000C81AD80A15C0ABD8893091F4E7E0F0E001
:100F0000EC0FFD1FE00FF11F99E39083AFEFCA1ABA
:100F1000DA0A06C00F5F1F4F0530110509F062CFD6
:100F200096D88A3009F05DC08B85882381F18F8146
:100F3000882309F456C0E199FECF4D895E896F89F7
:100F4000788D80E090E0A3D11CD9BFE7E8E3F1E021
:100F5000B150E040F040E1F700C0000006E010E0D2
:100F600065E081E018D98FEE90E024D9C59A2FEF83
:100F700030E742E0215030404040E1F700C000003F
:100F80000150110969F718BA412C512C52C0F9D8F7
:100F90005FE788E391E0515080409040E1F700C066
:100FA000000006E010E061E081E0F5D88FE990E014
:100FB00001D9C69AAFEFB0E7E2E0A150B040E040FF
:100FC000E1F700C000000150110969F718BAD9D83B
:100FD000FFE728E331E0F15020403040E1F700C066
:100FE000000035D88C30D1F4E7E0F0E0EC0FFD1FC5
:100FF000EC0DFD1D108241E0C41AD108C69A8FE5A0
:101000009AEE0197F1F700C00000C69AAFE5BAEE7C
:101010001197F1F700C0000018BAB3D8EFE1FEE471
:101020003197F1F700C00000F1E0EF1AF10809F084
:10103000BFCEA7D82FE738E341E0215030404040F1
:10104000E1F700C000008FE19EE40197F1F700C0D6
:1010500000009FEF491A590AADE34A16510408F4FB
:1010600053CA6B8C7C8C8D8C9E8C0BC98AD8BFE745
:10107000E8E3F1E0B150E040F040E1F700C00000EB
:1010800006E010E061E081E086D88FE990E092D838
:10109000C69A2FEF30E742E0215030404040E1F760
:1010A00000C000000150110969F718BA6AD85FE75B
:1010B00088E391E0515080409040E1F700C000008B
:1010C000C6D78C3001F5F301EC0DFD1D1082A1E0B7
:1010D000CA1AD108C69AEFE5FAEE3197F1F700C0C7
:1010E0000000C69A8FE59AEE0197F1F700C0000064
:1010F00018BA47D89FE7A8E3B1E09150A040B040AC
:10110000E1F700C00000EFE1FEE43197F1F700C025
:101110000000F1E0EF1AF10809F0D1C8B7C897D77D
:101120008B3009F01ECE2BCD8FE19EE40197F1F7B5
:1011300000C0000044244394512CE6C91F93FC01D5
:1011400099278827BC01E89411911032E9F31930EE
:1011500010F01E30C8F31B3249F01D3241F4689480
:1011600005C01CD0610F711D811D911D119110537F
:101170001A30B8F33EF490958095709561957F4F45
:101180008F4F9F4F1F910895BB274A3031F4992309
:1011900022F4BDE2909581959F4F37C0592F482F7B
:1011A000372F262F660F771F881F991F660F771F0F
:1011B000881F991F620F731F841F951F660F771F6B
:1011C000881F991F0895BB27FA01A62F6217710582
:1011D00081059105330B30FB66F0AA27660F771F58
:1011E000881F991FAA1FA21710F0A21B63953850E1
:1011F000A9F7A05DAA3308F0A95DA19336F7B11154
:10120000B1931082CA0119C0BB27FB015527AA2739
:10121000880F991FAA1FA41710F0A41B8395505183
:10122000B9F7A05DAA3308F0A95DA193009779F7FB
:10123000B111B1931192CB0100C0DC01FC01672F09
:1012400071917723E1F7329704C07C916D9370839D
:101250006291AE17BF07C8F30895E199FECF9FBB17
:101260008EBBE09A99278DB30895A6E1B0E044E0E3
:1012700050E017C0262FE199FECF9FBB8EBB2DBB40
:101280000FB6F894E29AE19A0FBE01960895242FC2
:10129000F2DF252FF0DF00C0EDDF272FECCFDC01E0
:1012A000CB01FC01E199FECF06C0FFBBEEBBE09A8B
:1012B00031960DB20D9241505040B8F70895F89410
:0212C000FFCF5E
:1012C200FEFDFBF7436F64653A00556E6C6F636B0E
:1012D2006564002A3A4164642F233A44656C65745C
:1012E2006500303A4C6973742F313A4368616E6716
:1012F20065002A3A4164642D004164646564004DCE
:10130200696E2E2035206E756D626572002A3A4430
:10131200656C6574652D0044656C65746564004E8A
:101322006F2E002A3A4E65787400436F64652D0073
:1013320052657475726E656400466F756E64006303
:101342006F646573002A3A4368616E67652D0043D6
:0813520068616E67656400002C
:00000001FF
