:1000000012C024C023C022C021C020C01FC01EC0F7
:100010001DC01CC01BC01AC019C018C017C016C014
:1000200015C014C013C011241FBECFE5D4E0DEBF3D
:10003000CDBF10E0A0E6B0E0ECE8F1E102C0059031
:100040000D92AE3FB107D9F7CBD09EC8D9CFE0E62D
:10005000F0E040E050E0842F9A01919192BB9AE148
:100060009A95F1F700C090B3907F903D51F0903E8B
:1000700019F0903B89F40AC0242F220F820F8F5F62
:100080000895242F220F820F8E5F08952F5F3F4F18
:10009000822F880F820F08954F5F5F4F44305105C4
:1000A000D1F6809B089580E0089594B3936094BB4B
:1000B00094B39C6394BB662311F0A89A01C0A898DE
:1000C000A99A95B3937C95BB83FDAD9A82FDAC9ABA
:1000D00081FDAB9A80FDAA9A8DE08A95F1F7000028
:1000E000A9980895CF93DF93C82FD62F82958F704C
:1000F000DCDF6D2F8C2FD9DFDF91CF9108958FEC4E
:1001000097E00197F1F700C0000060E082E0CDDFEA
:100110008FEC97E00197F1F700C0000060E088E203
:10012000E1DF8FEC97E00197F1F700C0000060E09D
:1001300081E0D8DF8FEC97E00197F1F700C0000075
:1001400060E086E0CFDF8FEC97E00197F1F700C029
:10015000000060E08CE0C6DF0895EFECF7E0319737
:10016000F1F700C0000060E08C60BCDF0895EFECA8
:10017000F7E03197F1F700C0000060E08860B2DF7F
:1001800008958FEC97E00197F1F700C0000060E060
:1001900081E0A8DF0895EFECF7E03197F1F700C0B8
:1001A0000000F0E48F9F600D1124862F60E08068CE
:1001B00099DF0895CF93DF93FC012081222369F01A
:1001C000EC018FEC97E00197F1F700C0000061E0CF
:1001D000899188DF88818111F4CFDF91CF910895D3
:1001E000CF93DF93CDB7DEB76C970FB6F894DEBF31
:1001F0000FBECDBF81B38F6081BB8F98BC9ABD9A73
:10020000BE9A80EF82BB8FE19EE40197F1F700C0B8
:10021000000075DFAFE1BEE41197F1F700C0000008
:1002200080E09BDFEFE1FEE43197F1F700C00000D2
:1002300084E09DDF8FE19EE40197F1F700C00000AC
:1002400018861F82FE01399684E0DF011D928A958F
:10025000E9F71E861D86188A1F8638974F01FFEF23
:10026000FF8B2FEF288F2E0137E0430E511C898E14
:10027000792C5C8A4B8A598C86E0D4011D928A9530
:10028000E9F77FDFBFE7E8E3F1E0B150E040F0409D
:10029000E1F700C000000F2EF2ECEF2EFF24F394E4
:1002A000F02DCF88D88C0F2EF1E34F2EF02D0F2E8E
:1002B000F0E3BF2EF02D60E080E06DDF84E690E09B
:1002C00079DF852D972D9FD6A62E672E282E392EC5
:1002D00060E081E060DF852D972D6CDF89818823C8
:1002E00041F0FE01329601E010E08191811179C068
:1002F00002C000E010E0ABDE8B3041F4F401E00F0F
:10030000F11FB0822FEFC21AD20A71C0A0DE813075
:1003100041F4F401E00FF11F40823FEFC31AD30A0A
:1003200066C095DE823049F4F401E00FF11F42E32C
:1003300040835FEFC51AD50A5AC089DE833049F47D
:10034000F401E00FF11F83E380839FEFC91AD90AFC
:100350004EC07DDE843049F4F401E00FF11FA4E3C8
:10036000A083BFEFCB1ADB0A42C071DE853049F4AF
:10037000F401E00FF11F25E320833FEFC31AD30AF6
:1003800036C065DE863049F4F401E00FF11F46E324
:1003900040835FEFC51AD50A2AC059DE873049F479
:1003A000F401E00FF11F87E380839FEFC91AD90A98
:1003B0001EC04DDE883049F4F401E00FF11FA8E3C0
:1003C000A083BFEFCB1ADB0A12C041DE893079F47B
:1003D000F401E00FF11F29E320833FEFC31AD30A92
:1003E00006C00F5F1F4F0530110509F07ECF2FDECD
:1003F0008A3009F0CAC58D81882309F49CC5CA2CAE
:10040000D62CE22CF32C04E010E0E199FECFC801D9
:1004100091D6C616D706E806F90611F5B2DE4FE703
:1004200058E381E0415050408040E1F700C00000B7
:1004300005E110E064E081E0AEDE80E790E0BADE46
:10044000C49AC59A9FEFA0E7B2E09150A040B04097
:10045000E1F700C000000150110961F718BA05C0AA
:100460000C5F1F4F0438110581F6E199FECF80E043
:1004700090E060D6C616D706E806F90609F0FCCE6D
:100480004B885C887EDEEFE7F8E321E0E150F04046
:100490002040E1F700C00000A12CB12C252CAE01BA
:1004A000435F5F4F5A8B498B19896A889B8E8A8E6E
:1004B000912E7C8E742C86E0D2011D928A95E9F7EC
:1004C00060E080E068DE89E790E074DE60E081E073
:1004D00062DE88E890E06EDEBADD8A3009F058C14D
:1004E00050DEBFE7E8E3F1E0B150E040F040E1F773
:1004F00000C000000F2EFDE2CF2EDD24D394F02D9E
:10050000EE24EA94FF24FA940F2EF6E33F2EF02D0A
:100510000F2EF0E38F2EF02D60E080E03CDE88E9C6
:1005200090E048DE872D922D6ED56B8B7C8B8D8B6A
:100530009E8B67E080E02FDE872D922D3BDE8F8142
:10054000882341F0FE01389601E010E0819181118D
:1005500079C002C000E010E07ADD8B3041F4F20196
:10056000E00FF11F80822FEFE21AF20A71C06FDDF7
:10057000813049F4F201E00FF11F31E330834FEF96
:10058000E41AF40A65C063DD823049F4F201E00F39
:10059000F11F52E350838FEFE81AF80A59C057DD74
:1005A000833049F4F201E00FF11F93E39083AFEF42
:1005B000EA1AFA0A4DC04BDD843049F4F201E00F2B
:1005C000F11FB4E3B083EFEFEE1AFE0A41C03FDD46
:1005D000853049F4F201E00FF11F25E320833FEF5E
:1005E000E31AF30A35C033DD863041F4F201E00F3F
:1005F000F11F30824FEFE41AF40A2AC028DD873059
:1006000049F4F201E00FF11F57E350838FEFE81A2E
:10061000F80A1EC01CDD883049F4F201E00FF11F1A
:1006200098E39083AFEFEA1AFA0A12C010DD89301E
:1006300079F4F201E00FF11FB9E3B083EFEFEE1AA6
:10064000FE0A06C00F5F1F4F0530110509F07ECF6F
:10065000FEDC8A3009F06CC08B85882309F441C028
:10066000A12CB12C65016894A2F8E199FECFC501D7
:1006700059D58F3F41F5E199FECF4B895C896D8952
:100680007E89C50169D57DDD8FE39CE90197F1F78E
:1006900000C0000006E010E065E081E07CDD8FE94D
:1006A00090E088DDC59A9FEFA0E7B2E09150A040AE
:1006B000B040E1F700C000000150110969F718BA15
:1006C000A12CB12C5AC0E4E0AE0EB11CC11CD11C4F
:1006D000F4E8AF16B104C104D10439F6A12CB12C51
:1006E0004CC04FDD8FE59AEE0197F1F700C0000096
:1006F00006E010E061E081E04EDD85EA90E05ADD41
:10070000C69A9FEFA0E7B2E09150A040B040E1F759
:1007100000C000000150110969F718BA32DDEFE797
:10072000F8E321E0E150F0402040E1F700C0000094
:100730008EDC8C30B9F4F201EE0DFF1D108231E039
:10074000E31AF108C69A8FE59AEE0197F1F700C017
:100750000000C69AAFE5BAEE1197F1F700C00000AD
:1007600018BA0FDDEFE1FEE43197F1F700C00000A9
:10077000F1E0CF1AD10809F0CFCE03DD2FE738E33F
:1007800041E0215030404040E1F700C0000004C08B
:10079000EE24EA94FF24FA945ADC8C3009F024C445
:1007A000F0DC5FE788E391E0515080409040E1F752
:1007B00000C000000F2EFDE2CF2EDD24D394F02DDB
:1007C0000F2EF6E33F2EF02D0F2EF0E38F2EF02D9F
:1007D00060E080E0E0DC83EB90E0ECDC872D922DA4
:1007E00012D46B8B7C8B8D8B9E8B6AE080E0D3DC8C
:1007F000872D922DDFDC8F81882341F0FE01389612
:1008000001E010E08191811179C002C000E010E0A8
:100810001EDC8B3041F4F201E00FF11F8082AFEF5C
:10082000EA1AFA0A71C013DC813049F4F201E00FD0
:10083000F11FB1E3B083EFEFEE1AFE0A65C007DCEB
:10084000823049F4F201E00FF11F22E320833FEFF1
:10085000E31AF30A59C0FBDB833049F4F201E00FDD
:10086000F11F43E340835FEFE51AF50A4DC0EFDB6C
:10087000843049F4F201E00FF11F84E380839FEF9D
:10088000E91AF90A41C0E3DB853049F4F201E00FCF
:10089000F11FA5E3A083BFEFEB1AFB0A35C0D7DB3E
:1008A000863041F4F201E00FF11F3082EFEFEE1AD3
:1008B000FE0A2AC0CCDB873049F4F201E00FF11FB9
:1008C00027E320833FEFE31AF30A1EC0C0DB883022
:1008D00049F4F201E00FF11F48E340835FEFE51AAE
:1008E000F50A12C0B4DB893079F4F201E00FF11F90
:1008F00089E380839FEFE91AF90A06C00F5F1F4F53
:100900000530110509F07ECFA2DB8A3009F08FC0D7
:100910008B85882309F461C0A12CB12C65016894F2
:10092000A2F8E199FECFC50105D42B893C894D89F8
:100930005E89261737074807590709F03FC01A2D67
:10094000E199FECF6FEF812F90E0F9D381E0810F25
:10095000E199FECF6FEF90E0F2D382E0810FE19951
:10096000FECF6FEF90E0EBD383E0810FE199FECFF4
:100970006FEF90E0E4D305DC3FE748E351E031500E
:1009800040405040E1F700C0000006E010E064E0A5
:1009900081E001DC8DEB90E00DDCC59A8FEF90E7F4
:1009A000A2E081509040A040E1F700C0000001505B
:1009B000110969F718BAA12CB12C5EC0B4E0AB0ED6
:1009C000B11CC11CD11CE4E8AE16B104C104D104B1
:1009D00009F0A7CFA12CB12C4FC0D3DBFFE728E350
:1009E00031E0F15020403040E1F700C0000006E067
:1009F00010E061E081E0CFDB85EA90E0DBDBC69AC6
:100A00004FEF50E782E0415050408040E1F700C096
:100A100000000150110969F718BAB3DB9FE7A8E39A
:100A2000B1E09150A040B040E1F700C000000FDB02
:100A30008C30B9F4F201EE0DFF1D1082E1E0EE1AE8
:100A4000F108C69A8FE59AEE0197F1F700C0000011
:100A5000C69AAFE5BAEE1197F1F700C0000018BAD8
:100A600090DBEFE1FEE43197F1F700C00000F1E028
:100A7000CF1AD10809F0ACCE84DB2FE738E341E090
:100A8000215030404040E1F700C00000ADC2689402
:100A9000CC24C2F8D12C00E010E0A12CB12C0F2EF8
:100AA000F6E03F2EF02DFC8AEB8AF62C692C4801EB
:100AB000D201E32D1D92EA95E9F7A989BA89E4E00C
:100AC0001D92EA95E9F7E199FECF0C2D1D2DC60187
:100AD00029D38F3F09F480C0FFEFAF1ABF0A8114FA
:100AE000910409F079C0E199FECF802F912F22D394
:100AF0002AE0472D522DCCD2C501A0E0B0E02AE07B
:100B0000462D5F2DBC01CD01C3D23BDB2FE738E37F
:100B100041E0215030404040E1F700C000000DE2CC
:100B200011E060E080E037DB85EC90E043DB63E0E0
:100B300080E031DB862D9F2D3DDB632D80E02BDBBC
:100B400089EC90E037DB60E081E025DB80ED90E030
:100B500031DB632D81E01FDB872D922D2BDB77DAD4
:100B60008A30D1F174DA8C3069F50BDB5FE788E30A
:100B700091E0515080409040E1F700C0000006E055
:100B800010E0AFE7B8E3E1E0A150B040E040E1F7AA
:100B900000C0000064E081E0FEDA86ED90E00ADB50
:100BA000C69AFFEF20E732E0F15020403040E1F7F5
:100BB00000C000000150110921F718BA882483945D
:100BC000912C0AC08FE19EE40197F1F700C000006C
:100BD0000150110909F0A5CF94E0C90ED11CA4E879
:100BE000CA16D10409F064CF962C6F2CEB88FC88D0
:100BF000C8DABFE7E8E3F1E0B150E040F040E1F7E8
:100C000000C0000006E010E04AE0692D762DC50125
:100C100020D260E080E0BFDA8FED90E0CBDA67E0D1
:100C200080E0B9DA892D962DC5DA6BE080E0B3DA81
:100C300085EE90E0BFDAC59A2FEF30E742E0215011
:100C400030404040E1F700C0000018BA8FE19EE458
:100C50000197F1F700C0000001501109A9F691DADF
:100C60009FE7A8E3B1E09150A040B040E1F700C099
:100C70000000EDD9813009F0BCC105C0E8D9813050
:100C800009F047C102C0A12CB12C7BDAEFE7F8E3F1
:100C900021E0E150F0402040E1F700C000000F2EBD
:100CA000FDE2CF2EDD24D394F02D0F2EF6E33F2E60
:100CB000F02D0F2EF0E38F2EF02D60E080E06BDA48
:100CC0008BEE90E077DA872D922D9DD16B8B7C8B0C
:100CD0008D8B9E8B6AE080E05EDA872D922D6ADA3A
:100CE0008F81882341F0FE01389601E010E0819168
:100CF000811179C002C000E010E0A9D98B3041F425
:100D0000F201E00FF11F80823FEFE31AF30A71C096
:100D10009ED9813049F4F201E00FF11F41E3408395
:100D20005FEFE51AF50A65C092D9823049F4F20105
:100D3000E00FF11F82E380839FEFE91AF90A59C09F
:100D400086D9833049F4F201E00FF11FA3E3A083B9
:100D5000BFEFEB1AFB0A4DC07AD9843049F4F20197
:100D6000E00FF11F24E320833FEFE31AF30A41C0B1
:100D70006ED9853049F4F201E00FF11F45E340835D
:100D80005FEFE51AF50A35C062D9863041F4F20109
:100D9000E00FF11F30828FEFE81AF80A2AC057D906
:100DA000873049F4F201E00FF11F97E39083AFEF32
:100DB000EA1AFA0A1EC04BD9883049F4F201E00F52
:100DC000F11FB8E3B083EFEFEE1AFE0A12C03FD96D
:100DD000893079F4F201E00FF11F29E320833FEF1E
:100DE000E31AF30A06C00F5F1F4F0530110509F023
:100DF0007ECF2DD98A3009F05DC08B85882381F1A3
:100E00008F81882309F456C0E199FECF4B895C8914
:100E10006D897E8980E090E09FD1B3D94FE758E398
:100E200081E0415050408040E1F700C0000006E002
:100E300010E065E081E0AFD985EF90E0BBD9C59ABD
:100E40009FEFA0E7B2E09150A040B040E1F700C0B2
:100E500000000150110969F718BAA12CB12C4FC03C
:100E600090D9EFE7F8E321E0E150F0402040E1F7CE
:100E700000C0000006E010E061E081E08CD985EA66
:100E800090E098D9C69A3FEF40E752E03150404099
:100E90005040E1F700C000000150110969F718BA8D
:100EA00070D98FE798E3A1E081509040A040E1F72E
:100EB00000C00000CCD88C30B9F4F201EE0DFF1D5B
:100EC0001082B1E0EB1AF108C69AEFE5FAEE31971D
:100ED000F1F700C00000C69A8FE59AEE0197F1F78E
:100EE00000C0000018BA4DD9AFE1BEE41197F1F788
:100EF00000C00000B1E0CB1AD10809F0DECE41D924
:100F0000EFE7F8E321E0E150F0402040E1F700C0D6
:100F100000008FE19EE40197F1F700C000009FEF11
:100F2000A91AB90AADE3AA16B10408F4C4CA8A8C96
:100F30009B8C7C8C9EC925D9BFE7E8E3F1E0B150DA
:100F4000E040F040E1F700C0000006E010E061E0A2
:100F500081E021D985EA90E02DD9C69A2FEF30E7BC
:100F600042E0215030404040E1F700C00000015015
:100F7000110969F718BA05D95FE788E391E0515084
:100F800080409040E1F700C0000061D88C3001F54E
:100F9000F401EC0DFD1D1082A1E0CA1AD108C69A19
:100FA000EFE5FAEE3197F1F700C00000C69A8FE541
:100FB0009AEE0197F1F700C0000018BAE2D89FE757
:100FC000A8E3B1E09150A040B040E1F700C00000BC
:100FD000EFE1FEE43197F1F700C00000F1E0EF1A15
:100FE000F10809F068C948C932D88B3009F046CEFB
:100FF0004ECD8FE19EE40197F1F700C00000AA24D6
:10100000A394B12C58CA1F93FC0199278827BC01CF
:10101000E89411911032E9F3193010F01E30C8F342
:101020001B3249F01D3241F4689405C01CD0610F99
:10103000711D811D911D119110531A30B8F33EF4AA
:1010400090958095709561957F4F8F4F9F4F1F9121
:101050000895BB274A3031F4992322F4BDE29095DC
:1010600081959F4F37C0592F482F372F262F660F56
:10107000771F881F991F660F771F881F991F620FA0
:10108000731F841F951F660F771F881F991F089570
:10109000BB27FA01A62F6217710581059105330B55
:1010A00030FB66F0AA27660F771F881F991FAA1FBB
:1010B000A21710F0A21B63953850A9F7A05DAA33C0
:1010C00008F0A95DA19336F7B111B1931082CA015E
:1010D00019C0BB27FB015527AA27880F991FAA1FF4
:1010E000A41710F0A41B83955051B9F7A05DAA3343
:1010F00008F0A95DA193009779F7B111B19311920E
:10110000CB0100C0DC01FC01672F71917723E1F76F
:10111000329704C07C916D9370836291AE17BF07C4
:10112000C8F30895E199FECF9FBB8EBBE09A992743
:101130008DB30895A6E1B0E044E050E017C0262F3B
:10114000E199FECF9FBB8EBB2DBB0FB6F894E29A00
:10115000E19A0FBE01960895242FF2DF252FF0DFCC
:1011600000C0EDDF272FECCFDC01CB01FC01E199C2
:10117000FECF06C0FFBBEEBBE09A31960DB20D92DA
:0C11800041505040B8F70895F894FFCF9C
:10118C00FEFDFBF7456E74657220636F64653A0073
:10119C00556E6C6F636B6564002A3A4164642F234F
:1011AC003A44656C65746500303A4C6973742F3140
:1011BC003A4368616E6765002A3A4164642D0041C8
:1011CC0064646564004D696E2E2035206E756D6209
:1011DC006572002A3A44656C6574652D0044656C33
:1011EC0065746564004E6F2E002A3A4E6578740063
:1011FC00436F64652D0052657475726E65640046AC
:10120C006F756E6400636F646573002A3A4368619E
:0E121C006E67652D004368616E6765640000B3
:00000001FF
