:1000000012C024C023C022C021C020C01FC01EC0F7
:100010001DC01CC01BC01AC019C018C017C016C014
:1000200015C014C013C011241FBECFE5D4E0DEBF3D
:10003000CDBF11E0A0E6B0E0EEE3F9E102C005902B
:100040000D92AA30B107D9F725D177CCD9CFE0E608
:10005000F0E040E050E0842F9A01919192BB9AE148
:100060009A95F1F700C090B3907F903D51F0903E8B
:1000700019F0903B89F40AC0242F220F820F8F5F62
:100080000895242F220F820F8E5F08952F5F3F4F18
:10009000822F880F820F08954F5F5F4F44305105C4
:1000A000D1F6809B089580E00895CF92DF92EF9281
:1000B000FF92CF93DF93EC016A017B01CB01BA0180
:1000C0002ADA9B01772324F422273327261B370BB8
:1000D00039832883072E000C880B990B4FDA9B017C
:1000E000AC01C701B601AED920E030E040E251E4F6
:1000F000F5DA11DA9B01772324F422273327261B14
:10010000370B3B832A83DF91CF91FF90EF90DF90F5
:10011000CF900895CF9392D984E436D92FE78FE416
:1001200092E1215080409040E1F700C0000086D964
:100130008EEB2AD972D9C82F70D9682F70E0762F2C
:1001400066276C0F711D072E000C880B990B16DAB1
:1001500020E030E040E85DE3C1DACF91089594B348
:10016000936094BB94B39C6394BB662311F0A89AEC
:1001700001C0A898A99A95B3937C95BB83FDAD9ACD
:1001800082FDAC9A81FDAB9A80FDAA9A8DE08A959A
:10019000F1F70000A9980895CF93DF93C82FD62FC9
:1001A00082958F70DCDF6D2F8C2FD9DFDF91CF919F
:1001B00008958FEC97E00197F1F700C0000060E030
:1001C00082E0CDDF8FEC97E00197F1F700C00000EF
:1001D00060E088E2E1DF8FEC97E00197F1F700C083
:1001E000000060E081E0D8DF8FEC97E00197F1F745
:1001F00000C0000060E086E0CFDF8FEC97E0019761
:10020000F1F700C0000060E08CE0C6DF0895EFEC7D
:10021000F7E03197F1F700C0000060E08C60BCDFD0
:100220000895EFECF7E03197F1F700C0000060E0CF
:100230008860B2DF08958FEC97E00197F1F700C076
:10024000000060E081E0A8DF0895EFECF7E031976F
:10025000F1F700C00000F0E48F9F600D1124862F9D
:1002600060E0806899DF0895CF93DF93FC012081DF
:10027000222369F0EC018FEC97E00197F1F700C0C1
:10028000000061E0899188DF88818111F4CFDF91DE
:10029000CF910895CF93DF93CDB7DEB7ED970FB62B
:1002A000F894DEBF0FBECDBF82E0B3D781B38F60BD
:1002B00081BB8F98BC9ABD9ABE9A80EF82BB8FE1BA
:1002C0009EE40197F1F700C0000073DFAFE1BEE4E8
:1002D0001197F1F700C0000080E099DFEFE1FEE444
:1002E0003197F1F700C0000084E09BDF8FE19EE4CE
:1002F0000197F1F700C000001A82198284E0FE0124
:100300003396DF01282F1D922A95E9F718861F8260
:100310003696DF011D928A95E9F71E861D86188A9A
:100320001F8638974F011E01F7E02F0E311C9E01EA
:10033000235F3F4F3CA72BA73FAA3BA538AF4CA557
:1003400049AF5FEF5DAB8FEF8EAB482C792C622C01
:10035000E1DE6B017C0185E0E5E6F0E0DE0151962F
:1003600001900D928A95E1F7FE0176968CE0DF010F
:100370001D928A95E9F7B701A601CE01879695DE11
:1003800020E030E0A901C701B601C1D8882354F4A8
:10039000FE01719601900020E9F731978DE290E01F
:1003A000918380834AE0BE016E5D7F4F8FA198A547
:1003B00029DA8E010F5E1F4FBE016E5D7F4FC801AF
:1003C00016DAF80101900020E9F731978EE290E00B
:1003D000918380834AE0BE016E5D7F4F89A59AA517
:1003E00011DABE016E5D7F4FC80101DAF80101909C
:1003F0000020E9F7319787E293E4918380831282AA
:1004000086E0F40111928A95E9F715DFFFE728E30A
:1004100031E0F15020403040E1F700C0000002EC34
:1004200011E0EE24EA94FF24FA943EA62DA6362C81
:1004300060E080E00ADFCE01419616DF60E081E0F7
:1004400004DF86E790E010DF842D972DAAD9B62E21
:10045000A72E582E692E66E081E0F7DE842D972DB9
:1004600003DF8981882349F0FE013296CC24C394AE
:10047000D12C819181117BC002C0C12CD12CE7DD30
:100480008B3049F4F401EC0DFD1D40E340835FEF38
:10049000E51AF50A74C0DBDD813049F4F401EC0D96
:1004A000FD1D81E380839FEFE91AF90A68C0CFDD63
:1004B000823049F4F401EC0DFD1DA2E3A083BFEFEF
:1004C000EB1AFB0A5CC0C3DD833049F4F401EC0D88
:1004D000FD1D23E320833FEFE31AF30A50C0B7DD8D
:1004E000843049F4F401EC0DFD1D44E340835FEFDB
:1004F000E51AF50A44C0ABDD853049F4F401EC0D92
:10050000FD1D85E380839FEFE91AF90A38C09FDD5E
:10051000863049F4F401EC0DFD1DA6E3A083BFEF86
:10052000EB1AFB0A2CC093DD873049F4F401EC0D83
:10053000FD1D27E320833FEFE31AF30A20C087DD88
:10054000883049F4F401EC0DFD1D48E340835FEF72
:10055000E51AF50A14C07BDD893089F4F401EC0D4D
:10056000FD1D89E380839FEFE91AF90A08C0AFEF08
:10057000CA1ADA0AB5E0CB16D10409F07ACFB59BD6
:100580002AC0632C2DA43EA4B59B03C086B3B599A5
:10059000FDCF51DEEFE7F8E321E0E150F0402040ED
:1005A000E1F700C0000005E110E064E081E04DDE0D
:1005B0008CE790E059DEC49AC59A3FEF40E752E0DD
:1005C000315040405040E1F700C000000150110997
:1005D00061F718BABDCE3BDD8A3009F0DAC58D81EE
:1005E000882309F4A8C559AA562C632C2DA43EA42F
:1005F000CB2CDA2CE9A8F52C04E010E0E199FECF31
:10060000C80171D9C616D706E806F90611F513DE3A
:100610008FE798E3A1E081509040A040E1F700C04F
:10062000000005E110E064E081E00FDE8CE790E07F
:100630001BDEC49AC59ABFEFE0E7F2E0B150E0409C
:10064000F040E1F700C000000150110961F718BA4D
:1006500005C00C5F1F4F0438110581F6E199FECFEC
:1006600080E090E040D9C616D706E806F90609F002
:100670006FCEE1DD2FE738E341E0215030404040CC
:10068000E1F700C00000A12CB12C9BAE8AAE4CAEAD
:100690007DAE7FA898AC59AC86E0D1011D928A95B9
:1006A000E9F760E080E0D1DD85E890E0DDDD60E045
:1006B00081E0CBDD84E990E0D7DDC9DC8A3009F048
:1006C00062C1B9DDBFE7E8E3F1E0B150E040F040DE
:1006D000E1F700C000000F2EFDE2EF2EFF24F3949F
:1006E000F02DCDA8DEA80F2EF6E34F2EF02D0F2E05
:1006F000F0E38F2EF02D60E080E0A7DD84EA90E04B
:10070000B3DD862D972D4DD86DA77EA78FA798AB0B
:1007100067E080E09ADD862D972DA6DD8F81882306
:1007200041F0FE01389601E010E08191811179C01D
:1007300002C000E010E08BDC8B3041F4F101E00FEF
:10074000F11F80822FEFC21AD20A71C080DC813083
:1007500049F4F101E00FF11F31E330834FEFC41A88
:10076000D40A65C074DC823049F4F101E00FF11F56
:1007700052E350838FEFC81AD80A59C068DC83301F
:1007800049F4F101E00FF11F93E39083AFEFCA1A30
:10079000DA0A4DC05CDC843049F4F101E00FF11F4E
:1007A000B4E3B083EFEFCE1ADE0A41C050DC8530EF
:1007B00049F4F101E00FF11F25E320833FEFC31A55
:1007C000D30A35C044DC863041F4F101E00FF11F5B
:1007D00040824FEFC41AD40A2AC039DC873049F46A
:1007E000F101E00FF11F57E350838FEFC81AD80AC9
:1007F0001EC02DDC883049F4F101E00FF11F98E3B1
:100800009083AFEFCA1ADA0A12C021DC893079F47A
:10081000F101E00FF11FB9E3B083EFEFCE1ADE0A6A
:1008200006C00F5F1F4F0530110509F07ECF0FDCAA
:100830008A3009F078C08B85882309F44DC024E004
:1008400030E040E050E029AB3AAB4BAB5CABE19918
:10085000FECF89A99AA93FD88F3F49F5E199FECFEC
:100860004DA55EA56FA578A989A99AA94ED8E3DC04
:100870008FE39CE90197F1F700C0000006E010E06B
:1008800065E081E0E2DC8BEA90E0EEDCC59A9FEF68
:10089000A0E7B2E09150A040B040E1F700C00000F6
:1008A0000150110969F718BAA12CB12C61C029A90E
:1008B0003AA94BA95CA92C5F3F4F4F4F5F4F29AB23
:1008C0003AAB4BAB5CAB243831054105510509F01F
:1008D000BECFA12CB12C4CC0AEDC8FE59AEE0197B7
:1008E000F1F700C0000006E010E061E081E0ADDC5F
:1008F00081EB90E0B9DCC69A9FEFA0E7B2E091509F
:10090000A040B040E1F700C000000150110969F7B4
:1009100018BA91DCEFE7F8E321E0E150F040204025
:10092000E1F700C0000093DB8C30B9F4F101EC0D6D
:10093000FD1D108231E0C31AD108C69A8FE59AEEE8
:100940000197F1F700C00000C69AAFE5BAEE119723
:10095000F1F700C0000018BA6EDCEFE1FEE4319759
:10096000F1F700C00000F1E0EF1AF10809F0C3CE82
:1009700062DC2FE738E341E0215030404040E1F7AE
:1009800000C0000002C0CDA8DEA861DB8C3009F0F9
:1009900031C451DC5FE788E391E0515080409040E2
:1009A000E1F700C000000F2EFDE2EF2EFF24F394CC
:1009B000F02D0F2EF6E34F2EF02D0F2EF0E38F2E9D
:1009C000F02D60E080E041DC8FEB90E04DDC862D87
:1009D000972DE7D66DA77EA78FA798AB6AE080E03A
:1009E00034DC862D972D40DC8F81882341F0FE0179
:1009F000389601E010E08191811179C002C000E0D9
:100A000010E025DB8B3041F4F101E00FF11F808213
:100A1000AFEFCA1ADA0A71C01ADB813049F4F1016A
:100A2000E00FF11FB1E3B083EFEFCE1ADE0A65C02D
:100A30000EDB823049F4F101E00FF11F22E3208345
:100A40003FEFC31AD30A59C002DB833049F4F101E6
:100A5000E00FF11F43E340835FEFC51AD50A4DC095
:100A6000F6DA843049F4F101E00FF11F84E380836A
:100A70009FEFC91AD90A41C0EADA853049F4F10179
:100A8000E00FF11FA5E3A083BFEFCB1ADB0A35C04F
:100A9000DEDA863041F4F101E00FF11F4082EFEF22
:100AA000CE1ADE0A2AC0D3DA873049F4F101E00F0A
:100AB000F11F27E320833FEFC31AD30A1EC0C7DA12
:100AC000883049F4F101E00FF11F48E340835FEF04
:100AD000C51AD50A12C0BBDA893079F4F101E00FEA
:100AE000F11F89E380839FEFC91AD90A06C00F5FFF
:100AF0001F4F0530110509F07ECFA9DA8A3009F0C1
:100B000099C08B85882309F46BC024E030E040E075
:100B100050E029AB3AAB4BAB5CABE199FECF89A976
:100B20009AA9E1D62DA53EA54FA558A926173707A6
:100B30004807590709F03FC019A9E199FECF6FEFA7
:100B4000812F90E0D5D681E0810FE199FECF6FEF44
:100B500090E0CED682E0810FE199FECF6FEF90E07A
:100B6000C7D683E0810FE199FECF6FEF90E0C0D64A
:100B700062DB3FE748E351E0315040405040E1F74D
:100B800000C0000006E010E064E081E05EDB89EC7C
:100B900090E06ADBC59A8FEF90E7A2E08150904029
:100BA000A040E1F700C000000150110969F718BA30
:100BB000A12CB12C64C029A93AA94BA95CA92C5F2E
:100BC0003F4F4F4F5F4F29AB3AAB4BAB5CAB243839
:100BD00031054105510509F0A0CFA12CB12C4FC022
:100BE0002ADB3FE748E351E0315040405040E1F715
:100BF00000C0000006E010E061E081E026DB81EB50
:100C000090E032DBC69A8FEF90E7A2E081509040EF
:100C1000A040E1F700C000000150110969F718BABF
:100C20000ADBBFE7E8E3F1E0B150E040F040E1F774
:100C300000C000000CDA8C30B9F4F101EC0DFD1DA0
:100C4000108221E0C21AD108C69A8FE59AEE019768
:100C5000F1F700C00000C69AAFE5BAEE1197F1F7C0
:100C600000C0000018BAE7DAEFE1FEE43197F1F7CF
:100C700000C00000F1E0EF1AF10809F0A2CEDBDAC3
:100C80002FE738E341E0215030404040E1F700C019
:100C90000000B0C26894EE24E2F8F12C00E010E00D
:100CA000A12CB12C0F2EF6E04F2EF02DDEA6CDA6F6
:100CB000D52C592C4801D101E42D1D92EA95E9F774
:100CC000ABA5BCA5E4E01D92EA95E9F7E199FECF5A
:100CD0000E2D1F2DC701FFD58F3F09F480C0FFEFF8
:100CE000AF1ABF0A8114910409F079C0E199FECFCF
:100CF000802F912FF8D52AE0462D572DA2D5C5017A
:100D0000A0E0B0E02AE0452D5D2DBC01CD0199D5D4
:100D100092DA2FE738E341E0215030404040E1F7DC
:100D200000C000000DE211E060E080E08EDA81EDAD
:100D300090E09ADA63E080E088DA852D9D2D94DAE0
:100D4000642D80E082DA85ED90E08EDA60E081E06B
:100D50007CDA8CED90E088DA642D81E076DA862DFD
:100D6000972D82DA74D98A30D1F171D98C3069F536
:100D700062DA5FE788E391E0515080409040E1F70C
:100D800000C0000006E010E0AFE7B8E3E1E0A150EA
:100D9000B040E040E1F700C0000064E081E055DAD7
:100DA00082EE90E061DAC69AFFEF20E732E0F15080
:100DB00020403040E1F700C000000150110921F748
:100DC00018BA88248394912C0AC08FE19EE401977D
:100DD000F1F700C000000150110909F0A5CF94E01F
:100DE000E90EF11CA4E8EA16F10409F064CF952C91
:100DF0005D2CCDA4DEA41FDABFE7E8E3F1E0B1503B
:100E0000E040F040E1F700C0000006E010E04AE0FA
:100E1000692D752DC501F6D460E080E016DA8BEE01
:100E200090E022DA67E080E010DA892D952D1CDA57
:100E30006BE080E00ADA81EF90E016DAC59A2FEFD6
:100E400030E742E0215030404040E1F700C0000070
:100E500018BA8FE19EE40197F1F700C0000001503D
:100E60001109A9F6E8D99FE7A8E3B1E09150A040A5
:100E7000B040E1F700C00000EAD8813009F0BFC1FE
:100E800005C0E5D8813009F043C102C0A12CB12CC6
:100E9000D2D9EFE7F8E321E0E150F0402040E1F75C
:100EA00000C000000F2EFDE2EF2EFF24F394F02D82
:100EB0000F2EF6E34F2EF02D0F2EF0E38F2EF02D98
:100EC00060E080E0C2D987EF90E0CED9862D972DE3
:100ED00068D46DA77EA78FA798AB6AE080E0B5D9EC
:100EE000862D972DC1D98F81882341F0FE01389638
:100EF00001E010E08191811179C002C000E010E0B2
:100F0000A6D88B3041F4F101E00FF11F80823FEF52
:100F1000C31AD30A71C09BD8813049F4F101E00FA4
:100F2000F11F41E340835FEFC51AD50A65C08FD832
:100F3000823049F4F101E00FF11F82E380839FEFDB
:100F4000C91AD90A59C083D8833049F4F101E00F96
:100F5000F11FA3E3A083BFEFCB1ADB0A4DC077D804
:100F6000843049F4F101E00FF11F24E320833FEFC7
:100F7000C31AD30A41C06BD8853049F4F101E00FA0
:100F8000F11F45E340835FEFC51AD50A35C05FD82E
:100F9000863041F4F101E00FF11F40828FEFC81A53
:100FA000D80A2AC054D8873049F4F101E00FF11F64
:100FB00097E39083AFEFCA1ADA0A1EC048D8883088
:100FC00049F4F101E00FF11FB8E3B083EFEFCE1A5F
:100FD000DE0A12C03CD8893079F4F101E00FF11F2C
:100FE00029E320833FEFC31AD30A06C00F5F1F4FC8
:100FF0000530110509F07ECF2AD88A3009F059C092
:101000008B85882361F1E199FECF4DA55EA56FA583
:1010100078A980E090E079D40ED94FE758E381E0D9
:10102000415050408040E1F700C0000006E010E071
:1010300065E081E00AD981E091E016D9C59A9FEF79
:10104000A0E7B2E09150A040B040E1F700C000003E
:101050000150110969F718BAA12CB12C4FC0EBD877
:10106000EFE7F8E321E0E150F0402040E1F700C075
:10107000000006E010E061E081E0E7D881EB90E05D
:10108000F3D8C69A3FEF40E752E03150404050401D
:10109000E1F700C000000150110969F718BACBD878
:1010A0008FE798E3A1E081509040A040E1F700C0B5
:1010B0000000CDD78C30B9F4F101EC0DFD1D10828C
:1010C000B1E0CB1AD108C69AEFE5FAEE3197F1F705
:1010D00000C00000C69A8FE59AEE0197F1F700C0B4
:1010E000000018BAA8D8AFE1BEE41197F1F700C02C
:1010F0000000B1E0EB1AF10809F0E2CE9CD8EFE76E
:10110000F8E321E0E150F0402040E1F700C00000AA
:101110008FE19EE40197F1F700C000009FEFA91A4C
:10112000B90AADE3AA16B10408F4B6CA8AAC9BACFE
:101130004CAC7DAC0DC97FD8BFE7E8E3F1E0B1501E
:10114000E040F040E1F700C000000F2EF6E0CF2EA7
:10115000D12CF02D61E081E078D881EB90E084D84B
:10116000C69A2FEF30E742E0215030404040E1F78F
:1011700000C0000051E0C51AD10861F718BA5BD869
:101180008FE798E3A1E081509040A040E1F700C0D4
:1011900000005DD78C3001F5F401EE0DFF1D1082CB
:1011A000B1E0EB1AF108C69AEFE5FAEE3197F1F7E4
:1011B00000C00000C69A8FE59AEE0197F1F700C0D3
:1011C000000018BA38D89FE7A8E3B1E09150A040DA
:1011D000B040E1F700C00000EFE1FEE43197F1F725
:1011E00000C000000150110909F022C9632C2DA490
:1011F0003EA4AEC82CD78B3009F043CE4BCD8FE147
:101200009EE40197F1F700C00000AA24A394B12C3A
:1012100043CA8093640048B321E030E0B90102C0C2
:10122000660F771F8A95E2F7CB01842B88BB87B3C3
:101230000090640002C0220F331F0A94E2F7282BAB
:1012400027BB089598B321E030E0A9010090640025
:1012500002C0440F551F0A94E2F7842F809589231A
:1012600088BB47B3C9010090640002C0880F991F72
:101270000A94E2F7842B87BB8FEB93E00197F1F799
:1012800000C0000097B3A9010090640002C0440FA1
:10129000551F0A94E2F7842F8095892387BB90EA33
:1012A0009A95F1F786B30090640002C0220F331FB5
:1012B0000A94E2F78223E3E3F3E03197F1F700C009
:1012C0000000089580FF30C0F89438B381E090E0CA
:1012D000AC010090640002C0440F551F0A94E2F76D
:1012E000242F2095232328BB47B39C010090640042
:1012F00002C0220F331F0A94E2F7242B27BB2AE1F6
:101300002A95F1F700C0789427B30090640002C0DA
:10131000880F991F0A94E2F78095822387BB82E9A0
:101320008A95F1F700C00895F89438B381E090E011
:10133000AC010090640002C0440F551F0A94E2F70C
:10134000242F2095232328BB47B39C0100906400E1
:1013500002C0220F331F0A94E2F7242B27BB2DEA89
:101360002A95F1F7000027B30090640002C0880FAF
:10137000991F0A94E2F78095822387BB78948DE0C9
:101380008A95F1F700000895CF93DF93D82FC8E036
:101390008D2F817097DFD695C150D1F7DF91CF9116
:1013A0000895F89438B381E090E0AC0100906400B7
:1013B00002C0440F551F0A94E2F7242F20952323DF
:1013C00028BB47B39C010090640002C0220F331F6A
:1013D0000A94E2F7242B27BB28E02A95F1F727B3DC
:1013E0000090640002C0880F991F0A94E2F780956C
:1013F000822387BB8AE18A95F1F700C086B390E02B
:101400000090640002C0959587950A94E2F7817078
:10141000789498E79A95F1F70895CF93DF93D8E001
:10142000C0E0BFDF20E8829FC0011124C695C82B11
:10143000D150B9F78C2FDF91CF91089503DF8CEC59
:10144000A3DF08955058BB27AA270ED00DC1FED0A8
:1014500030F003D120F031F49F3F11F41EF4F3C0BB
:101460000EF4E095E7FBE9C0E92F0FD180F3BA173E
:10147000620773078407950718F071F49EF527C17A
:101480000EF4E0950B2EBA2FA02D0B01B90190019F
:101490000C01CA01A0011124FF27591B99F0593FE3
:1014A00050F4503E68F11A16F040A22F232F342F2B
:1014B0004427585FF3CF469537952795A795F04079
:1014C0005395C9F77EF41F16BA0B620B730B840B8E
:1014D000BAF09150A1F0FF0FBB1F661F771F881F46
:1014E000C2F70EC0BA0F621F731F841F48F487959E
:1014F00077956795B795F7959E3F08F0B3CF93958D
:10150000880F08F09927EE0F97958795089571D069
:1015100008F481E0089504D06894B111D9C0089509
:10152000BCD088F09F5790F0B92F9927B751A0F001
:10153000D1F0660F771F881F991F1AF0BA95C9F767
:1015400012C0B13081F0C3D0B1E00895C0C0672FA0
:10155000782F8827B85F39F0B93FCCF38695779517
:101560006795B395D9F73EF4909580957095619500
:101570007F4F8F4F9F4F0895E89409C097FB3EF42B
:1015800090958095709561957F4F8F4F9F4F9923D0
:10159000A9F0F92F96E9BB279395F695879577954E
:1015A0006795B795F111F8CFFAF4BB0F11F460FF0E
:1015B0001BC06F5F7F4F8F4F9F4F16C0882311F066
:1015C00096E911C0772321F09EE8872F762F05C07A
:1015D000662371F096E8862F70E060E02AF09A9515
:1015E000660F771F881FDAF7880F9695879597F90A
:1015F0000895990F0008550FAA0BE0E8FEEF1616A4
:101600001706E807F907C0F012161306E407F507F6
:1016100098F0621B730B840B950B39F40A2661F06A
:10162000232B242B252B21F408950A2609F4A1400D
:10163000A6958FEF811D811D089597F99F6780E81A
:1016400070E060E008959FEF80EC089500240A9414
:101650001616170618060906089500240A9412168D
:101660001306140605060895092E0394000C11F4C0
:10167000882352F0BB0F40F4BF2B11F460FF04C06D
:101680006F5F7F4F8F4F9F4F089557FD9058440FC6
:10169000551F59F05F3F71F04795880F97FB991FD1
:1016A00061F09F3F79F0879508951216130614068E
:1016B000551FF2CF4695F1DF08C01616170618061B
:1016C000991FF1CF86957105610508940895E894F6
:1016D000BB2766277727CB0197F908950BD0C4CF96
:1016E000B5DF28F0BADF18F0952309F0A6CFABCF0D
:1016F0001124EECFCADFA0F3959FD1F3950F50E0F0
:10170000551F629FF001729FBB27F00DB11D639FB3
:10171000AA27F00DB11DAA1F649F6627B00DA11D59
:10172000661F829F2227B00DA11D621F739FB00DFF
:10173000A11D621F839FA00D611D221F749F33276F
:10174000A00D611D231F849F600D211D822F762F08
:101750006A2F11249F5750408AF0E1F088234AF005
:10176000EE0FFF1FBB1F661F771F881F9150504051
:10177000A9F79E3F510570F060CFAACF5F3FECF311
:10178000983EDCF3869577956795B795F795E7953D
:101790009F5FC1F7FE2B880F911D9695879597F94E
:1017A00008951F93FC0199278827BC01E8941191A3
:1017B0001032E9F3193010F01E30C8F31B3249F033
:1017C0001D3241F4689405C027D0610F711D811D41
:1017D000911D119110531A30B8F33EF490958095F5
:1017E000709561957F4F8F4F9F4F1F910895FB011B
:1017F000DC010D900020E9F7119701900D92002077
:10180000E1F70895BB274A3031F4992322F4BDE271
:10181000909581959F4F37C0592F482F372F262FEE
:10182000660F771F881F991F660F771F881F991FE4
:10183000620F731F841F951F660F771F881F991FE4
:101840000895BB27FA01A62F62177105810591053E
:10185000330B30FB66F0AA27660F771F881F991F8E
:10186000AA1FA21710F0A21B63953850A9F7A05D1C
:10187000AA3308F0A95DA19336F7B111B193108294
:10188000CA0119C0BB27FB015527AA27880F991F3A
:10189000AA1FA41710F0A41B83955051B9F7A05D9F
:1018A000AA3308F0A95DA193009779F7B111B1931C
:1018B0001192CB0100C0DC01FC01672F71917723ED
:1018C000E1F7329704C07C916D9370836291AE17FB
:1018D000BF07C8F30895E199FECF9FBB8EBBE09A86
:1018E00099278DB30895A6E1B0E044E050E017C019
:1018F000262FE199FECF9FBB8EBB2DBB0FB6F89470
:10190000E29AE19A0FBE01960895242FF2DF252F67
:10191000F0DF00C0EDDF272FECCFDC01CB01FC01B5
:10192000E199FECF06C0FFBBEEBBE09A31960DB247
:0E1930000D9241505040B8F70895F894FFCF43
:10193E00FEFDFBF70254203D2000000000000000D9
:10194E00000000000000436F64653A00556E6C6F36
:10195E00636B6564002A3A4164642F233A44656CD4
:10196E0065746500303A4C6973742F313A4368617F
:10197E006E6765002A3A4164642D004164646564B3
:10198E00004D696E2E2035206E756D626572002ACF
:10199E003A44656C6574652D0044656C65746564C8
:1019AE00004E6F2E002A3A4E65787400436F6465C0
:1019BE002D0052657475726E656400466F756E64A7
:1019CE0000636F646573002A3A4368616E67652D24
:0A19DE00004368616E676564000055
:00000001FF
