:1000000012C024C023C022C021C020C01FC01EC0F7
:100010001DC01CC01BC01AC019C018C017C016C014
:1000200015C014C013C011241FBECFE5D4E0DEBF3D
:10003000CDBF10E0A0E6B0E0E0E0F8E002C005903F
:100040000D92AE3AB107D9F7CBD0D8C3D9CFE0E6FD
:10005000F0E040E050E0842F9A01919192BB9AE148
:100060009A95F1F700C090B3907F903D51F0903E8B
:1000700019F0903B89F40AC0242F220F820F8F5F62
:100080000895242F220F820F8E5F08952F5F3F4F18
:10009000822F880F820F08954F5F5F4F44305105C4
:1000A000D1F6809B089580E0089594B3936094BB4B
:1000B00094B39C6394BB662311F0A89A01C0A898DE
:1000C000A99A95B3937C95BB83FDAD9A82FDAC9ABA
:1000D00081FDAB9A80FDAA9A8DE08A95F1F7000028
:1000E000A9980895CF93DF93C82FD62F82958F704C
:1000F000DCDF6D2F8C2FD9DFDF91CF9108958FEC4E
:1001000097E00197F1F700C0000060E082E0CDDFEA
:100110008FEC97E00197F1F700C0000060E088E203
:10012000E1DF8FEC97E00197F1F700C0000060E09D
:1001300081E0D8DF8FEC97E00197F1F700C0000075
:1001400060E086E0CFDF8FEC97E00197F1F700C029
:10015000000060E08CE0C6DF0895EFECF7E0319737
:10016000F1F700C0000060E08C60BCDF0895EFECA8
:10017000F7E03197F1F700C0000060E08860B2DF7F
:1001800008958FEC97E00197F1F700C0000060E060
:1001900081E0A8DF0895EFECF7E03197F1F700C0B8
:1001A0000000F0E48F9F600D1124862F60E08068CE
:1001B00099DF0895CF93DF93FC012081222369F01A
:1001C000EC018FEC97E00197F1F700C0000061E0CF
:1001D000899188DF88818111F4CFDF91CF910895D3
:1001E000CF93DF93CDB7DEB768970FB6F894DEBF35
:1001F0000FBECDBF81B38F6081BB8F9880EF82BB74
:100200008FE19EE40197F1F700C00000BC9ABD9A0F
:10021000BE9AAFE1BEE41197F1F700C000006FDFB6
:1002200084E0A5DF80E099DFACDFE199FECF47E60F
:100230005BE260E070E080E090E0B7D2E199FECF51
:100240004EEC56E560E070E084E090E0AED2FE0156
:100250003A96F88BEF874E01F8E08F0E911CCE0195
:1002600001961C01898A9A8A8D8B3E8A1986188686
:1002700085E0AF85B889E82F1D92EA95E9F71A82E3
:100280001982FE013396DF011D928A95E9F779DF25
:100290000F2EFCE2AF2EBB24B394F02DC12CD12C39
:1002A000E12CF12C60E080E076DF84E690E082DFF4
:1002B0008885882341F0FE01399601E010E08191A4
:1002C00081115EC002C000E010E0C1DE8B3031F46D
:1002D000F401E00FF11F80E3808330C2B8DE81308B
:1002E00031F4F401E00FF11F81E3808327C2AFDE18
:1002F000823031F4F401E00FF11F82E380831EC2EB
:10030000A6DE833031F4F401E00FF11F83E3808334
:1003100015C29DDE843031F4F401E00FF11F84E357
:1003200080830CC294DE853031F4F401E00FF11FBC
:1003300085E3808303C28BDE863031F4F401E00F65
:10034000F11F86E38083FAC182DE873031F4F40145
:10035000E00FF11F87E38083F1C179DE883031F44B
:10036000F401E00FF11FB8E3B083E8C170DE89301B
:1003700009F0E4C1F401E00FF11F29E32083DEC19D
:100380000F5F1F4F0730110509F099CFD7C104E067
:1003900010E0E199FECFC80103D26C157D058E05F2
:1003A0009F0511F58FEF90E7A2E081509040A040AB
:1003B000E1F700C00000E5DE0BE010E065E081E061
:1003C000EADE80E790E0F6DEC49AC59ABFEFE0E788
:1003D000F2E0B150E040F040E1F700C00000015011
:1003E000110961F718BA05C00C5F1F4F04381105D9
:1003F00081F6E199FECF80E090E0D2D16C157D05C9
:100400008E059F0509F049C12FEF80E792E021504A
:1004100080409040E1F700C00000B3DEC12CD12C39
:10042000B88EAF8A9C8A8B8ABD889E8860E080E007
:10043000B2DE89E790E0BEDE60E081E0ACDE88E815
:1004400090E0B8DE04DE8A3009F00AC1AFEFB0E711
:10045000E2E0A150B040E040E1F700C0000091DED2
:100460000F2EF5E6EF2EF12CF02D412C512C0F2EF6
:10047000F0E38F2EF02D0F2EF7E0AF2EF02D60E081
:1004800080E089DE88E990E095DE8981882341F06B
:10049000FE01329601E010E0819181115CC002C042
:1004A00000E010E0D4DD8B3029F4F101E00FF11F02
:1004B000808257C0CCDD813031F4F101E00FF11FB3
:1004C00021E320834EC0C3DD823031F4F101E00F1F
:1004D000F11F82E3808345C0BADD833031F4F1013E
:1004E000E00FF11F93E390833CC0B1DD843031F421
:1004F000F101E00FF11FA4E3A08333C0A8DD853034
:1005000031F4F101E00FF11FB5E3B0832AC09FDDA4
:10051000863031F4F101E00FF11F26E3208321C082
:1005200096DD873031F4F101E00FF11F87E380831E
:1005300018C08DDD883031F4F101E00FF11F98E330
:1005400090830FC084DD893061F4F101E00FF11F69
:10055000A9E3A08306C00F5F1F4F0730110509F004
:100560009BCF75DD8A30B1F504E010E0E199FECF54
:10057000C8010ED18F3F41F5E199FECFA80160E09F
:1005800070E0C20112D1BFEFE0E7F2E0B150E0400D
:10059000F040E1F700C00000F4DD06E010E065E0A7
:1005A00081E0F9DD8FE990E005DEC59A2FEF80E765
:1005B00092E0215080409040E1F700C000000150DF
:1005C000110969F718BA4CC00C5F1F4F04381105A8
:1005D00069F646C03CDD8C3059F5D101EA2D1D92FB
:1005E000EA95E9F7FFEF20E782E0F15020408040F4
:1005F000E1F700C00000C5DD06E010E065E081E045
:10060000CADD85EA90E0D6DDC69A9FEFA0E7B2E0AA
:100610009150A040B040E1F700C000000150110926
:1006200069F718BAAEDD0F2EF6E0CF2ED12CF02DE3
:100630008B2D992D88D02C01990F660877086A2D8B
:1006400080E0A9DD8B2D992DB5DDEFE1FEE431973A
:10065000F1F700C00000F1E0EF1AF10809F00FCF48
:1006600087E0AB89BC89E82F1D92EA95E9F7D101B3
:100670001D928A95E9F7EFE1FEE43197F1F700C0AA
:100680000000FFEFCF1ADF0A2FE1C216D10408F4F1
:10069000CDCEAF88B88C8B889C8887E0D401E82FBA
:1006A0001D92EA95E9F7D1011D928A95E9F769DD76
:1006B000BFEFE0E7F2E0B150E040F040E1F700C00A
:1006C0000000C5DC8C3009F52FEF80E792E0215067
:1006D00080409040E1F700C0000053DD06E010E0EC
:1006E00065E081E058DD85EA90E064DDC69AAFEF11
:1006F000B0E7E2E0A150B040E040E1F700C0000008
:100700000150110969F718BAB1CD89899A891BD0AE
:100710006C01990FEE08FF0860E081E03CDD8989FB
:100720009A8948DD8FE19EE40197F1F700C000004F
:1007300091E0A91AB10809F0B5CD98CD88DC8A30CE
:1007400009F0BFCF24CEFC0188279927E894219196
:100750002032E9F3293010F02E30C8F32B3239F073
:100760002D3231F4689403C00BD0820F911D21917A
:1007700020532A30C8F31EF4909581959F4F089519
:100780007AE0979F902D879F802D910D11240895D9
:10079000E199FECF9FBB8EBBE09A99278DB3089558
:1007A000A6E1B0E044E050E00AC00396272F16D03F
:1007B00014D0252F13D0242F11C0DC01CB01FC0154
:1007C000E199FECF06C0FFBBEEBBE09A31960DB2B9
:1007D0000D9241505040B8F70895262FE199FECF71
:1007E0009FBB8EBBE09A01970DB2021631F02DBB74
:1007F0000FB6F894E29AE19A0FBE0895F894FFCFED
:10080000FEFDFBF7456E74657220636F64653A0008
:10081000556E6C6F636B6564002A3A4164642F23E4
:100820003A44656C65746500303A4C6973742F31D5
:100830003A4368616E6765002A3A4164642D00415D
:0E0840006464656400436C65616E656400006D
:00000001FF
