:1000000012C024C023C022C021C020C01FC01EC0F7
:100010001DC01CC01BC01AC019C018C017C016C014
:1000200015C014C013C011241FBECFE5D4E0DEBF3D
:10003000CDBF10E0A0E6B0E0ECE8F0E102C0059032
:100040000D92A63AB107D9F725D11EC8D9CFE0E65F
:10005000F0E040E050E0842F9A01919192BB9AE148
:100060009A95F1F700C090B3907F903D51F0903E8B
:1000700019F0903B89F40AC0242F220F820F8F5F62
:100080000895242F220F820F8E5F08952F5F3F4F18
:10009000822F880F820F08954F5F5F4F44305105C4
:1000A000D1F6809B089580E00895CF92DF92EF9281
:1000B000FF92CF93DF93EC016A017B01CB01BA0180
:1000C000FAD59B01772324F422273327261B370BED
:1000D00039832883072E000C880B990B1FD69B01B0
:1000E000AC01C701B6017ED520E030E040E251E42A
:1000F000C5D6E1D59B01772324F422273327261B7D
:10010000370B3B832A83DF91CF91FF90EF90DF90F5
:10011000CF900895CF9362D584E406D52FE78FE47E
:1001200092E1215080409040E1F700C0000056D598
:100130008EEBFAD442D5C82F40D5682F70E0762FC9
:1001400066276C0F711D072E000C880B990BE6D5E6
:1001500020E030E040E85DE391D6CF91089594B37C
:10016000936094BB94B39C6394BB662311F0A89AEC
:1001700001C0A898A99A95B3937C95BB83FDAD9ACD
:1001800082FDAC9A81FDAB9A80FDAA9A8DE08A959A
:10019000F1F70000A9980895CF93DF93C82FD62FC9
:1001A00082958F70DCDF6D2F8C2FD9DFDF91CF919F
:1001B00008958FEC97E00197F1F700C0000060E030
:1001C00082E0CDDF8FEC97E00197F1F700C00000EF
:1001D00060E088E2E1DF8FEC97E00197F1F700C083
:1001E000000060E081E0D8DF8FEC97E00197F1F745
:1001F00000C0000060E086E0CFDF8FEC97E0019761
:10020000F1F700C0000060E08CE0C6DF0895EFEC7D
:10021000F7E03197F1F700C0000060E08C60BCDFD0
:100220000895EFECF7E03197F1F700C0000060E0CF
:100230008860B2DF08958FEC97E00197F1F700C076
:10024000000060E081E0A8DF0895EFECF7E031976F
:10025000F1F700C00000F0E48F9F600D1124862F9D
:1002600060E0806899DF0895CF93DF93FC012081DF
:10027000222369F0EC018FEC97E00197F1F700C0C1
:10028000000061E0899188DF88818111F4CFDF91DE
:10029000CF910895CF93DF93CDB7DEB7E5970FB633
:1002A000F894DEBF0FBECDBF82E083D381B38F60F1
:1002B00081BB8F9880EF82BB8FE19EE40197F1F7BD
:1002C00000C00000B99ABB9ABC9ABD9ABE9A1A8225
:1002D000198284E0FE013396DF01282F1D922A95B2
:1002E000E9F718861F823696DF011D928A95E9F795
:1002F000612C712C0F2EF0EF2F2E312CF02D349617
:10030000F8A7EFA39E012E5E3F4F3AA729A7CE0183
:1003100001962C01A82EB52C4E0197E0890E911C58
:100320008BAA9CAAF7DE6B017C0185E0E5E6F0E094
:10033000DE011D9601900D928A95E1F78CE0A9A54A
:10034000BAA51D928A95E9F7B701A601CE01839659
:10035000ACDE20E030E0A901C701B601A8D48823B3
:1003600054F4EFA1F8A501900020E9F731972DE2B0
:1003700030E0318320834AE0BE01625E7F4F8BA173
:100380009CA110D6BE01625E7F4FCE010D96FFD5B7
:10039000EFA1F8A501900020E9F731978EE290E0F7
:1003A000918380834AE0BE01625E7F4F8DA19EA152
:1003B000F9D5BE01625E7F4FCE010D96E8D5EFA163
:1003C000F8A501900020E9F73197A7E2B3E4B183E3
:1003D000A0831282BFEF2B1A3B0AB4990CC002EC27
:1003E00011E0EE24EA94FE2C9AAA89AA22C0B49BBA
:1003F00020C089A89AA8B49B03C086B3B499FDCF46
:10040000EFE7F8E321E0E150F0402040E1F700C0E1
:1004100000008DE390E0C39A3FEF40E7A2E0315047
:100420004040A040E1F700C000000197A1F718BAD2
:10043000B0C2E199FECF88E090E0FCD52BA13CA1B1
:10044000032E000C440B550B6217730784079507A6
:1004500008F5B1EF2B163104ECF089A89AA8EFE764
:10046000F8E321E0E150F0402040E1F700C0000057
:1004700085E190E0C59A3FEF40E7A2E0315040406F
:10048000A040E1F700C000000197A1F718BA212CA5
:10049000312C7FC2B19B70C26114710421F589DED9
:1004A000EFE1FEE43197F1F700C0000080E0AFDE3D
:1004B0008FE19EE40197F1F700C0000084E0B1DE17
:1004C000AFE1BEE41197F1F700C00000B4DEBFE772
:1004D000E8E3F1E0B150E040F040E1F700C0000097
:1004E00066246394712C60E080E0AFDECE010D964F
:1004F000BBDE60E081E0A9DE86E790E0B5DE8A2D14
:100500009B2D1FD5962E7BA78FA798AB66E081E029
:100510009CDE8A2D9B2DA8DE8981882349F0FE016F
:100520003296CC24C394D12C819181117BC002C01E
:10053000C12CD12C8CDD8B3049F4F201EC0DFD1D6A
:1005400020E320833FEFE31AF30A74C080DD81309B
:1005500049F4F201EC0DFD1D41E340838FEFE81AF1
:10056000F80A68C074DD823049F4F201EC0DFD1D1B
:1005700092E39083AFEFEA1AFA0A5CC068DD833039
:1005800049F4F201EC0DFD1DB3E3B083EFEFEE1A79
:10059000FE0A50C05CDD843049F4F201EC0DFD1D13
:1005A00024E320833FEFE31AF30A44C050DD853093
:1005B00049F4F201EC0DFD1D45E340838FEFE81A8D
:1005C000F80A38C044DD863049F4F201EC0DFD1D17
:1005D00096E39083AFEFEA1AFA0A2CC038DD873031
:1005E00049F4F201EC0DFD1DB7E3B083EFEFEE1A15
:1005F000FE0A20C02CDD883049F4F201EC0DFD1D0F
:1006000028E320833FEFE31AF30A14C020DD89308A
:1006100089F4F201EC0DFD1D49E340838FEFE81AE8
:10062000F80A08C09FEFC91AD90AA5E0CA16D10472
:1006300009F07ACF0CDD8A3009F07AC18D818823E8
:1006400009F448C19DAA89A89AA8E199FECFCDA82E
:10065000DBA4EFA4F8A884E090E0ECD4C616D7069B
:10066000E806F90601F5E7DDBFE7E8E3F1E0B150A0
:10067000E040F040E1F700C0000005E110E064E078
:1006800081E0E3DD8CE790E0EFDDC59A2FEF30E706
:1006900042E0215030404040E1F700C000000150EE
:1006A000110969F718BAE199FECF80E090E0C2D451
:1006B000C616D706E806F90609F06BC1BCDD8FE760
:1006C00098E3A1E081509040A040E1F700C0000015
:1006D00086E0F40111928A95E9F70F2EFDE2CF2E04
:1006E000DD24D394F02DEE24EA94FE2C60E080E02B
:1006F000ACDD85E890E0B8DD8BA99CA922D46BA77E
:100700007CA78DA79EA76AE080E09FDD8BA99CA9AE
:10071000ABDD8F81882331F0888581117CC001E0B9
:1007200010E002C000E010E092DC8B3049F4F401EC
:10073000E00FF11F20E320833FEFE31AF30A6BC0C1
:1007400086DC813049F4F401E00FF11F41E340837E
:100750008FEFE81AF80A5FC07ADC823049F4F401BE
:10076000E00FF11F92E39083AFEFEA1AFA0A53C049
:100770006EDC833049F4F401E00FF11FB3E3B08382
:10078000EFEFEE1AFE0A47C062DC843049F4F40150
:10079000E00FF11F24E320833FEFE31AF30A3BC08D
:1007A00056DC853049F4F401E00FF11F45E3408346
:1007B0008FEFE81AF80A2FC04ADC863049F4F401BA
:1007C000E00FF11F96E39083AFEFEA1AFA0A23C015
:1007D0003EDC873049F4F401E00FF11FB7E3B0834A
:1007E000EFEFEE1AFE0A17C032DC883049F4F4014C
:1007F000E00FF11F28E320833FEFE31AF30A0BC059
:1008000026DC893041F4F401E00FF11F49E3408315
:100810008FEFE81AF80A1BDC8A3069F5888588238F
:1008200051F109DD9FE7A8E3B1E09150A040B0404D
:10083000E1F700C0000006E010E065E081E005DDC2
:100840008FE890E011DDC59AEFEFF0E722E0E1508C
:10085000F0402040E1F700C000000150110969F7A5
:1008600018BAE199FECF4BA55CA56DA57EA588E0E1
:1008700090E0E5D38EC0EBDB8C3001F5F401EE0D9A
:10088000FF1D108231E0E31AF108C69A8FE59AEE57
:100890000197F1F700C00000C69AAFE5BAEE1197D4
:1008A000F1F700C0000018BAC6DCBFE7E8E3F1E0EA
:1008B000B150E040F040E1F700C000008FE19EE45D
:1008C0000197F1F700C0000091E0C91AD10809F0C2
:1008D0000DCF5FC0B0DCAFE7B8E3E1E0A150B040BE
:1008E000E040E1F700C000000F2EF6E0CF2ED12C43
:1008F000F02D61E081E0A9DC87E990E0B5DCC69AE3
:10090000FFEF20E732E0F15020403040E1F700C037
:10091000000041E0C41AD10861F718BA8CDC8FE7F7
:1009200098E3A1E081509040A040E1F700C00000B2
:100930008EDB8C3011F5F201EE0DFF1D1082B1E05F
:10094000EB1AF108C69AEFE5FAEE3197F1F700C01D
:100950000000C69A8FE59AEE0197F1F700C00000FB
:1009600018BA69DC9FE7A8E3B1E09150A040B0401D
:10097000E1F700C0000001C086B3EFE1FEE431976B
:10098000F1F700C000000150110909F030CD89A82D
:100990009AA851DCFFE728E331E0F15020403040D5
:1009A000E1F700C0000086E0D2011D928A95E9F7C8
:1009B000B9CC8093640048B321E030E0B90102C0B3
:1009C000660F771F8A95E2F7CB01842B88BB87B32C
:1009D0000090640002C0220F331F0A94E2F7282B14
:1009E00027BB089598B321E030E0A901009064008E
:1009F00002C0440F551F0A94E2F7842F8095892383
:100A000088BB47B3C9010090640002C0880F991FDA
:100A10000A94E2F7842B87BB8FEB93E00197F1F701
:100A200000C0000097B3A9010090640002C0440F09
:100A3000551F0A94E2F7842F8095892387BB90EA9B
:100A40009A95F1F786B30090640002C0220F331F1D
:100A50000A94E2F78223E3E3F3E03197F1F700C071
:100A60000000089580FF30C0F89438B381E090E032
:100A7000AC010090640002C0440F551F0A94E2F7D5
:100A8000242F2095232328BB47B39C0100906400AA
:100A900002C0220F331F0A94E2F7242B27BB2AE15E
:100AA0002A95F1F700C0789427B30090640002C043
:100AB000880F991F0A94E2F78095822387BB82E909
:100AC0008A95F1F700C00895F89438B381E090E07A
:100AD000AC010090640002C0440F551F0A94E2F775
:100AE000242F2095232328BB47B39C01009064004A
:100AF00002C0220F331F0A94E2F7242B27BB2DEAF2
:100B00002A95F1F7000027B30090640002C0880F17
:100B1000991F0A94E2F78095822387BB78948DE031
:100B20008A95F1F700000895CF93DF93D82FC8E09E
:100B30008D2F817097DFD695C150D1F7DF91CF917E
:100B40000895F89438B381E090E0AC01009064001F
:100B500002C0440F551F0A94E2F7242F2095232347
:100B600028BB47B39C010090640002C0220F331FD2
:100B70000A94E2F7242B27BB28E02A95F1F727B344
:100B80000090640002C0880F991F0A94E2F78095D4
:100B9000822387BB8AE18A95F1F700C086B390E093
:100BA0000090640002C0959587950A94E2F78170E1
:100BB000789498E79A95F1F70895CF93DF93D8E06A
:100BC000C0E0BFDF20E8829FC0011124C695C82B7A
:100BD000D150B9F78C2FDF91CF91089503DF8CECC2
:100BE000A3DF08955058BB27AA270ED00DC1FED011
:100BF00030F003D120F031F49F3F11F41EF4F3C024
:100C00000EF4E095E7FBE9C0E92F0FD180F3BA17A6
:100C1000620773078407950718F071F49EF527C1E2
:100C20000EF4E0950B2EBA2FA02D0B01B901900107
:100C30000C01CA01A0011124FF27591B99F0593F4B
:100C400050F4503E68F11A16F040A22F232F342F93
:100C50004427585FF3CF469537952795A795F040E1
:100C60005395C9F77EF41F16BA0B620B730B840BF6
:100C7000BAF09150A1F0FF0FBB1F661F771F881FAE
:100C8000C2F70EC0BA0F621F731F841F48F4879506
:100C900077956795B795F7959E3F08F0B3CF9395F5
:100CA000880F08F09927EE0F97958795089571D0D2
:100CB00008F481E0089504D06894B111D9C0089572
:100CC000BCD088F09F5790F0B92F9927B751A0F06A
:100CD000D1F0660F771F881F991F1AF0BA95C9F7D0
:100CE00012C0B13081F0C3D0B1E00895C0C0672F09
:100CF000782F8827B85F39F0B93FCCF38695779580
:100D00006795B395D9F73EF4909580957095619568
:100D10007F4F8F4F9F4F0895E89409C097FB3EF493
:100D200090958095709561957F4F8F4F9F4F992338
:100D3000A9F0F92F96E9BB279395F69587957795B6
:100D40006795B795F111F8CFFAF4BB0F11F460FF76
:100D50001BC06F5F7F4F8F4F9F4F16C0882311F0CE
:100D600096E911C0772321F09EE8872F762F05C0E2
:100D7000662371F096E8862F70E060E02AF09A957D
:100D8000660F771F881FDAF7880F9695879597F972
:100D90000895990F0008550FAA0BE0E8FEEF16160C
:100DA0001706E807F907C0F012161306E407F5075F
:100DB00098F0621B730B840B950B39F40A2661F0D3
:100DC000232B242B252B21F408950A2609F4A14076
:100DD000A6958FEF811D811D089597F99F6780E883
:100DE00070E060E008959FEF80EC089500240A947D
:100DF0001616170618060906089500240A941216F6
:100E00001306140605060895092E0394000C11F428
:100E1000882352F0BB0F40F4BF2B11F460FF04C0D5
:100E20006F5F7F4F8F4F9F4F089557FD9058440F2E
:100E3000551F59F05F3F71F04795880F97FB991F39
:100E400061F09F3F79F087950895121613061406F6
:100E5000551FF2CF4695F1DF08C016161706180683
:100E6000991FF1CF86957105610508940895E8945E
:100E7000BB2766277727CB0197F908950BD0C4CFFE
:100E8000B5DF28F0BADF18F0952309F0A6CFABCF75
:100E90001124EECFCADFA0F3959FD1F3950F50E058
:100EA000551F629FF001729FBB27F00DB11D639F1C
:100EB000AA27F00DB11DAA1F649F6627B00DA11DC2
:100EC000661F829F2227B00DA11D621F739FB00D68
:100ED000A11D621F839FA00D611D221F749F3327D8
:100EE000A00D611D231F849F600D211D822F762F71
:100EF0006A2F11249F5750408AF0E1F088234AF06E
:100F0000EE0FFF1FBB1F661F771F881F91505040B9
:100F1000A9F79E3F510570F060CFAACF5F3FECF379
:100F2000983EDCF3869577956795B795F795E795A5
:100F30009F5FC1F7FE2B880F911D9695879597F9B6
:100F400008951F93FC0199278827BC01E89411910B
:100F50001032E9F3193010F01E30C8F31B3249F09B
:100F60001D3241F4689405C027D0610F711D811DA9
:100F7000911D119110531A30B8F33EF4909580955D
:100F8000709561957F4F8F4F9F4F1F910895FB0183
:100F9000DC010D900020E9F7119701900D920020DF
:100FA000E1F70895BB274A3031F4992322F4BDE2DA
:100FB000909581959F4F16C0592F482F372F262F78
:100FC000660F771F881F991F660F771F881F991F4D
:100FD000620F731F841F951F660F771F881F991F4D
:100FE0000895BB27FB015527AA27880F991FAA1F21
:100FF000A41710F0A41B83955051B9F7A05DAA3334
:1010000008F0A95DA193009779F7B111B1931192FE
:10101000CB0100C0DC01FC01672F71917723E1F760
:10102000329704C07C916D9370836291AE17BF07B5
:10103000C8F30895A6E1B0E044E050E00AC0242FD0
:1010400017D0252F15D000C012D0272F11C0DC01DA
:10105000CB01FC01E199FECF06C0FFBBEEBBE09ADD
:1010600031960DB20D9241505040B8F70895262F99
:10107000E199FECF9FBB8EBB2DBB0FB6F894E29AD1
:0C108000E19A0FBE01960895F894FFCF8E
:10108C00FEFDFBF70254203D200000000000000094
:10109C00000000000000436F64653A00556E6C6FF1
:1010AC00636B6564002A3A4368616E67652D004383
:1010BC0068616E676564004D696E2E2035206E7513
:0610CC006D626572000078
:00000001FF
