:1000000012C02CC02BC02AC029C028C027C026C0BF
:1000100025C024C023C022C021C020C01FC01EC0D4
:100020001DC01CC01BC011241FBECFE5D4E0DEBF25
:10003000CDBF10E0A0E6B0E0EEEDFEE102C005901D
:100040000D92AA3FB107D9F720E0AAEFB0E001C0B6
:100050001D92AB3FB207E1F736D13FCFD1CFE0E6FB
:10006000F0E021E080E0919192BB9AE19A95F1F75E
:1000700000C090B3907F903E71F090B3907F903D20
:1000800019F481E0820F08C090B3907F903B21F477
:1000900082E0820F01C0822F2D5F2D3021F708955D
:1000A000CF92DF92EF92FF92CF93DF93EC016A0140
:1000B0007B01CB01BA01BCDC9B01772324F422270E
:1000C0003327261B370B39832883072E000C880B18
:1000D000990BE1DC9B01AC01C701B60140DC20E0DB
:1000E00030E040E251E487DDA3DC9B01772324F478
:1000F00022273327261B370B3B832A83DF91CF919F
:10010000FF90EF90DF90CF900895CF92DF92EF9223
:10011000FF920F931F93CF93DF93C22ED32EE42E23
:10012000F52E062F172FD82FC92F88DA84E42CDA62
:100130002FE78FE492E1215080409040E1F700C02A
:1001400000002C2D3D2D4E2D5F2D602F712F8D2FFA
:100150009C2F74DA8EEB18DA60DAC82F5EDA682F1B
:1001600070E0762F66276C0F711D072E000C880B30
:10017000990B91DC20E030E040E85DE33CDDDF916D
:10018000CF911F910F91FF90EF90DF90CF90089546
:1001900094B3936094BB94B39C6394BB662311F0B7
:1001A000A89A01C0A898A99A95B3937C95BB83FDA2
:1001B000AD9A82FDAC9A81FDAB9A80FDAA9A8DE042
:1001C0008A95F1F70000A9980895CF93DF93C82F7F
:1001D000D62F82958F70DCDF6D2F8C2FD9DFDF91CA
:1001E000CF9108958FEC97E00197F1F700C00000E0
:1001F00060E082E0CDDF8FEC97E00197F1F700C07F
:10020000000060E088E2E1DF8FEC97E00197F1F712
:1002100000C0000060E081E0D8DF8FEC97E001973C
:10022000F1F700C0000060E086E0CFDF8FEC97E0E0
:100230000197F1F700C0000060E08CE0C6DF089590
:10024000EFECF7E03197F1F700C0000060E08C6060
:10025000BCDF0895EFECF7E03197F1F700C0000044
:1002600060E08860B2DF08958FEC97E00197F1F7C6
:1002700000C0000060E081E0A8DF0895EFECF7E047
:100280003197F1F700C00000F0E48F9F600D11245A
:10029000862F60E0806899DF0895CF93DF93FC019B
:1002A0002081222369F0EC018FEC97E00197F1F7B0
:1002B00000C0000061E0899188DF88818111F4CF5E
:1002C000DF91CF910895CF93DF93CDB7DEB7C356BB
:1002D000D1090FB6F894DEBF0FBECDBF81B38F60DA
:1002E00081BB8F9880EF82BB2AE12A95F1F700C08D
:1002F000BB9ABC9ABD9ABE9ABF9AE199FECF80E0A4
:1003000090E0C1DD6C966CAF7DAF8EAF9FAF6C9708
:10031000673E73408105910531F46C961CAE1DAEAD
:100320001EAE1FAE6C97E199FECF84E090E0ABDD8E
:10033000A2966CAF7DAF8EAF9FAFA297633671056B
:100340008105910531F4A2961CAE1DAE1EAE1FAE06
:10035000A2971A821982FE01339684E0DF011D9272
:100360008A95E9F71A8A198A8EE07096DF01282F9C
:100370001D922A95E9F71AA219A27096DF011D9223
:100380008A95E9F71AAA19AA1CAA1BAA1EAA1DAACD
:100390001FAA68961FAE1EAE6897612C712CA4969A
:1003A0001FAE1EAEA49766961FAE1EAE6697CC24F7
:1003B000CA94DC2C7C972896FFAFEEAF28979E015D
:1003C000235F3F4F2A963FAF2EAF2A972796BFACA9
:1003D000279728968FAC289729962FAC29972A968D
:1003E0003FAC2A972C967FAE6EAE2C97E22C282C31
:1003F000532C3B2CC79866964EAD5FAD6697452B48
:1004000009F080C7C698C49A8FE59AEE0197F1F774
:1004100000C00000A496AEADBFADA497AB2B09F011
:1004200079C1EDB7FEB76096FFAFEEAF6097DADE49
:100430008FE19EE40197F1F700C0000080E000DF4B
:10044000AFE1BEE41197F1F700C0000084E002DFE5
:10045000EFE1FEE43197F1F700C0000088E022965A
:100460008FAF22972DB73EB7205431090FB6F894BD
:100470003EBF0FBE2DBF0DB71EB70F5F1F4F82E0EF
:10048000C8D7BE016F5B7F4FC801F5D98FE59AEEE3
:100490000197F1F700C000004AE0BE016F5C7F4F9A
:1004A0006A968EAD9FAD6A97BDDC4AE0BE016B5C7B
:1004B0007F4FA0968EAD9FADA097B4DC4801A12CD4
:1004C000B12CDE0191962496BFAFAEAF2497FE010A
:1004D00071962696FFAFEEAF2697F52C1A2DA11038
:1004E00043C066E081E0CADE84E690E0D6DE60E0EC
:1004F00080E0C4DECE01C596D0DE66E080E0BEDEE0
:100500008CE690E0CADE60E081E0B8DECE01C19604
:10051000C4DED4012C9111963C91119712964C9106
:10052000129713965C91139714966C9114971596E5
:100530007C91159716968C91169717969C91E5DDF0
:100540002B013C014AE0BE01685C7F4FC5012ADCFB
:10055000B301A201CE01CD96A3DD0DAD1EAD0115F7
:10056000110509F446C713C0113039F466E081E083
:1005700085DE83E790E091DE00C7123009F0FDC60A
:1005800066E081E07BDE84E690E087DEF6C620E070
:1005900030E0A901C301B20147DA882364F426964A
:1005A000EEADFFAD269701900020E9F731972DE2DF
:1005B00030E0318320834AE0BE01685C7F4FC80190
:1005C000F1DBBE01685C7F4FCE014196E0DB2696F1
:1005D000EEADFFAD269701900020E9F731974EE28E
:1005E00050E0518340834AE0BE01685C7F4F219612
:1005F0008EAD9FAD2197D6DBBE01685C7F4FCE01EB
:100600004196C5DB2696EEADFFAD26970190002002
:10061000E9F7319787E293E491838083A0E2B0E029
:10062000B383A2834FC0113009F04CC020E030E00A
:10063000A901C301B201F8D9882364F42496EEAD70
:10064000FFAD249701900020E9F731972DE230E0CB
:10065000318320834AE0BE01685C7F4F8DAD9EAD43
:10066000A1DBBE01685C7F4FCE01819690DB2496B2
:10067000EEADFFAD249701900020E9F731974EE2EF
:1006800050E0518340834AE0BE01685C7F4F219671
:100690008EAD9FAD219786DBBE01685C7F4FCE019A
:1006A000819675DB2496EEADFFAD24970190002076
:1006B000E9F7319787E293E491838083A0E2B0E089
:1006C000B383A283EFE5FAEE3197F1F700C00000A3
:1006D000CBDD8FE19EE40197F1F700C000009FEFB2
:1006E000A91AB90AA8E08A0E911CB3E0AB16B104AE
:1006F00009F0F4CE5F2C6096EEADFFAD60970FB6BB
:10070000F894FEBF0FBEEDBF21E030E0A4963FAFEE
:100710002EAFA497A9DD8FE59AEE0197F1F700C0FF
:10072000000060961FAE1EAE609791E06D969FAF81
:100730006D97412C6E964FAE6E97422C7E2C852D78
:10074000532C382E69E080E099DDCE014196A5DD7D
:1007500069E081E093DDCE0181969FDD60E080E07D
:100760008DDD8BE790E099DD60E081E087DD81E859
:1007700090E093DDCE010196E4DA4B015C0161E08B
:1007800081E07CDDCE01019688DDAFEFCA16DA0686
:1007900039F461E081E072DD83E890E07EDD34C011
:1007A000C114D10439F462E081E068DD84E890E0AE
:1007B00074DD2AC0B1E0CB16D10439F463E081E0E6
:1007C0005DDD85E890E069DD1FC0E2E0CE16D10472
:1007D00039F464E081E052DD86E890E05EDD14C02B
:1007E000F3E0CF16D10481F42FEF30E742E021503F
:1007F00030404040E1F700C0000051E02B965FAF71
:100800002B972C961FAE2C978981882391F08A8193
:10081000882349F08B81882349F08C818111A0C005
:1008200003E010E008C001E010E005C002E010E0C5
:1008300002C000E010E013DC8B3061F410DC8B3080
:10084000E9F3FE01E00FF11F80E381838FEFC81A07
:10085000D80A86C004DC813061F401DC8130E9F320
:10086000FE01E00FF11F81E381839FEFC91AD90ACE
:1008700077C0F5DB823061F4F2DB8230E9F3FE0110
:10088000E00FF11F82E38183AFEFCA1ADA0A68C072
:10089000E6DB833061F4E3DB8330E9F3FE01E00F54
:1008A000F11F83E38183BFEFCB1ADB0A59C0D7DB8B
:1008B000843061F4D4DB8430E9F3FE01E00FF11FF2
:1008C00084E38183EFEFCE1ADE0A4AC0C8DB8530AD
:1008D00061F4C5DB8530E9F3FE01E00FF11F85E32C
:1008E0008183FFEFCF1ADF0A3BC0B9DB863061F4AA
:1008F000B6DB8630E9F3FE01E00FF11F86E381836A
:100900002FEFC21AD20A2CC0AADB873061F4A7DB12
:100910008730E9F3FE01E00FF11F87E381833FEFAA
:10092000C31AD30A1DC09BDB883061F498DB883082
:10093000E9F3FE01E00FF11F88E381834FEFC41A52
:10094000D40A0EC08CDB893059F489DB8930E9F395
:10095000FE01E00FF11F89E381835FEFC51AD50A1D
:100960002C968EAD9FAD2C97019709F08CC48C818D
:10097000882309F488C4E199FECF88E090E083DA07
:100980009401990C440B550B64962CAF3DAF4EAFC0
:100990005FAF6497621773078407950709F0EBC38D
:1009A00068964EAD5FAD68974F5F5F4F68965FAFDB
:1009B0004EAF6897A2968CAD9DADAEADBFADA29780
:1009C0000196A11DB11DA2968CAF9DAFAEAFBFAF7A
:1009D000A297E199FECFA2964CAD5DAD6EAD7FAD15
:1009E000A29784E090E061DA3FDCAFE5BAEE1197C0
:1009F000F1F700C00000812C912C0F2EF6E06F2E35
:100A0000F02D2896EEADFFAD2897262D11922A9550
:100A1000E9F760E080E032DC88E890E03EDC60E00E
:100A200081E02CDC85E990E038DC19DB8A3009F0C4
:100A30007AC115DB8A30E9F317DC8FE59AEE01976E
:100A4000F1F700C000000F2EFCEBEF2EF2E0FF2EBE
:100A5000F02D0F2EF0E32F2EF02D0F2EF1E3DF2ED1
:100A6000F02D0F2EF4E3AF2EF02D0F2EF5E3BF2E59
:100A7000F02D0F2EF6E3CF2EF02D60E081E0FEDBAF
:100A800085EA90E00ADC60E080E0F8DB81E890E055
:100A900004DC852D942D55D92E966CAF7DAF8EAF8D
:100AA0009FAF2E9761E080E0E9DB852D942DF5DB8B
:100AB0008F818823B1F08885882349F08985882330
:100AC00069F08A8581119FC003E010E00CC06D962B
:100AD0000FAD6D976E961FAD6E9705C002E010E0EA
:100AE00002C000E010E0BBDA8B3059F4B8DA8B308A
:100AF000E9F3E7E0F0E0EC0FFD1FE00FF11F2082CB
:100B000082C0ADDA813059F4AADA8130E9F3E7E046
:100B1000F0E0EC0FFD1FE00FF11FD08274C09FDAF0
:100B2000823061F49CDA8230E9F3E7E0F0E0EC0F28
:100B3000FD1FE00FF11F92E3908365C090DA8330D0
:100B400061F48DDA8330E9F3E7E0F0E0EC0FFD1FAC
:100B5000E00FF11FA3E3A08356C081DA843059F47B
:100B60007EDA8430E9F3E7E0F0E0EC0FFD1FE00F00
:100B7000F11FA08248C073DA853059F470DA8530ED
:100B8000E9F3E7E0F0E0EC0FFD1FE00FF11FB082AA
:100B90003AC065DA863059F462DA8630E9F3E7E084
:100BA000F0E0EC0FFD1FE00FF11FC0822CC057DA00
:100BB000873061F454DA8730E9F3E7E0F0E0EC0FD6
:100BC000FD1FE00FF11FB7E3B0831DC048DA883086
:100BD00061F445DA8830E9F3E7E0F0E0EC0FFD1F5F
:100BE000E00FF11F88E380830EC039DA893059F4B1
:100BF00036DA8930E9F3E7E0F0E0EC0FFD1FE00FB3
:100C0000F11F89E380832BDA8C3071F528DA8A3082
:100C1000E9F38A85882341F1E199FECF2E964CAD08
:100C20005DAD6EAD7FAD2E9788E090E03ED91CDBC8
:100C3000EFE5FAEE3197F1F700C0000005E610E0AD
:100C400065E081E01BDB84EB90E027DBC59A8FE554
:100C50009AEE0197F1F700C000000150110981F7E9
:100C6000C598812C912C58C0FAD98A3009F049C016
:100C7000F6D98A30E9F38A85882309F442C00F2E19
:100C8000FCE0CF2ED12CE12CF12CF02DE199FECF00
:100C9000C601F1D88F3F39F5E199FECF2E964CADC4
:100CA0005DAD6EAD7FAD2E97C601FFD8DDDAAFE545
:100CB000BAEE1197F1F700C0000005E610E065E01C
:100CC00081E0DCDA8CEB90E0E8DAC59AEFE5FAEE49
:100CD0003197F1F700C000000150110981F7C59864
:100CE000812C912C19C0F4E0CF0ED11CE11CF11C19
:100CF00024E8C216D104E104F10441F6812C912CC0
:100D00000BC08FE19EE40197F1F700C0000091E075
:100D1000E91AF10809F0B1CEA7DAAFE5BAEE1197FA
:100D2000F1F700C000009BD98C3009F05FC197D962
:100D30008C30E9F399DAEFE5FAEE3197F1F700C07C
:100D400000000CEB12E00F2EF0E32F2EF02D0F2EF3
:100D5000F1E3DF2EF02D0F2EF4E3AF2EF02D0F2E4A
:100D6000F5E3BF2EF02D0F2EF6E3CF2EF02D60E031
:100D700080E084DA82EC90E090DA852D942DE1D742
:100D80002E966CAF7DAF8EAF9FAF2E976AE080E05E
:100D900075DA852D942D81DA8F818823D9F08885A5
:100DA000882361F08985882381F08A858111A4C018
:100DB0000F2EF3E0EF2EF02DF12C0EC06D96EFAC60
:100DC0006D976E96FFAC6E9707C06894EE24E1F8BD
:100DD000F12C02C0E12CF12C42D98B3059F43FD9CF
:100DE0008B30E9F3E7E0F0E0EC0FFD1FEE0DFF1DA7
:100DF000208282C034D9813059F431D98130E9F36D
:100E0000E7E0F0E0EC0FFD1FEE0DFF1DD08274C097
:100E100026D9823061F423D98230E9F3E7E0F0E0AB
:100E2000EC0FFD1FEE0DFF1D22E3208365C017D9D7
:100E3000833061F414D98330E9F3E7E0F0E0EC0F9C
:100E4000FD1FEE0DFF1D33E3308356C008D98430FB
:100E500059F405D98430E9F3E7E0F0E0EC0FFD1F29
:100E6000EE0DFF1DA08248C0FAD8853059F4F7D89E
:100E70008530E9F3E7E0F0E0EC0FFD1FEE0DFF1D1C
:100E8000B0823AC0ECD8863059F4E9D88630E9F31C
:100E9000E7E0F0E0EC0FFD1FEE0DFF1DC0822CC05F
:100EA000DED8873061F4DBD88730E9F3E7E0F0E0A3
:100EB000EC0FFD1FEE0DFF1D47E340831DC0CFD893
:100EC000883061F4CCD88830E9F3E7E0F0E0EC0F4B
:100ED000FD1FEE0DFF1D88E380830EC0C0D8893052
:100EE00059F4BDD88930E9F3E7E0F0E0EC0FFD1FDD
:100EF000EE0DFF1D89E38083B2D88A3009F065C00A
:100F0000AED88A30E9F38A85882309F45EC00F2EB3
:100F1000FCE0CF2ED12CE12CF12CF02DE199FECF6D
:100F2000C601B1D72E962CAD3DAD4EAD5FAD2E971F
:100F30002617370748075907C9F51C2DE199FECF39
:100F40006FEF812F90E0A4D781E0810FE199FECF70
:100F50006FEF90E09DD782E0810FE199FECF6FEFB8
:100F600090E096D783E0810FE199FECF6FEF90E09C
:100F70008FD77AD98FE59AEE0197F1F700C000007C
:100F800005E610E064E081E079D98CEC90E085D949
:100F9000C59AAFE5BAEE1197F1F700C00000015015
:100FA000110981F7C598812C912C19C0B4E0CB0EA2
:100FB000D11CE11CF11CE4E8CE16D104E104F104DB
:100FC00009F0ACCF812C912C0AC08FE19EE40197EF
:100FD000F1F700C000000150110909F0C8CE44D952
:100FE000AFE5BAEE1197F1F700C0000038D88B30AA
:100FF00009F0B3C034D88B30E9F30F2EFCE0EF2EAC
:10100000F12CF02DC12CD12C6894BB24B2F8289679
:10101000EEADFFAD2897262D11922A95E9F72A9675
:10102000AEADBFAD2A97EB2D1D92EA95E9F7E19998
:10103000FECF0E2D1F2DC7011ED78F3F09F44FC0C5
:10104000FFEFCF1ADF0AE199FECF802F912F1BD738
:101050002AE0452D542DC5D6C601A0E0B0E02AE017
:10106000472D532DBC01CD01BCD6FED88FE59AEE9D
:101070000197F1F700C000000CEB12E060E080E0A7
:10108000FDD884ED90E009D963E080E0F7D8872DA2
:10109000932D03D9662D80E0F1D888ED90E0FDD83E
:1010A00060E081E0EBD88FED90E0F7D8662D81E02D
:1010B000E5D8852D942DF1D8D2D78A3021F4CFD719
:1010C0008A30E9F30CC0CBD78C3049F0AFE5BAEEEB
:1010D0001197F1F700C000000150110979F6B4E052
:1010E000EB0EF11CE4E8EE16F10409F090CFBCD849
:1010F0008FE59AEE0197F1F700C0000009EC10E0CF
:101100004AE0672D732DC6014DD660E080E0B6D869
:1011100085EE90E0C2D867E080E0B0D8872D932DAF
:10112000BCD86BE080E0AAD88BEE90E0B6D8C59A28
:10113000AFE5BAEE1197F1F700C0000001501109B8
:10114000F9F6C59891D8EFE5FAEE3197F1F700C0BE
:10115000000088248394912C54CC8FE59AEE01975B
:10116000F1F700C000009FEF891A990AA8EC8A16CF
:10117000910408F446CC0CE010E0E199FECFC801E0
:1011800082D664962CAD3DAD4EAD5FAD649726170B
:1011900037074807590709F048C068964EAD5FAD5C
:1011A00068974F5F5F4F68965FAF4EAF68976C96DA
:1011B0008CAD9DADAEADBFAD6C970196A11DB11DBF
:1011C0006C968CAF9DAFAEAFBFAF6C97E199FECF81
:1011D0006C964CAD5DAD6EAD7FAD6C9780E090E0F0
:1011E00064D642D8AFE5BAEE1197F1F700C000001F
:1011F00000E010E00436110510F4C39A01C0C39852
:1012000064E081E03BD881EF90E047D8C59AEFE5F4
:10121000FAEE3197F1F700C000000F5F1F4F093C55
:10122000110541F7C398C59806C00C5F1F4F0438DD
:10123000110509F0A2CFFE01319686E0DF011D9273
:101240008A95E9F76896EEADFFAD6897309739F06B
:10125000319749F468961FAE1EAE689704C0609639
:101260001FAE1EAE609700D88FE59AEE0197F1F79A
:1012700000C000002B961FAE2B972C961FAE2C970C
:10128000CC24CA94DC2CEBD68C3019F5E8D68C3003
:10129000E9F389818823E9F0FE01EC0DFD1D11823F
:1012A00091E0C91AD108C69AAFE5BAEE1197F1F7E5
:1012B00000C00000C69AEFE5FAEE3197F1F700C0E2
:1012C0000000C698D1D78FE59AEE0197F1F700C0DC
:1012D0000000AFE1BEE41197F1F700C00000609696
:1012E000EEADFFAD609731966096FFAFEEAF6097C1
:1012F000EC3BF24008F426CA242CE72C832D352C35
:10130000582E31C066964EAD5FAD66971416150621
:1013100054F541305105D1F4C4988FE59AEE019708
:10132000F1F700C000008CE291E0C79AAFE1BEE4A3
:101330001197F1F700C000000197B9F7C69AEFE1E5
:10134000FEE43197F1F700C000000DC066962EADA7
:101350003FAD66972436310531F442E050E06696A1
:101360005FAF4EAF669766968EAD9FAD669701965E
:1013700066969FAF8EAF66973DC860E080E07ED7EF
:10138000CE01C5968AD766E080E078D78CE690E0FB
:1013900084D760E081E072D7CE01C1967ED7D401B8
:1013A0002C9111963C91119712964C91129713968D
:1013B0005C91139714966C91149715967C911597E0
:1013C00016968C91169717969C919FD62B013C01EF
:1013D0004AE0BE01685C7F4FC501E4D4B301A201BD
:1013E000CE01CD965DD68DAD9EAD892B09F01BC982
:1013F00008C021968EAD9FAD2197892B09F46FC946
:10140000C6C821968EAD9FAD2197892B09F467C977
:101410000AC98093FA0048B321E030E0B90102C064
:10142000660F771F8A95E2F7CB01842B88BB87B3C1
:101430000090FA0002C0220F331F0A94E2F7282B13
:1014400027BB089598B321E030E0A9010090FA008D
:1014500002C0440F551F0A94E2F7842F8095892318
:1014600088BB47B3C9010090FA0002C0880F991FDA
:101470000A94E2F7842B87BB8FEB93E00197F1F797
:1014800000C0000097B3A9010090FA0002C0440F09
:10149000551F0A94E2F7842F8095892387BB90EA31
:1014A0009A95F1F786B30090FA0002C0220F331F1D
:1014B0000A94E2F78223E3E3F3E03197F1F700C007
:1014C0000000089580FF30C0F89438B381E090E0C8
:1014D000AC010090FA0002C0440F551F0A94E2F7D5
:1014E000242F2095232328BB47B39C010090FA00AA
:1014F00002C0220F331F0A94E2F7242B27BB2AE1F4
:101500002A95F1F700C0789427B30090FA0002C042
:10151000880F991F0A94E2F78095822387BB82E99E
:101520008A95F1F700C00895F89438B381E090E00F
:10153000AC010090FA0002C0440F551F0A94E2F774
:10154000242F2095232328BB47B39C010090FA0049
:1015500002C0220F331F0A94E2F7242B27BB2DEA87
:101560002A95F1F7000027B30090FA0002C0880F17
:10157000991F0A94E2F78095822387BB78948DE0C7
:101580008A95F1F700000895CF93DF93D82FC8E034
:101590008D2F817097DFD695C150D1F7DF91CF9114
:1015A0000895F89438B381E090E0AC010090FA001F
:1015B00002C0440F551F0A94E2F7242F20952323DD
:1015C00028BB47B39C010090FA0002C0220F331FD2
:1015D0000A94E2F7242B27BB28E02A95F1F727B3DA
:1015E0000090FA0002C0880F991F0A94E2F78095D4
:1015F000822387BB8AE18A95F1F700C086B390E029
:101600000090FA0002C0959587950A94E2F78170E0
:10161000789498E79A95F1F70895CF93DF93D8E0FF
:10162000C0E0BFDF20E8829FC0011124C695C82B0F
:10163000D150B9F78C2FDF91CF910895BF92CF92FF
:10164000DF92EF92FF920F931F93CF93DF93C22FFE
:10165000E32EF42E052F162FD72FB82EC92EF2DE2B
:1016600085E592DF6894DD24D6F88C2F81702ADF1F
:101670002C2F3E2D4F2D502F612F7D2F8B2D9C2DEC
:1016800001E037D3C22FE32EF42E052F162FD72FCC
:10169000B82EC92EDA94D110E8CFDF91CF911F91E7
:1016A0000F91FF90EF90DF90CF90BF9008959F92A1
:1016B000AF92BF92CF92DF92EF92FF920F931F9360
:1016C000CF93DF93922EA32EB42EC52ED62EE72EC7
:1016D000F82E192FD02FA0E0B0E0F0E0E0E0CCE849
:1016E000292D3A2D4B2D5C2D6D2D7E2D8F2D912F7B
:1016F0000A2FFFD288E090E0322F3E27E69526950C
:1017000030FDEC270197C1F7FF5F1896FD1740F3F6
:101710008E2FDF91CF911F910F91FF90EF90DF906F
:10172000CF90BF90AF909F9008952F923F924F928D
:101730005F926F927F928F929F92AF92BF92CF9261
:10174000DF92EF92FF920F931F93CF93DF93CDB76A
:10175000DEB729970FB6F894DEBF0FBECDBF298341
:101760003A834B835C836D837E83382E9F8358013D
:1017700069DE80EF09DFE12CF12C412C81E0512C56
:10178000612C712C812C912CC12CD12C10E02224A5
:101790002394898706DF888704DF9885913019F4C0
:1017A000813001F547C0E885E1111CC081111AC0E4
:1017B000F5018081F9858F1781F08F1780F02981DD
:1017C0003A814B815C816D817E81832D9F810E2DBD
:1017D00090D220FD06C04F2E05C0288603C0498444
:1017E00001C02886288530E040E050E060E070E0ED
:1017F00080E090E00E2D62D2522A632A742A852A54
:10180000962AC72AD82A192B88855CDE89858F5F9E
:1018100089879FEFE91AF90A813409F0BBCFF501F6
:101820004082252D362D472D582D692D7C2D8D2D4F
:10183000912F08C021E030E040E050E060E070E02F
:1018400080E090E029960FB6F894DEBF0FBECDBFC2
:10185000DF91CF911F910F91FF90EF90DF90CF908C
:10186000BF90AF909F908F907F906F905F904F90C0
:101870003F902F9008952F923F924F925F926F92D8
:101880007F928F929F92AF92BF92CF92DF92EF9210
:10189000FF920F931F93CF93DF931F92CDB7DEB7C5
:1018A0004C015B011982312C212C412C512C612CD3
:1018B000712CC12CD12CE12CF12C01C0212C8E01DA
:1018C0000F5F1F4F242D352D462D572D6C2D7D2D4F
:1018D0008E2D9F2D2ADF422E532E642E752EC62E5E
:1018E000D72EE82EF92EA1E020D2B1F008E0DFDEFD
:1018F000811110C0F40188E0389EE00DF11D112423
:101900004082518262827382C482D582E682F782EB
:10191000339408C0239401C02394E3E0E21558F007
:101920002110CDCF8981882321F0F50180813816DF
:1019300028F2F50130820F90DF91CF911F910F9126
:10194000FF90EF90DF90CF90BF90AF909F908F90DF
:101950007F906F905F904F903F902F9008955058D8
:10196000BB27AA270ED00DC1FED030F003D120F046
:1019700031F49F3F11F41EF4F3C00EF4E095E7FB41
:10198000E9C0E92F0FD180F3BA1762077307840704
:10199000950718F071F49EF527C10EF4E0950B2E13
:1019A000BA2FA02D0B01B90190010C01CA01A001B1
:1019B0001124FF27591B99F0593F50F4503E68F10C
:1019C0001A16F040A22F232F342F4427585FF3CF4D
:1019D000469537952795A795F0405395C9F77EF41E
:1019E0001F16BA0B620B730B840BBAF09150A1F067
:1019F000FF0FBB1F661F771F881FC2F70EC0BA0FED
:101A0000621F731F841F48F4879577956795B79574
:101A1000F7959E3F08F0B3CF9395880F08F099276C
:101A2000EE0F97958795089571D008F481E0089599
:101A300004D06894B111D9C00895BCD088F09F57E4
:101A400090F0B92F9927B751A0F0D1F0660F771F0A
:101A5000881F991F1AF0BA95C9F712C0B13081F0EA
:101A6000C3D0B1E00895C0C0672F782F8827B85F32
:101A700039F0B93FCCF3869577956795B395D9F74B
:101A80003EF490958095709561957F4F8F4F9F4F55
:101A90000895E89409C097FB3EF490958095709561
:101AA00061957F4F8F4F9F4F9923A9F0F92F96E9AA
:101AB000BB279395F695879577956795B795F1111F
:101AC000F8CFFAF4BB0F11F460FF1BC06F5F7F4FBC
:101AD0008F4F9F4F16C0882311F096E911C07723CE
:101AE00021F09EE8872F762F05C0662371F096E8D7
:101AF000862F70E060E02AF09A95660F771F881FA6
:101B0000DAF7880F9695879597F90895990F000849
:101B1000550FAA0BE0E8FEEF16161706E807F907BF
:101B2000C0F012161306E407F50798F0621B730B5A
:101B3000840B950B39F40A2661F0232B242B252BDB
:101B400021F408950A2609F4A140A6958FEF811D7E
:101B5000811D089597F99F6780E870E060E008951F
:101B60009FEF80EC089500240A94161617061806B5
:101B70000906089500240A94121613061406050691
:101B80000895092E0394000C11F4882352F0BB0F22
:101B900040F4BF2B11F460FF04C06F5F7F4F8F4F85
:101BA0009F4F089557FD9058440F551F59F05F3FC0
:101BB00071F04795880F97FB991F61F09F3F79F06F
:101BC00087950895121613061406551FF2CF4695F1
:101BD000F1DF08C0161617061806991FF1CF869573
:101BE0007105610508940895E894BB276627772757
:101BF000CB0197F908950BD0C4CFB5DF28F0BADF39
:101C000018F0952309F0A6CFABCF1124EECFCADF91
:101C1000A0F3959FD1F3950F50E0551F629FF001FF
:101C2000729FBB27F00DB11D639FAA27F00DB11D58
:101C3000AA1F649F6627B00DA11D661F829F2227E1
:101C4000B00DA11D621F739FB00DA11D621F839F68
:101C5000A00D611D221F749F3327A00D611D231F3E
:101C6000849F600D211D822F762F6A2F11249F578C
:101C700050408AF0E1F088234AF0EE0FFF1FBB1FAF
:101C8000661F771F881F91505040A9F79E3F51054E
:101C900070F060CFAACF5F3FECF3983EDCF38695FF
:101CA00077956795B795F795E7959F5FC1F7FE2BF9
:101CB000880F911D9695879597F908950F93083091
:101CC00090F0982F872F762F652F542F432F322F88
:101CD00022270850F4CF220F331F441F551F661FC1
:101CE000771F881F991F0A95B2F70F91089597FBE8
:101CF00010F8169400080F93083098F00850232F1E
:101D0000342F452F562F672F782F892F902DF4CF02
:101D10000594979587957795679557954795379546
:101D200027950A95AAF70F9108950024A7FD00941E
:101D30002A1730054005500560057005800590059F
:101D400008951F93FC0199278827BC01E8941191FD
:101D50001032E9F3193010F01E30C8F31B3249F08D
:101D60001D3241F4689405C027D0610F711D811D9B
:101D7000911D119110531A30B8F33EF4909580954F
:101D8000709561957F4F8F4F9F4F1F910895FB0175
:101D9000DC010D900020E9F7119701900D920020D1
:101DA000E1F70895BB274A3031F4992322F4BDE2CC
:101DB000909581959F4F37C0592F482F372F262F49
:101DC000660F771F881F991F660F771F881F991F3F
:101DD000620F731F841F951F660F771F881F991F3F
:101DE0000895BB27FA01A62F621771058105910599
:101DF000330B30FB66F0AA27660F771F881F991FE9
:101E0000AA1FA21710F0A21B63953850A9F7A05D76
:101E1000AA3308F0A95DA19336F7B111B1931082EE
:101E2000CA0119C0BB27FB015527AA27880F991F94
:101E3000AA1FA41710F0A41B83955051B9F7A05DF9
:101E4000AA3308F0A95DA193009779F7B111B19376
:101E50001192CB0100C0DC01FC01672F7191772347
:101E6000E1F7329704C07C916D9370836291AE1755
:101E7000BF07C8F30895E199FECF9FBB8EBBE09AE0
:101E800099278DB30895A6E1B0E044E050E017C073
:101E9000262FE199FECF9FBB8EBB2DBB0FB6F894CA
:101EA000E29AE19A0FBE01960895242FF2DF252FC2
:101EB000F0DF00C0EDDF272FECCFDC01CB01FC0110
:101EC000E199FECF06C0FFBBEEBBE09A31960DB2A2
:0E1ED0000D9241505040B8F70895F894FFCF9E
:101EDE00FEFDFBF72F285E2D5E292F0048656C6CEA
:101EEE006F21002D285E2D5E292D00436F64653A0B
:101EFE00003E002E2E2E2E002A3A4164642F436897
:101F0E00616E676500233A44656C6574652F303ADF
:101F1E004C697374002A3A41646420233A43686121
:101F2E006E6765004368616E676564004164646551
:101F3E0064002A3A44656C6574652D0044656C65D1
:101F4E00746564004E6F2E002A3A4E657874004315
:101F5E006F64652D00466F756E6400636F64657304
:0A1F6E0000556E6C6F636B65640034
:00000001FF
