:1000000012C02CC02BC02AC029C028C027C026C0BF
:1000100025C024C023C022C021C020C01FC01EC0D4
:100020001DC01CC01BC011241FBECFE5D4E0DEBF25
:10003000CDBF10E0A0E6B0E0E2E7FEE102C005902F
:100040000D92AA3FB107D9F720E0AAEFB0E001C0B6
:100050001D92AB3FB207E1F736D109CFD1CFE0E631
:10006000F0E021E080E0919192BB9AE19A95F1F75E
:1000700000C090B3907F903E71F090B3907F903D20
:1000800019F481E0820F08C090B3907F903B21F477
:1000900082E0820F01C0822F2D5F2D3021F708955D
:1000A000CF92DF92EF92FF92CF93DF93EC016A0140
:1000B0007B01CB01BA0186DC9B01772324F4222744
:1000C0003327261B370B39832883072E000C880B18
:1000D000990BABDC9B01AC01C701B6010ADC20E047
:1000E00030E040E251E451DD6DDC9B01772324F4E4
:1000F00022273327261B370B3B832A83DF91CF919F
:10010000FF90EF90DF90CF900895CF92DF92EF9223
:10011000FF920F931F93CF93DF93C22ED32EE42E23
:10012000F52E062F172FD82FC92F52DA84E4F6D9CF
:100130002FE78FE492E1215080409040E1F700C02A
:1001400000002C2D3D2D4E2D5F2D602F712F8D2FFA
:100150009C2F3EDA8EEBE2D92ADAC82F28DA682FF4
:1001600070E0762F66276C0F711D072E000C880B30
:10017000990B5BDC20E030E040E85DE306DDDF91D9
:10018000CF911F910F91FF90EF90DF90CF90089546
:1001900094B3936094BB94B39C6394BB662311F0B7
:1001A000A89A01C0A898A99A95B3937C95BB83FDA2
:1001B000AD9A82FDAC9A81FDAB9A80FDAA9A8DE042
:1001C0008A95F1F70000A9980895CF93DF93C82F7F
:1001D000D62F82958F70DCDF6D2F8C2FD9DFDF91CA
:1001E000CF9108958FEC97E00197F1F700C00000E0
:1001F00060E082E0CDDF8FEC97E00197F1F700C07F
:10020000000060E088E2E1DF8FEC97E00197F1F712
:1002100000C0000060E081E0D8DF8FEC97E001973C
:10022000F1F700C0000060E086E0CFDF8FEC97E0E0
:100230000197F1F700C0000060E08CE0C6DF089590
:10024000EFECF7E03197F1F700C0000060E08C6060
:10025000BCDF0895EFECF7E03197F1F700C0000044
:1002600060E08860B2DF08958FEC97E00197F1F7C6
:1002700000C0000060E081E0A8DF0895EFECF7E047
:100280003197F1F700C00000F0E48F9F600D11245A
:10029000862F60E0806899DF0895CF93DF93FC019B
:1002A0002081222369F0EC018FEC97E00197F1F7B0
:1002B00000C0000061E0899188DF88818111F4CF5E
:1002C000DF91CF910895CF93DF93CDB7DEB7CF55B0
:1002D000D1090FB6F894DEBF0FBECDBF81B38F60DA
:1002E00081BB8F9880EF82BB2AE12A95F1F700C08D
:1002F000BB9ABC9ABD9ABE9AE199FECF80E090E08D
:100300008CDD68966CAF7DAF8EAF9FAF6897673E10
:1003100073408105910531F468961CAE1DAE1EAE8A
:100320001FAE6897E199FECF84E090E076DD6E968F
:100330006CAF7DAF8EAF9FAF6E9763367105810551
:10034000910531F46E961CAE1DAE1EAE1FAE6E97BB
:100350001A82198284E0FE013396DF01282F1D9254
:100360002A95E9F718861F823696DF011D928A9535
:10037000E9F71E861D86188A1F861A8A198A8EE05A
:100380003A96DF01282F1D922A95E9F71AA219A2A1
:100390007096DF011D928A95E9F71AAA19AA1CAA7C
:1003A0001BAA1EAA1DAA1FAA64961FAE1EAE6497A2
:1003B000E12CF12CA0961FAE1EAEA09780E090E03D
:1003C000CC24CA94DC2C7C972696FFAFEEAF269700
:1003D0009E01235F3F4F28963FAF2EAF289725966B
:1003E000BFAC259726968FAC269727962FAC2797DC
:1003F00028963FAC2897722C282C632C3B2CC69A4D
:10040000B39B11C0B399FECF88EC90E0C39AC59A14
:10041000AFE5BAEE1197F1F700C000000197B1F710
:10042000C398C59803C0009709F05FC7C698C49ADF
:10043000BFEFE0E7F2E0B150E040F040E1F700C08C
:100440000000A0962EAD3FADA097232B09F06DC103
:100450004DB75EB72E965FAF4EAF2E97C3DE8FE1DE
:100460009EE40197F1F700C0000080E0E9DEAFE113
:10047000BEE41197F1F700C0000084E0EBDEEFE18D
:10048000FEE43197F1F700C0000088E022968FAFBC
:1004900022972DB73EB7205431090FB6F8943EBFCE
:1004A0000FBE2DBF0DB71EB70F5F1F4F82E07BD76A
:1004B000BE016F5B7F4FC801A8D98FE59AEE019707
:1004C000F1F700C000004AE0BE016F5C7F4F669606
:1004D0008EAD9FAD669770DC4AE0BE016B5C7F4FCE
:1004E0006C968EAD9FAD6C9767DC5801812C912C7A
:1004F000DE0191962496BFAFAEAF24972E01B1E1F5
:100500004B0E511C182D81103EC066E081E0B6DE16
:1005100084E690E0C2DE60E080E0B0DECE01C59609
:10052000BCDE66E080E0AADE8CE690E0B6DE60E04D
:1005300081E0A4DECE01C196B0DEF50120813181DB
:10054000428153816481758186819781DEDD2C969D
:100550006CAF7DAF8EAF9FAF2C974AE0BE01685C59
:100560007F4FC401E9DB2C964CAD5DAD6EAD7FAD28
:100570002C97CE01CD9694DD0DAD1EAD0115110564
:1005800009F409C713C0113039F466E081E076DE62
:1005900083E790E082DEB4C6123009F0B1C666E0AF
:1005A00081E06CDE84E690E078DEAAC620E030E0F0
:1005B000A9012C966CAD7DAD8EAD9FAD2C97FED96B
:1005C00088234CF4F20101900020E9F731972DE2E5
:1005D00030E0318320834AE0BE01685C7F4FC80170
:1005E000ABDBBE01685C7F4FC2019BDBF201019077
:1005F0000020E9F731974EE250E0518340834AE012
:10060000BE01685C7F4F21968EAD9FAD219794DB34
:10061000BE01685C7F4FC20184DBF20101900020C3
:10062000E9F7319787E293E491838083A0E2B0E019
:10063000B383A28353C0113009F050C020E030E0F2
:10064000A9012C966CAD7DAD8EAD9FAD2C97B6D922
:10065000882364F42496EEADFFAD2497019000202A
:10066000E9F731972DE230E0318320834AE0BE0183
:10067000685C7F4F8DAD9EAD5FDBBE01685C7F4FD8
:10068000CE0181964EDB2496EEADFFAD249701900E
:100690000020E9F731974EE250E0518340834AE071
:1006A000BE01685C7F4F21968EAD9FAD219744DBE4
:1006B000BE01685C7F4FCE01819633DB2496EEADA0
:1006C000FFAD249701900020E9F7319787E293E48A
:1006D00091838083A0E2B0E0B383A283EFE5FAEEDA
:1006E0003197F1F700C00000BFDD8FE19EE4019774
:1006F000F1F700C000009FEF891A990AA8E0AA0E3E
:10070000B11CB3E08B16910409F0FCCE2E96EEAD31
:10071000FFAD2E970FB6F894FEBF0FBEEDBF21E0E0
:1007200030E0A0963FAF2EAFA0979EDD8FE59AEE0A
:100730000197F1F700C00000412C512C91E069961F
:100740009FAF69976A961FAE6A972E965FAE4EAEC0
:100750002E9769E080E092DDCE0141969EDD69E052
:1007600081E08CDDCE01819698DD60E080E086DD61
:100770008BE790E092DD60E081E080DD81E890E051
:100780008CDDCE010196A7DA4B015C0161E081E0CE
:1007900075DDCE01019681DDAFEFCA16DA0639F4B8
:1007A00061E081E06BDD83E890E077DD30C0C1146B
:1007B000D10439F462E081E061DD84E890E06DDD30
:1007C00026C0B1E0CB16D10439F463E081E056DDF8
:1007D00085E890E062DD1BC0E2E0CE16D10439F47A
:1007E00064E081E04BDD86E890E057DD10C0F3E087
:1007F000CF16D10461F42FEF30E742E021503040B2
:100800004040E1F700C00000EE24E394F12C898120
:10081000882391F08A81882349F08B81882349F0CD
:100820008C818111A0C003E010E008C001E010E05D
:1008300005C002E010E002C000E010E010DC8B30E8
:1008400061F40DDC8B30E9F3FE01E00FF11F80E372
:1008500081835FEFC51AD50A86C001DC813061F45F
:10086000FEDB8130E9F3FE01E00FF11F81E38183BC
:100870008FEFC81AD80A77C0F2DB823061F4EFDB61
:100880008230E9F3FE01E00FF11F82E381839FEFE5
:10089000C91AD90A68C0E3DB833061F4E0DB833036
:1008A000E9F3FE01E00FF11F83E38183AFEFCA1A82
:1008B000DA0A59C0D4DB843061F4D1DB8430E9F347
:1008C000FE01E00FF11F84E38183BFEFCB1ADB0A47
:1008D0004AC0C5DB853061F4C2DB8530E9F3FE0137
:1008E000E00FF11F85E38183EFEFCE1ADE0A3BC0F4
:1008F000B6DB863061F4B3DB8630E9F3FE01E00F4E
:10090000F11F86E38183FFEFCF1ADF0A2CC0A7DB3C
:10091000873061F4A4DB8730E9F3FE01E00FF11FBB
:1009200087E381832FEFC21AD20A1DC098DB88307B
:1009300061F495DB8830E9F3FE01E00FF11F88E3F5
:1009400081833FEFC31AD30A0EC089DB893059F483
:1009500086DB8930E9F3FE01E00FF11F89E3818333
:100960004FEFC41AD40A51E0E516F10409F081C42E
:100970008C81882309F47DC4E199FECF88E090E062
:100980004CDA9401990C440B550B62962CAF3DAF99
:100990004EAF5FAF6297621773078407950709F040
:1009A000EBC364964EAD5FAD64974F5F5F4F649647
:1009B0005FAF4EAF64976E968CAD9DADAEADBFADE3
:1009C0006E970196A11DB11D6E968CAF9DAFAEAF17
:1009D000BFAF6E97E199FECF6E964CAD5DAD6EAD3B
:1009E0007FAD6E9784E090E02ADA3EDCAFE5BAEEA8
:1009F0001197F1F700C00000812C912C0F2EF6E02A
:100A00005F2EF02D2696EEADFFAD2697252D119287
:100A10002A95E9F760E080E031DC88E890E03DDC91
:100A200060E081E02BDC85E990E037DC18DB8A3080
:100A300009F07AC114DB8A30E9F316DC8FE59AEE0F
:100A40000197F1F700C000000F2EF8E5EF2EF2E05D
:100A5000FF2EF02D0F2EF0E34F2EF02D0F2EF1E391
:100A6000DF2EF02D0F2EF4E3AF2EF02D0F2EF5E339
:100A7000BF2EF02D0F2EF6E3CF2EF02D60E081E09B
:100A8000FDDB85EA90E009DC60E080E0F7DB81E8EF
:100A900090E003DC832D922D1ED92C966CAF7DAF98
:100AA0008EAF9FAF2C9761E080E0E8DB832D922D25
:100AB000F4DB8F818823B1F08885882349F089850C
:100AC000882369F08A8581119FC003E010E00CC083
:100AD00069960FAD69976A961FAD6A9705C002E0E7
:100AE00010E002C000E010E0BADA8B3059F4B7DA57
:100AF0008B30E9F3E7E0F0E0EC0FFD1FE00FF11FB2
:100B0000408282C0ACDA813059F4A9DA8130E9F34D
:100B1000E7E0F0E0EC0FFD1FE00FF11FD08274C0A2
:100B20009EDA823061F49BDA8230E9F3E7E0F0E0AC
:100B3000EC0FFD1FE00FF11F92E3908365C08FDA89
:100B4000833061F48CDA8330E9F3E7E0F0E0EC0F16
:100B5000FD1FE00FF11FA3E3A08356C080DA8430AD
:100B600059F47DDA8430E9F3E7E0F0E0EC0FFD1FA3
:100B7000E00FF11FA08248C072DA853059F46FDAB5
:100B80008530E9F3E7E0F0E0EC0FFD1FE00FF11F27
:100B9000B0823AC064DA863059F461DA8630E9F31B
:100BA000E7E0F0E0EC0FFD1FE00FF11FC0822CC06A
:100BB00056DA873061F453DA8730E9F3E7E0F0E0A2
:100BC000EC0FFD1FE00FF11FB7E3B0831DC047DA44
:100BD000883061F444DA8830E9F3E7E0F0E0EC0FC4
:100BE000FD1FE00FF11F88E380830EC038DA8930E3
:100BF00059F435DA8930E9F3E7E0F0E0EC0FFD1F56
:100C0000E00FF11F89E380832ADA8C3071F527DA4F
:100C10008A30E9F38A85882341F1E199FECF2C9649
:100C20004CAD5DAD6EAD7FAD2C9788E090E007D9FF
:100C30001BDBEFE5FAEE3197F1F700C0000005E6A7
:100C400010E065E081E01ADB84EB90E026DBC59ADA
:100C50008FE59AEE0197F1F700C0000001501109ED
:100C600081F7C598812C912C58C0F9D98A3009F0A8
:100C700049C0F5D98A30E9F38A85882309F442C04E
:100C80000F2EFCE0CF2ED12CE12CF12CF02DE19990
:100C9000FECFC601BAD88F3F39F5E199FECF2C9629
:100CA0004CAD5DAD6EAD7FAD2C97C601C8D8DCDA1A
:100CB000AFE5BAEE1197F1F700C0000005E610E0CD
:100CC00065E081E0DBDA8CEB90E0E7DAC59AEFE5EE
:100CD000FAEE3197F1F700C000000150110981F7D9
:100CE000C598812C912C19C0F4E0CF0ED11CE11CC9
:100CF000F11C24E8C216D104E104F10441F6812C70
:100D0000912C0BC08FE19EE40197F1F700C0000029
:100D100091E0E91AF10809F0B1CEA6DAAFE5BAEE32
:100D20001197F1F700C000009AD98C3009F05FC12B
:100D300096D98C30E9F398DAEFE5FAEE3197F1F7CE
:100D400000C0000008E512E00F2EF0E34F2EF02D5A
:100D50000F2EF1E3DF2EF02D0F2EF4E3AF2EF02D4A
:100D60000F2EF5E3BF2EF02D0F2EF6E3CF2EF02D34
:100D700060E080E083DA82EC90E08FDA832D922DC0
:100D8000AAD72C966CAF7DAF8EAF9FAF2C976AE041
:100D900080E074DA832D922D80DA8F818823D9F058
:100DA0008885882361F08985882381F08A8581116F
:100DB000A4C00F2EF3E0EF2EF02DF12C0EC069969B
:100DC000EFAC69976A96FFAC6A9707C06894EE2407
:100DD000E1F8F12C02C0E12CF12C41D98B3059F40F
:100DE0003ED98B30E9F3E7E0F0E0EC0FFD1FEE0DAC
:100DF000FF1D408282C033D9813059F430D981300F
:100E0000E9F3E7E0F0E0EC0FFD1FEE0DFF1DD082EF
:100E100074C025D9823061F422D98230E9F3E7E049
:100E2000F0E0EC0FFD1FEE0DFF1D22E3208365C0F7
:100E300016D9833061F413D98330E9F3E7E0F0E0A9
:100E4000EC0FFD1FEE0DFF1D33E3308356C007D9B5
:100E5000843059F404D98430E9F3E7E0F0E0EC0F92
:100E6000FD1FEE0DFF1DA08248C0F9D8853059F452
:100E7000F6D88530E9F3E7E0F0E0EC0FFD1FEE0D6A
:100E8000FF1DB0823AC0EBD8863059F4E8D88630DE
:100E9000E9F3E7E0F0E0EC0FFD1FEE0DFF1DC0826F
:100EA0002CC0DDD8873061F4DAD88730E9F3E7E089
:100EB000F0E0EC0FFD1FEE0DFF1D47E340831DC06A
:100EC000CED8883061F4CBD88830E9F3E7E0F0E0A1
:100ED000EC0FFD1FEE0DFF1D88E380830EC0BFD811
:100EE000893059F4BCD88930E9F3E7E0F0E0EC0F41
:100EF000FD1FEE0DFF1D89E38083B1D88A3009F014
:100F000065C0ADD88A30E9F38A85882309F45EC0CC
:100F10000F2EFCE0CF2ED12CE12CF12CF02DE199FD
:100F2000FECFC6017AD72C962CAD3DAD4EAD5FAD50
:100F30002C972617370748075907C9F51C2DE19943
:100F4000FECF6FEF812F90E06DD781E0810FE199A7
:100F5000FECF6FEF90E066D782E0810FE199FECF80
:100F60006FEF90E05FD783E0810FE199FECF6FEFE5
:100F700090E058D779D98FE59AEE0197F1F700C044
:100F8000000005E610E064E081E078D98CEC90E0A8
:100F900084D9C59AAFE5BAEE1197F1F700C0000009
:100FA0000150110981F7C598812C912C19C0B4E02A
:100FB000CB0ED11CE11CF11CE4E8CE16D104E104F7
:100FC000F10409F0ACCF812C912C0AC08FE19EE492
:100FD0000197F1F700C000000150110909F0C8CED7
:100FE00043D9AFE5BAEE1197F1F700C0000037D84A
:100FF0008B3009F0B3C033D88B30E9F30F2EFCE00F
:10100000EF2EF12CF02DC12CD12C6894BB24B2F81A
:101010002696EEADFFAD2697252D11922A95E9F77C
:101020002896AEADBFAD2897EB2D1D92EA95E9F756
:10103000E199FECF0E2D1F2DC701E7D68F3F09F492
:101040004FC0FFEFCF1ADF0AE199FECF802F912F1B
:10105000E4D62AE0432D522D8ED6C601A0E0B0E0A2
:101060002AE0472D562DBC01CD0185D6FDD88FE550
:101070009AEE0197F1F700C0000008E512E060E089
:1010800080E0FCD884ED90E008D963E080E0F6D8F9
:10109000872D962D02D9652D80E0F0D888ED90E05F
:1010A000FCD860E081E0EAD88FED90E0F6D8652DBD
:1010B00081E0E4D8832D922DF0D8D1D78A3021F465
:1010C000CED78A30E9F30CC0CAD78C3049F0AFE5EF
:1010D000BAEE1197F1F700C000000150110979F63E
:1010E000B4E0EB0EF11CE4E8EE16F10409F090CF49
:1010F000BBD88FE59AEE0197F1F700C0000009EC2C
:1011000010E04AE0672D762DC60116D660E080E03B
:10111000B5D885EE90E0C1D867E080E0AFD8872DE4
:10112000962DBBD86BE080E0A9D88BEE90E0B5D8C7
:10113000C59AAFE5BAEE1197F1F700C00000015073
:101140001109F9F6C59890D8EFE5FAEE3197F1F765
:1011500000C0000088248394912C54CC8FE59AEE33
:101160000197F1F700C000009FEF891A990AA8ECD7
:101170008A16910408F446CC0CE010E0E199FECF09
:10118000C8014BD662962CAD3DAD4EAD5FAD6297BA
:10119000261737074807590709F041C064964EAD36
:1011A0005FAD64974F5F5F4F64965FAF4EAF6497DC
:1011B00068968CAD9DADAEADBFAD68970196A11D93
:1011C000B11D68968CAF9DAFAEAFBFAF6897E19988
:1011D000FECF68964CAD5DAD6EAD7FAD689780E09B
:1011E00090E02DD641D8AFE5BAEE1197F1F700C0E7
:1011F000000009EC10E064E081E040D881EF90E06D
:101200004CD8C39AC59AEFE5FAEE3197F1F700C0D2
:1012100000000150110979F7C398C59806C00C5F0A
:101220001F4F0438110509F0A9CFFE01319686E061
:10123000DF011D928A95E9F76496EEADFFAD6497E4
:10124000309739F0319749F464961FAE1EAE64971B
:1012500004C02E961FAE1EAE2E9706D88FE59AEECE
:101260000197F1F700C00000E12CF12CCC24CA94C6
:10127000DC2CF5D68C3019F5F2D68C30E9F3898167
:101280008823E9F0FE01EC0DFD1D118291E0C91AE1
:10129000D108C69AAFE5BAEE1197F1F700C0000089
:1012A000C69AEFE5FAEE3197F1F700C00000C69854
:1012B000DBD78FE59AEE0197F1F700C00000AFE1B0
:1012C000BEE41197F1F700C000002E96EEADFFAD21
:1012D0002E9731962E96FFAFEEAF2E97E835F2405F
:1012E00008F437CA80E090E009C01816190634F4F3
:1012F000C4988436910511F481E090E001967FC88E
:1013000060E080E0BBD7CE01C596C7D766E080E03D
:10131000B5D78CE690E0C1D760E081E0AFD7CE01D1
:10132000C196BBD7D5012C9111963C91119712967D
:101330004C91129713965C91139714966C91149795
:1013400015967C91159716968C91169717969C91E9
:10135000DCD62C966CAF7DAF8EAF9FAF2C974AE05A
:10136000BE01685C7F4FC401E7D42C964CAD5DADE7
:101370006EAD7FAD2C97CE01CD9692D68DAD9EAD44
:10138000892B09F058C921968EAD9FAD2197892BE5
:1013900009F4B1C950C921968EAD9FAD2197892B13
:1013A00009F4A9C903C98093FA0048B321E030E0E9
:1013B000B90102C0660F771F8A95E2F7CB01842B33
:1013C00088BB87B30090FA0002C0220F331F0A9433
:1013D000E2F7282B27BB089598B321E030E0A9015C
:1013E0000090FA0002C0440F551F0A94E2F7842FC0
:1013F0008095892388BB47B3C9010090FA0002C0D9
:10140000880F991F0A94E2F7842B87BB8FEB93E038
:101410000197F1F700C0000097B3A9010090FA000E
:1014200002C0440F551F0A94E2F7842F8095892348
:1014300087BB90EA9A95F1F786B30090FA0002C054
:10144000220F331F0A94E2F78223E3E3F3E031979C
:10145000F1F700C00000089580FF30C0F89438B361
:1014600081E090E0AC010090FA0002C0440F551FEB
:101470000A94E2F7242F2095232328BB47B39C012D
:101480000090FA0002C0220F331F0A94E2F7242BC7
:1014900027BB2AE12A95F1F700C0789427B3009082
:1014A000FA0002C0880F991F0A94E2F78095822300
:1014B00087BB82E98A95F1F700C00895F89438B3A4
:1014C00081E090E0AC010090FA0002C0440F551F8B
:1014D0000A94E2F7242F2095232328BB47B39C01CD
:1014E0000090FA0002C0220F331F0A94E2F7242B67
:1014F00027BB2DEA2A95F1F7000027B30090FA00E8
:1015000002C0880F991F0A94E2F78095822387BB57
:1015100078948DE08A95F1F700000895CF93DF93DA
:10152000D82FC8E08D2F817097DFD695C150D1F7A5
:10153000DF91CF910895F89438B381E090E0AC0149
:101540000090FA0002C0440F551F0A94E2F7242FBE
:101550002095232328BB47B39C010090FA0002C0CA
:10156000220F331F0A94E2F7242B27BB28E02A9589
:10157000F1F727B30090FA0002C0880F991F0A9470
:10158000E2F78095822387BB8AE18A95F1F700C054
:1015900086B390E00090FA0002C0959587950A9472
:1015A000E2F78170789498E79A95F1F70895CF93D0
:1015B000DF93D8E0C0E0BFDF20E8829FC0011124A4
:1015C000C695C82BD150B9F78C2FDF91CF910895D4
:1015D000BF92CF92DF92EF92FF920F931F93CF9320
:1015E000DF93C22FE32EF42E052F162FD72FB82E00
:1015F000C92EF2DE85E592DF6894DD24D6F88C2FC3
:1016000081702ADF2C2F3E2D4F2D502F612F7D2FE3
:101610008B2D9C2D01E037D3C22FE32EF42E052F06
:10162000162FD72FB82EC92EDA94D110E8CFDF911C
:10163000CF911F910F91FF90EF90DF90CF90BF90CF
:1016400008959F92AF92BF92CF92DF92EF92FF9256
:101650000F931F93CF93DF93922EA32EB42EC52EFC
:10166000D62EE72EF82E192FD02FA0E0B0E0F0E014
:10167000E0E0CCE8292D3A2D4B2D5C2D6D2D7E2DF3
:101680008F2D912F0A2FFFD288E090E0322F3E2736
:10169000E695269530FDEC270197C1F7FF5F189678
:1016A000FD1740F38E2FDF91CF911F910F91FF9087
:1016B000EF90DF90CF90BF90AF909F9008952F92C2
:1016C0003F924F925F926F927F928F929F92AF92D2
:1016D000BF92CF92DF92EF92FF920F931F93CF931F
:1016E000DF93CDB7DEB729970FB6F894DEBF0FBEF4
:1016F000CDBF29833A834B835C836D837E83382EF1
:101700009F83580169DE80EF09DFE12CF12C412C29
:1017100081E0512C612C712C812C912CC12CD12C6D
:1017200010E022242394898706DF888704DF9885C8
:10173000913019F4813001F547C0E885E1111CC0F2
:1017400081111AC0F5018081F9858F1781F08F17FB
:1017500080F029813A814B815C816D817E81832D6E
:101760009F810E2D90D220FD06C04F2E05C02886E9
:1017700003C0498401C02886288530E040E050E05D
:1017800060E070E080E090E00E2D62D2522A632A81
:10179000742A852A962AC72AD82A192B88855CDEBE
:1017A00089858F5F89879FEFE91AF90A813409F0EB
:1017B000BBCFF5014082252D362D472D582D692DA3
:1017C0007C2D8D2D912F08C021E030E040E050E0CD
:1017D00060E070E080E090E029960FB6F894DEBFFC
:1017E0000FBECDBFDF91CF911F910F91FF90EF9072
:1017F000DF90CF90BF90AF909F908F907F906F9031
:101800005F904F903F902F9008952F923F924F926C
:101810005F926F927F928F929F92AF92BF92CF9280
:10182000DF92EF92FF920F931F93CF93DF931F925C
:10183000CDB7DEB74C015B011982312C212C412C34
:10184000512C612C712CC12CD12CE12CF12C01C01C
:10185000212C8E010F5F1F4F242D352D462D572D26
:101860006C2D7D2D8E2D9F2D2ADF422E532E642E22
:10187000752EC62ED72EE82EF92EA1E020D2B1F07B
:1018800008E0DFDE811110C0F40188E0389EE00D31
:10189000F11D11244082518262827382C482D582FA
:1018A000E682F782339408C0239401C02394E3E0D6
:1018B000E21558F02110CDCF8981882321F0F50160
:1018C0008081381628F2F50130820F90DF91CF9198
:1018D0001F910F91FF90EF90DF90CF90BF90AF904E
:1018E0009F908F907F906F905F904F903F902F9040
:1018F00008955058BB27AA270ED00DC1FED030F056
:1019000003D120F031F49F3F11F41EF4F3C00EF424
:10191000E095E7FBE9C0E92F0FD180F3BA17620722
:1019200073078407950718F071F49EF527C10EF42C
:10193000E0950B2EBA2FA02D0B01B90190010C01DF
:10194000CA01A0011124FF27591B99F0593F50F4F7
:10195000503E68F11A16F040A22F232F342F44274F
:10196000585FF3CF469537952795A795F040539547
:10197000C9F77EF41F16BA0B620B730B840BBAF017
:101980009150A1F0FF0FBB1F661F771F881FC2F782
:101990000EC0BA0F621F731F841F48F48795779596
:1019A0006795B795F7959E3F08F0B3CF9395880F4D
:1019B00008F09927EE0F97958795089571D008F450
:1019C00081E0089504D06894B111D9C00895BCD0C5
:1019D00088F09F5790F0B92F9927B751A0F0D1F018
:1019E000660F771F881F991F1AF0BA95C9F712C0A2
:1019F000B13081F0C3D0B1E00895C0C0672F782F17
:101A00008827B85F39F0B93FCCF38695779567950D
:101A1000B395D9F73EF490958095709561957F4F79
:101A20008F4F9F4F0895E89409C097FB3EF490951F
:101A30008095709561957F4F8F4F9F4F9923A9F0A7
:101A4000F92F96E9BB279395F69587957795679536
:101A5000B795F111F8CFFAF4BB0F11F460FF1BC07A
:101A60006F5F7F4F8F4F9F4F16C0882311F096E90D
:101A700011C0772321F09EE8872F762F05C06623BB
:101A800071F096E8862F70E060E02AF09A95660F74
:101A9000771F881FDAF7880F9695879597F908952D
:101AA000990F0008550FAA0BE0E8FEEF161617066F
:101AB000E807F907C0F012161306E407F50798F0D7
:101AC000621B730B840B950B39F40A2661F0232BF0
:101AD000242B252B21F408950A2609F4A140A6956C
:101AE0008FEF811D811D089597F99F6780E870E051
:101AF00060E008959FEF80EC089500240A94161684
:101B0000170618060906089500240A9412161306EB
:101B1000140605060895092E0394000C11F4882379
:101B200052F0BB0F40F4BF2B11F460FF04C06F5F95
:101B30007F4F8F4F9F4F089557FD9058440F551F6B
:101B400059F05F3F71F04795880F97FB991F61F03F
:101B50009F3F79F087950895121613061406551FB6
:101B6000F2CF4695F1DF08C0161617061806991F22
:101B7000F1CF86957105610508940895E894BB2717
:101B800066277727CB0197F908950BD0C4CFB5DF2F
:101B900028F0BADF18F0952309F0A6CFABCF1124B7
:101BA000EECFCADFA0F3959FD1F3950F50E0551FFC
:101BB000629FF001729FBB27F00DB11D639FAA27A2
:101BC000F00DB11DAA1F649F6627B00DA11D661FF1
:101BD000829F2227B00DA11D621F739FB00DA11D12
:101BE000621F839FA00D611D221F749F3327A00DCC
:101BF000611D231F849F600D211D822F762F6A2F68
:101C000011249F5750408AF0E1F088234AF0EE0FEC
:101C1000FF1FBB1F661F771F881F91505040A9F7F9
:101C20009E3F510570F060CFAACF5F3FECF3983E26
:101C3000DCF3869577956795B795F795E7959F5F60
:101C4000C1F7FE2B880F911D9695879597F90895FA
:101C50000F93083090F0982F872F762F652F542FF1
:101C6000432F322F22270850F4CF220F331F441F57
:101C7000551F661F771F881F991F0A95B2F70F918E
:101C8000089597FB10F8169400080F93083098F009
:101C90000850232F342F452F562F672F782F892F49
:101CA000902DF4CF059497958795779567955795DF
:101CB0004795379527950A95AAF70F91089500241F
:101CC000A7FD00942A1730054005500560057005F2
:101CD0008005900508951F93FC0199278827BC0172
:101CE000E89411911032E9F3193010F01E30C8F366
:101CF0001B3249F01D3241F4689405C027D0610FB2
:101D0000711D811D911D119110531A30B8F33EF4CD
:101D100090958095709561957F4F8F4F9F4F1F9144
:101D20000895FB01DC010D900020E9F71197019067
:101D30000D920020E1F70895BB274A3031F4992332
:101D400022F4BDE2909581959F4F37C0592F482FBF
:101D5000372F262F660F771F881F991F660F771F53
:101D6000881F991F620F731F841F951F660F771FAF
:101D7000881F991F0895BB27FA01A62F62177105C6
:101D800081059105330B30FB66F0AA27660F771F9C
:101D9000881F991FAA1FA21710F0A21B6395385025
:101DA000A9F7A05DAA3308F0A95DA19336F7B11198
:101DB000B1931082CA0119C0BB27FB015527AA277E
:101DC000880F991FAA1FA41710F0A41B83955051C8
:101DD000B9F7A05DAA3308F0A95DA193009779F740
:101DE000B111B1931192CB0100C0DC01FC01672F4E
:101DF00071917723E1F7329704C07C916D937083E2
:101E00006291AE17BF07C8F30895E199FECF9FBB5B
:101E10008EBBE09A99278DB30895A6E1B0E044E027
:101E200050E017C0262FE199FECF9FBB8EBB2DBB84
:101E30000FB6F894E29AE19A0FBE01960895242F06
:101E4000F2DF252FF0DF00C0EDDF272FECCFDC0124
:101E5000CB01FC01E199FECF06C0FFBBEEBBE09ACF
:101E600031960DB20D9241505040B8F70895F89454
:021E7000FFCFA2
:101E7200FEFDFBF72F285E2D5E292F0048656C6C56
:101E82006F21002D285E2D5E292D00436F64653A77
:101E9200003E002E2E2E2E002A3A4164642F436803
:101EA200616E676500233A44656C6574652F303A4C
:101EB2004C697374002A3A41646420233A4368618E
:101EC2006E6765004368616E6765640041646465BE
:101ED20064002A3A44656C6574652D0044656C653E
:101EE200746564004E6F2E002A3A4E657874004382
:101EF2006F64652D00466F756E6400636F64657371
:0A1F020000556E6C6F636B656400A0
:00000001FF
