:1000000012C024C023C022C021C020C01FC01EC0F7
:100010001DC01CC01BC01AC019C018C017C016C014
:1000200015C014C013C011241FBECFE5D4E0DEBF3D
:10003000CDBF10E0A0E6B0E0EEE2FEE002C0059029
:100040000D92A238B107D9F725D1EFC6D9CFE0E696
:10005000F0E040E050E0842F9A01919192BB9AE148
:100060009A95F1F700C090B3907F903D51F0903E8B
:1000700019F0903B89F40AC0242F220F820F8F5F62
:100080000895242F220F820F8E5F08952F5F3F4F18
:10009000822F880F820F08954F5F5F4F44305105C4
:1000A000D1F6809B089580E00895CF92DF92EF9281
:1000B000FF92CF93DF93EC016A017B01CB01BA0180
:1000C000E0D49B01772324F422273327261B370B08
:1000D00039832883072E000C880B990B05D59B01CB
:1000E000AC01C701B60164D420E030E040E251E445
:1000F000ABD5C7D49B01772324F422273327261BB3
:10010000370B3B832A83DF91CF91FF90EF90DF90F5
:10011000CF900895CF9348D484E4ECD32FE78FE4B5
:1001200092E1215080409040E1F700C000003CD4B3
:100130008EEBE0D328D4C82F26D4682F70E0762F1A
:1001400066276C0F711D072E000C880B990BCCD401
:1001500020E030E040E85DE377D5CF91089594B397
:10016000936094BB94B39C6394BB662311F0A89AEC
:1001700001C0A898A99A95B3937C95BB83FDAD9ACD
:1001800082FDAC9A81FDAB9A80FDAA9A8DE08A959A
:10019000F1F70000A9980895CF93DF93C82FD62FC9
:1001A00082958F70DCDF6D2F8C2FD9DFDF91CF919F
:1001B00008958FEC97E00197F1F700C0000060E030
:1001C00082E0CDDF8FEC97E00197F1F700C00000EF
:1001D00060E088E2E1DF8FEC97E00197F1F700C083
:1001E000000060E081E0D8DF8FEC97E00197F1F745
:1001F00000C0000060E086E0CFDF8FEC97E0019761
:10020000F1F700C0000060E08CE0C6DF0895EFEC7D
:10021000F7E03197F1F700C0000060E08C60BCDFD0
:100220000895EFECF7E03197F1F700C0000060E0CF
:100230008860B2DF08958FEC97E00197F1F700C076
:10024000000060E081E0A8DF0895EFECF7E031976F
:10025000F1F700C00000F0E48F9F600D1124862F9D
:1002600060E0806899DF0895CF93DF93FC012081DF
:10027000222369F0EC018FEC97E00197F1F700C0C1
:10028000000061E0899188DF88818111F4CFDF91DE
:10029000CF910895CF93DF93CDB7DEB7A6970FB672
:1002A000F894DEBF0FBECDBF81B38F6081BB8F9846
:1002B00080EF82BB8FE19EE40197F1F700C0000060
:1002C000BC9ABD9ABE9A1A821982FE01339684E0C6
:1002D000DF011D928A95E9F784E59DE398878F8376
:1002E0001A86198638968DE0DF011D928A95E9F706
:1002F0001EA21DA2212C312C3A973F019E01295F9D
:100300003F4F3AA329A339A13BA34AA14CA34E2EA8
:10031000572CB59903C016C0B59B05C0B599FCCF45
:1003200085E190E002C085E190E0C59AAFEFB0E7CB
:10033000E2E0A150B040E040E1F700C000000197CA
:10034000A1F7C5982114310409F001C2C49AFFEF46
:1003500020E732E0F15020403040E1F700C00000DB
:100360008DA19EA1892B09F06FC023DFAFE1BEE410
:100370001197F1F700C0000080E049DFEFE1FEE4F3
:100380003197F1F700C0000084E04BDF8FE19EE47D
:100390000197F1F700C0000082E0F1D1BBDE6B01F4
:1003A0007C01AB01BC01CE014D967FDE20E030E048
:1003B000A901C701B60161D3882354F4E9A1FAA1C8
:1003C00001900020E9F731978DE290E091838083DE
:1003D0004AE0BE01685E7F4F8D8D9E8DC9D4BE01FF
:1003E000685E7F4F8BA19CA1B8D4E9A1FAA10190CE
:1003F0000020E9F731978EE290E0918380834AE014
:10040000BE01685E7F4F8F8D98A1B2D4BE01685E39
:100410007F4F8BA19CA1A1D4E9A1FAA1019000205A
:10042000E9F7319787E293E49183808312829FEF0B
:10043000A0E7B2E09150A040B040E1F700C000005A
:10044000E1E0F0E0FEA3EDA386E0D3011D928A95E2
:10045000E9F7F1DEBFE7E8E3F1E0B150E040F0405A
:10046000E1F700C000000F2EF2ECEF2EFF24F39412
:10047000F02DCC24CA94DD24DA94B59903C02EC0A3
:10048000B59B02C0B599FCCFD6DE2FE738E341E03B
:10049000215030404040E1F700C0000005E110E08D
:1004A00064E081E0D2DE85E690E0DEDEC59A8FEF83
:1004B00090E7A2E081509040A040E1F700C000002A
:1004C0000150110969F7C598B6DEBFE7E8E3F1E02E
:1004D000B150E040F040E1F700C0000060E080E093
:1004E000B4DE8BA19CA1C0DE60E081E0AEDE8EE6D2
:1004F00090E0BADE842D952D0AD44B015C0166E0B4
:1005000081E0A3DE842D952DAFDE8981882341F023
:10051000FE01329601E010E0819181117BC002C0A2
:1005200000E010E094DD8B3049F4F301E00FF11F9F
:1005300020E320833FEFC31AD30A72C088DD8130E5
:1005400049F4F301E00FF11F41E340838FEFC81A34
:10055000D80A66C07CDD823049F4F301E00FF11F58
:1005600092E39083AFEFCA1ADA0A5AC070DD833083
:1005700049F4F301E00FF11FB3E3B083EFEFCE1ABC
:10058000DE0A4EC064DD843049F4F301E00FF11F50
:1005900024E320833FEFC31AD30A42C058DD8530DD
:1005A00049F4F301E00FF11F45E340838FEFC81AD0
:1005B000D80A36C04CDD863049F4F301E00FF11F54
:1005C00096E39083AFEFCA1ADA0A2AC040DD87307B
:1005D00049F4F301E00FF11FB7E3B083EFEFCE1A58
:1005E000DE0A1EC034DD883049F4F301E00FF11F4C
:1005F00028E320833FEFC31AD30A12C028DD8930D5
:1006000079F4F301E00FF11F49E340838FEFC81A3B
:10061000D80A06C00F5F1F4F0530110509F07CCFC7
:1006200016DD8A3009F064C091E0291A31088D8105
:100630008823A1F104E010E0E199FECFC801E0D3E6
:1006400086169706A806B90609F5F5DDAFE7B8E303
:10065000E1E0A150B040E040E1F700C0000005E15A
:1006600010E064E081E0F1DD85E690E0FDDDC59A13
:10067000FFEF20E732E0F15020403040E1F700C0CA
:1006800000000150110969F7C59805C00C5F1F4FA4
:100690000438110589F6E199FECF6DC0CCDD4FE736
:1006A00088E391E0415080409040E1F700C00000B5
:1006B00006E010E061E081E0C8DD84E790E0D4DD91
:1006C000C69AAFEFB0E7E2E0A150B040E040E1F7FA
:1006D00000C000000150110969F7C698ACDDFFE7C2
:1006E00028E331E0F15020403040E1F700C0000045
:1006F000AEDC8C3001F5F301EC0DFD1D108241E004
:10070000C41AD108C69A8FE59AEE0197F1F700C096
:100710000000C69AAFE5BAEE1197F1F700C00000ED
:10072000C69889DDBFE7E8E3F1E0B150E040F04072
:10073000E1F700C000008FE19EE40197F1F700C0EF
:10074000000091E0E91AF10809F097CE14C01214E4
:1007500013048CF4C498AFEFB0E7E2E0A150B040CE
:10076000E040E1F700C00000F4E62F16310419F470
:1007700022242394312C2FEF221A320ACACD8093DF
:10078000640048B321E030E0B90102C0660F771F72
:100790008A95E2F7CB01842B88BB87B30090640075
:1007A00002C0220F331F0A94E2F7282B27BB0895BB
:1007B00098B321E030E0A9010090640002C0440F2A
:1007C000551F0A94E2F7842F8095892388BB47B38D
:1007D000C9010090640002C0880F991F0A94E2F7D3
:1007E000842B87BB8FEB93E00197F1F700C00000EB
:1007F00097B3A9010090640002C0440F551F0A94EA
:10080000E2F7842F8095892387BB90EA9A95F1F7C8
:1008100086B30090640002C0220F331F0A94E2F7EF
:100820008223E3E3F3E03197F1F700C0000008957D
:1008300080FF30C0F89438B381E090E0AC010090C4
:10084000640002C0440F551F0A94E2F7242F20953C
:10085000232328BB47B39C010090640002C0220FF1
:10086000331F0A94E2F7242B27BB2AE12A95F1F7DC
:1008700000C0789427B30090640002C0880F991FCD
:100880000A94E2F78095822387BB82E98A95F1F783
:1008900000C00895F89438B381E090E0AC01009076
:1008A000640002C0440F551F0A94E2F7242F2095DC
:1008B000232328BB47B39C010090640002C0220F91
:1008C000331F0A94E2F7242B27BB2DEA2A95F1F770
:1008D000000027B30090640002C0880F991F0A949B
:1008E000E2F78095822387BB78948DE08A95F1F7B3
:1008F00000000895CF93DF93D82FC8E08D2F81702B
:1009000097DFD695C150D1F7DF91CF910895F89434
:1009100038B381E090E0AC010090640002C0440F65
:10092000551F0A94E2F7242F2095232328BB47B3B1
:100930009C010090640002C0220F331F0A94E2F76A
:10094000242B27BB28E02A95F1F727B300906400F9
:1009500002C0880F991F0A94E2F78095822387BB13
:100960008AE18A95F1F700C086B390E000906400B8
:1009700002C0959587950A94E2F78170789498E77C
:100980009A95F1F70895CF93DF93D8E0C0E0BFDFE9
:1009900020E8829FC0011124C695C82BD150B9F719
:1009A0008C2FDF91CF91089503DF8CECA3DF0895A6
:1009B0005058BB27AA270ED00DC1FED030F003D16E
:1009C00020F031F49F3F11F41EF4F3C00EF4E095D3
:1009D000E7FBE9C0E92F0FD180F3BA17620773076D
:1009E0008407950718F071F49EF527C10EF4E09581
:1009F0000B2EBA2FA02D0B01B90190010C01CA01D9
:100A0000A0011124FF27591B99F0593F50F4503E83
:100A100068F11A16F040A22F232F342F4427585F75
:100A2000F3CF469537952795A795F0405395C9F78D
:100A30007EF41F16BA0B620B730B840BBAF0915045
:100A4000A1F0FF0FBB1F661F771F881FC2F70EC0E4
:100A5000BA0F621F731F841F48F4879577956795B7
:100A6000B795F7959E3F08F0B3CF9395880F08F0A0
:100A70009927EE0F97958795089571D008F481E036
:100A8000089504D06894B111D9C00895BCD088F0FD
:100A90009F5790F0B92F9927B751A0F0D1F0660F6A
:100AA000771F881F991F1AF0BA95C9F712C0B13085
:100AB00081F0C3D0B1E00895C0C0672F782F882798
:100AC000B85F39F0B93FCCF3869577956795B395C4
:100AD000D9F73EF490958095709561957F4F8F4F33
:100AE0009F4F0895E89409C097FB3EF49095809538
:100AF000709561957F4F8F4F9F4F9923A9F0F92FE4
:100B000096E9BB279395F695879577956795B79561
:100B1000F111F8CFFAF4BB0F11F460FF1BC06F5F47
:100B20007F4F8F4F9F4F16C0882311F096E911C059
:100B3000772321F09EE8872F762F05C0662371F07A
:100B400096E8862F70E060E02AF09A95660F771F8E
:100B5000881FDAF7880F9695879597F90895990F6A
:100B60000008550FAA0BE0E8FEEF16161706E80777
:100B7000F907C0F012161306E407F50798F0621B98
:100B8000730B840B950B39F40A2661F0232B242B6D
:100B9000252B21F408950A2609F4A140A6958FEF8C
:100BA000811D811D089597F99F6780E870E060E0DE
:100BB00008959FEF80EC089500240A9416161706F6
:100BC00018060906089500240A941216130614063E
:100BD00005060895092E0394000C11F4882352F0A1
:100BE000BB0F40F4BF2B11F460FF04C06F5F7F4F59
:100BF0008F4F9F4F089557FD9058440F551F59F040
:100C00005F3F71F04795880F97FB991F61F09F3FF9
:100C100079F087950895121613061406551FF2CF22
:100C20004695F1DF08C0161617061806991FF1CF72
:100C300086957105610508940895E894BB27662799
:100C40007727CB0197F908950BD0C4CFB5DF28F0F3
:100C5000BADF18F0952309F0A6CFABCF1124EECF61
:100C6000CADFA0F3959FD1F3950F50E0551F629F07
:100C7000F001729FBB27F00DB11D639FAA27F00DF5
:100C8000B11DAA1F649F6627B00DA11D661F829F1C
:100C90002227B00DA11D621F739FB00DA11D621F01
:100CA000839FA00D611D221F749F3327A00D611D1E
:100CB000231F849F600D211D822F762F6A2F112400
:100CC0009F5750408AF0E1F088234AF0EE0FFF1F53
:100CD000BB1F661F771F881F91505040A9F79E3F8A
:100CE000510570F060CFAACF5F3FECF3983EDCF384
:100CF000869577956795B795F795E7959F5FC1F7C7
:100D0000FE2B880F911D9695879597F908951F934F
:100D1000FC0199278827BC01E89411911032E9F36E
:100D2000193010F01E30C8F31B3249F01D3241F467
:100D3000689405C027D0610F711D811D911D11910F
:100D400010531A30B8F33EF49095809570956195E4
:100D50007F4F8F4F9F4F1F910895FB01DC010D9036
:100D60000020E9F7119701900D920020E1F7089516
:100D7000BB274A3031F4992322F4BDE29095819546
:100D80009F4F16C0592F482F372F262F660F771FDA
:100D9000881F991F660F771F881F991F620F731F87
:100DA000841F951F660F771F881F991F0895BB2703
:100DB000FB015527AA27880F991FAA1FA41710F017
:100DC000A41B83955051B9F7A05DAA3308F0A95D23
:100DD000A193009779F7B111B1931192CB0100C0A3
:100DE000DC01FC01672F71917723E1F7329704C092
:100DF0007C916D9370836291AE17BF07C8F308951D
:100E0000A6E1B0E044E050E002C0DC01CB01FC010F
:100E1000E199FECF06C0FFBBEEBBE09A31960DB262
:0E0E20000D9241505040B8F70895F894FFCF5E
:100E2E00FEFDFBF702556E6C6F636B656400436FDE
:100E3E0064653A004D696E2E2035206E756D6265C3
:020E4E00720030
:00000001FF
