:1000000012C024C023C022C021C020C01FC01EC0F7
:100010001DC01CC01BC01AC019C018C017C016C014
:1000200015C014C013C011241FBECFE5D4E0DEBF3D
:10003000CDBF10E0A0E6B0E0EEEBF0E102C005902D
:100040000D92A63AB107D9F725D137C8D9CFE0E646
:10005000F0E040E050E0842F9A01919192BB9AE148
:100060009A95F1F700C090B3907F903D51F0903E8B
:1000700019F0903B89F40AC0242F220F820F8F5F62
:100080000895242F220F820F8E5F08952F5F3F4F18
:10009000822F880F820F08954F5F5F4F44305105C4
:1000A000D1F6809B089580E00895CF92DF92EF9281
:1000B000FF92CF93DF93EC016A017B01CB01BA0180
:1000C0000FD69B01772324F422273327261B370BD7
:1000D00039832883072E000C880B990B34D69B019B
:1000E000AC01C701B60193D520E030E040E251E415
:1000F000DED6F6D59B01772324F422273327261B4F
:10010000370B3B832A83DF91CF91FF90EF90DF90F5
:10011000CF900895CF9377D584E41BD52FE78FE454
:1001200092E1215080409040E1F700C000006BD583
:100130008EEB0FD557D5C82F55D5682F70E0762F89
:1001400066276C0F711D072E000C880B990BFBD5D1
:1001500020E030E040E85DE3AAD6CF91089594B363
:10016000936094BB94B39C6394BB662311F0A89AEC
:1001700001C0A898A99A95B3937C95BB83FDAD9ACD
:1001800082FDAC9A81FDAB9A80FDAA9A8DE08A959A
:10019000F1F70000A9980895CF93DF93C82FD62FC9
:1001A00082958F70DCDF6D2F8C2FD9DFDF91CF919F
:1001B00008958FEC97E00197F1F700C0000060E030
:1001C00082E0CDDF8FEC97E00197F1F700C00000EF
:1001D00060E088E2E1DF8FEC97E00197F1F700C083
:1001E000000060E081E0D8DF8FEC97E00197F1F745
:1001F00000C0000060E086E0CFDF8FEC97E0019761
:10020000F1F700C0000060E08CE0C6DF0895EFEC7D
:10021000F7E03197F1F700C0000060E08C60BCDFD0
:100220000895EFECF7E03197F1F700C0000060E0CF
:100230008860B2DF08958FEC97E00197F1F700C076
:10024000000060E081E0A8DF0895EFECF7E031976F
:10025000F1F700C00000F0E48F9F600D1124862F9D
:1002600060E0806899DF0895CF93DF93FC012081DF
:10027000222369F0EC018FEC97E00197F1F700C0C1
:10028000000061E0899188DF88818111F4CFDF91DE
:10029000CF910895CF93DF93CDB7DEB7E9970FB62F
:1002A000F894DEBF0FBECDBF82E098D381B38F60DC
:1002B00081BB8F98B99ABA9ABB9ABC9ABD9ABE9ADA
:1002C00080EF82BB8FE19EE40197F1F700C0000050
:1002D00070DFAFE1BEE41197F1F700C0000080E0ED
:1002E00096DFEFE1FEE43197F1F700C0000084E013
:1002F00098DF8FE19EE40197F1F700C000001A82B9
:10030000198284E0FE013396DF01282F1D922A9581
:10031000E9F718861F823696DF011D928A95E9F764
:100320003496F8A7EFA3CE0142969AA789A7DE01DB
:1003300011963D013697FCA7EBA78BA49CA4362C05
:10034000272C88AE99AEE6DE6CAB7DAB8EAB9FAB57
:1003500085E0E5E6F0E0DE011D9601900D928A95BC
:10036000E1F78CE0A9A5BAA51D928A95E9F74CA9F9
:100370005DA96EA97FA9CE01839697DE20E030E0CB
:10038000A9016CA97DA98EA99FA9A6D4882354F49C
:10039000EFA1F8A501900020E9F731978DE290E0F8
:1003A000918380834AE0BE01625E7F4F8BA19CA156
:1003B00012D6BE01625E7F4FCE010D9601D6EFA12F
:1003C000F8A501900020E9F731978EE290E0918343
:1003D00080834AE0BE01625E7F4F8DA19EA1FBD566
:1003E000BE01625E7F4FCE010D96EAD5EFA1F8A562
:1003F00001900020E9F7319787E293E491838083AD
:10040000128286E0F30111928A95E9F714DFFFE783
:1004100028E381E0F15020408040E1F700C0000077
:100420000F2EF2EC4F2E55245394F02D88248A94ED
:10043000982C60E080E009DFCE010D9615DF60E0CA
:1004400081E003DF86E790E00FDF832D922D92D5C8
:100450006DA77FA789AB9BAB66E081E0F6DE832DBD
:10046000922D02DF8981882341F0FE01329601E05E
:1004700010E0819181117BC002C000E010E0E7DD57
:100480008B3049F4F301E00FF11F80E380839FEF8D
:10049000891A990A72C0DBDD813049F4F301E00F5B
:1004A000F11F81E38083AFEF8A1A9A0A66C0CFDD1D
:1004B000823049F4F301E00FF11F82E38083BFEF44
:1004C0008B1A9B0A5AC0C3DD833049F4F301E00F55
:1004D000F11F83E38083EFEF8E1A9E0A4EC0B7DDD3
:1004E000843049F4F301E00FF11F84E38083FFEFD0
:1004F0008F1A9F0A42C0ABDD853049F4F301E00F4B
:10050000F11F85E380832FEF821A920A36C09FDDA8
:10051000863049F4F301E00FF11F86E380839FEFFB
:10052000891A990A2AC093DD873049F4F301E00F54
:10053000F11FA7E3A083BFEF8B1A9B0A1EC087DDC4
:10054000883049F4F301E00FF11F28E320838FEF97
:10055000881A980A12C07BDD893079F4F301E00F24
:10056000F11F99E39083AFEF8A1A9A0A06C00F5FD2
:100570001F4F0530110509F07CCFB49B26C0B49BFA
:1005800003C086B3B499FDCF56DEBFE7E8E3F1E0E0
:10059000B150E040F040E1F700C0000005E110E09C
:1005A00064E081E052DE8CE790E05EDEC39A2FEFDC
:1005B00080E792E0215080409040E1F700C00000C9
:1005C0000150110969F718BABECEE199FECF88E053
:1005D00090E049D5B6D39B01AC016CA97DA98EA949
:1005E0009FA961D418160CF526DEAFE7B8E3E1E069
:1005F000A150B040E040E1F700C0000005E110E08C
:1006000064E081E022DE8CE790E02EDEC59AFFEF09
:1006100020E782E0F15020408040E1F700C0000078
:100620000150110969F718BA8ECE11DD8A3009F030
:10063000A6C18D81882309F478C1E199FECFCDA4AC
:10064000DFA4E9A8FBA884E090E00DD5C616D70684
:10065000E806F90609F5EFDD9FE7A8E3B1E0915060
:10066000A040B040E1F700C0000005E110E064E008
:1006700081E0EBDD8CE790E0F7DDC59AEFEFF0E786
:1006800022E0E150F0402040E1F700C000000150BE
:10069000110969F718BA57CEE199FECF80E090E0D2
:1006A000E2D4C616D706E806F90609F037C1C3DD5D
:1006B0008FE798E3A1E081509040A040E1F700C0AF
:1006C00000000DE211E09EA68DA658AA4FA67AAAB8
:1006D00069AA632C722C58AC99AC60E080E0B5DD5F
:1006E00085E890E0C1DD852D992D44D46B017C0116
:1006F0006AE080E0AADD852D992DB6DD8F81882303
:1007000039F0888581119BC022242394312C02C0AA
:10071000212C312C9CDC8B3061F4E7E0F0E0EC0F15
:10072000FD1FE20DF31DB0E3B083EFEFAE1ABE0A7A
:1007300086C08DDC813061F4E7E0F0E0EC0FFD1F56
:10074000E20DF31D21E320838FEFA81AB80A77C0CA
:100750007EDC823061F4E7E0F0E0EC0FFD1FE20D9B
:10076000F31D92E39083AFEFAA1ABA0A68C06FDC58
:10077000833061F4E7E0F0E0EC0FFD1FE20DF31DC4
:10078000B3E3B083EFEFAE1ABE0A59C060DC843029
:1007900061F4E7E0F0E0EC0FFD1FE20DF31D24E350
:1007A00020838FEFA81AB80A4AC051DC853061F463
:1007B000E7E0F0E0EC0FFD1FE20DF31D95E3908301
:1007C000AFEFAA1ABA0A3BC042DC863061F4E7E018
:1007D000F0E0EC0FFD1FE20DF31DB6E3B083EFEF89
:1007E000AE1ABE0A2CC033DC873061F4E7E0F0E0DB
:1007F000EC0FFD1FE20DF31D27E320838FEFA81AF6
:10080000B80A1DC024DC883061F4E7E0F0E0EC0FAA
:10081000FD1FE20DF31D98E39083AFEFAA1ABA0A09
:100820000EC015DC893059F4E7E0F0E0EC0FFD1F55
:10083000E20DF31DB9E3B083EFEFAE1ABE0A07DC99
:100840008A3099F58885882381F18DA49EA44FA4D0
:1008500058A8362C272C69A87AA8E199FECFB701B1
:10086000A60188E090E004D4E6DCFFE728E381E01D
:10087000F15020408040E1F700C0000006E010E0A9
:1008800065E081E0E2DC8FE890E0EEDCC59A9FEF66
:10089000A0E7B2E09150A040B040E1F700C00000F6
:1008A0000150110969F718BA2FC0D1DB8C30D1F48F
:1008B000E7E0F0E0EC0FFD1FEA0DFB1D1082E1E028
:1008C000AE1AB108C69A8FE59AEE0197F1F700C00B
:1008D0000000C69AAFE5BAEE1197F1F700C000002C
:1008E00018BAA9DCEFE1FEE43197F1F700C000008F
:1008F0000150110909F0F1CE8DA49EA44FA458A86F
:10090000362C272C69A87AA896DCFFE728E381E03B
:10091000F15020408040E1F700C00000AFE1BEE4AC
:100920001197F1F700C000002AC085DCBFE7E8E3BB
:10093000F1E0B150E040F040E1F700C0000006E017
:1009400010E061E081E081DC87E990E08DDCC69A0F
:100950002FEF80E792E0215080409040E1F700C007
:1009600000000150110969F718BA65DCAFE7B8E378
:10097000E1E0A150B040E040E1F700C0000067DBDB
:100980008C3001F5F301E80DF91D1082F1E08F1AAA
:100990009108C69A8FE59AEE0197F1F700C0000022
:1009A000C69AAFE5BAEE1197F1F700C0000018BA89
:1009B00042DCBFE7E8E3F1E0B150E040F040E1F7AE
:1009C00000C000008FE19EE40197F1F700C0000035
:1009D00091E0491A510809F02CCDB5CC8093640000
:1009E00048B321E030E0B90102C0660F771F8A9555
:1009F000E2F7CB01842B88BB87B30090640002C070
:100A0000220F331F0A94E2F7282B27BB089598B3CF
:100A100021E030E0A9010090640002C0440F551F9E
:100A20000A94E2F7842F8095892388BB47B3C901D4
:100A30000090640002C0880F991F0A94E2F7842B8B
:100A400087BB8FEB93E00197F1F700C0000097B3ED
:100A5000A9010090640002C0440F551F0A94E2F7F8
:100A6000842F8095892387BB90EA9A95F1F786B306
:100A70000090640002C0220F331F0A94E2F7822321
:100A8000E3E3F3E03197F1F700C00000089580FF41
:100A900030C0F89438B381E090E0AC01009064007D
:100AA00002C0440F551F0A94E2F7242F20952323F8
:100AB00028BB47B39C010090640002C0220F331F83
:100AC0000A94E2F7242B27BB2AE12A95F1F700C00C
:100AD000789427B30090640002C0880F991F0A948D
:100AE000E2F78095822387BB82E98A95F1F700C0FF
:100AF0000895F89438B381E090E0AC010090640070
:100B000002C0440F551F0A94E2F7242F2095232397
:100B100028BB47B39C010090640002C0220F331F22
:100B20000A94E2F7242B27BB2DEA2A95F1F700005F
:100B300027B30090640002C0880F991F0A94E2F75F
:100B40008095822387BB78948DE08A95F1F7000029
:100B50000895CF93DF93D82FC8E08D2F817097DF52
:100B6000D695C150D1F7DF91CF910895F89438B35D
:100B700081E090E0AC010090640002C0440F551F7A
:100B80000A94E2F7242F2095232328BB47B39C0126
:100B90000090640002C0220F331F0A94E2F7242B56
:100BA00027BB28E02A95F1F727B30090640002C024
:100BB000880F991F0A94E2F78095822387BB8AE108
:100BC0008A95F1F700C086B390E00090640002C0FF
:100BD000959587950A94E2F78170789498E79A95AD
:100BE000F1F70895CF93DF93D8E0C0E0BFDF20E8AE
:100BF000829FC0011124C695C82BD150B9F78C2F04
:100C0000DF91CF91089503DF8CECA3DF0895505856
:100C1000BB27AA270ED00DC1FED030F003D120F0A3
:100C200031F49F3F11F41EF4F3C00EF4E095E7FB9E
:100C3000E9C0E92F0FD180F3BA1762077307840761
:100C4000950718F071F49EF527C10EF4E0950B2E70
:100C5000BA2FA02D0B01B90190010C01CA01A0010E
:100C60001124FF27591B99F0593F50F4503E68F169
:100C70001A16F040A22F232F342F4427585FF3CFAA
:100C8000469537952795A795F0405395C9F77EF47B
:100C90001F16BA0B620B730B840BBAF09150A1F0C4
:100CA000FF0FBB1F661F771F881FC2F70EC0BA0F4A
:100CB000621F731F841F48F4879577956795B795D2
:100CC000F7959E3F08F0B3CF9395880F08F09927CA
:100CD000EE0F97958795089571D008F481E00895F7
:100CE00004D06894B111D9C00895BCD088F09F5742
:100CF00090F0B92F9927B751A0F0D1F0660F771F68
:100D0000881F991F1AF0BA95C9F712C0B13081F047
:100D1000C3D0B1E00895C0C0672F782F8827B85F8F
:100D200039F0B93FCCF3869577956795B395D9F7A8
:100D30003EF490958095709561957F4F8F4F9F4FB2
:100D40000895E89409C097FB3EF4909580957095BE
:100D500061957F4F8F4F9F4F9923A9F0F92F96E907
:100D6000BB279395F695879577956795B795F1117C
:100D7000F8CFFAF4BB0F11F460FF1BC06F5F7F4F19
:100D80008F4F9F4F16C0882311F096E911C077232B
:100D900021F09EE8872F762F05C0662371F096E834
:100DA000862F70E060E02AF09A95660F771F881F03
:100DB000DAF7880F9695879597F90895990F0008A7
:100DC000550FAA0BE0E8FEEF16161706E807F9071D
:100DD000C0F012161306E407F50798F0621B730BB8
:100DE000840B950B39F40A2661F0232B242B252B39
:100DF00021F408950A2609F4A140A6958FEF811DDC
:100E0000811D089597F99F6780E870E060E008957C
:100E10009FEF80EC089500240A9416161706180612
:100E20000906089500240A941216130614060506EE
:100E30000895092E0394000C11F4882352F0BB0F7F
:100E400040F4BF2B11F460FF04C06F5F7F4F8F4FE2
:100E50009F4F089557FD9058440F551F59F05F3F1D
:100E600071F04795880F97FB991F61F09F3F79F0CC
:100E700087950895121613061406551FF2CF46954E
:100E8000F1DF08C0161617061806991FF1CF8695D0
:100E90007105610508940895E894BB2766277727B4
:100EA000CB0197F908958ADF08F48FEF08950BD0EE
:100EB000C0CFB1DF28F0B6DF18F0952309F0A2CF3C
:100EC000A7CF1124EACFC6DFA0F3959FD1F3950FEA
:100ED00050E0551F629FF001729FBB27F00DB11DBE
:100EE000639FAA27F00DB11DAA1F649F6627B00D4E
:100EF000A11D661F829F2227B00DA11D621F739F37
:100F0000B00DA11D621F839FA00D611D221F749F44
:100F10003327A00D611D231F849F600D211D822F8B
:100F2000762F6A2F11249F5750408AF0E1F08823D2
:100F30004AF0EE0FFF1FBB1F661F771F881F9150DF
:100F40005040A9F79E3F510570F05CCFA6CF5F3FA0
:100F5000ECF3983EDCF3869577956795B795F79512
:100F6000E7959F5FC1F7FE2B880F911D969587959A
:100F700097F908951F93FC0199278827BC01E894ED
:100F800011911032E9F3193010F01E30C8F31B3202
:100F900049F01D3241F4689405C027D0610F711DDE
:100FA000811D911D119110531A30B8F33EF49095A4
:100FB0008095709561957F4F8F4F9F4F1F9108953A
:100FC000FB01DC010D900020E9F7119701900D92D3
:100FD0000020E1F70895BB274A3031F4992322F429
:100FE000BDE2909581959F4F16C0592F482F372FFE
:100FF000262F660F771F881F991F660F771F881F80
:10100000991F620F731F841F951F660F771F881F1C
:10101000991F0895BB27FB015527AA27880F991F01
:10102000AA1FA41710F0A41B83955051B9F7A05D17
:10103000AA3308F0A95DA193009779F7B111B19394
:101040001192CB0100C0DC01FC01672F7191772365
:10105000E1F7329704C07C916D9370836291AE1773
:10106000BF07C8F30895A6E1B0E044E050E00AC02D
:10107000242F17D0252F15D000C012D0272F11C034
:10108000DC01CB01FC01E199FECF06C0FFBBEEBB4A
:10109000E09A31960DB20D9241505040B8F7089544
:1010A000262FE199FECF9FBB8EBB2DBB0FB6F894C8
:0E10B000E29AE19A0FBE01960895F894FFCFE0
:1010BE00FEFDFBF70254203D200000000000000062
:1010CE00000000000000436F64653A00556E6C6FBF
:1010DE00636B6564002A3A4368616E67652D004351
:1010EE0068616E676564004D696E2E2035206E75E1
:0610FE006D626572000046
:00000001FF
