:1000000012C02CC02BC02AC029C028C027C026C0BF
:1000100025C024C023C022C021C020C01FC01EC0D4
:100020001DC01CC01BC011241FBECFE5D4E0DEBF25
:10003000CDBF10E0A0E6B0E0E6E2F7E102C0059037
:100040000D92AA39B107D9F720E0AAE9B0E001C0C2
:100050001D92AB39B207E1F736D163CBD1CFE0E6E1
:10006000F0E021E080E0919192BB9AE19A95F1F75E
:1000700000C090B3907F903E71F090B3907F903D20
:1000800019F481E0820F08C090B3907F903B21F477
:1000900082E0820F01C0822F2D5F2D3021F708955D
:1000A000CF92DF92EF92FF92CF93DF93EC016A0140
:1000B0007B01CB01BA01E8D89B01772324F42227E6
:1000C0003327261B370B39832883072E000C880B18
:1000D000990B0DD99B01AC01C701B6016CD820E08A
:1000E00030E040E251E4B3D9CFD89B01772324F428
:1000F00022273327261B370B3B832A83DF91CF919F
:10010000FF90EF90DF90CF900895CF92DF92EF9223
:10011000FF920F931F93CF93DF93C22ED32EE42E23
:10012000F52E062F172FD82FC92FB4D684E458D612
:100130002FE78FE492E1215080409040E1F700C02A
:1001400000002C2D3D2D4E2D5F2D602F712F8D2FFA
:100150009C2FA0D68EEB44D68CD6C82F8AD6682F7B
:1001600070E0762F66276C0F711D072E000C880B30
:10017000990BBDD820E030E040E85DE368D9DF911D
:10018000CF911F910F91FF90EF90DF90CF90089546
:1001900094B3936094BB94B39C6394BB662311F0B7
:1001A000A89A01C0A898A99A95B3937C95BB83FDA2
:1001B000AD9A82FDAC9A81FDAB9A80FDAA9A8DE042
:1001C0008A95F1F70000A9980895CF93DF93C82F7F
:1001D000D62F82958F70DCDF6D2F8C2FD9DFDF91CA
:1001E000CF9108958FEC97E00197F1F700C00000E0
:1001F00060E082E0CDDF8FEC97E00197F1F700C07F
:10020000000060E088E2E1DF8FEC97E00197F1F712
:1002100000C0000060E081E0D8DF8FEC97E001973C
:10022000F1F700C0000060E086E0CFDF8FEC97E0E0
:100230000197F1F700C0000060E08CE0C6DF089590
:10024000EFECF7E03197F1F700C0000060E08C6060
:10025000BCDF0895EFECF7E03197F1F700C0000044
:1002600060E08860B2DF08958FEC97E00197F1F7C6
:1002700000C0000060E081E0A8DF0895EFECF7E047
:100280003197F1F700C00000F0E48F9F600D11245A
:10029000862F60E0806899DF0895CF93DF93FC019B
:1002A0002081222369F0EC018FEC97E00197F1F7B0
:1002B00000C0000061E0899188DF88818111F4CF5E
:1002C000DF91CF910895CF93DF93CDB7DEB7C055BF
:1002D000D1090FB6F894DEBF0FBECDBF81B38F60DA
:1002E00081BB8F9880EF82BB2AE12A95F1F700C08D
:1002F000B99ABB9ABC9ABD9ABE9AE199FECF80E0AA
:1003000090E0E5D99B01AC012F5F3F4F4F4F5F4F0E
:100310002B962CAF3DAF4EAF5FAF2B972F303742B0
:100320004105510531F42B961CAE1DAE1EAE1FAE1D
:100330002B97E199FECF2B964CAD5DAD6EAD7FADA9
:100340002B9780E090E0C8D9E199FECF84E090E05F
:10035000BED923966CAF7DAF8EAF9FAF2397633628
:1003600071058105910531F423961CAE1DAE1EAEBC
:100370001FAE23971A821982FE01339684E0DF01B3
:100380001D928A95E9F718861F828EE03696DF0166
:10039000282F1D922A95E9F7188E1F8A7096DF0183
:1003A0001D928A95E9F718A61FA21AA619A61CA6DF
:1003B0001BA625961FAE1EAE2597412C512C789773
:1003C0003F019E01295F3F4F38AF2FABAE01495E21
:1003D0005F4F5AAF49AF5FA95BAF88AD8CAF99ADA6
:1003E0009DAFAAADAEAF2E2E372CB39903C015C06A
:1003F000B39B05C0B399FCCF83E490E002C083E4D3
:1004000090E0C39AC59AEFE5FAEE3197F1F700C094
:1004100000000197B1F7C398C5984114510409F041
:10042000DFC3C49A82E290E0AFE5BAEE1197F1F72C
:1004300000C000000197C1F72596EEADFFAD2597EE
:10044000EF2B09F002C22DB73EB72D963FAF2EAF6E
:100450002D97C8DE8FE19EE40197F1F700C0000000
:1004600080E0EEDEAFE1BEE41197F1F700C00000DE
:1004700084E0F0DEEFE1FEE43197F1F700C0000028
:1004800088E08EAB2DB73EB7205431090FB6F894F3
:100490003EBF0FBE2DBF0DB71EB70F5F1F4F2E966D
:1004A0000FAF2E972F961FAF2F972AE0AE01495D11
:1004B0005F4F2B966CAD7DAD8EAD9FAD2B97BDD8AC
:1004C000C12CD12C6894882485F8912C0F2EFDE244
:1004D000AF2EB12CF02D61967FAE6EAE6197BFDD71
:1004E0008A3009F042C0BBDD8A30E9F323968CAD37
:1004F0009DADAEADBFAD2397892B8A2B8B2B09F415
:1005000084C3E199FECF40E050E0BA0184E090E07E
:10051000E3D8AADEAFE1BEE41197F1F700C0000016
:1005200060E080E0ABDE84E690E0B7DE65E080E08E
:10053000A5DE88E690E0B1DE6EE080E09FDE8EE62C
:1005400090E0ABDE60E081E099DECE018796A5DE2B
:1005500065E081E093DE81E790E09FDE23961CAEAC
:100560001DAE1EAE1FAE239748C060E080E086DE61
:1005700084E690E092DE65E080E080DE88E690E050
:100580008CDE6EE080E07ADE8EE690E086DE60E073
:1005900081E074DECE01879680DE65E081E06EDE6C
:1005A00081E790E07ADE23962CAD3DAD4EAD5FAD98
:1005B0002397232B242B252B01F123964CAD5DADE6
:1005C0006EAD7FAD23974F5F5F4F6F4F7F4FE199C8
:1005D000FECF84E090E080D82AE0AE01455D5F4F19
:1005E00023966CAD7DAD8EAD9FAD239726D86EE082
:1005F00081E044DECE018B9650DE7C2CC11048C0D9
:1006000082E033D3BE016A5C7F4F2E968FAD2E976A
:100610002F969FAD2F975BD53FE748E351E03150D0
:1006200040405040E1F700C00000D8012C911196E5
:100630003C91119712964C91129713965C911397D7
:1006400014966C91149715967C91159716968C912B
:10065000169717969C9159DD27966CAF7DAF8EAF9C
:100660009FAF27974AE0BE01635D7F4FC601C6D7A3
:1006700027964CAD5DAD6EAD7FAD2797CE01C2968E
:100680000FDDEAA8FBA8E114F10409F4E8C22DC0CB
:10069000F801208131814281538164817581868195
:1006A000978133DD27966CAF7DAF8EAF9FAF2797D5
:1006B0004AE0BE01635D7F4FC601A0D727964CADCF
:1006C0005DAD6EAD7FAD2797CE01C296E9DCEAA89D
:1006D000FBA8E114F10429F48CA99DA9892B09F444
:1006E00097C0F1E0F71508F443C020E030E0A9011D
:1006F00027966CAD7DAD8EAD9FAD2797C1D5882374
:1007000044F4EFA9F8AD01900020E9F73197B182E8
:10071000A0824AE0BE01635D7F4FC7016FD7BE0173
:10072000635D7F4F8BAD9CAD5ED7EFA9F8AD0190B7
:100730000020E9F731972EE230E0318320834AE050
:10074000BE01635D7F4F8CA99DA958D7BE01635D33
:100750007F4F8BAD9CAD47D7EFA9F8AD019000203E
:10076000E9F7319747E253E45183408393828282D1
:1007700052E0751244C020E030E0A90127966CAD2C
:100780007DAD8EAD9FAD27977BD5882344F4E9AD31
:10079000FAAD01900020E9F73197B182A0824AE0DA
:1007A000BE01635D7F4F8AA99BA928D7BE01635D07
:1007B0007F4F8DAD9EAD17D7E9ADFAAD019000200A
:1007C000E9F731978EE290E0918380834AE0BE01A1
:1007D000635D7F4F8CA99DA911D7BE01635D7F4FDB
:1007E0008DAD9EAD00D7E9ADFAAD01900020E9F7DF
:1007F0003197A7E2B3E4B183A08393828282BFE7FB
:10080000E8E3F1E0B150E040F040E1F700C0000063
:100810002FEFC21AD20A085F1F4F33E0C316D1046C
:1008200009F05DCE61966EAC7FAC61972D964EADB2
:100830005FAD2D970FB6F8945EBF0FBE4DBF81E040
:1008400090E025969FAF8EAF259786E0D3011D924D
:100850008A95E9F709DDEFE5FAEE3197F1F700C087
:1008600000000F2EF0EACF2EFFE0DF2EF02DEE2459
:10087000EA94FE2CB39903C027C0B39B02C0B3997E
:10088000FCCFF2DC8FE59AEE0197F1F700C0000093
:100890000EE411E064E081E0F1DC88E790E0FDDC4B
:1008A000C39AC59AAFE5BAEE1197F1F700C0000000
:1008B0000150110979F7C398C598D6DCEFE5FAEE37
:1008C0003197F1F700C0000060E080E0D7DC8BAD2D
:1008D0009CADE3DC60E081E0D1DC8DAD9EADDDDC84
:1008E00067E081E0CBDC81E890E0D7DC822D932DBE
:1008F00054D64B015C0168E081E0C0DC822D932D71
:10090000CCDCFFEFEF16FF0639F468E081E0B6DCDF
:1009100083E890E0C2DC2AC0E114F10439F469E014
:1009200081E0ACDC84E890E0B8DC20C021E0E21695
:10093000F10439F46AE081E0A1DC85E890E0ADDC07
:1009400015C032E0E316F10439F46BE081E096DC87
:1009500086E890E0A2DC0AC043E0E416F10431F43A
:100960006CE081E08BDC87E890E097DC6DE081E073
:1009700085DC89E890E091DC8981882341F0FE01E3
:10098000329601E010E08191811199C002C000E02F
:1009900010E065DB8B3061F462DB8B30E9F3F3014F
:1009A000E00FF11F50E350838FEFE81AF80A8DC073
:1009B00056DB813061F453DB8130E9F3F301E00F62
:1009C000F11F91E39083AFEFEA1AFA0A7EC047DB8A
:1009D000823061F444DB8230E9F3F301E00FF11F70
:1009E000B2E3B083EFEFEE1AFE0A6FC038DB83305C
:1009F00061F435DB8330E9F3F301E00FF11F23E30A
:100A000020833FEFE31AF30A60C029DB843061F4EE
:100A100026DB8430E9F3F301E00FF11F44E3408368
:100A20005FEFE51AF50A51C01ADB853061F417DB78
:100A30008530E9F3F301E00FF11F85E380839FEF39
:100A4000E91AF90A42C00BDB863061F408DB863014
:100A5000E9F3F301E00FF11FA6E3A083BFEFEB1A68
:100A6000FB0A33C0FCDA873061F4F9DA8730E9F346
:100A7000F301E00FF11F27E320833FEFE31AF30AAE
:100A800024C0EDDA883061F4EADA8830E9F3F30162
:100A9000E00FF11F48E340835FEFE51AF50A15C048
:100AA000DEDA893091F4DBDA8930E9F3F301E00F23
:100AB000F11F89E380839FEFE91AF90A06C00F5FEF
:100AC0001F4F0530110509F05ECFC9DA8A3009F0F1
:100AD00058C0C5DA8A30E9F3A1E04A1A51088D817D
:100AE000882371F10CE010E0E199FECFC801EFD549
:100AF00086169706A806B906E9F4B6DBEFE5FAEE26
:100B00003197F1F700C000000EE411E064E081E0ED
:100B1000B5DB88E790E0C1DBC39AC59A8FE59AEE12
:100B20000197F1F700C000000150110979F7C3984F
:100B3000C59867C00C5F1F4F04381105A9F661C046
:100B400093DBAFE5BAEE1197F1F700C0000005E6C0
:100B500010E061E081E092DB8BE890E09EDBC69ADA
:100B6000EFE5FAEE3197F1F700C0000001501109EE
:100B700081F7C69879DB8FE59AEE0197F1F700C00F
:100B800000006DDA8C3001F56ADA8C30E9F3F3019C
:100B9000EE0DFF1D108291E0E91AF108C69AAFE54B
:100BA000BAEE1197F1F700C00000C69AEFE5FAEE31
:100BB0003197F1F700C00000C69856DB8FE59AEE3A
:100BC0000197F1F700C00000AFE1BEE41197F1F723
:100BD00000C00000B1E0CB1AD10809F04BCE11C023
:100BE0001414150474F4C498EFE5FAEE3197F1F794
:100BF00000C00000F4E64F16510419F44424439455
:100C0000512C2FEF421A520AF0CB60E080E036DB25
:100C100084E690E042DB65E080E030DB88E690E04F
:100C20003CDB6EE080E02ADB8EE690E036DB60E0C5
:100C300081E024DBCE01879630DB65E081E01EDBBE
:100C400081E790E02ADB31E03FAF21961FAE21978C
:100C500022961FAE229723961FAE2397AECC8CA967
:100C60009DA9892B09F4D4CD40CD80939A0048B337
:100C700021E030E0B90102C0660F771F8A95E2F7E4
:100C8000CB01842B88BB87B300909A0002C0220F4F
:100C9000331F0A94E2F7282B27BB089598B321E06D
:100CA00030E0A90100909A0002C0440F551F0A9439
:100CB000E2F7842F8095892388BB47B3C901009050
:100CC0009A0002C0880F991F0A94E2F7842B87BB11
:100CD0008FEB93E00197F1F700C0000097B3A901F3
:100CE00000909A0002C0440F551F0A94E2F7842F27
:100CF0008095892387BB90EA9A95F1F786B3009097
:100D00009A0002C0220F331F0A94E2F78223E3E322
:100D1000F3E03197F1F700C00000089580FF30C084
:100D2000F89438B381E090E0AC0100909A0002C0E2
:100D3000440F551F0A94E2F7242F2095232328BB44
:100D400047B39C0100909A0002C0220F331F0A94FF
:100D5000E2F7242B27BB2AE12A95F1F700C078940B
:100D600027B300909A0002C0880F991F0A94E2F7F7
:100D70008095822387BB82E98A95F1F700C00895A8
:100D8000F89438B381E090E0AC0100909A0002C082
:100D9000440F551F0A94E2F7242F2095232328BBE4
:100DA00047B39C0100909A0002C0220F331F0A949F
:100DB000E2F7242B27BB2DEA2A95F1F7000027B391
:100DC00000909A0002C0880F991F0A94E2F780955C
:100DD000822387BB78948DE08A95F1F7000008950F
:100DE000CF93DF93D82FC8E08D2F817097DFD695F2
:100DF000C150D1F7DF91CF910895F89438B381E0D5
:100E000090E0AC0100909A0002C0440F551F0A9474
:100E1000E2F7242F2095232328BB47B39C010090A1
:100E20009A0002C0220F331F0A94E2F7242B27BB3B
:100E300028E02A95F1F727B300909A0002C0880FA6
:100E4000991F0A94E2F78095822387BB8AE18A95ED
:100E5000F1F700C086B390E000909A0002C095952B
:100E600087950A94E2F78170789498E79A95F1F75C
:100E70000895CF93DF93D8E0C0E0BFDF20E8829FE2
:100E8000C0011124C695C82BD150B9F78C2FDF9122
:100E9000CF910895BF92CF92DF92EF92FF920F937E
:100EA0001F93CF93DF93C22FE32EF42E052F162F1F
:100EB000D72FB82EC92EF2DE85E592DF6894DD24A7
:100EC000D6F88C2F81702ADF2C2F3E2D4F2D502FDE
:100ED000612F7D2F8B2D9C2D01E037D3C22FE32E68
:100EE000F42E052F162FD72FB82EC92EDA94D11035
:100EF000E8CFDF91CF911F910F91FF90EF90DF909E
:100F0000CF90BF9008959F92AF92BF92CF92DF9201
:100F1000EF92FF920F931F93CF93DF93922EA32E06
:100F2000B42EC52ED62EE72EF82E192FD02FA0E0E6
:100F3000B0E0F0E0E0E0CCE8292D3A2D4B2D5C2D1F
:100F40006D2D7E2D8F2D912F0A2FFFD288E090E0FE
:100F5000322F3E27E695269530FDEC270197C1F705
:100F6000FF5F1896FD1740F38E2FDF91CF911F91F1
:100F70000F91FF90EF90DF90CF90BF90AF909F9038
:100F800008952F923F924F925F926F927F928F922D
:100F90009F92AF92BF92CF92DF92EF92FF920F9308
:100FA0001F93CF93DF93CDB7DEB729970FB6F89491
:100FB000DEBF0FBECDBF29833A834B835C836D8335
:100FC0007E83382E9F83580169DE80EF09DFE12C94
:100FD000F12C412C81E0512C612C712C812C912C15
:100FE000C12CD12C10E022242394898706DF888726
:100FF00004DF9885913019F4813001F547C0E88508
:10100000E1111CC081111AC0F5018081F9858F178B
:1010100081F08F1780F029813A814B815C816D814D
:101020007E81832D9F810E2D90D220FD06C04F2EF4
:1010300005C0288603C0498401C02886288530E081
:1010400040E050E060E070E080E090E00E2D62D281
:10105000522A632A742A852A962AC72AD82A192B43
:1010600088855CDE89858F5F89879FEFE91AF90A99
:10107000813409F0BBCFF5014082252D362D472D57
:10108000582D692D7C2D8D2D912F08C021E030E049
:1010900040E050E060E070E080E090E029960FB61C
:1010A000F894DEBF0FBECDBFDF91CF911F910F919E
:1010B000FF90EF90DF90CF90BF90AF909F908F9078
:1010C0007F906F905F904F903F902F9008952F9258
:1010D0003F924F925F926F927F928F929F92AF92C8
:1010E000BF92CF92DF92EF92FF920F931F93CF9315
:1010F000DF931F92CDB7DEB74C015B011982312C13
:10110000212C412C512C612C712CC12CD12CE12C87
:10111000F12C01C0212C8E010F5F1F4F242D352D86
:10112000462D572D6C2D7D2D8E2D9F2D2ADF422E85
:10113000532E642E752EC62ED72EE82EF92EA1E042
:1011400020D2B1F008E0DFDE811110C0F40188E0A8
:10115000389EE00DF11D112440825182628273821B
:10116000C482D582E682F782339408C0239401C0FA
:101170002394E3E0E21558F02110CDCF8981882334
:1011800021F0F5018081381628F2F50130820F90A8
:10119000DF91CF911F910F91FF90EF90DF90CF9053
:1011A000BF90AF909F908F907F906F905F904F9087
:1011B0003F902F9008955058BB27AA270ED00DC1FD
:1011C000FED030F003D120F031F49F3F11F41EF433
:1011D000F3C00EF4E095E7FBE9C0E92F0FD180F3EF
:1011E000BA17620773078407950718F071F49EF524
:1011F00027C10EF4E0950B2EBA2FA02D0B01B901DB
:1012000090010C01CA01A0011124FF27591B99F07C
:10121000593F50F4503E68F11A16F040A22F232F88
:10122000342F4427585FF3CF469537952795A795D8
:10123000F0405395C9F77EF41F16BA0B620B730B7F
:10124000840BBAF09150A1F0FF0FBB1F661F771FF0
:10125000881FC2F70EC0BA0F621F731F841F48F4A5
:10126000879577956795B795F7959E3F08F0B3CF2B
:101270009395880F08F09927EE0F97958795089515
:1012800071D008F481E0089504D06894B111D9C0F8
:101290000895BCD088F09F5790F0B92F9927B75187
:1012A000A0F0D1F0660F771F881F991F1AF0BA952A
:1012B000C9F712C0B13081F0C3D0B1E00895C0C009
:1012C000672F782F8827B85F39F0B93FCCF3869520
:1012D00077956795B395D9F73EF49095809570957D
:1012E00061957F4F8F4F9F4F0895E89409C097FBFA
:1012F0003EF490958095709561957F4F8F4F9F4FED
:101300009923A9F0F92F96E9BB279395F695879530
:1013100077956795B795F111F8CFFAF4BB0F11F4F3
:1013200060FF1BC06F5F7F4F8F4F9F4F16C088239A
:1013300011F096E911C0772321F09EE8872F762FD0
:1013400005C0662371F096E8862F70E060E02AF011
:101350009A95660F771F881FDAF7880F96958795FD
:1013600097F90895990F0008550FAA0BE0E8FEEFD2
:1013700016161706E807F907C0F012161306E40759
:10138000F50798F0621B730B840B950B39F40A2652
:1013900061F0232B242B252B21F408950A2609F430
:1013A000A140A6958FEF811D811D089597F99F6734
:1013B00080E870E060E008959FEF80EC08950024DD
:1013C0000A941616170618060906089500240A94AA
:1013D00012161306140605060895092E0394000C30
:1013E00011F4882352F0BB0F40F4BF2B11F460FFBF
:1013F00004C06F5F7F4F8F4F9F4F089557FD9058E8
:10140000440F551F59F05F3F71F04795880F97FBC8
:10141000991F61F09F3F79F0879508951216130682
:101420001406551FF2CF4695F1DF08C016161706B1
:101430001806991FF1CF86957105610508940895E6
:10144000E894BB2766277727CB0197F908950BD03F
:10145000C4CFB5DF28F0BADF18F0952309F0A6CF86
:10146000ABCF1124EECFCADFA0F3959FD1F3950F38
:1014700050E0551F629FF001729FBB27F00DB11D18
:10148000639FAA27F00DB11DAA1F649F6627B00DA8
:10149000A11D661F829F2227B00DA11D621F739F91
:1014A000B00DA11D621F839FA00D611D221F749F9F
:1014B0003327A00D611D231F849F600D211D822FE6
:1014C000762F6A2F11249F5750408AF0E1F088232D
:1014D0004AF0EE0FFF1FBB1F661F771F881F91503A
:1014E0005040A9F79E3F510570F060CFAACF5F3FF3
:1014F000ECF3983EDCF3869577956795B795F7956D
:10150000E7959F5FC1F7FE2B880F911D96958795F4
:1015100097F908950F93083090F0982F872F762F22
:10152000652F542F432F322F22270850F4CF220F3C
:10153000331F441F551F661F771F881F991F0A9569
:10154000B2F70F91089597FB10F8169400080F93C7
:10155000083098F00850232F342F452F562F672F2F
:10156000782F892F902DF4CF0594979587957795AF
:10157000679557954795379527950A95AAF70F913F
:1015800008950024A7FD00942A1730054005500552
:10159000600570058005900508951F93FC0199274B
:1015A0008827BC01E89411911032E9F3193010F04A
:1015B0001E30C8F31B3249F01D3241F4689405C057
:1015C00027D0610F711D811D911D119110531A308B
:1015D000B8F33EF490958095709561957F4F8F4F4D
:1015E0009F4F1F910895FB01DC010D900020E9F74A
:1015F000119701900D920020E1F70895BB274A3022
:1016000031F4992322F4BDE2909581959F4F37C024
:10161000592F482F372F262F660F771F881F991FA6
:10162000660F771F881F991F620F731F841F951FF6
:10163000660F771F881F991F0895BB27FA01A62FF1
:101640006217710581059105330B30FB66F0AA27FF
:10165000660F771F881F991FAA1FA21710F0A21BE1
:1016600063953850A9F7A05DAA3308F0A95DA1934E
:1016700036F7B111B1931082CA0119C0BB27FB0123
:101680005527AA27880F991FAA1FA41710F0A41B7B
:1016900083955051B9F7A05DAA3308F0A95DA193D5
:1016A000009779F7B111B1931192CB0100C0DC0121
:1016B000FC01672F71917723E1F7329704C07C9189
:1016C0006D9370836291AE17BF07C8F30895A6E1CA
:1016D000B0E044E050E00AC0242F17D0252F15D0E9
:1016E00000C012D0272F11C0DC01CB01FC01E19911
:1016F000FECF06C0FFBBEEBBE09A31960DB20D9255
:1017000041505040B8F70895262FE199FECF9FBB76
:101710008EBB2DBB0FB6F894E29AE19A0FBE0196EC
:061720000895F894FFCFCC
:10172600FEFDFBF74E6F2E00285E2D5E29002A3A3D
:101736000048656C6C6F2100556E6C6F636B656459
:10174600005B002E2E2E2E2E005D004D696E2E2083
:0A17560035206E756D6265720000AB
:00000001FF
